{
  "address": "0x32bc8B89184B7FdABa384596784921342A6B2CCA",
  "abi": [
    {
      "inputs": [
        {
          "internalType": "address",
          "name": "_owner",
          "type": "address"
        },
        {
          "internalType": "address",
          "name": "_utils",
          "type": "address"
        }
      ],
      "stateMutability": "nonpayable",
      "type": "constructor"
    },
    {
      "inputs": [],
      "name": "AlreadyRefunded",
      "type": "error"
    },
    {
      "inputs": [],
      "name": "InvalidSignatureLength",
      "type": "error"
    },
    {
      "inputs": [],
      "name": "InvalidStatus",
      "type": "error"
    },
    {
      "inputs": [],
      "name": "ItemNotListed",
      "type": "error"
    },
    {
      "inputs": [],
      "name": "ItemSoldOut",
      "type": "error"
    },
    {
      "inputs": [],
      "name": "NoBuyers",
      "type": "error"
    },
    {
      "inputs": [],
      "name": "NoLongerOnSale",
      "type": "error"
    },
    {
      "inputs": [],
      "name": "NoSales",
      "type": "error"
    },
    {
      "inputs": [],
      "name": "Not20PercentOfListing",
      "type": "error"
    },
    {
      "inputs": [],
      "name": "NotAskingPrice",
      "type": "error"
    },
    {
      "inputs": [],
      "name": "NotDisputed",
      "type": "error"
    },
    {
      "inputs": [],
      "name": "NotEnoughItemsForSale",
      "type": "error"
    },
    {
      "inputs": [],
      "name": "NotEnoughTokensForListing",
      "type": "error"
    },
    {
      "inputs": [],
      "name": "NotOriginalSeller",
      "type": "error"
    },
    {
      "inputs": [],
      "name": "NotOwner",
      "type": "error"
    },
    {
      "inputs": [],
      "name": "SellerOnlyFunction",
      "type": "error"
    },
    {
      "anonymous": false,
      "inputs": [
        {
          "indexed": true,
          "internalType": "uint256",
          "name": "itemId",
          "type": "uint256"
        },
        {
          "indexed": true,
          "internalType": "address",
          "name": "nftContract",
          "type": "address"
        },
        {
          "indexed": true,
          "internalType": "uint256",
          "name": "tokenId",
          "type": "uint256"
        },
        {
          "indexed": false,
          "internalType": "string",
          "name": "name",
          "type": "string"
        },
        {
          "indexed": false,
          "internalType": "address",
          "name": "seller",
          "type": "address"
        },
        {
          "indexed": false,
          "internalType": "address",
          "name": "owner",
          "type": "address"
        },
        {
          "indexed": false,
          "internalType": "uint256",
          "name": "price",
          "type": "uint256"
        },
        {
          "indexed": false,
          "internalType": "uint256",
          "name": "amount",
          "type": "uint256"
        },
        {
          "indexed": false,
          "internalType": "uint256",
          "name": "initialQuantity",
          "type": "uint256"
        },
        {
          "indexed": false,
          "internalType": "uint256",
          "name": "totalSales",
          "type": "uint256"
        },
        {
          "indexed": false,
          "internalType": "uint8",
          "name": "status",
          "type": "uint8"
        },
        {
          "indexed": false,
          "internalType": "uint256",
          "name": "finalCommision",
          "type": "uint256"
        }
      ],
      "name": "MarketItemCreated",
      "type": "event"
    },
    {
      "inputs": [],
      "name": "_itemIds",
      "outputs": [
        {
          "internalType": "uint256",
          "name": "_value",
          "type": "uint256"
        }
      ],
      "stateMutability": "view",
      "type": "function"
    },
    {
      "inputs": [],
      "name": "_itemsSold",
      "outputs": [
        {
          "internalType": "uint256",
          "name": "_value",
          "type": "uint256"
        }
      ],
      "stateMutability": "view",
      "type": "function"
    },
    {
      "inputs": [
        {
          "internalType": "address",
          "name": "",
          "type": "address"
        },
        {
          "internalType": "uint256",
          "name": "",
          "type": "uint256"
        }
      ],
      "name": "addressToSpending",
      "outputs": [
        {
          "internalType": "uint256",
          "name": "",
          "type": "uint256"
        }
      ],
      "stateMutability": "view",
      "type": "function"
    },
    {
      "inputs": [
        {
          "internalType": "address",
          "name": "nftContract",
          "type": "address"
        },
        {
          "internalType": "uint256",
          "name": "itemId",
          "type": "uint256"
        },
        {
          "internalType": "uint256",
          "name": "amount",
          "type": "uint256"
        },
        {
          "internalType": "bytes",
          "name": "data",
          "type": "bytes"
        }
      ],
      "name": "buyMarketItem",
      "outputs": [],
      "stateMutability": "payable",
      "type": "function"
    },
    {
      "inputs": [
        {
          "internalType": "uint256",
          "name": "_marketItem",
          "type": "uint256"
        },
        {
          "internalType": "uint8",
          "name": "_newStatus",
          "type": "uint8"
        }
      ],
      "name": "changeStatus",
      "outputs": [],
      "stateMutability": "nonpayable",
      "type": "function"
    },
    {
      "inputs": [
        {
          "internalType": "uint256",
          "name": "id",
          "type": "uint256"
        }
      ],
      "name": "checkRemaining",
      "outputs": [
        {
          "internalType": "uint256",
          "name": "",
          "type": "uint256"
        }
      ],
      "stateMutability": "view",
      "type": "function"
    },
    {
      "inputs": [],
      "name": "fetchItemsOnSale",
      "outputs": [
        {
          "components": [
            {
              "internalType": "uint256",
              "name": "itemId",
              "type": "uint256"
            },
            {
              "internalType": "address",
              "name": "nftContract",
              "type": "address"
            },
            {
              "internalType": "uint256",
              "name": "tokenId",
              "type": "uint256"
            },
            {
              "internalType": "string",
              "name": "name",
              "type": "string"
            },
            {
              "internalType": "address payable",
              "name": "seller",
              "type": "address"
            },
            {
              "internalType": "address payable",
              "name": "owner",
              "type": "address"
            },
            {
              "internalType": "uint256",
              "name": "price",
              "type": "uint256"
            },
            {
              "internalType": "uint256",
              "name": "amount",
              "type": "uint256"
            },
            {
              "internalType": "uint256",
              "name": "initialQuantity",
              "type": "uint256"
            },
            {
              "internalType": "uint256",
              "name": "totalSales",
              "type": "uint256"
            },
            {
              "internalType": "uint8",
              "name": "status",
              "type": "uint8"
            },
            {
              "internalType": "uint256",
              "name": "finalCommision",
              "type": "uint256"
            }
          ],
          "internalType": "struct NFTicketsMarket.MarketItem[]",
          "name": "",
          "type": "tuple[]"
        }
      ],
      "stateMutability": "view",
      "type": "function"
    },
    {
      "inputs": [],
      "name": "fetchMyNFTs",
      "outputs": [
        {
          "components": [
            {
              "internalType": "uint256",
              "name": "itemId",
              "type": "uint256"
            },
            {
              "internalType": "address",
              "name": "nftContract",
              "type": "address"
            },
            {
              "internalType": "uint256",
              "name": "tokenId",
              "type": "uint256"
            },
            {
              "internalType": "string",
              "name": "name",
              "type": "string"
            },
            {
              "internalType": "address payable",
              "name": "seller",
              "type": "address"
            },
            {
              "internalType": "address payable",
              "name": "owner",
              "type": "address"
            },
            {
              "internalType": "uint256",
              "name": "price",
              "type": "uint256"
            },
            {
              "internalType": "uint256",
              "name": "amount",
              "type": "uint256"
            },
            {
              "internalType": "uint256",
              "name": "initialQuantity",
              "type": "uint256"
            },
            {
              "internalType": "uint256",
              "name": "totalSales",
              "type": "uint256"
            },
            {
              "internalType": "uint8",
              "name": "status",
              "type": "uint8"
            },
            {
              "internalType": "uint256",
              "name": "finalCommision",
              "type": "uint256"
            }
          ],
          "internalType": "struct NFTicketsMarket.MarketItem[]",
          "name": "",
          "type": "tuple[]"
        }
      ],
      "stateMutability": "view",
      "type": "function"
    },
    {
      "inputs": [
        {
          "internalType": "address",
          "name": "user",
          "type": "address"
        }
      ],
      "name": "fetchUserNFTs",
      "outputs": [
        {
          "components": [
            {
              "internalType": "uint256",
              "name": "itemId",
              "type": "uint256"
            },
            {
              "internalType": "address",
              "name": "nftContract",
              "type": "address"
            },
            {
              "internalType": "uint256",
              "name": "tokenId",
              "type": "uint256"
            },
            {
              "internalType": "uint256",
              "name": "price",
              "type": "uint256"
            },
            {
              "internalType": "uint256",
              "name": "amount",
              "type": "uint256"
            }
          ],
          "internalType": "struct NFTicketsMarket.MyItems[]",
          "name": "",
          "type": "tuple[]"
        }
      ],
      "stateMutability": "view",
      "type": "function"
    },
    {
      "inputs": [
        {
          "internalType": "uint256",
          "name": "marketItemId",
          "type": "uint256"
        }
      ],
      "name": "getMarketItem",
      "outputs": [
        {
          "components": [
            {
              "internalType": "uint256",
              "name": "itemId",
              "type": "uint256"
            },
            {
              "internalType": "address",
              "name": "nftContract",
              "type": "address"
            },
            {
              "internalType": "uint256",
              "name": "tokenId",
              "type": "uint256"
            },
            {
              "internalType": "string",
              "name": "name",
              "type": "string"
            },
            {
              "internalType": "address payable",
              "name": "seller",
              "type": "address"
            },
            {
              "internalType": "address payable",
              "name": "owner",
              "type": "address"
            },
            {
              "internalType": "uint256",
              "name": "price",
              "type": "uint256"
            },
            {
              "internalType": "uint256",
              "name": "amount",
              "type": "uint256"
            },
            {
              "internalType": "uint256",
              "name": "initialQuantity",
              "type": "uint256"
            },
            {
              "internalType": "uint256",
              "name": "totalSales",
              "type": "uint256"
            },
            {
              "internalType": "uint8",
              "name": "status",
              "type": "uint8"
            },
            {
              "internalType": "uint256",
              "name": "finalCommision",
              "type": "uint256"
            }
          ],
          "internalType": "struct NFTicketsMarket.MarketItem",
          "name": "",
          "type": "tuple"
        }
      ],
      "stateMutability": "view",
      "type": "function"
    },
    {
      "inputs": [
        {
          "internalType": "uint256",
          "name": "_itemId",
          "type": "uint256"
        }
      ],
      "name": "getTokenByMarketId",
      "outputs": [
        {
          "internalType": "uint256",
          "name": "",
          "type": "uint256"
        }
      ],
      "stateMutability": "view",
      "type": "function"
    },
    {
      "inputs": [
        {
          "internalType": "uint256",
          "name": "_itemId",
          "type": "uint256"
        }
      ],
      "name": "getTotalSalesByMarketId",
      "outputs": [
        {
          "internalType": "uint256",
          "name": "",
          "type": "uint256"
        }
      ],
      "stateMutability": "view",
      "type": "function"
    },
    {
      "inputs": [
        {
          "internalType": "uint256",
          "name": "_itemId",
          "type": "uint256"
        },
        {
          "internalType": "bytes",
          "name": "_sig",
          "type": "bytes"
        },
        {
          "internalType": "address",
          "name": "nftContract",
          "type": "address"
        }
      ],
      "name": "hostActions",
      "outputs": [
        {
          "internalType": "string",
          "name": "",
          "type": "string"
        }
      ],
      "stateMutability": "view",
      "type": "function"
    },
    {
      "inputs": [
        {
          "internalType": "address",
          "name": "nftContract",
          "type": "address"
        },
        {
          "internalType": "uint256",
          "name": "tokenId",
          "type": "uint256"
        },
        {
          "internalType": "uint256",
          "name": "amount",
          "type": "uint256"
        },
        {
          "internalType": "bytes",
          "name": "data",
          "type": "bytes"
        },
        {
          "internalType": "string",
          "name": "name",
          "type": "string"
        }
      ],
      "name": "listMoreOfMarketItem",
      "outputs": [],
      "stateMutability": "payable",
      "type": "function"
    },
    {
      "inputs": [
        {
          "internalType": "address",
          "name": "nftContract",
          "type": "address"
        },
        {
          "internalType": "uint256",
          "name": "tokenId",
          "type": "uint256"
        },
        {
          "internalType": "uint256",
          "name": "amount",
          "type": "uint256"
        },
        {
          "internalType": "bytes",
          "name": "data",
          "type": "bytes"
        },
        {
          "internalType": "string",
          "name": "name",
          "type": "string"
        }
      ],
      "name": "listNewMarketItem",
      "outputs": [],
      "stateMutability": "payable",
      "type": "function"
    },
    {
      "inputs": [
        {
          "internalType": "address",
          "name": "",
          "type": "address"
        },
        {
          "internalType": "address",
          "name": "",
          "type": "address"
        },
        {
          "internalType": "uint256[]",
          "name": "",
          "type": "uint256[]"
        },
        {
          "internalType": "uint256[]",
          "name": "",
          "type": "uint256[]"
        },
        {
          "internalType": "bytes",
          "name": "",
          "type": "bytes"
        }
      ],
      "name": "onERC1155BatchReceived",
      "outputs": [
        {
          "internalType": "bytes4",
          "name": "",
          "type": "bytes4"
        }
      ],
      "stateMutability": "nonpayable",
      "type": "function"
    },
    {
      "inputs": [
        {
          "internalType": "address",
          "name": "",
          "type": "address"
        },
        {
          "internalType": "address",
          "name": "",
          "type": "address"
        },
        {
          "internalType": "uint256",
          "name": "",
          "type": "uint256"
        },
        {
          "internalType": "uint256",
          "name": "",
          "type": "uint256"
        },
        {
          "internalType": "bytes",
          "name": "",
          "type": "bytes"
        }
      ],
      "name": "onERC1155Received",
      "outputs": [
        {
          "internalType": "bytes4",
          "name": "",
          "type": "bytes4"
        }
      ],
      "stateMutability": "nonpayable",
      "type": "function"
    },
    {
      "inputs": [],
      "name": "paySellers",
      "outputs": [],
      "stateMutability": "payable",
      "type": "function"
    },
    {
      "inputs": [
        {
          "internalType": "uint256",
          "name": "marketItem",
          "type": "uint256"
        }
      ],
      "name": "refundWithPenalty",
      "outputs": [],
      "stateMutability": "nonpayable",
      "type": "function"
    },
    {
      "inputs": [
        {
          "internalType": "uint256",
          "name": "marketItem",
          "type": "uint256"
        }
      ],
      "name": "sellerRefundAll",
      "outputs": [],
      "stateMutability": "nonpayable",
      "type": "function"
    },
    {
      "inputs": [
        {
          "internalType": "uint256",
          "name": "marketItem",
          "type": "uint256"
        },
        {
          "internalType": "address",
          "name": "buyer",
          "type": "address"
        }
      ],
      "name": "sellerRefundOne",
      "outputs": [],
      "stateMutability": "nonpayable",
      "type": "function"
    },
    {
      "inputs": [
        {
          "internalType": "address",
          "name": "",
          "type": "address"
        },
        {
          "internalType": "uint256",
          "name": "",
          "type": "uint256"
        }
      ],
      "name": "sellerToDepositPerItem",
      "outputs": [
        {
          "internalType": "uint256",
          "name": "",
          "type": "uint256"
        }
      ],
      "stateMutability": "view",
      "type": "function"
    },
    {
      "inputs": [
        {
          "internalType": "bytes4",
          "name": "interfaceId",
          "type": "bytes4"
        }
      ],
      "name": "supportsInterface",
      "outputs": [
        {
          "internalType": "bool",
          "name": "",
          "type": "bool"
        }
      ],
      "stateMutability": "view",
      "type": "function"
    }
  ],
  "transactionHash": "0x7d5692e02255757505810d42c2f420e21ac39447cca57287b3b9f477741fccef",
  "args": [
    "0x34132eB017C79C5af6CBFedCEeB73fCFeC2cB69D",
    "0xB4a304a7e5275F69E85fD22405430cB26123344f"
  ],
  "numDeployments": 1,
  "solcInputHash": "892026bffa386c632273e04f6d5b875a",
  "bytecode": "0x60a06040523480156200001157600080fd5b5060405162003f9338038062003f9383398101604081905262000034916200009c565b60016000556001600160a01b03918216608052600380546001600160a01b03191691909216179055620000df565b60006001600160a01b0382165b92915050565b620000808162000062565b81146200008c57600080fd5b50565b80516200006f8162000075565b60008060408385031215620000b457620000b4600080fd5b6000620000c285856200008f565b9250506020620000d5858286016200008f565b9150509250929050565b608051613e7c6200011760003960008181610f12015281816111ee015281816119a30152818161200e01526124870152613e7c6000f3fe6080604052600436106101405760003560e01c8063a64fc3fa116100b6578063c76e080a1161006f578063c76e080a1461038c578063c7be7a49146103bc578063db7ee6e9146103e9578063f23a6e61146103fc578063f3b3100714610428578063fb59a2481461044857600080fd5b8063a64fc3fa146102e2578063ab15f9d5146102f7578063b2bf04a31461030a578063bc197c8114610312578063bd68b1171461033f578063c5a8a2ab1461036c57600080fd5b806334a7f1931161010857806334a7f1931461020f578063603fc0ee14610226578063626f1bb5146102465780636bbd513c146102665780638396f1591461029e57806387506a0d146102cb57600080fd5b806301ffc9a714610145578063135e175c1461017b578063202e3740146101a857806329ec26e8146101ca5780632c58c1f9146101fa575b600080fd5b34801561015157600080fd5b50610165610160366004613194565b610480565b60405161017291906131c7565b60405180910390f35b34801561018757600080fd5b5061019b6101963660046131e6565b6104b7565b604051610172919061320d565b3480156101b457600080fd5b506101bd6104da565b604051610172919061340f565b3480156101d657600080fd5b5061019b6101e53660046131e6565b60009081526004602052604090206002015490565b61020d610208366004613525565b610775565b005b34801561021b57600080fd5b5060015461019b9081565b34801561023257600080fd5b5061020d6102413660046131e6565b610cba565b34801561025257600080fd5b5061020d6102613660046131e6565b610f07565b34801561027257600080fd5b5061019b6102813660046135d1565b600760209081526000928352604080842090915290825290205481565b3480156102aa57600080fd5b506102be6102b936600461360e565b61130f565b6040516101729190613678565b3480156102d757600080fd5b5060025461019b9081565b3480156102ee57600080fd5b506101bd6113f3565b61020d610305366004613689565b611707565b61020d611998565b34801561031e57600080fd5b5061033261032d3660046137a9565b6120a7565b6040516101729190613847565b34801561034b57600080fd5b5061035f61035a366004613855565b6120b9565b6040516101729190613930565b34801561037857600080fd5b5061020d610387366004613955565b61247c565b34801561039857600080fd5b5061019b6103a73660046131e6565b60009081526004602052604090206007015490565b3480156103c857600080fd5b506103dc6103d73660046131e6565b61250e565b6040516101729190613988565b61020d6103f7366004613525565b612657565b34801561040857600080fd5b50610332610417366004613999565b63f23a6e6160e01b95945050505050565b34801561043457600080fd5b5061020d6104433660046139f3565b612b3d565b34801561045457600080fd5b5061019b6104633660046135d1565b600660209081526000928352604080842090915290825290205481565b60006001600160e01b03198216630271189760e51b14806104b157506301ffc9a760e01b6001600160e01b03198316145b92915050565b600081815260046020526040812060078101546008909101546104b19190613a3c565b606060006104e760015490565b905060008060005b83811015610549573360046000610507846001613a53565b81526020810191909152604001600020600501546001600160a01b03160361053757610534600184613a53565b92505b8061054181613a6b565b9150506104ef565b506000826001600160401b0381111561056457610564613434565b60405190808252806020026020018201604052801561059d57816020015b61058a613057565b8152602001906001900390816105825790505b50905060005b8481101561076c5733600460006105bb846001613a53565b81526020810191909152604001600020600501546001600160a01b03160361075a5760006105ea826001613a53565b6000818152600460209081526040918290208251610180810184528154815260018201546001600160a01b03169281019290925260028101549282019290925260038201805493945091929091839160608401919061064890613a9b565b80601f016020809104026020016040519081016040528092919081815260200182805461067490613a9b565b80156106c15780601f10610696576101008083540402835291602001916106c1565b820191906000526020600020905b8154815290600101906020018083116106a457829003601f168201915b505050918352505060048201546001600160a01b03908116602083015260058301541660408201526006820154606082015260078201546080820152600882015460a0820152600982015460c0820152600a82015460ff1660e0820152600b9091015461010090910152845185908790811061073f5761073f613ac7565b6020908102919091010152610755600186613a53565b945050505b8061076481613a6b565b9150506105a3565b50949350505050565b6002600054036107a05760405162461bcd60e51b815260040161079790613b14565b60405180910390fd5b600260009081556107b18686612c2f565b116107cf5760405163d46afe9f60e01b815260040160405180910390fd5b600460006107dd8787612c2f565b81526020019081526020016000206007015460000361080e576040516254585f60e71b815260040160405180910390fd5b6004600061081c8787612c2f565b81526020810191909152604001600020600401546001600160a01b0316331461085857604051633752272760e11b815260040160405180910390fd5b60035460405163449e815d60e01b815260059185916001600160a01b039091169063047abed790829063449e815d90610897908c908c90600401613b24565b602060405180830381865afa1580156108b4573d6000803e3d6000fd5b505050506040513d601f19601f820116820180604052508101906108d89190613b4a565b6040518263ffffffff1660e01b81526004016108f4919061320d565b602060405180830381865afa158015610911573d6000803e3d6000fd5b505050506040513d601f19601f820116820180604052508101906109359190613b4a565b61093f9190613b6b565b6109499190613ba0565b341461096857604051633bd1213d60e21b815260040160405180910390fd5b604051627eeac760e11b8152859084906001600160a01b0383169062fdd58e906109989033908a90600401613b24565b602060405180830381865afa1580156109b5573d6000803e3d6000fd5b505050506040513d601f19601f820116820180604052508101906109d99190613b4a565b10156109f857604051632f43231960e11b815260040160405180910390fd5b6000610a048787612c2f565b60008181526004602052604081206007015491925090610a25908790613a53565b60008381526004602052604081206008015491925090610a46908890613a53565b60408051610180810182528581526001600160a01b03808d1660208301528183018c905260608201899052336080830152600060a0830152600354925163449e815d60e01b8152939450909260c08401929091169063449e815d90610ab1908e908e90600401613b24565b602060405180830381865afa158015610ace573d6000803e3d6000fd5b505050506040513d601f19601f82011682018060405250810190610af29190613b4a565b8152602080820185905260408083018590526000878152600480845282822060098101546060808801919091526080870184905260a090960183905291899052835284518155848301516001820180546001600160a01b0319166001600160a01b03909216919091179055908401516002820155918301518051610b7c92600385019201906130d6565b506080820151600482810180546001600160a01b03199081166001600160a01b039485161790915560a085015160058501805490921690841617905560c0840151600684015560e0840151600784015561010084015160088401556101208401516009840155610140840151600a8401805460ff191660ff90921691909117905561016090930151600b90920191909155604051634c6784ad60e11b8152908616916398cf095a91610c3891339130918e918e918e9101613bb4565b600060405180830381600087803b158015610c5257600080fd5b505af1158015610c66573d6000803e3d6000fd5b5050336000908152600760209081526040808320888452909152902054610c909250349150613a53565b33600090815260076020908152604080832096835295905293842055505060019055505050505050565b600260005403610cdc5760405162461bcd60e51b815260040161079790613b14565b6002600090815581815260046020819052604090912001546001600160a01b03163314610d1c5760405163c5c0a87960e01b815260040160405180910390fd5b6000818152600460205260409020600781015460089091015403610d53576040516304d8dbfb60e41b815260040160405180910390fd5b600081815260056020526040812054905b81811015610e8c576000838152600560205260409020805482908110610d8c57610d8c613ac7565b600091825260208083209091015485835260059091526040822080546001600160a01b03909216926108fc926006929086908110610dcc57610dcc613ac7565b60009182526020808320909101546001600160a01b0316835282810193909352604091820181208882529092528082205490518115909302929091818181858888f19350505050158015610e24573d6000803e3d6000fd5b5060008381526005602052604081208054600691839185908110610e4a57610e4a613ac7565b60009182526020808320909101546001600160a01b03168352828101939093526040918201812087825290925290205580610e8481613a6b565b915050610d64565b506000828152600460209081526040918290209151610eaf926003019101613c74565b60408051601f198184030181529181526000848152600460209081529190208251610ee393600390920192909101906130d6565b50506000908152600460205260408120600a01805460ff1916600617905560019055565b336001600160a01b037f00000000000000000000000000000000000000000000000000000000000000001614610f50576040516330cd747160e01b815260040160405180910390fd5b600260005403610f725760405162461bcd60e51b815260040161079790613b14565b60026000908155818152600460208190526040909120600a015460ff1614610fad576040516310cec38560e21b815260040160405180910390fd5b600081815260056020526040902054610fd9576040516312d5368b60e21b815260040160405180910390fd5b6000818152600460205260409020600b0154156110095760405163542f378d60e11b815260040160405180910390fd5b60008181526005602090815260408083205460049283905290832082015490919061103d906001600160a01b031685612cd0565b6110479190613ba0565b611052906003613b6b565b61105c9190613ba0565b600083815260046020819052604082208101549293509091611087906001600160a01b031685612cd0565b6110919190613ba0565b6000848152600460209081526040808320600b0184905560059091528120549192505b818110156111e85760008581526005602052604090208054829081106110dc576110dc613ac7565b600091825260208083209091015487835260059091526040822080546001600160a01b03909216926108fc928892600692918790811061111e5761111e613ac7565b60009182526020808320909101546001600160a01b0316835282810193909352604091820181208b82529092529020546111589190613a53565b6040518115909202916000818181858888f19350505050158015611180573d6000803e3d6000fd5b50600085815260056020526040812080546006918391859081106111a6576111a6613ac7565b60009182526020808320909101546001600160a01b031683528281019390935260409182018120898252909252902055806111e081613a6b565b9150506110b4565b506000807f00000000000000000000000000000000000000000000000000000000000000006001600160a01b03168460405161122390613c96565b60006040518083038185875af1925050503d8060008114611260576040519150601f19603f3d011682016040523d82523d6000602084013e611265565b606091505b5091509150816112875760405162461bcd60e51b815260040161079790613cc9565b6000868152600460208181526040808420808401546001600160a01b03168552600783528185208b865283528185209490945591815290516112cd926003019101613c74565b60408051601f19818403018152918152600088815260046020908152919020825161130193600390920192909101906130d6565b505060016000555050505050565b60008381526004602052604081206003018054606092919061133090613a9b565b80601f016020809104026020016040519081016040528092919081815260200182805461135c90613a9b565b80156113a95780601f1061137e576101008083540402835291602001916113a9565b820191906000526020600020905b81548152906001019060200180831161138c57829003601f168201915b5050505050905060006113bb82612cf8565b905060006113c882612d28565b905060006113d68288612d3b565b90506113e58185898b8a612daa565b9450505050505b9392505050565b6060600061140060015490565b9050600061140d60025490565b60015461141a9190613a3c565b9050600080826001600160401b0381111561143757611437613434565b60405190808252806020026020018201604052801561147057816020015b61145d613057565b8152602001906001900390816114555790505b50905060005b8481101561076c57600060048161148e846001613a53565b8152602081019190915260400160009081206001908101546001600160a01b03169250600491906114c0908590613a53565b81526020810191909152604001600020600a015460ff166006148015906115725750426001600160a01b03821663117f02d760046000611501876001613a53565b8152602001908152602001600020600201546040518263ffffffff1660e01b815260040161152f919061320d565b602060405180830381865afa15801561154c573d6000803e3d6000fd5b505050506040513d601f19601f820116820180604052508101906115709190613b4a565b105b156116f4576000611584836001613a53565b6000818152600460209081526040918290208251610180810184528154815260018201546001600160a01b0316928101929092526002810154928201929092526003820180549394509192909183916060840191906115e290613a9b565b80601f016020809104026020016040519081016040528092919081815260200182805461160e90613a9b565b801561165b5780601f106116305761010080835404028352916020019161165b565b820191906000526020600020905b81548152906001019060200180831161163e57829003601f168201915b505050918352505060048201546001600160a01b03908116602083015260058301541660408201526006820154606082015260078201546080820152600882015460a0820152600982015460c0820152600a82015460ff1660e0820152600b909101546101009091015285518690889081106116d9576116d9613ac7565b60209081029190910101526116ef600187613a53565b955050505b50806116ff81613a6b565b915050611476565b6002600054036117295760405162461bcd60e51b815260040161079790613b14565b60026000908155838152600460205260409020600701548211156117605760405163fa3e06c960e01b815260040160405180910390fd5b60008381526004602052604090206006015461177d908390613b6b565b341461179c57604051634fddbb8760e01b815260040160405180910390fd5b60008381526004602081905260409182902060020154915163117f02d760e01b8152869242926001600160a01b0385169263117f02d7926117df9290910161320d565b602060405180830381865afa1580156117fc573d6000803e3d6000fd5b505050506040513d601f19601f820116820180604052508101906118209190613b4a565b1161183e5760405163d2bbe8a360e01b815260040160405180910390fd5b336000908152600660209081526040808320878452909152902054611864903490613a53565b33600081815260066020908152604080832089845290915290209190915561188d908590612ed1565b600084815260046020819052604091829020600201549151634c6784ad60e11b81526001600160a01b038416926398cf095a926118d4923092339290918a918a9101613bb4565b600060405180830381600087803b1580156118ee57600080fd5b505af1158015611902573d6000803e3d6000fd5b50505060008581526004602052604090206007015461192391508490613a3c565b6000858152600460205260409020600781019190915560090154611948903490613a53565b600085815260046020526040812060098101929092556005820180546001600160a01b03191633179055600790910154900361198c5761198c600280546001019055565b50506001600055505050565b336001600160a01b037f000000000000000000000000000000000000000000000000000000000000000016146119e1576040516330cd747160e01b815260040160405180910390fd5b600260005403611a035760405162461bcd60e51b815260040161079790613b14565b60026000908155600154908080805b84811015611ac65760046000611a29836001613a53565b81526020810191909152604001600020600a015460ff161580611a71575060046000611a56836001613a53565b81526020810191909152604001600020600a015460ff166003145b80611aa1575060046000611a86836001613a53565b81526020810191909152604001600020600a015460ff166006145b15611ab457611ab1600185613a53565b93505b80611abe81613a6b565b915050611a12565b506000836001600160401b03811115611ae157611ae1613434565b604051908082528060200260200182016040528015611b0a578160200160208202803683370190505b50905060005b85811015611cdf5760046000611b27836001613a53565b81526020810191909152604001600020600a015460ff161580611b6f575060046000611b54836001613a53565b81526020810191909152604001600020600a015460ff166003145b80611b9f575060046000611b84836001613a53565b81526020810191909152604001600020600a015460ff166006145b15611ccd576000600481611bb4846001613a53565b815260200190815260200160002060010160009054906101000a90046001600160a01b031690504262015180826001600160a01b031663117f02d760046000876001611c009190613a53565b8152602001908152602001600020600201546040518263ffffffff1660e01b8152600401611c2e919061320d565b602060405180830381865afa158015611c4b573d6000803e3d6000fd5b505050506040513d601f19601f82011682018060405250810190611c6f9190613b4a565b611c799190613a53565b1015611ccb5760046000611c8e846001613a53565b815260200190815260200160002060000154838681518110611cb257611cb2613ac7565b6020908102919091010152611cc8600186613a53565b94505b505b80611cd781613a6b565b915050611b10565b5060005b84811015612008576000611d5260046000858581518110611d0657611d06613ac7565b6020026020010151815260200190815260200160002060040160009054906101000a90046001600160a01b0316848481518110611d4557611d45613ac7565b6020026020010151612fe6565b60046000858581518110611d6857611d68613ac7565b6020026020010151815260200190815260200160002060090154611d8c9190613a53565b90506004611df560046000868681518110611da957611da9613ac7565b6020026020010151815260200190815260200160002060040160009054906101000a90046001600160a01b0316858581518110611de857611de8613ac7565b6020026020010151612cd0565b611dff9190613ba0565b60046000858581518110611e1557611e15613ac7565b60200260200101518152602001908152602001600020600b01819055506004611e4d60046000868681518110611da957611da9613ac7565b611e579190613ba0565b611e619085613a53565b9350600060046000858581518110611e7b57611e7b613ac7565b602002602001015181526020019081526020016000206009018190555060006007600060046000878781518110611eb457611eb4613ac7565b6020026020010151815260200190815260200160002060040160009054906101000a90046001600160a01b03166001600160a01b03166001600160a01b031681526020019081526020016000206000858581518110611f1557611f15613ac7565b602002602001015181526020019081526020016000208190555060046000848481518110611f4557611f45613ac7565b6020026020010151815260200190815260200160002060040160009054906101000a90046001600160a01b03166001600160a01b03166108fc829081150290604051600060405180830381858888f19350505050158015611faa573d6000803e3d6000fd5b50600160046000858581518110611fc357611fc3613ac7565b60200260200101518152602001908152602001600020600a0160006101000a81548160ff021916908360ff16021790555050808061200090613a6b565b915050611ce3565b506000807f00000000000000000000000000000000000000000000000000000000000000006001600160a01b03168460405161204390613c96565b60006040518083038185875af1925050503d8060008114612080576040519150601f19603f3d011682016040523d82523d6000602084013e612085565b606091505b5091509150816113015760405162461bcd60e51b815260040161079790613cc9565b63bc197c8160e01b5b95945050505050565b606060006120c660015490565b905060008060005b838110156121c65760006004816120e6846001613a53565b815260200190815260200160002060010160009054906101000a90046001600160a01b031690506000816001600160a01b031662fdd58e896004600087600161212f9190613a53565b8152602001908152602001600020600201546040518363ffffffff1660e01b815260040161215e929190613b24565b602060405180830381865afa15801561217b573d6000803e3d6000fd5b505050506040513d601f19601f8201168201806040525081019061219f9190613b4a565b11156121b3576121b0600185613a53565b93505b50806121be81613a6b565b9150506120ce565b506000826001600160401b038111156121e1576121e1613434565b60405190808252806020026020018201604052801561224d57816020015b61223a6040518060a001604052806000815260200160006001600160a01b031681526020016000815260200160008152602001600081525090565b8152602001906001900390816121ff5790505b50905060005b8481101561247257600060048161226b846001613a53565b815260200190815260200160002060010160009054906101000a90046001600160a01b031690506000816001600160a01b031662fdd58e8a600460008760016122b49190613a53565b8152602001908152602001600020600201546040518363ffffffff1660e01b81526004016122e3929190613b24565b602060405180830381865afa158015612300573d6000803e3d6000fd5b505050506040513d601f19601f820116820180604052508101906123249190613b4a565b111561245f576000612337836001613a53565b905060006004600083815260200190815260200160002090506040518060a00160405280826000015481526020018260010160009054906101000a90046001600160a01b03166001600160a01b031681526020018260020154815260200182600601548152602001846001600160a01b031662fdd58e8d600460008a60016123bf9190613a53565b8152602001908152602001600020600201546040518363ffffffff1660e01b81526004016123ee929190613b24565b602060405180830381865afa15801561240b573d6000803e3d6000fd5b505050506040513d601f19601f8201168201806040525081019061242f9190613b4a565b81525085878151811061244457612444613ac7565b602090810291909101015261245a600187613a53565b955050505b508061246a81613a6b565b915050612253565b5095945050505050565b336001600160a01b037f000000000000000000000000000000000000000000000000000000000000000016146124c5576040516330cd747160e01b815260040160405180910390fd5b60078160ff16106124e9576040516307a92f1960e51b815260040160405180910390fd5b600091825260046020526040909120600a01805460ff191660ff909216919091179055565b612516613057565b6000828152600460209081526040918290208251610180810184528154815260018201546001600160a01b03169281019290925260028101549282019290925260038201805491929160608401919061256e90613a9b565b80601f016020809104026020016040519081016040528092919081815260200182805461259a90613a9b565b80156125e75780601f106125bc576101008083540402835291602001916125e7565b820191906000526020600020905b8154815290600101906020018083116125ca57829003601f168201915b505050918352505060048201546001600160a01b03908116602083015260058301541660408201526006820154606082015260078201546080820152600882015460a0820152600982015460c0820152600a82015460ff1660e0820152600b909101546101009091015292915050565b6002600054036126795760405162461bcd60e51b815260040161079790613b14565b600260005560035460405163449e815d60e01b815260059185916001600160a01b039091169063449e815d906126b5908a908a90600401613b24565b602060405180830381865afa1580156126d2573d6000803e3d6000fd5b505050506040513d601f19601f820116820180604052508101906126f69190613b4a565b6127009190613b6b565b61270a9190613ba0565b341461272957604051633bd1213d60e21b815260040160405180910390fd5b604051627eeac760e11b8152859084906001600160a01b0383169062fdd58e906127599033908a90600401613b24565b602060405180830381865afa158015612776573d6000803e3d6000fd5b505050506040513d601f19601f8201168201806040525081019061279a9190613b4a565b10156127b957604051632f43231960e11b815260040160405180910390fd5b6127c7600180546001019055565b60006127d260015490565b60408051610180810182528281526001600160a01b03808b1660208301528183018a905260608201879052336080830152600060a0830152600354925163449e815d60e01b8152939450909260c08401929091169063449e815d9061283d908c908c90600401613b24565b602060405180830381865afa15801561285a573d6000803e3d6000fd5b505050506040513d601f19601f8201168201806040525081019061287e9190613b4a565b815260208082018890526040808301899052600060608085018290526080850182905260a09094018190528581526004835281902084518155848301516001820180546001600160a01b0319166001600160a01b039092169190911790559084015160028201559183015180516128fb92600385019201906130d6565b5060808201518160040160006101000a8154816001600160a01b0302191690836001600160a01b0316021790555060a08201518160050160006101000a8154816001600160a01b0302191690836001600160a01b0316021790555060c0820151816006015560e082015181600701556101008201518160080155610120820151816009015561014082015181600a0160006101000a81548160ff021916908360ff16021790555061016082015181600b015590505085876001600160a01b0316827fc769733b5428a14f5f070c227800de113aafafd8ca5a3073e655cb88ede6ed3e86336000600360009054906101000a90046001600160a01b03166001600160a01b031663449e815d8f8f6040518363ffffffff1660e01b8152600401612a24929190613b24565b602060405180830381865afa158015612a41573d6000803e3d6000fd5b505050506040513d601f19601f82011682018060405250810190612a659190613b4a565b8c8d6000806000604051612a8199989796959493929190613d02565b60405180910390a4604051634c6784ad60e11b81526001600160a01b038316906398cf095a90612abd90339030908b908b908b90600401613bb4565b600060405180830381600087803b158015612ad757600080fd5b505af1158015612aeb573d6000803e3d6000fd5b5050336000908152600760209081526040808320868452909152902054612b159250349150613a53565b3360009081526007602090815260408083209483529390529182205560019055505050505050565b600260005403612b5f5760405162461bcd60e51b815260040161079790613b14565b6002600090815582815260046020819052604090912001546001600160a01b03163314612b9f5760405163c5c0a87960e01b815260040160405180910390fd5b60035460405163079dba9560e01b81526001600160a01b039091169063079dba9590612bd19085908590600401613d8d565b600060405180830381600087803b158015612beb57600080fd5b505af1158015612bff573d6000803e3d6000fd5b505050506001600160a01b0316600090815260066020908152604080832093835292905290812081905560019055565b600080612c3b60015490565b90506000805b8281101561076c576001600160a01b03861660046000612c62846001613a53565b81526020810191909152604001600020600101546001600160a01b0316148015612cab57508460046000612c97846001613a53565b815260200190815260200160002060020154145b15612cbe57612cbb816001613a53565b91505b80612cc881613a6b565b915050612c41565b6001600160a01b03919091166000908152600760209081526040808320938352929052205490565b600081604051602001612d0b9190613dca565b604051602081830303815290604052805190602001209050919050565b600081604051602001612d0b9190613dd6565b600080600080612d4a85613012565b92509250925060018682858560405160008152602001604052604051612d739493929190613e11565b6020604051602081039080840390855afa158015612d95573d6000803e3d6000fd5b5050604051601f190151979650505050505050565b60606000612db786612cf8565b90506000612dc482612d28565b604080518082018252600f81526e139bdd081bdb881d1a19481b1a5cdd608a1b6020808301919091526000898152600491829052838120600201549351627eeac760e11b81529297509394508793926001600160a01b0385169262fdd58e92612e31928f92909101613b24565b602060405180830381865afa158015612e4e573d6000803e3d6000fd5b505050506040513d601f19601f82011682018060405250810190612e729190613b4a565b118015612e995750886001600160a01b0316612e8e8389612d3b565b6001600160a01b0316145b15612ec5576040518060400160405280600b81526020016a13db881d1a19481b1a5cdd60aa1b81525093505b50505095945050505050565b6000828152600560205260408120548103612f26575060008281526005602090815260408220805460018082018355918452919092200180546001600160a01b0319166001600160a01b038416179055612f9f565b600083815260056020526040812054905b81811015612f9c57600085815260056020526040902080546001600160a01b038616919083908110612f6b57612f6b613ac7565b6000918252602090912001546001600160a01b031603612f8a57600192505b80612f9481613a6b565b915050612f37565b50505b801515600003612fe15760008381526005602090815260408220805460018101825590835291200180546001600160a01b0319166001600160a01b0384161790555b505050565b60006004612ff48484612cd0565b612ffe9190613ba0565b6130088484612cd0565b6113ec9190613a3c565b6000806000835160411461303957604051634be6321b60e01b815260040160405180910390fd5b50505060208101516040820151606090920151909260009190911a90565b6040518061018001604052806000815260200160006001600160a01b03168152602001600081526020016060815260200160006001600160a01b0316815260200160006001600160a01b0316815260200160008152602001600081526020016000815260200160008152602001600060ff168152602001600081525090565b8280546130e290613a9b565b90600052602060002090601f016020900481019282613104576000855561314a565b82601f1061311d57805160ff191683800117855561314a565b8280016001018555821561314a579182015b8281111561314a57825182559160200191906001019061312f565b5061315692915061315a565b5090565b5b80821115613156576000815560010161315b565b6001600160e01b031981165b811461318657600080fd5b50565b80356104b18161316f565b6000602082840312156131a9576131a9600080fd5b60006131b58484613189565b949350505050565b8015155b82525050565b602081016104b182846131bd565b8061317b565b80356104b1816131d5565b6000602082840312156131fb576131fb600080fd5b60006131b584846131db565b806131c1565b602081016104b18284613207565b60006001600160a01b0382166104b1565b6131c18161321b565b60005b83811015613250578181015183820152602001613238565b8381111561325f576000848401525b50505050565b600061326f825190565b808452602084019350613286818560208601613235565b601f01601f19169290920192915050565b60ff81166131c1565b80516000906101808401906132b58582613207565b5060208301516132c8602086018261322c565b5060408301516132db6040860182613207565b50606083015184820360608601526132f38282613265565b9150506080830151613308608086018261322c565b5060a083015161331b60a086018261322c565b5060c083015161332e60c0860182613207565b5060e083015161334160e0860182613207565b50610100830151613356610100860182613207565b5061012083015161336b610120860182613207565b50610140830151613380610140860182613297565b50610160830151613395610160860182613207565b509392505050565b60006113ec83836132a0565b60006133b3825190565b808452602084019350836020820285016133cd8560200190565b8060005b8581101561340257848403895281516133ea858261339d565b94506020830160209a909a01999250506001016133d1565b5091979650505050505050565b602080825281016113ec81846133a9565b61317b8161321b565b80356104b181613420565b634e487b7160e01b600052604160045260246000fd5b601f19601f83011681018181106001600160401b038211171561346f5761346f613434565b6040525050565b600061348160405190565b905061348d828261344a565b919050565b60006001600160401b038211156134ab576134ab613434565b601f19601f83011660200192915050565b82818337506000910152565b60006134db6134d684613492565b613476565b9050828152602081018484840111156134f6576134f6600080fd5b6133958482856134bc565b600082601f83011261351557613515600080fd5b81356131b58482602086016134c8565b600080600080600060a0868803121561354057613540600080fd5b600061354c8888613429565b955050602061355d888289016131db565b945050604061356e888289016131db565b93505060608601356001600160401b0381111561358d5761358d600080fd5b61359988828901613501565b92505060808601356001600160401b038111156135b8576135b8600080fd5b6135c488828901613501565b9150509295509295909350565b600080604083850312156135e7576135e7600080fd5b60006135f38585613429565b9250506020613604858286016131db565b9150509250929050565b60008060006060848603121561362657613626600080fd5b600061363286866131db565b93505060208401356001600160401b0381111561365157613651600080fd5b61365d86828701613501565b925050604061366e86828701613429565b9150509250925092565b602080825281016113ec8184613265565b600080600080608085870312156136a2576136a2600080fd5b60006136ae8787613429565b94505060206136bf878288016131db565b93505060406136d0878288016131db565b92505060608501356001600160401b038111156136ef576136ef600080fd5b6136fb87828801613501565b91505092959194509250565b60006001600160401b0382111561372057613720613434565b5060209081020190565b60006137386134d684613707565b8381529050602080820190840283018581111561375757613757600080fd5b835b8181101561377b578061376c88826131db565b84525060209283019201613759565b5050509392505050565b600082601f83011261379957613799600080fd5b81356131b584826020860161372a565b600080600080600060a086880312156137c4576137c4600080fd5b60006137d08888613429565b95505060206137e188828901613429565b94505060408601356001600160401b0381111561380057613800600080fd5b61380c88828901613785565b93505060608601356001600160401b0381111561382b5761382b600080fd5b61359988828901613785565b6001600160e01b031981166131c1565b602081016104b18284613837565b60006020828403121561386a5761386a600080fd5b60006131b58484613429565b805160a08301906138878482613207565b50602082015161389a602085018261322c565b5060408201516138ad6040850182613207565b5060608201516138c06060850182613207565b50608082015161325f6080850182613207565b60006138df8383613876565b505060a00190565b60006138f1825190565b80845260209384019383018060005b8381101561392557815161391488826138d3565b975060208301925050600101613900565b509495945050505050565b602080825281016113ec81846138e7565b60ff811661317b565b80356104b181613941565b6000806040838503121561396b5761396b600080fd5b600061397785856131db565b92505060206136048582860161394a565b602080825281016113ec81846132a0565b600080600080600060a086880312156139b4576139b4600080fd5b60006139c08888613429565b95505060206139d188828901613429565b94505060406139e2888289016131db565b9350506060613599888289016131db565b60008060408385031215613a0957613a09600080fd5b6000613a1585856131db565b925050602061360485828601613429565b634e487b7160e01b600052601160045260246000fd5b600082821015613a4e57613a4e613a26565b500390565b60008219821115613a6657613a66613a26565b500190565b60006000198203613a7e57613a7e613a26565b5060010190565b634e487b7160e01b600052602260045260246000fd5b600281046001821680613aaf57607f821691505b602082108103613ac157613ac1613a85565b50919050565b634e487b7160e01b600052603260045260246000fd5b601f81526000602082017f5265656e7472616e637947756172643a207265656e7472616e742063616c6c00815291505b5060200190565b602080825281016104b181613add565b60408101613b32828561322c565b6113ec6020830184613207565b80516104b1816131d5565b600060208284031215613b5f57613b5f600080fd5b60006131b58484613b3f565b6000816000190483118215151615613b8557613b85613a26565b500290565b634e487b7160e01b600052601260045260246000fd5b600082613baf57613baf613b8a565b500490565b60a08101613bc2828861322c565b613bcf602083018761322c565b613bdc6040830186613207565b613be96060830185613207565b8181036080830152613bfb8184613265565b979650505050505050565b60008154613c1381613a9b565b600182168015613c2a5760018114613c3b57613c6b565b60ff19831686528186019350613c6b565b60008581526020902060005b83811015613c6357815488820152600190910190602001613c47565b838801955050505b50505092915050565b6902932b33ab73232b21d160b51b8152600a0160006113ec8284613c06565b90565b6000816104b1565b60148152600060208201732330b4b632b2103a379039b2b7321022ba3432b960611b81529150613b0d565b602080825281016104b181613c9e565b60006104b1613c938381565b6131c181613cd9565b600060ff82166104b1565b6131c181613cee565b6101208082528101613d14818c613265565b9050613d23602083018b61322c565b613d30604083018a61322c565b613d3d6060830189613207565b613d4a6080830188613207565b613d5760a0830187613207565b613d6460c0830186613ce5565b613d7160e0830185613cf9565b613d7f610100830184613ce5565b9a9950505050505050505050565b60408101613d9b8285613207565b6113ec602083018461322c565b6000613db2825190565b613dc0818560208601613235565b9290920192915050565b60006113ec8284613da8565b7f19457468657265756d205369676e6564204d6573736167653a0a3332000000008152601c016000613e088284613207565b50602001919050565b60808101613e1f8287613207565b613e2c6020830186613297565b613e396040830185613207565b6120b0606083018461320756fea264697066735822122008184847e00634c3c68d22d65836e16ae75e7be93233c2450e45bf2ae41d287364736f6c634300080d0033",
  "devdoc": {
    "kind": "dev",
    "methods": {
      "supportsInterface(bytes4)": {
        "details": "See {IERC165-supportsInterface}."
      }
    },
    "version": 1
  },
  "userdoc": {
    "kind": "user",
    "methods": {},
    "version": 1
  },
  "storageLayout": {
    "storage": [
      {
        "astId": 169,
        "contract": "contracts/NFTicketsMarket.sol:NFTicketsMarket",
        "label": "_status",
        "offset": 0,
        "slot": "0",
        "type": "t_uint256"
      },
      {
        "astId": 5368,
        "contract": "contracts/NFTicketsMarket.sol:NFTicketsMarket",
        "label": "_itemIds",
        "offset": 0,
        "slot": "1",
        "type": "t_struct(Counter)3197_storage"
      },
      {
        "astId": 5371,
        "contract": "contracts/NFTicketsMarket.sol:NFTicketsMarket",
        "label": "_itemsSold",
        "offset": 0,
        "slot": "2",
        "type": "t_struct(Counter)3197_storage"
      },
      {
        "astId": 5385,
        "contract": "contracts/NFTicketsMarket.sol:NFTicketsMarket",
        "label": "utils",
        "offset": 0,
        "slot": "3",
        "type": "t_contract(NFTicketsUtils)8049"
      },
      {
        "astId": 5447,
        "contract": "contracts/NFTicketsMarket.sol:NFTicketsMarket",
        "label": "idToMarketItem",
        "offset": 0,
        "slot": "4",
        "type": "t_mapping(t_uint256,t_struct(MarketItem)5431_storage)"
      },
      {
        "astId": 5452,
        "contract": "contracts/NFTicketsMarket.sol:NFTicketsMarket",
        "label": "marketItemIdToBuyers",
        "offset": 0,
        "slot": "5",
        "type": "t_mapping(t_uint256,t_array(t_address)dyn_storage)"
      },
      {
        "astId": 5458,
        "contract": "contracts/NFTicketsMarket.sol:NFTicketsMarket",
        "label": "addressToSpending",
        "offset": 0,
        "slot": "6",
        "type": "t_mapping(t_address,t_mapping(t_uint256,t_uint256))"
      },
      {
        "astId": 5464,
        "contract": "contracts/NFTicketsMarket.sol:NFTicketsMarket",
        "label": "sellerToDepositPerItem",
        "offset": 0,
        "slot": "7",
        "type": "t_mapping(t_address,t_mapping(t_uint256,t_uint256))"
      }
    ],
    "types": {
      "t_address": {
        "encoding": "inplace",
        "label": "address",
        "numberOfBytes": "20"
      },
      "t_address_payable": {
        "encoding": "inplace",
        "label": "address payable",
        "numberOfBytes": "20"
      },
      "t_array(t_address)dyn_storage": {
        "base": "t_address",
        "encoding": "dynamic_array",
        "label": "address[]",
        "numberOfBytes": "32"
      },
      "t_contract(NFTicketsUtils)8049": {
        "encoding": "inplace",
        "label": "contract NFTicketsUtils",
        "numberOfBytes": "20"
      },
      "t_mapping(t_address,t_mapping(t_uint256,t_uint256))": {
        "encoding": "mapping",
        "key": "t_address",
        "label": "mapping(address => mapping(uint256 => uint256))",
        "numberOfBytes": "32",
        "value": "t_mapping(t_uint256,t_uint256)"
      },
      "t_mapping(t_uint256,t_array(t_address)dyn_storage)": {
        "encoding": "mapping",
        "key": "t_uint256",
        "label": "mapping(uint256 => address[])",
        "numberOfBytes": "32",
        "value": "t_array(t_address)dyn_storage"
      },
      "t_mapping(t_uint256,t_struct(MarketItem)5431_storage)": {
        "encoding": "mapping",
        "key": "t_uint256",
        "label": "mapping(uint256 => struct NFTicketsMarket.MarketItem)",
        "numberOfBytes": "32",
        "value": "t_struct(MarketItem)5431_storage"
      },
      "t_mapping(t_uint256,t_uint256)": {
        "encoding": "mapping",
        "key": "t_uint256",
        "label": "mapping(uint256 => uint256)",
        "numberOfBytes": "32",
        "value": "t_uint256"
      },
      "t_string_storage": {
        "encoding": "bytes",
        "label": "string",
        "numberOfBytes": "32"
      },
      "t_struct(Counter)3197_storage": {
        "encoding": "inplace",
        "label": "struct Counters.Counter",
        "members": [
          {
            "astId": 3196,
            "contract": "contracts/NFTicketsMarket.sol:NFTicketsMarket",
            "label": "_value",
            "offset": 0,
            "slot": "0",
            "type": "t_uint256"
          }
        ],
        "numberOfBytes": "32"
      },
      "t_struct(MarketItem)5431_storage": {
        "encoding": "inplace",
        "label": "struct NFTicketsMarket.MarketItem",
        "members": [
          {
            "astId": 5408,
            "contract": "contracts/NFTicketsMarket.sol:NFTicketsMarket",
            "label": "itemId",
            "offset": 0,
            "slot": "0",
            "type": "t_uint256"
          },
          {
            "astId": 5410,
            "contract": "contracts/NFTicketsMarket.sol:NFTicketsMarket",
            "label": "nftContract",
            "offset": 0,
            "slot": "1",
            "type": "t_address"
          },
          {
            "astId": 5412,
            "contract": "contracts/NFTicketsMarket.sol:NFTicketsMarket",
            "label": "tokenId",
            "offset": 0,
            "slot": "2",
            "type": "t_uint256"
          },
          {
            "astId": 5414,
            "contract": "contracts/NFTicketsMarket.sol:NFTicketsMarket",
            "label": "name",
            "offset": 0,
            "slot": "3",
            "type": "t_string_storage"
          },
          {
            "astId": 5416,
            "contract": "contracts/NFTicketsMarket.sol:NFTicketsMarket",
            "label": "seller",
            "offset": 0,
            "slot": "4",
            "type": "t_address_payable"
          },
          {
            "astId": 5418,
            "contract": "contracts/NFTicketsMarket.sol:NFTicketsMarket",
            "label": "owner",
            "offset": 0,
            "slot": "5",
            "type": "t_address_payable"
          },
          {
            "astId": 5420,
            "contract": "contracts/NFTicketsMarket.sol:NFTicketsMarket",
            "label": "price",
            "offset": 0,
            "slot": "6",
            "type": "t_uint256"
          },
          {
            "astId": 5422,
            "contract": "contracts/NFTicketsMarket.sol:NFTicketsMarket",
            "label": "amount",
            "offset": 0,
            "slot": "7",
            "type": "t_uint256"
          },
          {
            "astId": 5424,
            "contract": "contracts/NFTicketsMarket.sol:NFTicketsMarket",
            "label": "initialQuantity",
            "offset": 0,
            "slot": "8",
            "type": "t_uint256"
          },
          {
            "astId": 5426,
            "contract": "contracts/NFTicketsMarket.sol:NFTicketsMarket",
            "label": "totalSales",
            "offset": 0,
            "slot": "9",
            "type": "t_uint256"
          },
          {
            "astId": 5428,
            "contract": "contracts/NFTicketsMarket.sol:NFTicketsMarket",
            "label": "status",
            "offset": 0,
            "slot": "10",
            "type": "t_uint8"
          },
          {
            "astId": 5430,
            "contract": "contracts/NFTicketsMarket.sol:NFTicketsMarket",
            "label": "finalCommision",
            "offset": 0,
            "slot": "11",
            "type": "t_uint256"
          }
        ],
        "numberOfBytes": "384"
      },
      "t_uint256": {
        "encoding": "inplace",
        "label": "uint256",
        "numberOfBytes": "32"
      },
      "t_uint8": {
        "encoding": "inplace",
        "label": "uint8",
        "numberOfBytes": "1"
      }
    }
  }
}