{
  "address": "0x3086EB8E65Af177FC4005a2ffed75e5c7CBcfE04",
  "abi": [
    {
      "inputs": [
        {
          "internalType": "address",
          "name": "_token",
          "type": "address"
        }
      ],
      "stateMutability": "nonpayable",
      "type": "constructor"
    },
    {
      "inputs": [],
      "name": "AlreadyVoted",
      "type": "error"
    },
    {
      "inputs": [],
      "name": "DisputeDoesNotExist",
      "type": "error"
    },
    {
      "inputs": [],
      "name": "InsificientDisputeEveidence",
      "type": "error"
    },
    {
      "inputs": [],
      "name": "InsuficientBalanceToVote",
      "type": "error"
    },
    {
      "inputs": [],
      "name": "InvalidChoice",
      "type": "error"
    },
    {
      "inputs": [],
      "name": "NotEligible",
      "type": "error"
    },
    {
      "inputs": [],
      "name": "VotingFinished",
      "type": "error"
    },
    {
      "inputs": [],
      "name": "YouAlreadyDisputedThisEvent",
      "type": "error"
    },
    {
      "anonymous": false,
      "inputs": [
        {
          "indexed": true,
          "internalType": "address",
          "name": "previousOwner",
          "type": "address"
        },
        {
          "indexed": true,
          "internalType": "address",
          "name": "newOwner",
          "type": "address"
        }
      ],
      "name": "OwnershipTransferred",
      "type": "event"
    },
    {
      "stateMutability": "payable",
      "type": "fallback"
    },
    {
      "inputs": [],
      "name": "MARKET",
      "outputs": [
        {
          "internalType": "contract NFTicketsMarket",
          "name": "",
          "type": "address"
        }
      ],
      "stateMutability": "view",
      "type": "function"
    },
    {
      "inputs": [],
      "name": "TICKET",
      "outputs": [
        {
          "internalType": "contract NFTicketsTic",
          "name": "",
          "type": "address"
        }
      ],
      "stateMutability": "view",
      "type": "function"
    },
    {
      "inputs": [
        {
          "internalType": "uint256",
          "name": "dispute",
          "type": "uint256"
        },
        {
          "internalType": "uint256",
          "name": "voter",
          "type": "uint256"
        }
      ],
      "name": "checkVoterDecision",
      "outputs": [
        {
          "internalType": "uint8",
          "name": "",
          "type": "uint8"
        }
      ],
      "stateMutability": "view",
      "type": "function"
    },
    {
      "inputs": [],
      "name": "contractBalance",
      "outputs": [
        {
          "internalType": "uint256",
          "name": "",
          "type": "uint256"
        }
      ],
      "stateMutability": "view",
      "type": "function"
    },
    {
      "inputs": [],
      "name": "disputeIndex",
      "outputs": [
        {
          "internalType": "uint256",
          "name": "",
          "type": "uint256"
        }
      ],
      "stateMutability": "view",
      "type": "function"
    },
    {
      "inputs": [
        {
          "internalType": "uint256",
          "name": "",
          "type": "uint256"
        }
      ],
      "name": "disputeToDecisions",
      "outputs": [
        {
          "internalType": "uint8",
          "name": "outcome",
          "type": "uint8"
        },
        {
          "internalType": "bool",
          "name": "processingStatus",
          "type": "bool"
        }
      ],
      "stateMutability": "view",
      "type": "function"
    },
    {
      "inputs": [
        {
          "internalType": "uint256",
          "name": "",
          "type": "uint256"
        }
      ],
      "name": "disputes",
      "outputs": [
        {
          "internalType": "uint256",
          "name": "itemId",
          "type": "uint256"
        },
        {
          "internalType": "uint256",
          "name": "shapshotId",
          "type": "uint256"
        }
      ],
      "stateMutability": "view",
      "type": "function"
    },
    {
      "inputs": [],
      "name": "executeDecisions",
      "outputs": [],
      "stateMutability": "nonpayable",
      "type": "function"
    },
    {
      "inputs": [],
      "name": "executeDecisionsWhenNeeded",
      "outputs": [],
      "stateMutability": "nonpayable",
      "type": "function"
    },
    {
      "inputs": [],
      "name": "executePaySellers",
      "outputs": [],
      "stateMutability": "nonpayable",
      "type": "function"
    },
    {
      "inputs": [
        {
          "internalType": "uint256",
          "name": "_disputeId",
          "type": "uint256"
        }
      ],
      "name": "getDispute",
      "outputs": [
        {
          "components": [
            {
              "internalType": "uint256",
              "name": "itemId",
              "type": "uint256"
            },
            {
              "internalType": "uint256",
              "name": "shapshotId",
              "type": "uint256"
            },
            {
              "internalType": "address[]",
              "name": "disputers",
              "type": "address[]"
            },
            {
              "internalType": "int64[]",
              "name": "disputerLat",
              "type": "int64[]"
            },
            {
              "internalType": "int64[]",
              "name": "disputerLon",
              "type": "int64[]"
            },
            {
              "internalType": "uint256[]",
              "name": "disputerTime",
              "type": "uint256[]"
            },
            {
              "internalType": "string[]",
              "name": "disputerEvidence",
              "type": "string[]"
            }
          ],
          "internalType": "struct NFTicketsArbitration.Dispute",
          "name": "",
          "type": "tuple"
        }
      ],
      "stateMutability": "view",
      "type": "function"
    },
    {
      "inputs": [
        {
          "internalType": "uint256",
          "name": "_disputeId",
          "type": "uint256"
        }
      ],
      "name": "getSnapshotOfDispute",
      "outputs": [
        {
          "internalType": "uint256",
          "name": "",
          "type": "uint256"
        }
      ],
      "stateMutability": "view",
      "type": "function"
    },
    {
      "inputs": [
        {
          "internalType": "uint256",
          "name": "_itemId",
          "type": "uint256"
        },
        {
          "internalType": "int64",
          "name": "_disputerLat",
          "type": "int64"
        },
        {
          "internalType": "int64",
          "name": "_disputerLon",
          "type": "int64"
        },
        {
          "internalType": "uint256",
          "name": "_disputerTime",
          "type": "uint256"
        },
        {
          "internalType": "string",
          "name": "_disputerEvidence",
          "type": "string"
        }
      ],
      "name": "lodgeDispute",
      "outputs": [],
      "stateMutability": "nonpayable",
      "type": "function"
    },
    {
      "inputs": [
        {
          "internalType": "uint256",
          "name": "_disputeId",
          "type": "uint256"
        },
        {
          "internalType": "uint8",
          "name": "_choice",
          "type": "uint8"
        }
      ],
      "name": "oldVote",
      "outputs": [],
      "stateMutability": "nonpayable",
      "type": "function"
    },
    {
      "inputs": [],
      "name": "owner",
      "outputs": [
        {
          "internalType": "address",
          "name": "",
          "type": "address"
        }
      ],
      "stateMutability": "view",
      "type": "function"
    },
    {
      "inputs": [],
      "name": "renounceOwnership",
      "outputs": [],
      "stateMutability": "nonpayable",
      "type": "function"
    },
    {
      "inputs": [
        {
          "internalType": "address",
          "name": "_market",
          "type": "address"
        },
        {
          "internalType": "address",
          "name": "_ticket",
          "type": "address"
        }
      ],
      "name": "setUp",
      "outputs": [],
      "stateMutability": "nonpayable",
      "type": "function"
    },
    {
      "inputs": [
        {
          "internalType": "uint256",
          "name": "_decision",
          "type": "uint256"
        }
      ],
      "name": "showDecision",
      "outputs": [
        {
          "components": [
            {
              "internalType": "address[]",
              "name": "voter",
              "type": "address[]"
            },
            {
              "internalType": "uint8[]",
              "name": "decision",
              "type": "uint8[]"
            },
            {
              "internalType": "uint8",
              "name": "outcome",
              "type": "uint8"
            },
            {
              "internalType": "bool",
              "name": "processingStatus",
              "type": "bool"
            }
          ],
          "internalType": "struct NFTicketsArbitration.Decision",
          "name": "",
          "type": "tuple"
        }
      ],
      "stateMutability": "view",
      "type": "function"
    },
    {
      "inputs": [
        {
          "internalType": "address",
          "name": "newOwner",
          "type": "address"
        }
      ],
      "name": "transferOwnership",
      "outputs": [],
      "stateMutability": "nonpayable",
      "type": "function"
    },
    {
      "inputs": [
        {
          "internalType": "uint256",
          "name": "_disputeId",
          "type": "uint256"
        },
        {
          "internalType": "uint8",
          "name": "_choice",
          "type": "uint8"
        }
      ],
      "name": "vote",
      "outputs": [],
      "stateMutability": "nonpayable",
      "type": "function"
    },
    {
      "inputs": [
        {
          "internalType": "uint256",
          "name": "_disputeId",
          "type": "uint256"
        }
      ],
      "name": "voteCount",
      "outputs": [],
      "stateMutability": "nonpayable",
      "type": "function"
    },
    {
      "inputs": [],
      "name": "voterCount",
      "outputs": [
        {
          "internalType": "uint256",
          "name": "",
          "type": "uint256"
        }
      ],
      "stateMutability": "view",
      "type": "function"
    },
    {
      "inputs": [
        {
          "internalType": "uint256",
          "name": "",
          "type": "uint256"
        }
      ],
      "name": "voterToBallance",
      "outputs": [
        {
          "internalType": "address",
          "name": "voterAddress",
          "type": "address"
        },
        {
          "internalType": "uint256",
          "name": "balance",
          "type": "uint256"
        }
      ],
      "stateMutability": "view",
      "type": "function"
    },
    {
      "inputs": [
        {
          "internalType": "uint256",
          "name": "_disputeId",
          "type": "uint256"
        }
      ],
      "name": "votersLength",
      "outputs": [
        {
          "internalType": "uint256",
          "name": "",
          "type": "uint256"
        }
      ],
      "stateMutability": "view",
      "type": "function"
    },
    {
      "inputs": [],
      "name": "withdrawShare",
      "outputs": [],
      "stateMutability": "payable",
      "type": "function"
    },
    {
      "stateMutability": "payable",
      "type": "receive"
    }
  ],
  "transactionHash": "0x5520de087d735ea4131cad48f0359c12ffd301afb49144432097f7630013d9a5",
  "args": [
    "0x2ec22C2702ba4288951d5663dc8F87840F6B4505"
  ],
  "numDeployments": 1,
  "solcInputHash": "4c4ee8ecc65888b7e16babb2e969429f",
  "bytecode": "0x60a06040523480156200001157600080fd5b50604051620035fa380380620035fa8339810160408190526200003491620000e2565b6001600055620000443362000056565b6001600160a01b03166080526200010f565b600180546001600160a01b038381166001600160a01b0319831681179093556040519116919082907f8be0079c531659141344cd1fd0a4f28419497f9722a3daafe3b4186f6b6457e090600090a35050565b60006001600160a01b0382165b92915050565b620000c681620000a8565b8114620000d257600080fd5b50565b8051620000b581620000bb565b600060208284031215620000f957620000f9600080fd5b6000620001078484620000d5565b949350505050565b6080516134ac6200014e60003960008181610551015281816106820152818161121f015281816116d801528181611eca015261267101526134ac6000f3fe60806040526004361061016a5760003560e01c806389fb96de116100d1578063d2cc8fee1161008a578063f15a657911610064578063f15a65791461048b578063f2fde38b146104ab578063f46f16c2146104cb578063ff995bb4146104f85761017a565b8063d2cc8fee146103fa578063d7bd594c14610410578063e3a96cbd1461045e5761017a565b806389fb96de146103075780638b7afe2e146103345780638da5cb5b1461034a578063943e82161461037057806397271e49146103905780639d827c92146103da5761017a565b806342169e481161012357806342169e48146102455780634fc8a20d1461025b578063564a565d1461027b578063610f8d7e146102bd578063715018a6146102d257806384d3127d146102e75761017a565b8063243496711461018357806324f657e51461018b5780632552ac08146101a057806331fc1032146101e3578063377d8a1e146101f857806339e8dd09146102255761017a565b3661017a5761017834610518565b005b61017834610518565b6101786107c3565b34801561019757600080fd5b506101786108ae565b3480156101ac57600080fd5b506101cd6101bb366004612afa565b60009081526008602052604090205490565b6040516101da9190612b2b565b60405180910390f35b3480156101ef57600080fd5b50610178610d25565b34801561020457600080fd5b50610218610213366004612afa565b610d8f565b6040516101da9190612c6d565b34801561023157600080fd5b50610178610240366004612d8d565b610ec1565b34801561025157600080fd5b506101cd60055481565b34801561026757600080fd5b50610178610276366004612afa565b6118e5565b34801561028757600080fd5b506102af610296366004612afa565b6007602052600090815260409020805460019091015482565b6040516101da929190612e20565b3480156102c957600080fd5b506101786119ec565b3480156102de57600080fd5b50610178611c5b565b3480156102f357600080fd5b50610178610302366004612e4f565b611c6f565b34801561031357600080fd5b50610327610322366004612e8c565b611ca5565b6040516101da9190612ebf565b34801561034057600080fd5b506101cd60065481565b34801561035657600080fd5b506001546001600160a01b03166040516101da9190612ecd565b34801561037c57600080fd5b5061017861038b366004612eef565b611cf1565b34801561039c57600080fd5b506103cc6103ab366004612afa565b60086020526000908152604090206002015460ff8082169161010090041682565b6040516101da929190612f22565b3480156103e657600080fd5b506101cd6103f5366004612afa565b612176565b34801561040657600080fd5b506101cd60045481565b34801561041c57600080fd5b5061045061042b366004612afa565b600960205260009081526040902080546001909101546001600160a01b039091169082565b6040516101da929190612f3d565b34801561046a57600080fd5b5061047e610479366004612afa565b6121b1565b6040516101da9190613169565b34801561049757600080fd5b506101786104a6366004612eef565b6124c6565b3480156104b757600080fd5b506101786104c636600461317a565b612945565b3480156104d757600080fd5b506002546104eb906001600160a01b031681565b6040516101da91906131ba565b34801561050457600080fd5b506003546104eb906001600160a01b031681565b6000805b600554811015610647576000818152600960209081526040918290205482516327150a5f60e21b815292516001600160a01b037f0000000000000000000000000000000000000000000000000000000000000000811694634ee2cd7e9493909116928592639c54297c9260048082019392918290030181865afa1580156105a7573d6000803e3d6000fd5b505050506040513d601f19601f820116820180604052508101906105cb91906131d3565b6040518363ffffffff1660e01b81526004016105e8929190612f3d565b602060405180830381865afa158015610605573d6000803e3d6000fd5b505050506040513d601f19601f8201168201806040525081019061062991906131d3565b610633908361320a565b91508061063f81613222565b91505061051c565b5060005b6005548110156107ad576000818152600960209081526040918290205482516327150a5f60e21b8152925185936001600160a01b037f0000000000000000000000000000000000000000000000000000000000000000811694634ee2cd7e94909116928592639c54297c9260048083019391928290030181865afa1580156106d7573d6000803e3d6000fd5b505050506040513d601f19601f820116820180604052508101906106fb91906131d3565b6040518363ffffffff1660e01b8152600401610718929190612f3d565b602060405180830381865afa158015610735573d6000803e3d6000fd5b505050506040513d601f19601f8201168201806040525081019061075991906131d3565b610763908561323c565b61076d9190613271565b600082815260096020526040902060010154610789919061320a565b600082815260096020526040902060010155806107a581613222565b91505061064b565b50816006546107bc919061320a565b6006555050565b6002600054036107ee5760405162461bcd60e51b81526004016107e5906132bc565b60405180910390fd5b60026000556107fc3361297f565b151560011461081e57604051637c75aa6f60e11b815260040160405180910390fd5b6000805b60055481101561087757600081815260096020526040902054336001600160a01b0390911603610865576000818152600960205260408120600101805491905591505b8061086f81613222565b915050610822565b50604051339082156108fc029083906000818181858888f193505050501580156108a5573d6000803e3d6000fd5b50506001600055565b6002600054036108d05760405162461bcd60e51b81526004016107e5906132bc565b600260009081555b600454811015610d1d5760008181526008602052604090206002015460ff161580610917575060008181526008602052604090206002015460ff166001145b15610d0b576003546002546000838152600760205260409081902054905163053d84dd60e31b8152429362015180936001600160a01b039182169363117f02d79392909116916329ec26e89161096f91600401612b2b565b602060405180830381865afa15801561098c573d6000803e3d6000fd5b505050506040513d601f19601f820116820180604052508101906109b091906131d3565b6040518263ffffffff1660e01b81526004016109cc9190612b2b565b602060405180830381865afa1580156109e9573d6000803e3d6000fd5b505050506040513d601f19601f82011682018060405250810190610a0d91906131d3565b610a17919061320a565b1015610d0b57600254600082815260076020526040908190205490516304d785d760e21b81526014926001600160a01b03169163135e175c91610a5d9190600401612b2b565b602060405180830381865afa158015610a7a573d6000803e3d6000fd5b505050506040513d601f19601f82011682018060405250810190610a9e91906131d3565b610aa89190613271565b60008281526007602052604090206002015411610ae25760008181526008602052604090206002908101805460ff19169091179055610d0b565b610aeb816118e5565b600081815260086020526040812060020154610100900460ff1615159003610d0b5760008181526008602052604090206002015460ff16600103610c10576002546000828152600760205260409081902054905163c5a8a2ab60e01b81526001600160a01b039092169163c5a8a2ab91610b699160049081016132e0565b600060405180830381600087803b158015610b8357600080fd5b505af1158015610b97573d6000803e3d6000fd5b50506002546000848152600760205260409081902054905163626f1bb560e01b81526001600160a01b03909216935063626f1bb59250610bd991600401612b2b565b600060405180830381600087803b158015610bf357600080fd5b505af1158015610c07573d6000803e3d6000fd5b50505050610cec565b6002546000828152600760205260409081902054905163c5a8a2ab60e01b81526001600160a01b039092169163c5a8a2ab91610c51916003906004016132e0565b600060405180830381600087803b158015610c6b57600080fd5b505af1158015610c7f573d6000803e3d6000fd5b50505050600260009054906101000a90046001600160a01b03166001600160a01b031663b2bf04a36040518163ffffffff1660e01b8152600401600060405180830381600087803b158015610cd357600080fd5b505af1158015610ce7573d6000803e3d6000fd5b505050505b6000818152600860205260409020600201805461ff0019166101001790555b80610d1581613222565b9150506108d8565b506001600055565b600260009054906101000a90046001600160a01b03166001600160a01b031663b2bf04a36040518163ffffffff1660e01b8152600401600060405180830381600087803b158015610d7557600080fd5b505af1158015610d89573d6000803e3d6000fd5b50505050565b6040805160808101825260608082526020820181905260009282018390528101919091526000828152600860209081526040918290208251815460a093810282018401909452608081018481529093919284928491840182828015610e1d57602002820191906000526020600020905b81546001600160a01b03168152600190910190602001808311610dff575b5050505050815260200160018201805480602002602001604051908101604052809291908181526020018280548015610e9357602002820191906000526020600020906000905b825461010083900a900460ff16815260206001928301818104948501949093039092029101808411610e645790505b50505091835250506002919091015460ff808216602084015261010090910416151560409091015292915050565b600260005403610ee35760405162461bcd60e51b81526004016107e5906132bc565b60026000819055600354905460405163053d84dd60e31b81526001600160a01b039283169262fdd58e9233929116906329ec26e890610f26908b90600401612b2b565b602060405180830381865afa158015610f43573d6000803e3d6000fd5b505050506040513d601f19601f82011682018060405250810190610f6791906131d3565b6040518363ffffffff1660e01b8152600401610f84929190612f3d565b602060405180830381865afa158015610fa1573d6000803e3d6000fd5b505050506040513d601f19601f82011682018060405250810190610fc591906131d3565b600003610fe45760405162461bcd60e51b81526004016107e59061331b565b60035460025460405163053d84dd60e31b8152429262015180926001600160a01b039182169263117f02d792909116906329ec26e890611028908c90600401612b2b565b602060405180830381865afa158015611045573d6000803e3d6000fd5b505050506040513d601f19601f8201168201806040525081019061106991906131d3565b6040518263ffffffff1660e01b81526004016110859190612b2b565b602060405180830381865afa1580156110a2573d6000803e3d6000fd5b505050506040513d601f19601f820116820180604052508101906110c691906131d3565b6110d0919061332b565b106110ed5760405162461bcd60e51b81526004016107e59061335a565b60035460025460405163053d84dd60e31b8152429262015180926001600160a01b039182169263117f02d792909116906329ec26e890611131908c90600401612b2b565b602060405180830381865afa15801561114e573d6000803e3d6000fd5b505050506040513d601f19601f8201168201806040525081019061117291906131d3565b6040518263ffffffff1660e01b815260040161118e9190612b2b565b602060405180830381865afa1580156111ab573d6000803e3d6000fd5b505050506040513d601f19601f820116820180604052508101906111cf91906131d3565b6111d9919061320a565b116111f65760405162461bcd60e51b81526004016107e590613382565b6004546000036114225784600760006004548152602001908152602001600020600001819055507f00000000000000000000000000000000000000000000000000000000000000006001600160a01b0316639c54297c6040518163ffffffff1660e01b8152600401602060405180830381865afa15801561127b573d6000803e3d6000fd5b505050506040513d601f19601f8201168201806040525081019061129f91906131d3565b60048054600090815260076020908152604080832060019081019590955583548352808320600201805480870182559084528284200180546001600160a01b031916331790558354835280832060039081018054808801825590855283852086820401805467ffffffffffffffff808e166008948616850261010090810a91820291830219909316179092558754875284872088018054808b0182559088528688208982040180548e85169290961690940290910a9081029102199092169190911790558354835280832060050180548087018255908452828420018790559254825291812060060180549384018155815281902083516113a7939190910191840190612a49565b506002805460405163c5a8a2ab60e01b81526001600160a01b039091169163c5a8a2ab916113d99189916004016132e0565b600060405180830381600087803b1580156113f357600080fd5b505af1158015611407573d6000803e3d6000fd5b50505050600454600161141a919061320a565b6004556118d9565b6000805b6004548110156116ae576000818152600760205260409020548790036116975760005b6000828152600760205260409020600201548110156114cd57600082815260076020526040902060020180543391908390811061148857611488613392565b6000918252602090912001546001600160a01b0316036114bb57604051630231844760e11b815260040160405180910390fd5b806114c581613222565b915050611449565b5060076000828152602001908152602001600020600201339080600181540180825580915050600190039060005260206000200160009091909190916101000a8154816001600160a01b0302191690836001600160a01b03160217905550600760008281526020019081526020016000206003018690806001815401808255809150506001900390600052602060002090600491828204019190066008029091909190916101000a81548167ffffffffffffffff021916908360070b67ffffffffffffffff160217905550600760008281526020019081526020016000206004018590806001815401808255809150506001900390600052602060002090600491828204019190066008029091909190916101000a81548167ffffffffffffffff021916908360070b67ffffffffffffffff160217905550600760008281526020019081526020016000206005018490806001815401808255809150506001900390600052602060002001600090919091909150556007600082815260200190815260200160002060060183908060018154018082558091505060019003906000526020600020016000909190919091509080519060200190611691929190612a49565b5061169c565b600191505b806116a681613222565b915050611426565b508015156001036118d75785600760006004548152602001908152602001600020600001819055507f00000000000000000000000000000000000000000000000000000000000000006001600160a01b0316639c54297c6040518163ffffffff1660e01b8152600401602060405180830381865afa158015611734573d6000803e3d6000fd5b505050506040513d601f19601f8201168201806040525081019061175891906131d3565b60048054600090815260076020908152604080832060019081019590955583548352808320600201805480870182559084528284200180546001600160a01b031916331790558354835280832060039081018054808801825590855283852086820401805467ffffffffffffffff808f166008948616850261010090810a91820291830219909316179092558754875284872088018054808b0182559088528688208982040180548f85169290961690940290910a908102910219909216919091179055835483528083206005018054808701825590845282842001889055925482529181206006018054938401815581528190208451611860939190910191850190612a49565b506002805460405163c5a8a2ab60e01b81526001600160a01b039091169163c5a8a2ab91611892918a916004016132e0565b600060405180830381600087803b1580156118ac57600080fd5b505af11580156118c0573d6000803e3d6000fd5b5050505060045460016118d3919061320a565b6004555b505b50506001600055505050565b6004548111156119085760405163b6f6dbe160e01b815260040160405180910390fd5b6000818152600860205260408120549080805b8381101561199f57600085815260086020526040902060010180548290811061194657611946613392565b60009182526020918290209181049091015460ff601f9092166101000a90041660010361197f5761197883600161320a565b925061198d565b61198a82600161320a565b91505b8061199781613222565b91505061191b565b50808211156119c9576000848152600860205260409020600201805460ff19166001179055610d89565b50505060009081526008602052604090206002908101805460ff19169091179055565b600260005403611a0e5760405162461bcd60e51b81526004016107e5906132bc565b600260009081555b600454811015610d1d57611a29816118e5565b600081815260086020526040812060020154610100900460ff1615159003611c495760008181526008602052604090206002015460ff16600103611b4e576002546000828152600760205260409081902054905163c5a8a2ab60e01b81526001600160a01b039092169163c5a8a2ab91611aa79160049081016132e0565b600060405180830381600087803b158015611ac157600080fd5b505af1158015611ad5573d6000803e3d6000fd5b50506002546000848152600760205260409081902054905163626f1bb560e01b81526001600160a01b03909216935063626f1bb59250611b1791600401612b2b565b600060405180830381600087803b158015611b3157600080fd5b505af1158015611b45573d6000803e3d6000fd5b50505050611c2a565b6002546000828152600760205260409081902054905163c5a8a2ab60e01b81526001600160a01b039092169163c5a8a2ab91611b8f916003906004016132e0565b600060405180830381600087803b158015611ba957600080fd5b505af1158015611bbd573d6000803e3d6000fd5b50505050600260009054906101000a90046001600160a01b03166001600160a01b031663b2bf04a36040518163ffffffff1660e01b8152600401600060405180830381600087803b158015611c1157600080fd5b505af1158015611c25573d6000803e3d6000fd5b505050505b6000818152600860205260409020600201805461ff0019166101001790555b80611c5381613222565b915050611a16565b611c636129cd565b611c6d60006129f7565b565b611c776129cd565b600280546001600160a01b039384166001600160a01b03199182161790915560038054929093169116179055565b6000828152600860205260408120600101805483908110611cc857611cc8613392565b90600052602060002090602091828204019190069054906101000a900460ff1690505b92915050565b600260005403611d135760405162461bcd60e51b81526004016107e5906132bc565b6002600055600454821115611d3b5760405163b6f6dbe160e01b815260040160405180910390fd5b6000828152600760205260408120549003611d695760405163b6f6dbe160e01b815260040160405180910390fd5b42611d7862015180600461323c565b6003546002546000868152600760205260409081902054905163053d84dd60e31b81526001600160a01b039384169363117f02d79316916329ec26e891611dc29190600401612b2b565b602060405180830381865afa158015611ddf573d6000803e3d6000fd5b505050506040513d601f19601f82011682018060405250810190611e0391906131d3565b6040518263ffffffff1660e01b8152600401611e1f9190612b2b565b602060405180830381865afa158015611e3c573d6000803e3d6000fd5b505050506040513d601f19601f82011682018060405250810190611e6091906131d3565b611e6a919061320a565b1015611e895760405163a9a7700360e01b815260040160405180910390fd5b600082815260086020526040902060029081015460ff169003611ebf57604051637a3d779160e11b815260040160405180910390fd5b670de0b6b3a76400007f00000000000000000000000000000000000000000000000000000000000000006001600160a01b0316634ee2cd7e33611f0186612176565b6040518363ffffffff1660e01b8152600401611f1e929190612f3d565b602060405180830381865afa158015611f3b573d6000803e3d6000fd5b505050506040513d601f19601f82011682018060405250810190611f5f91906131d3565b1015611f7e5760405163f8c9624960e01b815260040160405180910390fd5b60ff81161580611f91575060028160ff16115b15611faf57604051639c45400160e01b815260040160405180910390fd5b600082815260086020526040812054815b8181101561201c576000858152600860205260409020805433919083908110611feb57611feb613392565b6000918252602090912001546001600160a01b03160361200a57600192505b8061201481613222565b915050611fc0565b50811515600003612152576000848152600860209081526040822080546001818101835582855283852090910180546001600160a01b03191633179055908101805491820181558352818320918104909101805460ff808816601f9094166101000a9384029302191691909117905560055490036120ca5760058054600090815260096020526040902080546001600160a01b03191633179055546120c290600161320a565b60055561216b565b6000805b60055481101561210f57600081815260096020526040902054336001600160a01b03909116036120fd57600191505b8061210781613222565b9150506120ce565b5080151560000361214c5760058054600090815260096020526040902080546001600160a01b031916331790555461214890600161320a565b6005555b5061216b565b604051637c9a1cf960e01b815260040160405180910390fd5b505060016000555050565b600060045482111561219b5760405163b6f6dbe160e01b815260040160405180910390fd5b5060009081526007602052604090206001015490565b6121f16040518060e00160405280600081526020016000815260200160608152602001606081526020016060815260200160608152602001606081525090565b6004548211156122145760405163b6f6dbe160e01b815260040160405180910390fd5b600082815260076020908152604091829020825160e081018452815481526001820154818401526002820180548551818602810186018752818152929593949386019383018282801561229057602002820191906000526020600020905b81546001600160a01b03168152600190910190602001808311612272575b505050505081526020016003820180548060200260200160405190810160405280929190818152602001828054801561230b57602002820191906000526020600020906000905b825461010083900a900460070b81526020600f83018190049384019360010360089093019290920291018084116122d75790505b505050505081526020016004820180548060200260200160405190810160405280929190818152602001828054801561238657602002820191906000526020600020906000905b825461010083900a900460070b81526020600f83018190049384019360010360089093019290920291018084116123525790505b50505050508152602001600582018054806020026020016040519081016040528092919081815260200182805480156123de57602002820191906000526020600020905b8154815260200190600101908083116123ca575b5050505050815260200160068201805480602002602001604051908101604052809291908181526020016000905b828210156124b857838290600052602060002001805461242b906133be565b80601f0160208091040260200160405190810160405280929190818152602001828054612457906133be565b80156124a45780601f10612479576101008083540402835291602001916124a4565b820191906000526020600020905b81548152906001019060200180831161248757829003601f168201915b50505050508152602001906001019061240c565b505050915250909392505050565b6002600054036124e85760405162461bcd60e51b81526004016107e5906132bc565b60026000556004548211156125105760405163b6f6dbe160e01b815260040160405180910390fd5b4261251f62015180600461323c565b6003546002546000868152600760205260409081902054905163053d84dd60e31b81526001600160a01b039384169363117f02d79316916329ec26e8916125699190600401612b2b565b602060405180830381865afa158015612586573d6000803e3d6000fd5b505050506040513d601f19601f820116820180604052508101906125aa91906131d3565b6040518263ffffffff1660e01b81526004016125c69190612b2b565b602060405180830381865afa1580156125e3573d6000803e3d6000fd5b505050506040513d601f19601f8201168201806040525081019061260791906131d3565b612611919061320a565b10156126305760405163a9a7700360e01b815260040160405180910390fd5b600082815260086020526040902060029081015460ff16900361266657604051637a3d779160e11b815260040160405180910390fd5b670de0b6b3a76400007f00000000000000000000000000000000000000000000000000000000000000006001600160a01b0316634ee2cd7e336126a886612176565b6040518363ffffffff1660e01b81526004016126c5929190612f3d565b602060405180830381865afa1580156126e2573d6000803e3d6000fd5b505050506040513d601f19601f8201168201806040525081019061270691906131d3565b10156127255760405163f8c9624960e01b815260040160405180910390fd5b60ff81161580612738575060028160ff16115b1561275657604051639c45400160e01b815260040160405180910390fd5b600082815260086020526040812054905b8181101561287757600084815260086020526040902080543391908390811061279257612792613392565b6000918252602090912001546001600160a01b0316036128015760008481526008602052604090206001018054849190839081106127d2576127d2613392565b90600052602060002090602091828204019190066101000a81548160ff021916908360ff160217905550612865565b6000848152600860209081526040822080546001818101835582855283852090910180546001600160a01b031916331790559081018054918201815583529181902090820401805460ff808716601f9094166101000a938402930219169190911790555b8061286f81613222565b915050612767565b506005546000036128b85760058054600090815260096020526040902080546001600160a01b03191633179055546128b090600161320a565b60055561293b565b6000805b6005548110156128fd57600081815260096020526040902054336001600160a01b03909116036128eb57600191505b806128f581613222565b9150506128bc565b5080151560000361216b5760058054600090815260096020526040902080546001600160a01b031916331790555461293690600161320a565b600555505b5050600160005550565b61294d6129cd565b6001600160a01b0381166129735760405162461bcd60e51b81526004016107e5906133ea565b61297c816129f7565b50565b600080805b6005548110156129c6576000818152600960205260409020546001600160a01b038086169116036129b457600191505b806129be81613222565b915050612984565b5092915050565b6001546001600160a01b03163314611c6d5760405162461bcd60e51b81526004016107e590613466565b600180546001600160a01b038381166001600160a01b0319831681179093556040519116919082907f8be0079c531659141344cd1fd0a4f28419497f9722a3daafe3b4186f6b6457e090600090a35050565b828054612a55906133be565b90600052602060002090601f016020900481019282612a775760008555612abd565b82601f10612a9057805160ff1916838001178555612abd565b82800160010185558215612abd579182015b82811115612abd578251825591602001919060010190612aa2565b50612ac9929150612acd565b5090565b5b80821115612ac95760008155600101612ace565b805b811461297c57600080fd5b8035611ceb81612ae2565b600060208284031215612b0f57612b0f600080fd5b6000612b1b8484612aef565b949350505050565b805b82525050565b60208101611ceb8284612b23565b60006001600160a01b038216611ceb565b612b2581612b39565b6000612b5f8383612b4a565b505060200190565b6000612b71825190565b80845260209384019383018060005b83811015612ba5578151612b948882612b53565b975060208301925050600101612b80565b509495945050505050565b60ff8116612b25565b6000612b5f8383612bb0565b6000612bcf825190565b80845260209384019383018060005b83811015612ba5578151612bf28882612bb9565b975060208301925050600101612bde565b801515612b25565b8051608080845260009190840190612c238282612b67565b91505060208301518482036020860152612c3d8282612bc5565b9150506040830151612c526040860182612bb0565b506060830151612c656060860182612c03565b509392505050565b60208082528101612c7e8184612c0b565b9392505050565b612ae48160070b90565b8035611ceb81612c85565b634e487b7160e01b600052604160045260246000fd5b601f19601f830116810181811067ffffffffffffffff82111715612cd657612cd6612c9a565b6040525050565b6000612ce860405190565b9050612cf48282612cb0565b919050565b600067ffffffffffffffff821115612d1357612d13612c9a565b601f19601f83011660200192915050565b82818337506000910152565b6000612d43612d3e84612cf9565b612cdd565b905082815260208101848484011115612d5e57612d5e600080fd5b612c65848285612d24565b600082601f830112612d7d57612d7d600080fd5b8135612b1b848260208601612d30565b600080600080600060a08688031215612da857612da8600080fd5b6000612db48888612aef565b9550506020612dc588828901612c8f565b9450506040612dd688828901612c8f565b9350506060612de788828901612aef565b925050608086013567ffffffffffffffff811115612e0757612e07600080fd5b612e1388828901612d69565b9150509295509295909350565b60408101612e2e8285612b23565b612c7e6020830184612b23565b612ae481612b39565b8035611ceb81612e3b565b60008060408385031215612e6557612e65600080fd5b6000612e718585612e44565b9250506020612e8285828601612e44565b9150509250929050565b60008060408385031215612ea257612ea2600080fd5b6000612eae8585612aef565b9250506020612e8285828601612aef565b60208101611ceb8284612bb0565b60208101611ceb8284612b4a565b60ff8116612ae4565b8035611ceb81612edb565b60008060408385031215612f0557612f05600080fd5b6000612f118585612aef565b9250506020612e8285828601612ee4565b60408101612f308285612bb0565b612c7e6020830184612c03565b60408101612e2e8285612b4a565b612b258160070b90565b6000612b5f8383612f4b565b6000612f6b825190565b80845260209384019383018060005b83811015612ba5578151612f8e8882612f55565b975060208301925050600101612f7a565b6000612b5f8383612b23565b6000612fb5825190565b80845260209384019383018060005b83811015612ba5578151612fd88882612f9f565b975060208301925050600101612fc4565b60005b83811015613004578181015183820152602001612fec565b83811115610d895750506000910152565b600061301f825190565b808452602084019350613036818560208601612fe9565b601f01601f19169290920192915050565b6000612c7e8383613015565b600061305d825190565b808452602084019350836020820285016130778560200190565b8060005b858110156130ac57848403895281516130948582613047565b94506020830160209a909a019992505060010161307b565b5091979650505050505050565b805160009060e08401906130cd8582612b23565b5060208301516130e06020860182612b23565b50604083015184820360408601526130f88282612b67565b915050606083015184820360608601526131128282612f61565b9150506080830151848203608086015261312c8282612f61565b91505060a083015184820360a08601526131468282612fab565b91505060c083015184820360c08601526131608282613053565b95945050505050565b60208082528101612c7e81846130b9565b60006020828403121561318f5761318f600080fd5b6000612b1b8484612e44565b6000611ceb82612b39565b6000611ceb8261319b565b612b25816131a6565b60208101611ceb82846131b1565b8051611ceb81612ae2565b6000602082840312156131e8576131e8600080fd5b6000612b1b84846131c8565b634e487b7160e01b600052601160045260246000fd5b6000821982111561321d5761321d6131f4565b500190565b60006000198203613235576132356131f4565b5060010190565b6000816000190483118215151615613256576132566131f4565b500290565b634e487b7160e01b600052601260045260246000fd5b6000826132805761328061325b565b500490565b601f81526000602082017f5265656e7472616e637947756172643a207265656e7472616e742063616c6c00815291505b5060200190565b60208082528101611ceb81613285565b600060ff8216611ceb565b612b25816132cc565b604081016132ee8285612b23565b612c7e60208301846132d7565b6009815260006020820168139bc81d1a58dad95d60ba1b815291506132b5565b60208082528101611ceb816132fb565b60008282101561333d5761333d6131f4565b500390565b60018152600060208201601960f91b815291506132b5565b60208082528101611ceb81613342565b60018152600060208201603360f81b815291506132b5565b60208082528101611ceb8161336a565b634e487b7160e01b600052603260045260246000fd5b634e487b7160e01b600052602260045260246000fd5b6002810460018216806133d257607f821691505b6020821081036133e4576133e46133a8565b50919050565b60208082528101611ceb81602681527f4f776e61626c653a206e6577206f776e657220697320746865207a65726f206160208201526564647265737360d01b604082015260600190565b60208082527f4f776e61626c653a2063616c6c6572206973206e6f7420746865206f776e6572910190815260006132b5565b60208082528101611ceb8161343456fea2646970667358221220edd033237da79b77541cb88d8ff4bac03cacbd50a1d1ede80803afad35596d6f64736f6c634300080d0033",
  "devdoc": {
    "kind": "dev",
    "methods": {
      "owner()": {
        "details": "Returns the address of the current owner."
      },
      "renounceOwnership()": {
        "details": "Leaves the contract without owner. It will not be possible to call `onlyOwner` functions anymore. Can only be called by the current owner. NOTE: Renouncing ownership will leave the contract without an owner, thereby removing any functionality that is only available to the owner."
      },
      "transferOwnership(address)": {
        "details": "Transfers ownership of the contract to a new account (`newOwner`). Can only be called by the current owner."
      }
    },
    "version": 1
  },
  "userdoc": {
    "kind": "user",
    "methods": {},
    "version": 1
  },
  "storageLayout": {
    "storage": [
      {
        "astId": 169,
        "contract": "contracts/NFTicketsArbitration.sol:NFTicketsArbitration",
        "label": "_status",
        "offset": 0,
        "slot": "0",
        "type": "t_uint256"
      },
      {
        "astId": 53,
        "contract": "contracts/NFTicketsArbitration.sol:NFTicketsArbitration",
        "label": "_owner",
        "offset": 0,
        "slot": "1",
        "type": "t_address"
      },
      {
        "astId": 4069,
        "contract": "contracts/NFTicketsArbitration.sol:NFTicketsArbitration",
        "label": "MARKET",
        "offset": 0,
        "slot": "2",
        "type": "t_contract(NFTicketsMarket)7650"
      },
      {
        "astId": 4075,
        "contract": "contracts/NFTicketsArbitration.sol:NFTicketsArbitration",
        "label": "TICKET",
        "offset": 0,
        "slot": "3",
        "type": "t_contract(NFTicketsTic)8036"
      },
      {
        "astId": 4131,
        "contract": "contracts/NFTicketsArbitration.sol:NFTicketsArbitration",
        "label": "disputeIndex",
        "offset": 0,
        "slot": "4",
        "type": "t_uint256"
      },
      {
        "astId": 4133,
        "contract": "contracts/NFTicketsArbitration.sol:NFTicketsArbitration",
        "label": "voterCount",
        "offset": 0,
        "slot": "5",
        "type": "t_uint256"
      },
      {
        "astId": 4135,
        "contract": "contracts/NFTicketsArbitration.sol:NFTicketsArbitration",
        "label": "contractBalance",
        "offset": 0,
        "slot": "6",
        "type": "t_uint256"
      },
      {
        "astId": 4140,
        "contract": "contracts/NFTicketsArbitration.sol:NFTicketsArbitration",
        "label": "disputes",
        "offset": 0,
        "slot": "7",
        "type": "t_mapping(t_uint256,t_struct(Dispute)4113_storage)"
      },
      {
        "astId": 4145,
        "contract": "contracts/NFTicketsArbitration.sol:NFTicketsArbitration",
        "label": "disputeToDecisions",
        "offset": 0,
        "slot": "8",
        "type": "t_mapping(t_uint256,t_struct(Decision)4124_storage)"
      },
      {
        "astId": 4150,
        "contract": "contracts/NFTicketsArbitration.sol:NFTicketsArbitration",
        "label": "voterToBallance",
        "offset": 0,
        "slot": "9",
        "type": "t_mapping(t_uint256,t_struct(Voter)4129_storage)"
      }
    ],
    "types": {
      "t_address": {
        "encoding": "inplace",
        "label": "address",
        "numberOfBytes": "20"
      },
      "t_array(t_address)dyn_storage": {
        "base": "t_address",
        "encoding": "dynamic_array",
        "label": "address[]",
        "numberOfBytes": "32"
      },
      "t_array(t_int64)dyn_storage": {
        "base": "t_int64",
        "encoding": "dynamic_array",
        "label": "int64[]",
        "numberOfBytes": "32"
      },
      "t_array(t_string_storage)dyn_storage": {
        "base": "t_string_storage",
        "encoding": "dynamic_array",
        "label": "string[]",
        "numberOfBytes": "32"
      },
      "t_array(t_uint256)dyn_storage": {
        "base": "t_uint256",
        "encoding": "dynamic_array",
        "label": "uint256[]",
        "numberOfBytes": "32"
      },
      "t_array(t_uint8)dyn_storage": {
        "base": "t_uint8",
        "encoding": "dynamic_array",
        "label": "uint8[]",
        "numberOfBytes": "32"
      },
      "t_bool": {
        "encoding": "inplace",
        "label": "bool",
        "numberOfBytes": "1"
      },
      "t_contract(NFTicketsMarket)7650": {
        "encoding": "inplace",
        "label": "contract NFTicketsMarket",
        "numberOfBytes": "20"
      },
      "t_contract(NFTicketsTic)8036": {
        "encoding": "inplace",
        "label": "contract NFTicketsTic",
        "numberOfBytes": "20"
      },
      "t_int64": {
        "encoding": "inplace",
        "label": "int64",
        "numberOfBytes": "8"
      },
      "t_mapping(t_uint256,t_struct(Decision)4124_storage)": {
        "encoding": "mapping",
        "key": "t_uint256",
        "label": "mapping(uint256 => struct NFTicketsArbitration.Decision)",
        "numberOfBytes": "32",
        "value": "t_struct(Decision)4124_storage"
      },
      "t_mapping(t_uint256,t_struct(Dispute)4113_storage)": {
        "encoding": "mapping",
        "key": "t_uint256",
        "label": "mapping(uint256 => struct NFTicketsArbitration.Dispute)",
        "numberOfBytes": "32",
        "value": "t_struct(Dispute)4113_storage"
      },
      "t_mapping(t_uint256,t_struct(Voter)4129_storage)": {
        "encoding": "mapping",
        "key": "t_uint256",
        "label": "mapping(uint256 => struct NFTicketsArbitration.Voter)",
        "numberOfBytes": "32",
        "value": "t_struct(Voter)4129_storage"
      },
      "t_string_storage": {
        "encoding": "bytes",
        "label": "string",
        "numberOfBytes": "32"
      },
      "t_struct(Decision)4124_storage": {
        "encoding": "inplace",
        "label": "struct NFTicketsArbitration.Decision",
        "members": [
          {
            "astId": 4116,
            "contract": "contracts/NFTicketsArbitration.sol:NFTicketsArbitration",
            "label": "voter",
            "offset": 0,
            "slot": "0",
            "type": "t_array(t_address)dyn_storage"
          },
          {
            "astId": 4119,
            "contract": "contracts/NFTicketsArbitration.sol:NFTicketsArbitration",
            "label": "decision",
            "offset": 0,
            "slot": "1",
            "type": "t_array(t_uint8)dyn_storage"
          },
          {
            "astId": 4121,
            "contract": "contracts/NFTicketsArbitration.sol:NFTicketsArbitration",
            "label": "outcome",
            "offset": 0,
            "slot": "2",
            "type": "t_uint8"
          },
          {
            "astId": 4123,
            "contract": "contracts/NFTicketsArbitration.sol:NFTicketsArbitration",
            "label": "processingStatus",
            "offset": 1,
            "slot": "2",
            "type": "t_bool"
          }
        ],
        "numberOfBytes": "96"
      },
      "t_struct(Dispute)4113_storage": {
        "encoding": "inplace",
        "label": "struct NFTicketsArbitration.Dispute",
        "members": [
          {
            "astId": 4095,
            "contract": "contracts/NFTicketsArbitration.sol:NFTicketsArbitration",
            "label": "itemId",
            "offset": 0,
            "slot": "0",
            "type": "t_uint256"
          },
          {
            "astId": 4097,
            "contract": "contracts/NFTicketsArbitration.sol:NFTicketsArbitration",
            "label": "shapshotId",
            "offset": 0,
            "slot": "1",
            "type": "t_uint256"
          },
          {
            "astId": 4100,
            "contract": "contracts/NFTicketsArbitration.sol:NFTicketsArbitration",
            "label": "disputers",
            "offset": 0,
            "slot": "2",
            "type": "t_array(t_address)dyn_storage"
          },
          {
            "astId": 4103,
            "contract": "contracts/NFTicketsArbitration.sol:NFTicketsArbitration",
            "label": "disputerLat",
            "offset": 0,
            "slot": "3",
            "type": "t_array(t_int64)dyn_storage"
          },
          {
            "astId": 4106,
            "contract": "contracts/NFTicketsArbitration.sol:NFTicketsArbitration",
            "label": "disputerLon",
            "offset": 0,
            "slot": "4",
            "type": "t_array(t_int64)dyn_storage"
          },
          {
            "astId": 4109,
            "contract": "contracts/NFTicketsArbitration.sol:NFTicketsArbitration",
            "label": "disputerTime",
            "offset": 0,
            "slot": "5",
            "type": "t_array(t_uint256)dyn_storage"
          },
          {
            "astId": 4112,
            "contract": "contracts/NFTicketsArbitration.sol:NFTicketsArbitration",
            "label": "disputerEvidence",
            "offset": 0,
            "slot": "6",
            "type": "t_array(t_string_storage)dyn_storage"
          }
        ],
        "numberOfBytes": "224"
      },
      "t_struct(Voter)4129_storage": {
        "encoding": "inplace",
        "label": "struct NFTicketsArbitration.Voter",
        "members": [
          {
            "astId": 4126,
            "contract": "contracts/NFTicketsArbitration.sol:NFTicketsArbitration",
            "label": "voterAddress",
            "offset": 0,
            "slot": "0",
            "type": "t_address"
          },
          {
            "astId": 4128,
            "contract": "contracts/NFTicketsArbitration.sol:NFTicketsArbitration",
            "label": "balance",
            "offset": 0,
            "slot": "1",
            "type": "t_uint256"
          }
        ],
        "numberOfBytes": "64"
      },
      "t_uint256": {
        "encoding": "inplace",
        "label": "uint256",
        "numberOfBytes": "32"
      },
      "t_uint8": {
        "encoding": "inplace",
        "label": "uint8",
        "numberOfBytes": "1"
      }
    }
  }
}