{
  "address": "0x4ABA063452ED112e26ef8f784AC2bFeC800c717a",
  "abi": [
    {
      "inputs": [
        {
          "internalType": "address",
          "name": "_owner",
          "type": "address"
        },
        {
          "internalType": "address",
          "name": "_utils",
          "type": "address"
        }
      ],
      "stateMutability": "nonpayable",
      "type": "constructor"
    },
    {
      "inputs": [],
      "name": "AlreadyRefunded",
      "type": "error"
    },
    {
      "inputs": [],
      "name": "EventStarting",
      "type": "error"
    },
    {
      "inputs": [],
      "name": "InvalidSignatureLength",
      "type": "error"
    },
    {
      "inputs": [],
      "name": "InvalidStatus",
      "type": "error"
    },
    {
      "inputs": [],
      "name": "ItemNotListed",
      "type": "error"
    },
    {
      "inputs": [],
      "name": "ItemSoldOut",
      "type": "error"
    },
    {
      "inputs": [],
      "name": "NoBuyers",
      "type": "error"
    },
    {
      "inputs": [],
      "name": "NoLongerOnSale",
      "type": "error"
    },
    {
      "inputs": [],
      "name": "NoSales",
      "type": "error"
    },
    {
      "inputs": [],
      "name": "Not20PercentOfListing",
      "type": "error"
    },
    {
      "inputs": [],
      "name": "NotAskingPrice",
      "type": "error"
    },
    {
      "inputs": [],
      "name": "NotDisputed",
      "type": "error"
    },
    {
      "inputs": [],
      "name": "NotEnoughItemsForSale",
      "type": "error"
    },
    {
      "inputs": [],
      "name": "NotEnoughTokensForListing",
      "type": "error"
    },
    {
      "inputs": [],
      "name": "NotOriginalSeller",
      "type": "error"
    },
    {
      "inputs": [],
      "name": "NotOwner",
      "type": "error"
    },
    {
      "inputs": [],
      "name": "NothingToRefundHere",
      "type": "error"
    },
    {
      "inputs": [],
      "name": "SellerOnlyFunction",
      "type": "error"
    },
    {
      "anonymous": false,
      "inputs": [
        {
          "indexed": true,
          "internalType": "uint256",
          "name": "itemId",
          "type": "uint256"
        },
        {
          "indexed": true,
          "internalType": "address",
          "name": "nftContract",
          "type": "address"
        },
        {
          "indexed": true,
          "internalType": "uint256",
          "name": "tokenId",
          "type": "uint256"
        },
        {
          "indexed": false,
          "internalType": "string",
          "name": "name",
          "type": "string"
        },
        {
          "indexed": false,
          "internalType": "address",
          "name": "seller",
          "type": "address"
        },
        {
          "indexed": false,
          "internalType": "address",
          "name": "owner",
          "type": "address"
        },
        {
          "indexed": false,
          "internalType": "uint256",
          "name": "price",
          "type": "uint256"
        },
        {
          "indexed": false,
          "internalType": "uint256",
          "name": "amount",
          "type": "uint256"
        },
        {
          "indexed": false,
          "internalType": "uint256",
          "name": "initialQuantity",
          "type": "uint256"
        },
        {
          "indexed": false,
          "internalType": "uint256",
          "name": "totalSales",
          "type": "uint256"
        },
        {
          "indexed": false,
          "internalType": "uint8",
          "name": "status",
          "type": "uint8"
        },
        {
          "indexed": false,
          "internalType": "uint256",
          "name": "finalCommision",
          "type": "uint256"
        }
      ],
      "name": "MarketItemCreated",
      "type": "event"
    },
    {
      "inputs": [],
      "name": "_itemIds",
      "outputs": [
        {
          "internalType": "uint256",
          "name": "_value",
          "type": "uint256"
        }
      ],
      "stateMutability": "view",
      "type": "function"
    },
    {
      "inputs": [],
      "name": "_itemsSold",
      "outputs": [
        {
          "internalType": "uint256",
          "name": "_value",
          "type": "uint256"
        }
      ],
      "stateMutability": "view",
      "type": "function"
    },
    {
      "inputs": [
        {
          "internalType": "address",
          "name": "",
          "type": "address"
        },
        {
          "internalType": "uint256",
          "name": "",
          "type": "uint256"
        }
      ],
      "name": "addressToSpending",
      "outputs": [
        {
          "internalType": "uint256",
          "name": "",
          "type": "uint256"
        }
      ],
      "stateMutability": "view",
      "type": "function"
    },
    {
      "inputs": [
        {
          "internalType": "address",
          "name": "nftContract",
          "type": "address"
        },
        {
          "internalType": "uint256",
          "name": "itemId",
          "type": "uint256"
        },
        {
          "internalType": "uint256",
          "name": "amount",
          "type": "uint256"
        },
        {
          "internalType": "bytes",
          "name": "data",
          "type": "bytes"
        }
      ],
      "name": "buyMarketItem",
      "outputs": [],
      "stateMutability": "payable",
      "type": "function"
    },
    {
      "inputs": [
        {
          "internalType": "uint256",
          "name": "_marketItem",
          "type": "uint256"
        },
        {
          "internalType": "uint8",
          "name": "_newStatus",
          "type": "uint8"
        }
      ],
      "name": "changeStatus",
      "outputs": [],
      "stateMutability": "nonpayable",
      "type": "function"
    },
    {
      "inputs": [
        {
          "internalType": "uint256",
          "name": "id",
          "type": "uint256"
        }
      ],
      "name": "checkRemaining",
      "outputs": [
        {
          "internalType": "uint256",
          "name": "",
          "type": "uint256"
        }
      ],
      "stateMutability": "view",
      "type": "function"
    },
    {
      "inputs": [],
      "name": "fetchItemsOnSale",
      "outputs": [
        {
          "components": [
            {
              "internalType": "uint256",
              "name": "itemId",
              "type": "uint256"
            },
            {
              "internalType": "address",
              "name": "nftContract",
              "type": "address"
            },
            {
              "internalType": "uint256",
              "name": "tokenId",
              "type": "uint256"
            },
            {
              "internalType": "string",
              "name": "name",
              "type": "string"
            },
            {
              "internalType": "address payable",
              "name": "seller",
              "type": "address"
            },
            {
              "internalType": "address payable",
              "name": "owner",
              "type": "address"
            },
            {
              "internalType": "uint256",
              "name": "price",
              "type": "uint256"
            },
            {
              "internalType": "uint256",
              "name": "amount",
              "type": "uint256"
            },
            {
              "internalType": "uint256",
              "name": "initialQuantity",
              "type": "uint256"
            },
            {
              "internalType": "uint256",
              "name": "totalSales",
              "type": "uint256"
            },
            {
              "internalType": "uint8",
              "name": "status",
              "type": "uint8"
            },
            {
              "internalType": "uint256",
              "name": "finalCommision",
              "type": "uint256"
            }
          ],
          "internalType": "struct NFTicketsMarket.MarketItem[]",
          "name": "",
          "type": "tuple[]"
        }
      ],
      "stateMutability": "view",
      "type": "function"
    },
    {
      "inputs": [],
      "name": "fetchMyNFTs",
      "outputs": [
        {
          "components": [
            {
              "internalType": "uint256",
              "name": "itemId",
              "type": "uint256"
            },
            {
              "internalType": "address",
              "name": "nftContract",
              "type": "address"
            },
            {
              "internalType": "uint256",
              "name": "tokenId",
              "type": "uint256"
            },
            {
              "internalType": "string",
              "name": "name",
              "type": "string"
            },
            {
              "internalType": "address payable",
              "name": "seller",
              "type": "address"
            },
            {
              "internalType": "address payable",
              "name": "owner",
              "type": "address"
            },
            {
              "internalType": "uint256",
              "name": "price",
              "type": "uint256"
            },
            {
              "internalType": "uint256",
              "name": "amount",
              "type": "uint256"
            },
            {
              "internalType": "uint256",
              "name": "initialQuantity",
              "type": "uint256"
            },
            {
              "internalType": "uint256",
              "name": "totalSales",
              "type": "uint256"
            },
            {
              "internalType": "uint8",
              "name": "status",
              "type": "uint8"
            },
            {
              "internalType": "uint256",
              "name": "finalCommision",
              "type": "uint256"
            }
          ],
          "internalType": "struct NFTicketsMarket.MarketItem[]",
          "name": "",
          "type": "tuple[]"
        }
      ],
      "stateMutability": "view",
      "type": "function"
    },
    {
      "inputs": [
        {
          "internalType": "address",
          "name": "user",
          "type": "address"
        }
      ],
      "name": "fetchUserNFTs",
      "outputs": [
        {
          "components": [
            {
              "internalType": "uint256",
              "name": "itemId",
              "type": "uint256"
            },
            {
              "internalType": "address",
              "name": "nftContract",
              "type": "address"
            },
            {
              "internalType": "uint256",
              "name": "tokenId",
              "type": "uint256"
            },
            {
              "internalType": "uint256",
              "name": "price",
              "type": "uint256"
            },
            {
              "internalType": "uint256",
              "name": "amount",
              "type": "uint256"
            }
          ],
          "internalType": "struct NFTicketsMarket.MyItems[]",
          "name": "",
          "type": "tuple[]"
        }
      ],
      "stateMutability": "view",
      "type": "function"
    },
    {
      "inputs": [
        {
          "internalType": "uint256",
          "name": "marketItemId",
          "type": "uint256"
        }
      ],
      "name": "getMarketItem",
      "outputs": [
        {
          "components": [
            {
              "internalType": "uint256",
              "name": "itemId",
              "type": "uint256"
            },
            {
              "internalType": "address",
              "name": "nftContract",
              "type": "address"
            },
            {
              "internalType": "uint256",
              "name": "tokenId",
              "type": "uint256"
            },
            {
              "internalType": "string",
              "name": "name",
              "type": "string"
            },
            {
              "internalType": "address payable",
              "name": "seller",
              "type": "address"
            },
            {
              "internalType": "address payable",
              "name": "owner",
              "type": "address"
            },
            {
              "internalType": "uint256",
              "name": "price",
              "type": "uint256"
            },
            {
              "internalType": "uint256",
              "name": "amount",
              "type": "uint256"
            },
            {
              "internalType": "uint256",
              "name": "initialQuantity",
              "type": "uint256"
            },
            {
              "internalType": "uint256",
              "name": "totalSales",
              "type": "uint256"
            },
            {
              "internalType": "uint8",
              "name": "status",
              "type": "uint8"
            },
            {
              "internalType": "uint256",
              "name": "finalCommision",
              "type": "uint256"
            }
          ],
          "internalType": "struct NFTicketsMarket.MarketItem",
          "name": "",
          "type": "tuple"
        }
      ],
      "stateMutability": "view",
      "type": "function"
    },
    {
      "inputs": [
        {
          "internalType": "uint256",
          "name": "_itemId",
          "type": "uint256"
        }
      ],
      "name": "getTokenByMarketId",
      "outputs": [
        {
          "internalType": "uint256",
          "name": "",
          "type": "uint256"
        }
      ],
      "stateMutability": "view",
      "type": "function"
    },
    {
      "inputs": [
        {
          "internalType": "uint256",
          "name": "_itemId",
          "type": "uint256"
        }
      ],
      "name": "getTotalSalesByMarketId",
      "outputs": [
        {
          "internalType": "uint256",
          "name": "",
          "type": "uint256"
        }
      ],
      "stateMutability": "view",
      "type": "function"
    },
    {
      "inputs": [
        {
          "internalType": "uint256",
          "name": "_itemId",
          "type": "uint256"
        },
        {
          "internalType": "bytes",
          "name": "_sig",
          "type": "bytes"
        },
        {
          "internalType": "address",
          "name": "nftContract",
          "type": "address"
        }
      ],
      "name": "hostActions",
      "outputs": [
        {
          "internalType": "string",
          "name": "",
          "type": "string"
        }
      ],
      "stateMutability": "view",
      "type": "function"
    },
    {
      "inputs": [
        {
          "internalType": "address",
          "name": "nftContract",
          "type": "address"
        },
        {
          "internalType": "uint256",
          "name": "tokenId",
          "type": "uint256"
        },
        {
          "internalType": "uint256",
          "name": "amount",
          "type": "uint256"
        },
        {
          "internalType": "bytes",
          "name": "data",
          "type": "bytes"
        },
        {
          "internalType": "string",
          "name": "name",
          "type": "string"
        }
      ],
      "name": "listMoreOfMarketItem",
      "outputs": [],
      "stateMutability": "payable",
      "type": "function"
    },
    {
      "inputs": [
        {
          "internalType": "address",
          "name": "nftContract",
          "type": "address"
        },
        {
          "internalType": "uint256",
          "name": "tokenId",
          "type": "uint256"
        },
        {
          "internalType": "uint256",
          "name": "amount",
          "type": "uint256"
        },
        {
          "internalType": "bytes",
          "name": "data",
          "type": "bytes"
        },
        {
          "internalType": "string",
          "name": "name",
          "type": "string"
        }
      ],
      "name": "listNewMarketItem",
      "outputs": [],
      "stateMutability": "payable",
      "type": "function"
    },
    {
      "inputs": [
        {
          "internalType": "address",
          "name": "",
          "type": "address"
        },
        {
          "internalType": "address",
          "name": "",
          "type": "address"
        },
        {
          "internalType": "uint256[]",
          "name": "",
          "type": "uint256[]"
        },
        {
          "internalType": "uint256[]",
          "name": "",
          "type": "uint256[]"
        },
        {
          "internalType": "bytes",
          "name": "",
          "type": "bytes"
        }
      ],
      "name": "onERC1155BatchReceived",
      "outputs": [
        {
          "internalType": "bytes4",
          "name": "",
          "type": "bytes4"
        }
      ],
      "stateMutability": "nonpayable",
      "type": "function"
    },
    {
      "inputs": [
        {
          "internalType": "address",
          "name": "",
          "type": "address"
        },
        {
          "internalType": "address",
          "name": "",
          "type": "address"
        },
        {
          "internalType": "uint256",
          "name": "",
          "type": "uint256"
        },
        {
          "internalType": "uint256",
          "name": "",
          "type": "uint256"
        },
        {
          "internalType": "bytes",
          "name": "",
          "type": "bytes"
        }
      ],
      "name": "onERC1155Received",
      "outputs": [
        {
          "internalType": "bytes4",
          "name": "",
          "type": "bytes4"
        }
      ],
      "stateMutability": "nonpayable",
      "type": "function"
    },
    {
      "inputs": [],
      "name": "paySellers",
      "outputs": [],
      "stateMutability": "payable",
      "type": "function"
    },
    {
      "inputs": [
        {
          "internalType": "address",
          "name": "nftContract",
          "type": "address"
        },
        {
          "internalType": "uint256",
          "name": "tokenId",
          "type": "uint256"
        },
        {
          "internalType": "uint256",
          "name": "itemId",
          "type": "uint256"
        },
        {
          "internalType": "uint256",
          "name": "amount",
          "type": "uint256"
        },
        {
          "internalType": "bytes",
          "name": "data",
          "type": "bytes"
        }
      ],
      "name": "reSell",
      "outputs": [],
      "stateMutability": "payable",
      "type": "function"
    },
    {
      "inputs": [
        {
          "internalType": "uint256",
          "name": "marketItem",
          "type": "uint256"
        }
      ],
      "name": "refundWithPenalty",
      "outputs": [],
      "stateMutability": "nonpayable",
      "type": "function"
    },
    {
      "inputs": [
        {
          "internalType": "uint256",
          "name": "marketItem",
          "type": "uint256"
        }
      ],
      "name": "sellerRefundAll",
      "outputs": [],
      "stateMutability": "nonpayable",
      "type": "function"
    },
    {
      "inputs": [
        {
          "internalType": "uint256",
          "name": "marketItem",
          "type": "uint256"
        },
        {
          "internalType": "address",
          "name": "buyer",
          "type": "address"
        }
      ],
      "name": "sellerRefundOne",
      "outputs": [],
      "stateMutability": "nonpayable",
      "type": "function"
    },
    {
      "inputs": [
        {
          "internalType": "address",
          "name": "",
          "type": "address"
        },
        {
          "internalType": "uint256",
          "name": "",
          "type": "uint256"
        }
      ],
      "name": "sellerToDepositPerItem",
      "outputs": [
        {
          "internalType": "uint256",
          "name": "",
          "type": "uint256"
        }
      ],
      "stateMutability": "view",
      "type": "function"
    },
    {
      "inputs": [
        {
          "internalType": "bytes4",
          "name": "interfaceId",
          "type": "bytes4"
        }
      ],
      "name": "supportsInterface",
      "outputs": [
        {
          "internalType": "bool",
          "name": "",
          "type": "bool"
        }
      ],
      "stateMutability": "view",
      "type": "function"
    }
  ],
  "transactionHash": "0xa834dd2192297bc0b17d1156a79be29255148591bf6b7ea0f142f4c6560a5c09",
  "args": [
    "0xC7D7e5436931F06636037184CCa8Ad214CaF1902",
    "0xE9a040A8347B15F145657998Fb1c77161BB6Ea42"
  ],
  "numDeployments": 8,
  "solcInputHash": "393736f72f60582c0e7af86628a674cd",
  "bytecode": "0x60a06040523480156200001157600080fd5b50604051620046103803806200461083398101604081905262000034916200009c565b60016000556001600160a01b03918216608052600380546001600160a01b03191691909216179055620000df565b60006001600160a01b0382165b92915050565b620000808162000062565b81146200008c57600080fd5b50565b80516200006f8162000075565b60008060408385031215620000b457620000b4600080fd5b6000620000c285856200008f565b9250506020620000d5858286016200008f565b9150509250929050565b6080516144f96200011760003960008181610f300152818161120c01528181611e61015281816124cc015261294501526144f96000f3fe60806040526004361061014b5760003560e01c8063ab15f9d5116100b6578063c76e080a1161006f578063c76e080a146103aa578063c7be7a49146103da578063db7ee6e914610407578063f23a6e611461041a578063f3b3100714610446578063fb59a2481461046657600080fd5b8063ab15f9d514610302578063adfb99e714610315578063b2bf04a314610328578063bc197c8114610330578063bd68b1171461035d578063c5a8a2ab1461038a57600080fd5b8063603fc0ee11610108578063603fc0ee14610231578063626f1bb5146102515780636bbd513c146102715780638396f159146102a957806387506a0d146102d6578063a64fc3fa146102ed57600080fd5b806301ffc9a714610150578063135e175c14610186578063202e3740146101b357806329ec26e8146101d55780632c58c1f91461020557806334a7f1931461021a575b600080fd5b34801561015c57600080fd5b5061017061016b3660046137e8565b61049e565b60405161017d9190613813565b60405180910390f35b34801561019257600080fd5b506101a66101a1366004613832565b6104d5565b60405161017d9190613859565b3480156101bf57600080fd5b506101c86104f8565b60405161017d9190613a5b565b3480156101e157600080fd5b506101a66101f0366004613832565b60009081526004602052604090206002015490565b610218610213366004613b71565b610793565b005b34801561022657600080fd5b506001546101a69081565b34801561023d57600080fd5b5061021861024c366004613832565b610cd8565b34801561025d57600080fd5b5061021861026c366004613832565b610f25565b34801561027d57600080fd5b506101a661028c366004613c1d565b600760209081526000928352604080842090915290825290205481565b3480156102b557600080fd5b506102c96102c4366004613c5a565b61132d565b60405161017d9190613cc4565b3480156102e257600080fd5b506002546101a69081565b3480156102f957600080fd5b506101c8611391565b610218610310366004613cd5565b6116a5565b610218610323366004613d53565b6119a5565b610218611e56565b34801561033c57600080fd5b5061035061034b366004613e4f565b612565565b60405161017d9190613eed565b34801561036957600080fd5b5061037d610378366004613efb565b612577565b60405161017d9190613fd6565b34801561039657600080fd5b506102186103a5366004613ffb565b61293a565b3480156103b657600080fd5b506101a66103c5366004613832565b60009081526004602052604090206007015490565b3480156103e657600080fd5b506103fa6103f5366004613832565b6129cc565b60405161017d919061402e565b610218610415366004613b71565b612b15565b34801561042657600080fd5b5061035061043536600461403f565b63f23a6e6160e01b95945050505050565b34801561045257600080fd5b50610218610461366004614077565b613060565b34801561047257600080fd5b506101a6610481366004613c1d565b600660209081526000928352604080842090915290825290205481565b60006001600160e01b03198216630271189760e51b14806104cf57506301ffc9a760e01b6001600160e01b03198316145b92915050565b600081815260046020526040812060078101546008909101546104cf91906140c0565b6060600061050560015490565b905060008060005b838110156105675733600460006105258460016140d7565b81526020810191909152604001600020600401546001600160a01b031603610555576105526001846140d7565b92505b8061055f816140ef565b91505061050d565b506000826001600160401b0381111561058257610582613a80565b6040519080825280602002602001820160405280156105bb57816020015b6105a86136ab565b8152602001906001900390816105a05790505b50905060005b8481101561078a5733600460006105d98460016140d7565b81526020810191909152604001600020600401546001600160a01b0316036107785760006106088260016140d7565b6000818152600460209081526040918290208251610180810184528154815260018201546001600160a01b0316928101929092526002810154928201929092526003820180549394509192909183916060840191906106669061411f565b80601f01602080910402602001604051908101604052809291908181526020018280546106929061411f565b80156106df5780601f106106b4576101008083540402835291602001916106df565b820191906000526020600020905b8154815290600101906020018083116106c257829003601f168201915b505050918352505060048201546001600160a01b03908116602083015260058301541660408201526006820154606082015260078201546080820152600882015460a0820152600982015460c0820152600a82015460ff1660e0820152600b9091015461010090910152845185908790811061075d5761075d61414b565b60209081029190910101526107736001866140d7565b945050505b80610782816140ef565b9150506105c1565b50949350505050565b6002600054036107be5760405162461bcd60e51b81526004016107b590614198565b60405180910390fd5b600260009081556107cf868661317b565b116107ed5760405163d46afe9f60e01b815260040160405180910390fd5b600460006107fb878761317b565b81526020019081526020016000206007015460000361082c576040516254585f60e71b815260040160405180910390fd5b6004600061083a878761317b565b81526020810191909152604001600020600401546001600160a01b0316331461087657604051633752272760e11b815260040160405180910390fd5b60035460405163449e815d60e01b815260059185916001600160a01b039091169063047abed790829063449e815d906108b5908c908c906004016141a8565b602060405180830381865afa1580156108d2573d6000803e3d6000fd5b505050506040513d601f19601f820116820180604052508101906108f691906141ce565b6040518263ffffffff1660e01b81526004016109129190613859565b602060405180830381865afa15801561092f573d6000803e3d6000fd5b505050506040513d601f19601f8201168201806040525081019061095391906141ce565b61095d91906141ef565b6109679190614224565b341461098657604051633bd1213d60e21b815260040160405180910390fd5b604051627eeac760e11b8152859084906001600160a01b0383169062fdd58e906109b69033908a906004016141a8565b602060405180830381865afa1580156109d3573d6000803e3d6000fd5b505050506040513d601f19601f820116820180604052508101906109f791906141ce565b1015610a1657604051632f43231960e11b815260040160405180910390fd5b6000610a22878761317b565b60008181526004602052604081206007015491925090610a439087906140d7565b60008381526004602052604081206008015491925090610a649088906140d7565b60408051610180810182528581526001600160a01b03808d1660208301528183018c905260608201899052336080830152600060a0830152600354925163449e815d60e01b8152939450909260c08401929091169063449e815d90610acf908e908e906004016141a8565b602060405180830381865afa158015610aec573d6000803e3d6000fd5b505050506040513d601f19601f82011682018060405250810190610b1091906141ce565b8152602080820185905260408083018590526000878152600480845282822060098101546060808801919091526080870184905260a090960183905291899052835284518155848301516001820180546001600160a01b0319166001600160a01b03909216919091179055908401516002820155918301518051610b9a926003850192019061372a565b506080820151600482810180546001600160a01b03199081166001600160a01b039485161790915560a085015160058501805490921690841617905560c0840151600684015560e0840151600784015561010084015160088401556101208401516009840155610140840151600a8401805460ff191660ff90921691909117905561016090930151600b90920191909155604051634c6784ad60e11b8152908616916398cf095a91610c5691339130918e918e918e9101614238565b600060405180830381600087803b158015610c7057600080fd5b505af1158015610c84573d6000803e3d6000fd5b5050336000908152600760209081526040808320888452909152902054610cae92503491506140d7565b33600090815260076020908152604080832096835295905293842055505060019055505050505050565b600260005403610cfa5760405162461bcd60e51b81526004016107b590614198565b6002600090815581815260046020819052604090912001546001600160a01b03163314610d3a5760405163c5c0a87960e01b815260040160405180910390fd5b6000818152600460205260409020600781015460089091015403610d71576040516304d8dbfb60e41b815260040160405180910390fd5b600081815260056020526040812054905b81811015610eaa576000838152600560205260409020805482908110610daa57610daa61414b565b600091825260208083209091015485835260059091526040822080546001600160a01b03909216926108fc926006929086908110610dea57610dea61414b565b60009182526020808320909101546001600160a01b0316835282810193909352604091820181208882529092528082205490518115909302929091818181858888f19350505050158015610e42573d6000803e3d6000fd5b5060008381526005602052604081208054600691839185908110610e6857610e6861414b565b60009182526020808320909101546001600160a01b03168352828101939093526040918201812087825290925290205580610ea2816140ef565b915050610d82565b506000828152600460209081526040918290209151610ecd9260030191016142f8565b60408051601f198184030181529181526000848152600460209081529190208251610f01936003909201929091019061372a565b50506000908152600460205260408120600a01805460ff1916600617905560019055565b336001600160a01b037f00000000000000000000000000000000000000000000000000000000000000001614610f6e576040516330cd747160e01b815260040160405180910390fd5b600260005403610f905760405162461bcd60e51b81526004016107b590614198565b60026000908155818152600460208190526040909120600a015460ff1614610fcb576040516310cec38560e21b815260040160405180910390fd5b600081815260056020526040902054610ff7576040516312d5368b60e21b815260040160405180910390fd5b6000818152600460205260409020600b0154156110275760405163542f378d60e11b815260040160405180910390fd5b60008181526005602090815260408083205460049283905290832082015490919061105b906001600160a01b03168561321c565b6110659190614224565b6110709060036141ef565b61107a9190614224565b6000838152600460208190526040822081015492935090916110a5906001600160a01b03168561321c565b6110af9190614224565b6000848152600460209081526040808320600b0184905560059091528120549192505b818110156112065760008581526005602052604090208054829081106110fa576110fa61414b565b600091825260208083209091015487835260059091526040822080546001600160a01b03909216926108fc928892600692918790811061113c5761113c61414b565b60009182526020808320909101546001600160a01b0316835282810193909352604091820181208b825290925290205461117691906140d7565b6040518115909202916000818181858888f1935050505015801561119e573d6000803e3d6000fd5b50600085815260056020526040812080546006918391859081106111c4576111c461414b565b60009182526020808320909101546001600160a01b031683528281019390935260409182018120898252909252902055806111fe816140ef565b9150506110d2565b506000807f00000000000000000000000000000000000000000000000000000000000000006001600160a01b0316846040516112419061431a565b60006040518083038185875af1925050503d806000811461127e576040519150601f19603f3d011682016040523d82523d6000602084013e611283565b606091505b5091509150816112a55760405162461bcd60e51b81526004016107b59061434d565b6000868152600460208181526040808420808401546001600160a01b03168552600783528185208b865283528185209490945591815290516112eb9260030191016142f8565b60408051601f19818403018152918152600088815260046020908152919020825161131f936003909201929091019061372a565b505060016000555050505050565b6000838152600460205260408120600201546060919061134c90613244565b905060006113598261334c565b905060006113668261337c565b90506000611374828861338f565b90506113838185898b8a6133fe565b9450505050505b9392505050565b6060600061139e60015490565b905060006113ab60025490565b6001546113b891906140c0565b9050600080826001600160401b038111156113d5576113d5613a80565b60405190808252806020026020018201604052801561140e57816020015b6113fb6136ab565b8152602001906001900390816113f35790505b50905060005b8481101561078a57600060048161142c8460016140d7565b8152602081019190915260400160009081206001908101546001600160a01b031692506004919061145e9085906140d7565b81526020810191909152604001600020600a015460ff166006148015906115105750426001600160a01b03821663117f02d76004600061149f8760016140d7565b8152602001908152602001600020600201546040518263ffffffff1660e01b81526004016114cd9190613859565b602060405180830381865afa1580156114ea573d6000803e3d6000fd5b505050506040513d601f19601f8201168201806040525081019061150e91906141ce565b115b156116925760006115228360016140d7565b6000818152600460209081526040918290208251610180810184528154815260018201546001600160a01b0316928101929092526002810154928201929092526003820180549394509192909183916060840191906115809061411f565b80601f01602080910402602001604051908101604052809291908181526020018280546115ac9061411f565b80156115f95780601f106115ce576101008083540402835291602001916115f9565b820191906000526020600020905b8154815290600101906020018083116115dc57829003601f168201915b505050918352505060048201546001600160a01b03908116602083015260058301541660408201526006820154606082015260078201546080820152600882015460a0820152600982015460c0820152600a82015460ff1660e0820152600b909101546101009091015285518690889081106116775761167761414b565b602090810291909101015261168d6001876140d7565b955050505b508061169d816140ef565b915050611414565b6002600054036116c75760405162461bcd60e51b81526004016107b590614198565b60026000908155838152600460205260409020600701548211156116fe5760405163fa3e06c960e01b815260040160405180910390fd5b60035460008481526004602081905260409182902060060154915163047abed760e01b815285936001600160a01b03169263047abed79261173f9201613859565b602060405180830381865afa15801561175c573d6000803e3d6000fd5b505050506040513d601f19601f8201168201806040525081019061178091906141ce565b61178a91906141ef565b34146117a957604051634fddbb8760e01b815260040160405180910390fd5b60008381526004602081905260409182902060020154915163117f02d760e01b8152869242926001600160a01b0385169263117f02d7926117ec92909101613859565b602060405180830381865afa158015611809573d6000803e3d6000fd5b505050506040513d601f19601f8201168201806040525081019061182d91906141ce565b1161184b5760405163d2bbe8a360e01b815260040160405180910390fd5b3360009081526006602090815260408083208784529091529020546118719034906140d7565b33600081815260066020908152604080832089845290915290209190915561189a908590613525565b600084815260046020819052604091829020600201549151634c6784ad60e11b81526001600160a01b038416926398cf095a926118e1923092339290918a918a9101614238565b600060405180830381600087803b1580156118fb57600080fd5b505af115801561190f573d6000803e3d6000fd5b505050600085815260046020526040902060070154611930915084906140c0565b60008581526004602052604090206007810191909155600901546119559034906140d7565b600085815260046020526040812060098101929092556005820180546001600160a01b03191633179055600790910154900361199957611999600280546001019055565b50506001600055505050565b6002600054036119c75760405162461bcd60e51b81526004016107b590614198565b600260009081556119d8868661317b565b116119f65760405163d46afe9f60e01b815260040160405180910390fd5b604051627eeac760e11b8152859083906001600160a01b0383169062fdd58e90611a269033908a906004016141a8565b602060405180830381865afa158015611a43573d6000803e3d6000fd5b505050506040513d601f19601f82011682018060405250810190611a6791906141ce565b1015611a8657604051632f43231960e11b815260040160405180910390fd5b42611a95600862015180614224565b600086815260046020819052604091829020600201549151635e15f0df60e11b81526001600160a01b0386169263bc2be1be92611ad29201613859565b602060405180830381865afa158015611aef573d6000803e3d6000fd5b505050506040513d601f19601f82011682018060405250810190611b1391906141ce565b611b1d91906140c0565b11611b3b576040516363c98c3d60e11b815260040160405180910390fd5b604051627eeac760e11b815233906108fc906001600160a01b0384169062fdd58e90611b6d9085908b906004016141a8565b602060405180830381865afa158015611b8a573d6000803e3d6000fd5b505050506040513d601f19601f82011682018060405250810190611bae91906141ce565b3360009081526006602090815260408083208a8452909152902054611bd49087906141ef565b611bde9190614224565b6040518115909202916000818181858888f19350505050158015611c06573d6000803e3d6000fd5b50604051627eeac760e11b81526001600160a01b0382169062fdd58e90611c3390339089906004016141a8565b602060405180830381865afa158015611c50573d6000803e3d6000fd5b505050506040513d601f19601f82011682018060405250810190611c7491906141ce565b336000908152600660209081526040808320888452909152902054611c9a9085906141ef565b611ca49190614224565b600085815260046020526040902060090154611cc091906140c0565b6000858152600460208190526040918290206009019290925551627eeac760e11b81526001600160a01b0383169162fdd58e91611d019133918a91016141a8565b602060405180830381865afa158015611d1e573d6000803e3d6000fd5b505050506040513d601f19601f82011682018060405250810190611d4291906141ce565b336000908152600660209081526040808320888452909152902054611d689085906141ef565b611d729190614224565b336000908152600660209081526040808320888452909152902054611d9791906140c0565b33600081815260066020908152604080832089845290915290819020929092559051634c6784ad60e11b81526001600160a01b038316916398cf095a91611de9919030908a9089908990600401614238565b600060405180830381600087803b158015611e0357600080fd5b505af1158015611e17573d6000803e3d6000fd5b505050600085815260046020526040902060070154611e38915084906140d7565b60009485526004602052604085206007015550506001909155505050565b336001600160a01b037f00000000000000000000000000000000000000000000000000000000000000001614611e9f576040516330cd747160e01b815260040160405180910390fd5b600260005403611ec15760405162461bcd60e51b81526004016107b590614198565b60026000908155600154908080805b84811015611f845760046000611ee78360016140d7565b81526020810191909152604001600020600a015460ff161580611f2f575060046000611f148360016140d7565b81526020810191909152604001600020600a015460ff166003145b80611f5f575060046000611f448360016140d7565b81526020810191909152604001600020600a015460ff166006145b15611f7257611f6f6001856140d7565b93505b80611f7c816140ef565b915050611ed0565b506000836001600160401b03811115611f9f57611f9f613a80565b604051908082528060200260200182016040528015611fc8578160200160208202803683370190505b50905060005b8581101561219d5760046000611fe58360016140d7565b81526020810191909152604001600020600a015460ff16158061202d5750600460006120128360016140d7565b81526020810191909152604001600020600a015460ff166003145b8061205d5750600460006120428360016140d7565b81526020810191909152604001600020600a015460ff166006145b1561218b5760006004816120728460016140d7565b815260200190815260200160002060010160009054906101000a90046001600160a01b031690504262015180826001600160a01b031663117f02d7600460008760016120be91906140d7565b8152602001908152602001600020600201546040518263ffffffff1660e01b81526004016120ec9190613859565b602060405180830381865afa158015612109573d6000803e3d6000fd5b505050506040513d601f19601f8201168201806040525081019061212d91906141ce565b61213791906140d7565b1015612189576004600061214c8460016140d7565b8152602001908152602001600020600001548386815181106121705761217061414b565b60209081029190910101526121866001866140d7565b94505b505b80612195816140ef565b915050611fce565b5060005b848110156124c6576000612210600460008585815181106121c4576121c461414b565b6020026020010151815260200190815260200160002060040160009054906101000a90046001600160a01b03168484815181106122035761220361414b565b602002602001015161363a565b600460008585815181106122265761222661414b565b602002602001015181526020019081526020016000206009015461224a91906140d7565b905060046122b3600460008686815181106122675761226761414b565b6020026020010151815260200190815260200160002060040160009054906101000a90046001600160a01b03168585815181106122a6576122a661414b565b602002602001015161321c565b6122bd9190614224565b600460008585815181106122d3576122d361414b565b60200260200101518152602001908152602001600020600b0181905550600461230b600460008686815181106122675761226761414b565b6123159190614224565b61231f90856140d7565b93506000600460008585815181106123395761233961414b565b6020026020010151815260200190815260200160002060090181905550600060076000600460008787815181106123725761237261414b565b6020026020010151815260200190815260200160002060040160009054906101000a90046001600160a01b03166001600160a01b03166001600160a01b0316815260200190815260200160002060008585815181106123d3576123d361414b565b6020026020010151815260200190815260200160002081905550600460008484815181106124035761240361414b565b6020026020010151815260200190815260200160002060040160009054906101000a90046001600160a01b03166001600160a01b03166108fc829081150290604051600060405180830381858888f19350505050158015612468573d6000803e3d6000fd5b506001600460008585815181106124815761248161414b565b60200260200101518152602001908152602001600020600a0160006101000a81548160ff021916908360ff1602179055505080806124be906140ef565b9150506121a1565b506000807f00000000000000000000000000000000000000000000000000000000000000006001600160a01b0316846040516125019061431a565b60006040518083038185875af1925050503d806000811461253e576040519150601f19603f3d011682016040523d82523d6000602084013e612543565b606091505b50915091508161131f5760405162461bcd60e51b81526004016107b59061434d565b63bc197c8160e01b5b95945050505050565b6060600061258460015490565b905060008060005b838110156126845760006004816125a48460016140d7565b815260200190815260200160002060010160009054906101000a90046001600160a01b031690506000816001600160a01b031662fdd58e89600460008760016125ed91906140d7565b8152602001908152602001600020600201546040518363ffffffff1660e01b815260040161261c9291906141a8565b602060405180830381865afa158015612639573d6000803e3d6000fd5b505050506040513d601f19601f8201168201806040525081019061265d91906141ce565b11156126715761266e6001856140d7565b93505b508061267c816140ef565b91505061258c565b506000826001600160401b0381111561269f5761269f613a80565b60405190808252806020026020018201604052801561270b57816020015b6126f86040518060a001604052806000815260200160006001600160a01b031681526020016000815260200160008152602001600081525090565b8152602001906001900390816126bd5790505b50905060005b848110156129305760006004816127298460016140d7565b815260200190815260200160002060010160009054906101000a90046001600160a01b031690506000816001600160a01b031662fdd58e8a6004600087600161277291906140d7565b8152602001908152602001600020600201546040518363ffffffff1660e01b81526004016127a19291906141a8565b602060405180830381865afa1580156127be573d6000803e3d6000fd5b505050506040513d601f19601f820116820180604052508101906127e291906141ce565b111561291d5760006127f58360016140d7565b905060006004600083815260200190815260200160002090506040518060a00160405280826000015481526020018260010160009054906101000a90046001600160a01b03166001600160a01b031681526020018260020154815260200182600601548152602001846001600160a01b031662fdd58e8d600460008a600161287d91906140d7565b8152602001908152602001600020600201546040518363ffffffff1660e01b81526004016128ac9291906141a8565b602060405180830381865afa1580156128c9573d6000803e3d6000fd5b505050506040513d601f19601f820116820180604052508101906128ed91906141ce565b8152508587815181106129025761290261414b565b60209081029190910101526129186001876140d7565b955050505b5080612928816140ef565b915050612711565b5095945050505050565b336001600160a01b037f00000000000000000000000000000000000000000000000000000000000000001614612983576040516330cd747160e01b815260040160405180910390fd5b60078160ff16106129a7576040516307a92f1960e51b815260040160405180910390fd5b600091825260046020526040909120600a01805460ff191660ff909216919091179055565b6129d46136ab565b6000828152600460209081526040918290208251610180810184528154815260018201546001600160a01b031692810192909252600281015492820192909252600382018054919291606084019190612a2c9061411f565b80601f0160208091040260200160405190810160405280929190818152602001828054612a589061411f565b8015612aa55780601f10612a7a57610100808354040283529160200191612aa5565b820191906000526020600020905b815481529060010190602001808311612a8857829003601f168201915b505050918352505060048201546001600160a01b03908116602083015260058301541660408201526006820154606082015260078201546080820152600882015460a0820152600982015460c0820152600a82015460ff1660e0820152600b909101546101009091015292915050565b600260005403612b375760405162461bcd60e51b81526004016107b590614198565b600260005560035460405163449e815d60e01b815260059185916001600160a01b039091169063047abed790829063449e815d90612b7b908c908c906004016141a8565b602060405180830381865afa158015612b98573d6000803e3d6000fd5b505050506040513d601f19601f82011682018060405250810190612bbc91906141ce565b6040518263ffffffff1660e01b8152600401612bd89190613859565b602060405180830381865afa158015612bf5573d6000803e3d6000fd5b505050506040513d601f19601f82011682018060405250810190612c1991906141ce565b612c2391906141ef565b612c2d9190614224565b3414612c4c57604051633bd1213d60e21b815260040160405180910390fd5b604051627eeac760e11b8152859084906001600160a01b0383169062fdd58e90612c7c9033908a906004016141a8565b602060405180830381865afa158015612c99573d6000803e3d6000fd5b505050506040513d601f19601f82011682018060405250810190612cbd91906141ce565b1015612cdc57604051632f43231960e11b815260040160405180910390fd5b612cea600180546001019055565b6000612cf560015490565b60408051610180810182528281526001600160a01b03808b1660208301528183018a905260608201879052336080830152600060a0830152600354925163449e815d60e01b8152939450909260c08401929091169063449e815d90612d60908c908c906004016141a8565b602060405180830381865afa158015612d7d573d6000803e3d6000fd5b505050506040513d601f19601f82011682018060405250810190612da191906141ce565b815260208082018890526040808301899052600060608085018290526080850182905260a09094018190528581526004835281902084518155848301516001820180546001600160a01b0319166001600160a01b03909216919091179055908401516002820155918301518051612e1e926003850192019061372a565b5060808201518160040160006101000a8154816001600160a01b0302191690836001600160a01b0316021790555060a08201518160050160006101000a8154816001600160a01b0302191690836001600160a01b0316021790555060c0820151816006015560e082015181600701556101008201518160080155610120820151816009015561014082015181600a0160006101000a81548160ff021916908360ff16021790555061016082015181600b015590505085876001600160a01b0316827fc769733b5428a14f5f070c227800de113aafafd8ca5a3073e655cb88ede6ed3e86336000600360009054906101000a90046001600160a01b03166001600160a01b031663449e815d8f8f6040518363ffffffff1660e01b8152600401612f479291906141a8565b602060405180830381865afa158015612f64573d6000803e3d6000fd5b505050506040513d601f19601f82011682018060405250810190612f8891906141ce565b8c8d6000806000604051612fa499989796959493929190614386565b60405180910390a4604051634c6784ad60e11b81526001600160a01b038316906398cf095a90612fe090339030908b908b908b90600401614238565b600060405180830381600087803b158015612ffa57600080fd5b505af115801561300e573d6000803e3d6000fd5b505033600090815260076020908152604080832086845290915290205461303892503491506140d7565b3360009081526007602090815260408083209483529390529182205560019055505050505050565b6002600054036130825760405162461bcd60e51b81526004016107b590614198565b6002600090815582815260046020819052604090912001546001600160a01b031633146130c25760405163c5c0a87960e01b815260040160405180910390fd5b6001600160a01b03811660009081526006602090815260408083208584529091529020546131035760405163138874af60e01b815260040160405180910390fd5b6001600160a01b038116600081815260066020908152604080832086845290915280822054905181156108fc0292818181858888f1935050505015801561314e573d6000803e3d6000fd5b506001600160a01b0316600090815260066020908152604080832093835292905290812081905560019055565b60008061318760015490565b90506000805b8281101561078a576001600160a01b038616600460006131ae8460016140d7565b81526020810191909152604001600020600101546001600160a01b03161480156131f7575084600460006131e38460016140d7565b815260200190815260200160002060020154145b1561320a576132078160016140d7565b91505b80613214816140ef565b91505061318d565b6001600160a01b03919091166000908152600760209081526040808320938352929052205490565b60608160000361326b5750506040805180820190915260018152600360fc1b602082015290565b8160005b8115613295578061327f816140ef565b915061328e9050600a83614224565b915061326f565b6000816001600160401b038111156132af576132af613a80565b6040519080825280601f01601f1916602001820160405280156132d9576020820181803683370190505b5090505b8415613344576132ee6001836140c0565b91506132fb600a86614411565b6133069060306140d7565b60f81b81838151811061331b5761331b61414b565b60200101906001600160f81b031916908160001a90535061333d600a86614224565b94506132dd565b949350505050565b60008160405160200161335f9190614447565b604051602081830303815290604052805190602001209050919050565b60008160405160200161335f9190614453565b60008060008061339e85613666565b925092509250600186828585604051600081526020016040526040516133c7949392919061448e565b6020604051602081039080840390855afa1580156133e9573d6000803e3d6000fd5b5050604051601f190151979650505050505050565b6060600061340b8661334c565b905060006134188261337c565b604080518082018252600f81526e139bdd081bdb881d1a19481b1a5cdd608a1b6020808301919091526000898152600491829052838120600201549351627eeac760e11b81529297509394508793926001600160a01b0385169262fdd58e92613485928f929091016141a8565b602060405180830381865afa1580156134a2573d6000803e3d6000fd5b505050506040513d601f19601f820116820180604052508101906134c691906141ce565b1180156134ed5750886001600160a01b03166134e2838961338f565b6001600160a01b0316145b15613519576040518060400160405280600b81526020016a13db881d1a19481b1a5cdd60aa1b81525093505b50505095945050505050565b600082815260056020526040812054810361357a575060008281526005602090815260408220805460018082018355918452919092200180546001600160a01b0319166001600160a01b0384161790556135f3565b600083815260056020526040812054905b818110156135f057600085815260056020526040902080546001600160a01b0386169190839081106135bf576135bf61414b565b6000918252602090912001546001600160a01b0316036135de57600192505b806135e8816140ef565b91505061358b565b50505b8015156000036136355760008381526005602090815260408220805460018101825590835291200180546001600160a01b0319166001600160a01b0384161790555b505050565b60006004613648848461321c565b6136529190614224565b61365c848461321c565b61138a91906140c0565b6000806000835160411461368d57604051634be6321b60e01b815260040160405180910390fd5b50505060208101516040820151606090920151909260009190911a90565b6040518061018001604052806000815260200160006001600160a01b03168152602001600081526020016060815260200160006001600160a01b0316815260200160006001600160a01b0316815260200160008152602001600081526020016000815260200160008152602001600060ff168152602001600081525090565b8280546137369061411f565b90600052602060002090601f016020900481019282613758576000855561379e565b82601f1061377157805160ff191683800117855561379e565b8280016001018555821561379e579182015b8281111561379e578251825591602001919060010190613783565b506137aa9291506137ae565b5090565b5b808211156137aa57600081556001016137af565b6001600160e01b031981165b81146137da57600080fd5b50565b80356104cf816137c3565b6000602082840312156137fd576137fd600080fd5b600061334484846137dd565b8015155b82525050565b602081016104cf8284613809565b806137cf565b80356104cf81613821565b60006020828403121561384757613847600080fd5b60006133448484613827565b8061380d565b602081016104cf8284613853565b60006001600160a01b0382166104cf565b61380d81613867565b60005b8381101561389c578181015183820152602001613884565b838111156138ab576000848401525b50505050565b60006138bb825190565b8084526020840193506138d2818560208601613881565b601f01601f19169290920192915050565b60ff811661380d565b80516000906101808401906139018582613853565b5060208301516139146020860182613878565b5060408301516139276040860182613853565b506060830151848203606086015261393f82826138b1565b91505060808301516139546080860182613878565b5060a083015161396760a0860182613878565b5060c083015161397a60c0860182613853565b5060e083015161398d60e0860182613853565b506101008301516139a2610100860182613853565b506101208301516139b7610120860182613853565b506101408301516139cc6101408601826138e3565b506101608301516139e1610160860182613853565b509392505050565b600061138a83836138ec565b60006139ff825190565b80845260208401935083602082028501613a198560200190565b8060005b85811015613a4e5784840389528151613a3685826139e9565b94506020830160209a909a0199925050600101613a1d565b5091979650505050505050565b6020808252810161138a81846139f5565b6137cf81613867565b80356104cf81613a6c565b634e487b7160e01b600052604160045260246000fd5b601f19601f83011681018181106001600160401b0382111715613abb57613abb613a80565b6040525050565b6000613acd60405190565b9050613ad98282613a96565b919050565b60006001600160401b03821115613af757613af7613a80565b601f19601f83011660200192915050565b82818337506000910152565b6000613b27613b2284613ade565b613ac2565b905082815260208101848484011115613b4257613b42600080fd5b6139e1848285613b08565b600082601f830112613b6157613b61600080fd5b8135613344848260208601613b14565b600080600080600060a08688031215613b8c57613b8c600080fd5b6000613b988888613a75565b9550506020613ba988828901613827565b9450506040613bba88828901613827565b93505060608601356001600160401b03811115613bd957613bd9600080fd5b613be588828901613b4d565b92505060808601356001600160401b03811115613c0457613c04600080fd5b613c1088828901613b4d565b9150509295509295909350565b60008060408385031215613c3357613c33600080fd5b6000613c3f8585613a75565b9250506020613c5085828601613827565b9150509250929050565b600080600060608486031215613c7257613c72600080fd5b6000613c7e8686613827565b93505060208401356001600160401b03811115613c9d57613c9d600080fd5b613ca986828701613b4d565b9250506040613cba86828701613a75565b9150509250925092565b6020808252810161138a81846138b1565b60008060008060808587031215613cee57613cee600080fd5b6000613cfa8787613a75565b9450506020613d0b87828801613827565b9350506040613d1c87828801613827565b92505060608501356001600160401b03811115613d3b57613d3b600080fd5b613d4787828801613b4d565b91505092959194509250565b600080600080600060a08688031215613d6e57613d6e600080fd5b6000613d7a8888613a75565b9550506020613d8b88828901613827565b9450506040613d9c88828901613827565b9350506060613be588828901613827565b60006001600160401b03821115613dc657613dc6613a80565b5060209081020190565b6000613dde613b2284613dad565b83815290506020808201908402830185811115613dfd57613dfd600080fd5b835b81811015613e215780613e128882613827565b84525060209283019201613dff565b5050509392505050565b600082601f830112613e3f57613e3f600080fd5b8135613344848260208601613dd0565b600080600080600060a08688031215613e6a57613e6a600080fd5b6000613e768888613a75565b9550506020613e8788828901613a75565b94505060408601356001600160401b03811115613ea657613ea6600080fd5b613eb288828901613e2b565b93505060608601356001600160401b03811115613ed157613ed1600080fd5b613be588828901613e2b565b6001600160e01b0319811661380d565b602081016104cf8284613edd565b600060208284031215613f1057613f10600080fd5b60006133448484613a75565b805160a0830190613f2d8482613853565b506020820151613f406020850182613878565b506040820151613f536040850182613853565b506060820151613f666060850182613853565b5060808201516138ab6080850182613853565b6000613f858383613f1c565b505060a00190565b6000613f97825190565b80845260209384019383018060005b83811015613fcb578151613fba8882613f79565b975060208301925050600101613fa6565b509495945050505050565b6020808252810161138a8184613f8d565b60ff81166137cf565b80356104cf81613fe7565b6000806040838503121561401157614011600080fd5b600061401d8585613827565b9250506020613c5085828601613ff0565b6020808252810161138a81846138ec565b600080600080600060a0868803121561405a5761405a600080fd5b60006140668888613a75565b9550506020613d8b88828901613a75565b6000806040838503121561408d5761408d600080fd5b60006140998585613827565b9250506020613c5085828601613a75565b634e487b7160e01b600052601160045260246000fd5b6000828210156140d2576140d26140aa565b500390565b600082198211156140ea576140ea6140aa565b500190565b60006000198203614102576141026140aa565b5060010190565b634e487b7160e01b600052602260045260246000fd5b60028104600182168061413357607f821691505b60208210810361414557614145614109565b50919050565b634e487b7160e01b600052603260045260246000fd5b601f81526000602082017f5265656e7472616e637947756172643a207265656e7472616e742063616c6c00815291505b5060200190565b602080825281016104cf81614161565b604081016141b68285613878565b61138a6020830184613853565b80516104cf81613821565b6000602082840312156141e3576141e3600080fd5b600061334484846141c3565b6000816000190483118215151615614209576142096140aa565b500290565b634e487b7160e01b600052601260045260246000fd5b6000826142335761423361420e565b500490565b60a081016142468288613878565b6142536020830187613878565b6142606040830186613853565b61426d6060830185613853565b818103608083015261427f81846138b1565b979650505050505050565b600081546142978161411f565b6001821680156142ae57600181146142bf576142ef565b60ff198316865281860193506142ef565b60008581526020902060005b838110156142e7578154888201526001909101906020016142cb565b838801955050505b50505092915050565b6902932b33ab73232b21d160b51b8152600a01600061138a828461428a565b90565b6000816104cf565b60148152600060208201732330b4b632b2103a379039b2b7321022ba3432b960611b81529150614191565b602080825281016104cf81614322565b60006104cf6143178381565b61380d8161435d565b600060ff82166104cf565b61380d81614372565b6101208082528101614398818c6138b1565b90506143a7602083018b613878565b6143b4604083018a613878565b6143c16060830189613853565b6143ce6080830188613853565b6143db60a0830187613853565b6143e860c0830186614369565b6143f560e083018561437d565b614403610100830184614369565b9a9950505050505050505050565b6000826144205761442061420e565b500690565b600061442f825190565b61443d818560208601613881565b9290920192915050565b600061138a8284614425565b7f19457468657265756d205369676e6564204d6573736167653a0a3332000000008152601c0160006144858284613853565b50602001919050565b6080810161449c8287613853565b6144a960208301866138e3565b6144b66040830185613853565b61256e606083018461385356fea26469706673582212207af7f96e4a61a23ec79f3b8eea44e94e1bd9c83f44c057fe8c18d0894f1af8e164736f6c634300080d0033",
  "devdoc": {
    "kind": "dev",
    "methods": {
      "supportsInterface(bytes4)": {
        "details": "See {IERC165-supportsInterface}."
      }
    },
    "version": 1
  },
  "userdoc": {
    "kind": "user",
    "methods": {},
    "version": 1
  },
  "storageLayout": {
    "storage": [
      {
        "astId": 169,
        "contract": "contracts/NFTicketsMarket.sol:NFTicketsMarket",
        "label": "_status",
        "offset": 0,
        "slot": "0",
        "type": "t_uint256"
      },
      {
        "astId": 5397,
        "contract": "contracts/NFTicketsMarket.sol:NFTicketsMarket",
        "label": "_itemIds",
        "offset": 0,
        "slot": "1",
        "type": "t_struct(Counter)3197_storage"
      },
      {
        "astId": 5400,
        "contract": "contracts/NFTicketsMarket.sol:NFTicketsMarket",
        "label": "_itemsSold",
        "offset": 0,
        "slot": "2",
        "type": "t_struct(Counter)3197_storage"
      },
      {
        "astId": 5414,
        "contract": "contracts/NFTicketsMarket.sol:NFTicketsMarket",
        "label": "utils",
        "offset": 0,
        "slot": "3",
        "type": "t_contract(NFTicketsUtils)8267"
      },
      {
        "astId": 5476,
        "contract": "contracts/NFTicketsMarket.sol:NFTicketsMarket",
        "label": "idToMarketItem",
        "offset": 0,
        "slot": "4",
        "type": "t_mapping(t_uint256,t_struct(MarketItem)5460_storage)"
      },
      {
        "astId": 5481,
        "contract": "contracts/NFTicketsMarket.sol:NFTicketsMarket",
        "label": "marketItemIdToBuyers",
        "offset": 0,
        "slot": "5",
        "type": "t_mapping(t_uint256,t_array(t_address)dyn_storage)"
      },
      {
        "astId": 5487,
        "contract": "contracts/NFTicketsMarket.sol:NFTicketsMarket",
        "label": "addressToSpending",
        "offset": 0,
        "slot": "6",
        "type": "t_mapping(t_address,t_mapping(t_uint256,t_uint256))"
      },
      {
        "astId": 5493,
        "contract": "contracts/NFTicketsMarket.sol:NFTicketsMarket",
        "label": "sellerToDepositPerItem",
        "offset": 0,
        "slot": "7",
        "type": "t_mapping(t_address,t_mapping(t_uint256,t_uint256))"
      }
    ],
    "types": {
      "t_address": {
        "encoding": "inplace",
        "label": "address",
        "numberOfBytes": "20"
      },
      "t_address_payable": {
        "encoding": "inplace",
        "label": "address payable",
        "numberOfBytes": "20"
      },
      "t_array(t_address)dyn_storage": {
        "base": "t_address",
        "encoding": "dynamic_array",
        "label": "address[]",
        "numberOfBytes": "32"
      },
      "t_contract(NFTicketsUtils)8267": {
        "encoding": "inplace",
        "label": "contract NFTicketsUtils",
        "numberOfBytes": "20"
      },
      "t_mapping(t_address,t_mapping(t_uint256,t_uint256))": {
        "encoding": "mapping",
        "key": "t_address",
        "label": "mapping(address => mapping(uint256 => uint256))",
        "numberOfBytes": "32",
        "value": "t_mapping(t_uint256,t_uint256)"
      },
      "t_mapping(t_uint256,t_array(t_address)dyn_storage)": {
        "encoding": "mapping",
        "key": "t_uint256",
        "label": "mapping(uint256 => address[])",
        "numberOfBytes": "32",
        "value": "t_array(t_address)dyn_storage"
      },
      "t_mapping(t_uint256,t_struct(MarketItem)5460_storage)": {
        "encoding": "mapping",
        "key": "t_uint256",
        "label": "mapping(uint256 => struct NFTicketsMarket.MarketItem)",
        "numberOfBytes": "32",
        "value": "t_struct(MarketItem)5460_storage"
      },
      "t_mapping(t_uint256,t_uint256)": {
        "encoding": "mapping",
        "key": "t_uint256",
        "label": "mapping(uint256 => uint256)",
        "numberOfBytes": "32",
        "value": "t_uint256"
      },
      "t_string_storage": {
        "encoding": "bytes",
        "label": "string",
        "numberOfBytes": "32"
      },
      "t_struct(Counter)3197_storage": {
        "encoding": "inplace",
        "label": "struct Counters.Counter",
        "members": [
          {
            "astId": 3196,
            "contract": "contracts/NFTicketsMarket.sol:NFTicketsMarket",
            "label": "_value",
            "offset": 0,
            "slot": "0",
            "type": "t_uint256"
          }
        ],
        "numberOfBytes": "32"
      },
      "t_struct(MarketItem)5460_storage": {
        "encoding": "inplace",
        "label": "struct NFTicketsMarket.MarketItem",
        "members": [
          {
            "astId": 5437,
            "contract": "contracts/NFTicketsMarket.sol:NFTicketsMarket",
            "label": "itemId",
            "offset": 0,
            "slot": "0",
            "type": "t_uint256"
          },
          {
            "astId": 5439,
            "contract": "contracts/NFTicketsMarket.sol:NFTicketsMarket",
            "label": "nftContract",
            "offset": 0,
            "slot": "1",
            "type": "t_address"
          },
          {
            "astId": 5441,
            "contract": "contracts/NFTicketsMarket.sol:NFTicketsMarket",
            "label": "tokenId",
            "offset": 0,
            "slot": "2",
            "type": "t_uint256"
          },
          {
            "astId": 5443,
            "contract": "contracts/NFTicketsMarket.sol:NFTicketsMarket",
            "label": "name",
            "offset": 0,
            "slot": "3",
            "type": "t_string_storage"
          },
          {
            "astId": 5445,
            "contract": "contracts/NFTicketsMarket.sol:NFTicketsMarket",
            "label": "seller",
            "offset": 0,
            "slot": "4",
            "type": "t_address_payable"
          },
          {
            "astId": 5447,
            "contract": "contracts/NFTicketsMarket.sol:NFTicketsMarket",
            "label": "owner",
            "offset": 0,
            "slot": "5",
            "type": "t_address_payable"
          },
          {
            "astId": 5449,
            "contract": "contracts/NFTicketsMarket.sol:NFTicketsMarket",
            "label": "price",
            "offset": 0,
            "slot": "6",
            "type": "t_uint256"
          },
          {
            "astId": 5451,
            "contract": "contracts/NFTicketsMarket.sol:NFTicketsMarket",
            "label": "amount",
            "offset": 0,
            "slot": "7",
            "type": "t_uint256"
          },
          {
            "astId": 5453,
            "contract": "contracts/NFTicketsMarket.sol:NFTicketsMarket",
            "label": "initialQuantity",
            "offset": 0,
            "slot": "8",
            "type": "t_uint256"
          },
          {
            "astId": 5455,
            "contract": "contracts/NFTicketsMarket.sol:NFTicketsMarket",
            "label": "totalSales",
            "offset": 0,
            "slot": "9",
            "type": "t_uint256"
          },
          {
            "astId": 5457,
            "contract": "contracts/NFTicketsMarket.sol:NFTicketsMarket",
            "label": "status",
            "offset": 0,
            "slot": "10",
            "type": "t_uint8"
          },
          {
            "astId": 5459,
            "contract": "contracts/NFTicketsMarket.sol:NFTicketsMarket",
            "label": "finalCommision",
            "offset": 0,
            "slot": "11",
            "type": "t_uint256"
          }
        ],
        "numberOfBytes": "384"
      },
      "t_uint256": {
        "encoding": "inplace",
        "label": "uint256",
        "numberOfBytes": "32"
      },
      "t_uint8": {
        "encoding": "inplace",
        "label": "uint8",
        "numberOfBytes": "1"
      }
    }
  }
}