{
  "address": "0x1C70F4085A7558Ddf8383A67f68ED7eab60136fC",
  "abi": [
    {
      "inputs": [
        {
          "internalType": "address",
          "name": "_marketAddress",
          "type": "address"
        }
      ],
      "stateMutability": "nonpayable",
      "type": "constructor"
    },
    {
      "anonymous": false,
      "inputs": [
        {
          "indexed": true,
          "internalType": "address",
          "name": "account",
          "type": "address"
        },
        {
          "indexed": true,
          "internalType": "address",
          "name": "operator",
          "type": "address"
        },
        {
          "indexed": false,
          "internalType": "bool",
          "name": "approved",
          "type": "bool"
        }
      ],
      "name": "ApprovalForAll",
      "type": "event"
    },
    {
      "anonymous": false,
      "inputs": [
        {
          "indexed": true,
          "internalType": "address",
          "name": "operator",
          "type": "address"
        },
        {
          "indexed": true,
          "internalType": "address",
          "name": "from",
          "type": "address"
        },
        {
          "indexed": true,
          "internalType": "address",
          "name": "to",
          "type": "address"
        },
        {
          "indexed": false,
          "internalType": "uint256[]",
          "name": "ids",
          "type": "uint256[]"
        },
        {
          "indexed": false,
          "internalType": "uint256[]",
          "name": "values",
          "type": "uint256[]"
        }
      ],
      "name": "TransferBatch",
      "type": "event"
    },
    {
      "anonymous": false,
      "inputs": [
        {
          "indexed": true,
          "internalType": "address",
          "name": "operator",
          "type": "address"
        },
        {
          "indexed": true,
          "internalType": "address",
          "name": "from",
          "type": "address"
        },
        {
          "indexed": true,
          "internalType": "address",
          "name": "to",
          "type": "address"
        },
        {
          "indexed": false,
          "internalType": "uint256",
          "name": "id",
          "type": "uint256"
        },
        {
          "indexed": false,
          "internalType": "uint256",
          "name": "value",
          "type": "uint256"
        }
      ],
      "name": "TransferSingle",
      "type": "event"
    },
    {
      "anonymous": false,
      "inputs": [
        {
          "indexed": false,
          "internalType": "string",
          "name": "value",
          "type": "string"
        },
        {
          "indexed": true,
          "internalType": "uint256",
          "name": "id",
          "type": "uint256"
        }
      ],
      "name": "URI",
      "type": "event"
    },
    {
      "inputs": [
        {
          "internalType": "uint256",
          "name": "",
          "type": "uint256"
        }
      ],
      "name": "_price",
      "outputs": [
        {
          "internalType": "uint256",
          "name": "",
          "type": "uint256"
        }
      ],
      "stateMutability": "view",
      "type": "function"
    },
    {
      "inputs": [
        {
          "internalType": "address",
          "name": "account",
          "type": "address"
        },
        {
          "internalType": "uint256",
          "name": "id",
          "type": "uint256"
        }
      ],
      "name": "balanceOf",
      "outputs": [
        {
          "internalType": "uint256",
          "name": "",
          "type": "uint256"
        }
      ],
      "stateMutability": "view",
      "type": "function"
    },
    {
      "inputs": [
        {
          "internalType": "address[]",
          "name": "accounts",
          "type": "address[]"
        },
        {
          "internalType": "uint256[]",
          "name": "ids",
          "type": "uint256[]"
        }
      ],
      "name": "balanceOfBatch",
      "outputs": [
        {
          "internalType": "uint256[]",
          "name": "",
          "type": "uint256[]"
        }
      ],
      "stateMutability": "view",
      "type": "function"
    },
    {
      "inputs": [
        {
          "internalType": "uint256",
          "name": "tokenId",
          "type": "uint256"
        },
        {
          "internalType": "uint256",
          "name": "amount",
          "type": "uint256"
        },
        {
          "internalType": "bytes",
          "name": "data",
          "type": "bytes"
        }
      ],
      "name": "createMoreTokens",
      "outputs": [],
      "stateMutability": "nonpayable",
      "type": "function"
    },
    {
      "inputs": [
        {
          "internalType": "string",
          "name": "tokenURI",
          "type": "string"
        },
        {
          "internalType": "uint256",
          "name": "amount",
          "type": "uint256"
        },
        {
          "internalType": "bytes",
          "name": "data",
          "type": "bytes"
        },
        {
          "internalType": "uint256",
          "name": "price",
          "type": "uint256"
        },
        {
          "internalType": "uint256",
          "name": "startTime",
          "type": "uint256"
        },
        {
          "internalType": "uint256",
          "name": "finishTime",
          "type": "uint256"
        },
        {
          "internalType": "int64",
          "name": "lat",
          "type": "int64"
        },
        {
          "internalType": "int64",
          "name": "lon",
          "type": "int64"
        }
      ],
      "name": "createToken",
      "outputs": [
        {
          "internalType": "uint256",
          "name": "",
          "type": "uint256"
        }
      ],
      "stateMutability": "nonpayable",
      "type": "function"
    },
    {
      "inputs": [
        {
          "internalType": "uint256",
          "name": "tokenId",
          "type": "uint256"
        }
      ],
      "name": "getCoordinates",
      "outputs": [
        {
          "internalType": "int64[2]",
          "name": "",
          "type": "int64[2]"
        }
      ],
      "stateMutability": "view",
      "type": "function"
    },
    {
      "inputs": [
        {
          "internalType": "uint256",
          "name": "tokenId",
          "type": "uint256"
        }
      ],
      "name": "getFinishTime",
      "outputs": [
        {
          "internalType": "uint256",
          "name": "",
          "type": "uint256"
        }
      ],
      "stateMutability": "view",
      "type": "function"
    },
    {
      "inputs": [
        {
          "internalType": "uint256",
          "name": "tokenId",
          "type": "uint256"
        }
      ],
      "name": "getStartTime",
      "outputs": [
        {
          "internalType": "uint256",
          "name": "",
          "type": "uint256"
        }
      ],
      "stateMutability": "view",
      "type": "function"
    },
    {
      "inputs": [
        {
          "internalType": "address",
          "name": "account",
          "type": "address"
        },
        {
          "internalType": "address",
          "name": "operator",
          "type": "address"
        }
      ],
      "name": "isApprovedForAll",
      "outputs": [
        {
          "internalType": "bool",
          "name": "",
          "type": "bool"
        }
      ],
      "stateMutability": "view",
      "type": "function"
    },
    {
      "inputs": [
        {
          "internalType": "address",
          "name": "testMe",
          "type": "address"
        }
      ],
      "name": "listMyTokens",
      "outputs": [
        {
          "internalType": "uint256[]",
          "name": "",
          "type": "uint256[]"
        }
      ],
      "stateMutability": "view",
      "type": "function"
    },
    {
      "inputs": [
        {
          "internalType": "uint256",
          "name": "tokenId",
          "type": "uint256"
        }
      ],
      "name": "price",
      "outputs": [
        {
          "internalType": "uint256",
          "name": "",
          "type": "uint256"
        }
      ],
      "stateMutability": "view",
      "type": "function"
    },
    {
      "inputs": [
        {
          "internalType": "address",
          "name": "from",
          "type": "address"
        },
        {
          "internalType": "address",
          "name": "to",
          "type": "address"
        },
        {
          "internalType": "uint256[]",
          "name": "ids",
          "type": "uint256[]"
        },
        {
          "internalType": "uint256[]",
          "name": "amounts",
          "type": "uint256[]"
        },
        {
          "internalType": "bytes",
          "name": "data",
          "type": "bytes"
        }
      ],
      "name": "safeBatchTransferFrom",
      "outputs": [],
      "stateMutability": "nonpayable",
      "type": "function"
    },
    {
      "inputs": [
        {
          "internalType": "address",
          "name": "from",
          "type": "address"
        },
        {
          "internalType": "address",
          "name": "to",
          "type": "address"
        },
        {
          "internalType": "uint256",
          "name": "id",
          "type": "uint256"
        },
        {
          "internalType": "uint256",
          "name": "amount",
          "type": "uint256"
        },
        {
          "internalType": "bytes",
          "name": "data",
          "type": "bytes"
        }
      ],
      "name": "safeTransferFrom",
      "outputs": [],
      "stateMutability": "nonpayable",
      "type": "function"
    },
    {
      "inputs": [
        {
          "internalType": "address",
          "name": "to",
          "type": "address"
        },
        {
          "internalType": "uint256",
          "name": "tokenId",
          "type": "uint256"
        },
        {
          "internalType": "uint256",
          "name": "amount",
          "type": "uint256"
        },
        {
          "internalType": "bytes",
          "name": "data",
          "type": "bytes"
        }
      ],
      "name": "sendFree",
      "outputs": [],
      "stateMutability": "nonpayable",
      "type": "function"
    },
    {
      "inputs": [
        {
          "internalType": "address",
          "name": "operator",
          "type": "address"
        },
        {
          "internalType": "bool",
          "name": "approved",
          "type": "bool"
        }
      ],
      "name": "setApprovalForAll",
      "outputs": [],
      "stateMutability": "nonpayable",
      "type": "function"
    },
    {
      "inputs": [
        {
          "internalType": "bytes4",
          "name": "interfaceId",
          "type": "bytes4"
        }
      ],
      "name": "supportsInterface",
      "outputs": [
        {
          "internalType": "bool",
          "name": "",
          "type": "bool"
        }
      ],
      "stateMutability": "view",
      "type": "function"
    },
    {
      "inputs": [
        {
          "internalType": "uint256",
          "name": "tokenId",
          "type": "uint256"
        }
      ],
      "name": "uri",
      "outputs": [
        {
          "internalType": "string",
          "name": "",
          "type": "string"
        }
      ],
      "stateMutability": "view",
      "type": "function"
    },
    {
      "inputs": [
        {
          "internalType": "address",
          "name": "from",
          "type": "address"
        },
        {
          "internalType": "address",
          "name": "to",
          "type": "address"
        },
        {
          "internalType": "uint256",
          "name": "tokenId",
          "type": "uint256"
        },
        {
          "internalType": "uint256",
          "name": "amount",
          "type": "uint256"
        },
        {
          "internalType": "bytes",
          "name": "data",
          "type": "bytes"
        }
      ],
      "name": "useUnderscoreTransfer",
      "outputs": [],
      "stateMutability": "nonpayable",
      "type": "function"
    }
  ],
  "transactionHash": "0x06ef1492199b7aec8e4710168a2fc95ffbe48b88ca5dbf181365f7ff903dd9c2",
  "args": [
    "0xE247b162b036f3d6a3074b563eC712437CFB04E3"
  ],
  "numDeployments": 7,
  "solcInputHash": "7576810861a31f34e7f5050dbd6ca1c6",
  "bytecode": "0x60c06040819052600060a08190526200001b9160039162000097565b503480156200002957600080fd5b5060405162002289380380620022898339810160408190526200004c9162000177565b60408051602081019091526000815262000066816200007e565b5060016005556001600160a01b0316608052620001ea565b80516200009390600290602084019062000097565b5050565b828054620000a590620001ba565b90600052602060002090601f016020900481019282620000c9576000855562000114565b82601f10620000e457805160ff191683800117855562000114565b8280016001018555821562000114579182015b8281111562000114578251825591602001919060010190620000f7565b506200012292915062000126565b5090565b5b8082111562000122576000815560010162000127565b60006001600160a01b0382165b92915050565b6200015b816200013d565b81146200016757600080fd5b50565b80516200014a8162000150565b6000602082840312156200018e576200018e600080fd5b60006200019c84846200016a565b949350505050565b634e487b7160e01b600052602260045260246000fd5b600281046001821680620001cf57607f821691505b602082108103620001e457620001e4620001a4565b50919050565b6080516120836200020660003960006108f701526120836000f3fe608060405234801561001057600080fd5b50600436106101155760003560e01c80634f6d8518116100a2578063a22cb46511610071578063a22cb46514610277578063bc2be1be1461028a578063e985e9c5146102aa578063f242432a146102e6578063faea173b146102f957600080fd5b80634f6d85181461022b5780636bfa34291461023e578063784cbce51461025157806398cf095a1461026457600080fd5b8063117f02d7116100e9578063117f02d7146101a3578063246925f2146101c357806326a49e37146101d85780632eb2c2d6146101f85780634e1273f41461020b57600080fd5b8062fdd58e1461011a57806301ffc9a7146101435780630bf37818146101635780630e89341c14610183575b600080fd5b61012d610128366004611188565b610319565b60405161013a91906111cd565b60405180910390f35b6101566101513660046111f6565b610373565b60405161013a9190611227565b610176610171366004611235565b6103c3565b60405161013a91906112a0565b610196610191366004611235565b61042d565b60405161013a919061130c565b61012d6101b1366004611235565b6000908152600c602052604090205490565b6101d66101d1366004611415565b6104c5565b005b61012d6101e6366004611235565b60009081526009602052604090205490565b6101d6610206366004611535565b6104e3565b61021e610219366004611670565b61052f565b60405161013a919061172b565b61021e61023936600461173c565b610616565b6101d661024c36600461175d565b610767565b61012d61025f3660046117dc565b6107ae565b6101d66102723660046118c2565b61092a565b6101d661028536600461192f565b610937565b61012d610298366004611235565b6000908152600b602052604090205490565b6101566102b8366004611962565b6001600160a01b03918216600090815260016020908152604080832093909416825291909152205460ff1690565b6101d66102f43660046118c2565b610946565b61012d610307366004611235565b60096020526000908152604090205481565b60006001600160a01b03831661034a5760405162461bcd60e51b8152600401610341906119df565b60405180910390fd5b506000818152602081815260408083206001600160a01b03861684529091529020545b92915050565b60006001600160e01b03198216636cdb3d1360e11b14806103a457506001600160e01b031982166303a24d0760e21b145b8061036d57506301ffc9a760e01b6001600160e01b031983161461036d565b6103cb610fee565b6000828152600a60205260408082208151808301928390529290916002918390855b825461010083900a900460070b81526020600f83018190049384019360010360089093019290920291018084116103ed5790505b50505050509050919050565b600081815260076020526040902080546060919061044a90611a05565b80601f016020809104026020016040519081016040528092919081815260200182805461047690611a05565b80156104215780601f1061049857610100808354040283529160200191610421565b820191906000526020600020905b8154815290600101906020018083116104a65750939695505050505050565b6104d2338585858561097e565b6104dd846001610937565b50505050565b6001600160a01b0385163314806104ff57506104ff85336102b8565b61051b5760405162461bcd60e51b815260040161034190611a7d565b6105288585858585610ab4565b5050505050565b606081518351146105525760405162461bcd60e51b815260040161034190611ad3565b600083516001600160401b0381111561056d5761056d611324565b604051908082528060200260200182016040528015610596578160200160208202803683370190505b50905060005b845181101561060e576105e18582815181106105ba576105ba611ae3565b60200260200101518583815181106105d4576105d4611ae3565b6020026020010151610319565b8282815181106105f3576105f3611ae3565b602090810291909101015261060781611b0f565b905061059c565b509392505050565b6060600061062360065490565b905060008060005b8381101561068b576001600160a01b0386166008600061064c846001611b29565b81526020810191909152604001600020546001600160a01b03160361067957610676600184611b29565b92505b8061068381611b0f565b91505061062b565b506000826001600160401b038111156106a6576106a6611324565b6040519080825280602002602001820160405280156106cf578160200160208202803683370190505b50905060005b8481101561075d576001600160a01b038716600860006106f6846001611b29565b81526020810191909152604001600020546001600160a01b03160361074b57610720816001611b29565b82848151811061073257610732611ae3565b6020908102919091010152610748600184611b29565b92505b8061075581611b0f565b9150506106d5565b5095945050505050565b6000838152600860205260409020546001600160a01b0316331461079d5760405162461bcd60e51b815260040161034190611b78565b6107a933848484610c50565b505050565b60006107be600680546001019055565b60006107c960065490565b60008181526007602052604090208054919250906107e690611a05565b1590506108055760405162461bcd60e51b815260040161034190611bb3565b600081815260096020526040902054156108315760405162461bcd60e51b815260040161034190611bf0565b600087116108515760405162461bcd60e51b815260040161034190611c28565b600081815260086020526040902080546001600160a01b0319163390811790915561087e90828b8b610c50565b60008181526007602090815260409091208b5161089d928d019061100c565b5060008181526009602090815260408083208a9055600b8252808320899055600c825280832088905580518082018252600788810b825287900b81840152848452600a9092529091206108f1916002611090565b5061091d7f00000000000000000000000000000000000000000000000000000000000000006001610937565b9998505050505050505050565b610528858585858561097e565b610942338383610d38565b5050565b6001600160a01b038516331480610962575061096285336102b8565b61092a5760405162461bcd60e51b815260040161034190611a7d565b6001600160a01b0384166109a45760405162461bcd60e51b815260040161034190611c7a565b3360006109b085610dda565b905060006109bd85610dda565b90506000868152602081815260408083206001600160a01b038c16845290915290205485811015610a005760405162461bcd60e51b815260040161034190611cd1565b6000878152602081815260408083206001600160a01b038d8116855292528083208985039055908a16825281208054889290610a3d908490611b29565b92505081905550876001600160a01b0316896001600160a01b0316856001600160a01b03167fc3d58168c5ae7397731d063d5bbf3d657854427343f4c083240f7aacaa2d0f628a8a604051610a93929190611ce1565b60405180910390a4610aa9848a8a8a8a8a610e25565b505050505050505050565b8151835114610ad55760405162461bcd60e51b815260040161034190611d41565b6001600160a01b038416610afb5760405162461bcd60e51b815260040161034190611c7a565b3360005b8451811015610be2576000858281518110610b1c57610b1c611ae3565b602002602001015190506000858381518110610b3a57610b3a611ae3565b602090810291909101810151600084815280835260408082206001600160a01b038e168352909352919091205490915081811015610b8a5760405162461bcd60e51b815260040161034190611cd1565b6000838152602081815260408083206001600160a01b038e8116855292528083208585039055908b16825281208054849290610bc7908490611b29565b9250508190555050505080610bdb90611b0f565b9050610aff565b50846001600160a01b0316866001600160a01b0316826001600160a01b03167f4a39dc06d4c0dbc64b70af90fd698a233a518aa5d07e595d983b8c0526c8f7fb8787604051610c32929190611d51565b60405180910390a4610c48818787878787610f33565b505050505050565b6001600160a01b038416610c765760405162461bcd60e51b815260040161034190611db4565b336000610c8285610dda565b90506000610c8f85610dda565b90506000868152602081815260408083206001600160a01b038b16845290915281208054879290610cc1908490611b29565b92505081905550866001600160a01b031660006001600160a01b0316846001600160a01b03167fc3d58168c5ae7397731d063d5bbf3d657854427343f4c083240f7aacaa2d0f628989604051610d18929190611ce1565b60405180910390a4610d2f83600089898989610e25565b50505050505050565b816001600160a01b0316836001600160a01b031603610d695760405162461bcd60e51b815260040161034190611e0a565b6001600160a01b0383811660008181526001602090815260408083209487168084529490915290819020805460ff1916851515179055517f17307eab39ab6107e8899845ad3d59bd9653f200f220920489ca2b5937696c3190610dcd908590611227565b60405180910390a3505050565b60408051600180825281830190925260609160009190602080830190803683370190505090508281600081518110610e1457610e14611ae3565b602090810291909101015292915050565b6001600160a01b0384163b15610c485760405163f23a6e6160e01b81526001600160a01b0385169063f23a6e6190610e699089908990889088908890600401611e23565b6020604051808303816000875af1925050508015610ea4575060408051601f3d908101601f19168201909252610ea191810190611e80565b60015b610f0357610eb0611ea1565b806308c379a003610ee95750610ec4611ebd565b80610ecf5750610eeb565b8060405162461bcd60e51b8152600401610341919061130c565b505b60405162461bcd60e51b815260040161034190611f93565b6001600160e01b0319811663f23a6e6160e01b14610d2f5760405162461bcd60e51b815260040161034190611fe8565b6001600160a01b0384163b15610c485760405163bc197c8160e01b81526001600160a01b0385169063bc197c8190610f779089908990889088908890600401611ff8565b6020604051808303816000875af1925050508015610fb2575060408051601f3d908101601f19168201909252610faf91810190611e80565b60015b610fbe57610eb0611ea1565b6001600160e01b0319811663bc197c8160e01b14610d2f5760405162461bcd60e51b815260040161034190611fe8565b60405180604001604052806002906020820280368337509192915050565b82805461101890611a05565b90600052602060002090601f01602090048101928261103a5760008555611080565b82601f1061105357805160ff1916838001178555611080565b82800160010185558215611080579182015b82811115611080578251825591602001919060010190611065565b5061108c92915061112f565b5090565b6001830191839082156110805791602002820160005b838211156110f357835183826101000a8154816001600160401b03021916908360070b6001600160401b0316021790555092602001926008016020816007010492830192600103026110a6565b80156111265782816101000a8154906001600160401b0302191690556008016020816007010492830192600103026110f3565b505061108c9291505b5b8082111561108c5760008155600101611130565b60006001600160a01b03821661036d565b61115e81611144565b811461116957600080fd5b50565b803561036d81611155565b8061115e565b803561036d81611177565b6000806040838503121561119e5761119e600080fd5b60006111aa858561116c565b92505060206111bb8582860161117d565b9150509250929050565b805b82525050565b6020810161036d82846111c5565b6001600160e01b0319811661115e565b803561036d816111db565b60006020828403121561120b5761120b600080fd5b600061121784846111eb565b949350505050565b8015156111c7565b6020810161036d828461121f565b60006020828403121561124a5761124a600080fd5b6000611217848461117d565b6111c78160070b90565b600061126c8383611256565b505060200190565b6002818060005b83811015610c4857815161128f8782611260565b96506020830192505060010161127b565b6040810161036d8284611274565b60005b838110156112c95781810151838201526020016112b1565b838111156104dd5750506000910152565b60006112e4825190565b8084526020840193506112fb8185602086016112ae565b601f01601f19169290920192915050565b6020808252810161131d81846112da565b9392505050565b634e487b7160e01b600052604160045260246000fd5b601f19601f83011681018181106001600160401b038211171561135f5761135f611324565b6040525050565b600061137160405190565b905061137d828261133a565b919050565b60006001600160401b0382111561139b5761139b611324565b601f19601f83011660200192915050565b82818337506000910152565b60006113cb6113c684611382565b611366565b9050828152602081018484840111156113e6576113e6600080fd5b61060e8482856113ac565b600082601f83011261140557611405600080fd5b81356112178482602086016113b8565b6000806000806080858703121561142e5761142e600080fd5b600061143a878761116c565b945050602061144b8782880161117d565b935050604061145c8782880161117d565b92505060608501356001600160401b0381111561147b5761147b600080fd5b611487878288016113f1565b91505092959194509250565b60006001600160401b038211156114ac576114ac611324565b5060209081020190565b60006114c46113c684611493565b838152905060208082019084028301858111156114e3576114e3600080fd5b835b8181101561150757806114f8888261117d565b845250602092830192016114e5565b5050509392505050565b600082601f83011261152557611525600080fd5b81356112178482602086016114b6565b600080600080600060a0868803121561155057611550600080fd5b600061155c888861116c565b955050602061156d8882890161116c565b94505060408601356001600160401b0381111561158c5761158c600080fd5b61159888828901611511565b93505060608601356001600160401b038111156115b7576115b7600080fd5b6115c388828901611511565b92505060808601356001600160401b038111156115e2576115e2600080fd5b6115ee888289016113f1565b9150509295509295909350565b60006116096113c684611493565b8381529050602080820190840283018581111561162857611628600080fd5b835b81811015611507578061163d888261116c565b8452506020928301920161162a565b600082601f83011261166057611660600080fd5b81356112178482602086016115fb565b6000806040838503121561168657611686600080fd5b82356001600160401b0381111561169f5761169f600080fd5b6116ab8582860161164c565b92505060208301356001600160401b038111156116ca576116ca600080fd5b6111bb85828601611511565b600061126c83836111c5565b60006116ec825190565b80845260209384019383018060005b8381101561172057815161170f88826116d6565b9750602083019250506001016116fb565b509495945050505050565b6020808252810161131d81846116e2565b60006020828403121561175157611751600080fd5b6000611217848461116c565b60008060006060848603121561177557611775600080fd5b6000611781868661117d565b93505060206117928682870161117d565b92505060408401356001600160401b038111156117b1576117b1600080fd5b6117bd868287016113f1565b9150509250925092565b61115e8160070b90565b803561036d816117c7565b600080600080600080600080610100898b0312156117fc576117fc600080fd5b88356001600160401b0381111561181557611815600080fd5b6118218b828c016113f1565b98505060206118328b828c0161117d565b97505060408901356001600160401b0381111561185157611851600080fd5b61185d8b828c016113f1565b965050606061186e8b828c0161117d565b955050608061187f8b828c0161117d565b94505060a06118908b828c0161117d565b93505060c06118a18b828c016117d1565b92505060e06118b28b828c016117d1565b9150509295985092959890939650565b600080600080600060a086880312156118dd576118dd600080fd5b60006118e9888861116c565b95505060206118fa8882890161116c565b945050604061190b8882890161117d565b93505060606115c38882890161117d565b80151561115e565b803561036d8161191c565b6000806040838503121561194557611945600080fd5b6000611951858561116c565b92505060206111bb85828601611924565b6000806040838503121561197857611978600080fd5b6000611984858561116c565b92505060206111bb8582860161116c565b602a81526000602082017f455243313135353a2061646472657373207a65726f206973206e6f742061207681526930b634b21037bbb732b960b11b602082015291505b5060400190565b6020808252810161036d81611995565b634e487b7160e01b600052602260045260246000fd5b600281046001821680611a1957607f821691505b602082108103611a2b57611a2b6119ef565b50919050565b602f81526000602082017f455243313135353a2063616c6c6572206973206e6f7420746f6b656e206f776e81526e195c881b9bdc88185c1c1c9bdd9959608a1b602082015291506119d8565b6020808252810161036d81611a31565b602981526000602082017f455243313135353a206163636f756e747320616e6420696473206c656e677468815268040dad2e6dac2e8c6d60bb1b602082015291506119d8565b6020808252810161036d81611a8d565b634e487b7160e01b600052603260045260246000fd5b634e487b7160e01b600052601160045260246000fd5b60006000198203611b2257611b22611af9565b5060010190565b60008219821115611b3c57611b3c611af9565b500190565b601d81526000602082017f596f7520617265206e6f742074686520746f6b656e2063726561746f72000000815291505b5060200190565b6020808252810161036d81611b41565b601481526000602082017343616e6e6f74207365742055524920747769636560601b81529150611b71565b6020808252810161036d81611b88565b601681526000602082017543616e6e6f742073657420707269636520747769636560501b81529150611b71565b6020808252810161036d81611bc3565b6011815260006020820170070726963652063616e6e6f74206265203607c1b81529150611b71565b6020808252810161036d81611c00565b602581526000602082017f455243313135353a207472616e7366657220746f20746865207a65726f206164815264647265737360d81b602082015291506119d8565b6020808252810161036d81611c38565b602a81526000602082017f455243313135353a20696e73756666696369656e742062616c616e636520666f81526939103a3930b739b332b960b11b602082015291506119d8565b6020808252810161036d81611c8a565b60408101611cef82856111c5565b61131d60208301846111c5565b602881526000602082017f455243313135353a2069647320616e6420616d6f756e7473206c656e677468208152670dad2e6dac2e8c6d60c31b602082015291506119d8565b6020808252810161036d81611cfc565b60408082528101611d6281856116e2565b9050818103602083015261121781846116e2565b602181526000602082017f455243313135353a206d696e7420746f20746865207a65726f206164647265738152607360f81b602082015291506119d8565b6020808252810161036d81611d76565b602981526000602082017f455243313135353a2073657474696e6720617070726f76616c20737461747573815268103337b91039b2b63360b91b602082015291506119d8565b6020808252810161036d81611dc4565b6111c781611144565b60a08101611e318288611e1a565b611e3e6020830187611e1a565b611e4b60408301866111c5565b611e5860608301856111c5565b8181036080830152611e6a81846112da565b979650505050505050565b805161036d816111db565b600060208284031215611e9557611e95600080fd5b60006112178484611e75565b600060033d1115611eba5760046000803e5060005160e01c5b90565b600060443d1015611ecb5790565b60405160043d036004823e80513d60248201116001600160401b0382111715611ef357505090565b80820180516001600160401b03811115611f0e575050505090565b80602083010160043d038501811115611f2957505050505090565b611f388260200185018661133a565b5090949350505050565b603481526000602082017f455243313135353a207472616e7366657220746f206e6f6e20455243313135358152732932b1b2b4bb32b91034b6b83632b6b2b73a32b960611b602082015291506119d8565b6020808252810161036d81611f42565b602881526000602082017f455243313135353a204552433131353552656365697665722072656a656374658152676420746f6b656e7360c01b602082015291506119d8565b6020808252810161036d81611fa3565b60a081016120068288611e1a565b6120136020830187611e1a565b818103604083015261202581866116e2565b9050818103606083015261203981856116e2565b90508181036080830152611e6a81846112da56fea2646970667358221220187236ea9e578ce0971f13139d551edb5eaec5dba1fe5eca44fea5d86afeb25764736f6c634300080d0033",
  "devdoc": {
    "kind": "dev",
    "methods": {
      "balanceOf(address,uint256)": {
        "details": "See {IERC1155-balanceOf}. Requirements: - `account` cannot be the zero address."
      },
      "balanceOfBatch(address[],uint256[])": {
        "details": "See {IERC1155-balanceOfBatch}. Requirements: - `accounts` and `ids` must have the same length."
      },
      "isApprovedForAll(address,address)": {
        "details": "See {IERC1155-isApprovedForAll}."
      },
      "safeBatchTransferFrom(address,address,uint256[],uint256[],bytes)": {
        "details": "See {IERC1155-safeBatchTransferFrom}."
      },
      "safeTransferFrom(address,address,uint256,uint256,bytes)": {
        "details": "See {IERC1155-safeTransferFrom}."
      },
      "setApprovalForAll(address,bool)": {
        "details": "See {IERC1155-setApprovalForAll}."
      },
      "supportsInterface(bytes4)": {
        "details": "See {IERC165-supportsInterface}."
      },
      "uri(uint256)": {
        "details": "See {IERC1155MetadataURI-uri}. This implementation returns the concatenation of the `_baseURI` and the token-specific uri if the latter is set This enables the following behaviors: - if `_tokenURIs[tokenId]` is set, then the result is the concatenation   of `_baseURI` and `_tokenURIs[tokenId]` (keep in mind that `_baseURI`   is empty per default); - if `_tokenURIs[tokenId]` is NOT set then we fallback to `super.uri()`   which in most cases will contain `ERC1155._uri`; - if `_tokenURIs[tokenId]` is NOT set, and if the parents do not have a   uri value set, then the result is empty."
      }
    },
    "version": 1
  },
  "userdoc": {
    "kind": "user",
    "methods": {},
    "version": 1
  },
  "storageLayout": {
    "storage": [
      {
        "astId": 224,
        "contract": "contracts/NFTicketsTic.sol:NFTicketsTic",
        "label": "_balances",
        "offset": 0,
        "slot": "0",
        "type": "t_mapping(t_uint256,t_mapping(t_address,t_uint256))"
      },
      {
        "astId": 230,
        "contract": "contracts/NFTicketsTic.sol:NFTicketsTic",
        "label": "_operatorApprovals",
        "offset": 0,
        "slot": "1",
        "type": "t_mapping(t_address,t_mapping(t_address,t_bool))"
      },
      {
        "astId": 232,
        "contract": "contracts/NFTicketsTic.sol:NFTicketsTic",
        "label": "_uri",
        "offset": 0,
        "slot": "2",
        "type": "t_string_storage"
      },
      {
        "astId": 1597,
        "contract": "contracts/NFTicketsTic.sol:NFTicketsTic",
        "label": "_baseURI",
        "offset": 0,
        "slot": "3",
        "type": "t_string_storage"
      },
      {
        "astId": 1601,
        "contract": "contracts/NFTicketsTic.sol:NFTicketsTic",
        "label": "_tokenURIs",
        "offset": 0,
        "slot": "4",
        "type": "t_mapping(t_uint256,t_string_storage)"
      },
      {
        "astId": 169,
        "contract": "contracts/NFTicketsTic.sol:NFTicketsTic",
        "label": "_status",
        "offset": 0,
        "slot": "5",
        "type": "t_uint256"
      },
      {
        "astId": 7695,
        "contract": "contracts/NFTicketsTic.sol:NFTicketsTic",
        "label": "_tokenIds",
        "offset": 0,
        "slot": "6",
        "type": "t_struct(Counter)3197_storage"
      },
      {
        "astId": 7714,
        "contract": "contracts/NFTicketsTic.sol:NFTicketsTic",
        "label": "_uris",
        "offset": 0,
        "slot": "7",
        "type": "t_mapping(t_uint256,t_string_storage)"
      },
      {
        "astId": 7718,
        "contract": "contracts/NFTicketsTic.sol:NFTicketsTic",
        "label": "_tokenCreator",
        "offset": 0,
        "slot": "8",
        "type": "t_mapping(t_uint256,t_address)"
      },
      {
        "astId": 7722,
        "contract": "contracts/NFTicketsTic.sol:NFTicketsTic",
        "label": "_price",
        "offset": 0,
        "slot": "9",
        "type": "t_mapping(t_uint256,t_uint256)"
      },
      {
        "astId": 7728,
        "contract": "contracts/NFTicketsTic.sol:NFTicketsTic",
        "label": "coordinates",
        "offset": 0,
        "slot": "10",
        "type": "t_mapping(t_uint256,t_array(t_int64)2_storage)"
      },
      {
        "astId": 7732,
        "contract": "contracts/NFTicketsTic.sol:NFTicketsTic",
        "label": "eventStartTime",
        "offset": 0,
        "slot": "11",
        "type": "t_mapping(t_uint256,t_uint256)"
      },
      {
        "astId": 7736,
        "contract": "contracts/NFTicketsTic.sol:NFTicketsTic",
        "label": "eventFinishTime",
        "offset": 0,
        "slot": "12",
        "type": "t_mapping(t_uint256,t_uint256)"
      }
    ],
    "types": {
      "t_address": {
        "encoding": "inplace",
        "label": "address",
        "numberOfBytes": "20"
      },
      "t_array(t_int64)2_storage": {
        "base": "t_int64",
        "encoding": "inplace",
        "label": "int64[2]",
        "numberOfBytes": "32"
      },
      "t_bool": {
        "encoding": "inplace",
        "label": "bool",
        "numberOfBytes": "1"
      },
      "t_int64": {
        "encoding": "inplace",
        "label": "int64",
        "numberOfBytes": "8"
      },
      "t_mapping(t_address,t_bool)": {
        "encoding": "mapping",
        "key": "t_address",
        "label": "mapping(address => bool)",
        "numberOfBytes": "32",
        "value": "t_bool"
      },
      "t_mapping(t_address,t_mapping(t_address,t_bool))": {
        "encoding": "mapping",
        "key": "t_address",
        "label": "mapping(address => mapping(address => bool))",
        "numberOfBytes": "32",
        "value": "t_mapping(t_address,t_bool)"
      },
      "t_mapping(t_address,t_uint256)": {
        "encoding": "mapping",
        "key": "t_address",
        "label": "mapping(address => uint256)",
        "numberOfBytes": "32",
        "value": "t_uint256"
      },
      "t_mapping(t_uint256,t_address)": {
        "encoding": "mapping",
        "key": "t_uint256",
        "label": "mapping(uint256 => address)",
        "numberOfBytes": "32",
        "value": "t_address"
      },
      "t_mapping(t_uint256,t_array(t_int64)2_storage)": {
        "encoding": "mapping",
        "key": "t_uint256",
        "label": "mapping(uint256 => int64[2])",
        "numberOfBytes": "32",
        "value": "t_array(t_int64)2_storage"
      },
      "t_mapping(t_uint256,t_mapping(t_address,t_uint256))": {
        "encoding": "mapping",
        "key": "t_uint256",
        "label": "mapping(uint256 => mapping(address => uint256))",
        "numberOfBytes": "32",
        "value": "t_mapping(t_address,t_uint256)"
      },
      "t_mapping(t_uint256,t_string_storage)": {
        "encoding": "mapping",
        "key": "t_uint256",
        "label": "mapping(uint256 => string)",
        "numberOfBytes": "32",
        "value": "t_string_storage"
      },
      "t_mapping(t_uint256,t_uint256)": {
        "encoding": "mapping",
        "key": "t_uint256",
        "label": "mapping(uint256 => uint256)",
        "numberOfBytes": "32",
        "value": "t_uint256"
      },
      "t_string_storage": {
        "encoding": "bytes",
        "label": "string",
        "numberOfBytes": "32"
      },
      "t_struct(Counter)3197_storage": {
        "encoding": "inplace",
        "label": "struct Counters.Counter",
        "members": [
          {
            "astId": 3196,
            "contract": "contracts/NFTicketsTic.sol:NFTicketsTic",
            "label": "_value",
            "offset": 0,
            "slot": "0",
            "type": "t_uint256"
          }
        ],
        "numberOfBytes": "32"
      },
      "t_uint256": {
        "encoding": "inplace",
        "label": "uint256",
        "numberOfBytes": "32"
      }
    }
  }
}