{
  "address": "0x0165036b952A94042264eA79a6e88f91CC575F36",
  "abi": [
    {
      "inputs": [],
      "stateMutability": "nonpayable",
      "type": "constructor"
    },
    {
      "inputs": [],
      "name": "NothingToRefundHere",
      "type": "error"
    },
    {
      "anonymous": false,
      "inputs": [
        {
          "indexed": true,
          "internalType": "address",
          "name": "previousOwner",
          "type": "address"
        },
        {
          "indexed": true,
          "internalType": "address",
          "name": "newOwner",
          "type": "address"
        }
      ],
      "name": "OwnershipTransferred",
      "type": "event"
    },
    {
      "inputs": [
        {
          "internalType": "uint256",
          "name": "_price",
          "type": "uint256"
        }
      ],
      "name": "getConversion",
      "outputs": [
        {
          "internalType": "uint256",
          "name": "conversion",
          "type": "uint256"
        }
      ],
      "stateMutability": "view",
      "type": "function"
    },
    {
      "inputs": [],
      "name": "getLatestPrice",
      "outputs": [
        {
          "internalType": "int256",
          "name": "",
          "type": "int256"
        }
      ],
      "stateMutability": "view",
      "type": "function"
    },
    {
      "inputs": [
        {
          "internalType": "address",
          "name": "nftContract",
          "type": "address"
        },
        {
          "internalType": "uint256",
          "name": "tokenId",
          "type": "uint256"
        }
      ],
      "name": "getPrice",
      "outputs": [
        {
          "internalType": "uint256",
          "name": "",
          "type": "uint256"
        }
      ],
      "stateMutability": "view",
      "type": "function"
    },
    {
      "inputs": [],
      "name": "market",
      "outputs": [
        {
          "internalType": "contract NFTicketsMarket",
          "name": "",
          "type": "address"
        }
      ],
      "stateMutability": "view",
      "type": "function"
    },
    {
      "inputs": [],
      "name": "owner",
      "outputs": [
        {
          "internalType": "address",
          "name": "",
          "type": "address"
        }
      ],
      "stateMutability": "view",
      "type": "function"
    },
    {
      "inputs": [],
      "name": "renounceOwnership",
      "outputs": [],
      "stateMutability": "nonpayable",
      "type": "function"
    },
    {
      "inputs": [
        {
          "internalType": "uint256",
          "name": "marketItem",
          "type": "uint256"
        },
        {
          "internalType": "address",
          "name": "buyer",
          "type": "address"
        }
      ],
      "name": "sellerRefundOneUtils",
      "outputs": [],
      "stateMutability": "nonpayable",
      "type": "function"
    },
    {
      "inputs": [
        {
          "internalType": "address",
          "name": "_market",
          "type": "address"
        }
      ],
      "name": "setUp",
      "outputs": [],
      "stateMutability": "nonpayable",
      "type": "function"
    },
    {
      "inputs": [
        {
          "internalType": "address",
          "name": "newOwner",
          "type": "address"
        }
      ],
      "name": "transferOwnership",
      "outputs": [],
      "stateMutability": "nonpayable",
      "type": "function"
    }
  ],
  "transactionHash": "0xae8086bc5b6f821cefe25f873089d841d6bbee6e972a327091698f2c614eca1b",
  "args": [],
  "numDeployments": 3,
  "solcInputHash": "10fa68f9ea54785988bbd3f87c57629a",
  "bytecode": "0x608060405234801561001057600080fd5b50600160005561001f3361004a565b600280546001600160a01b031916735498bb86bc934c8d34fda08e81d444153d0d06ad17905561009c565b600180546001600160a01b038381166001600160a01b0319831681179093556040519116919082907f8be0079c531659141344cd1fd0a4f28419497f9722a3daafe3b4186f6b6457e090600090a35050565b610857806100ab6000396000f3fe608060405234801561001057600080fd5b50600436106100935760003560e01c8063715018a611610066578063715018a6146100fc57806380f55605146101045780638da5cb5b146101245780638e15f4731461013d578063f2fde38b1461014557600080fd5b8063047abed714610098578063079dba95146100c15780633f2601ef146100d6578063449e815d146100e9575b600080fd5b6100ab6100a6366004610505565b610158565b6040516100b8919061052e565b60405180910390f35b6100d46100cf366004610561565b610186565b005b6100d46100e436600461059e565b6102f5565b6100ab6100f73660046105bf565b61031f565b6100d461039e565b600354610117906001600160a01b031681565b6040516100b89190610611565b6001546001600160a01b03166040516100b89190610628565b6100ab6103b2565b6100d461015336600461059e565b610437565b6000806101636103b2565b9050620186a080610174838661064c565b61017e919061064c565b949350505050565b6002600054036101b15760405162461bcd60e51b81526004016101a8906106a2565b60405180910390fd5b60026000908155600354604051631f6b344960e31b81526001600160a01b039091169063fb59a248906101ea90859087906004016106b2565b602060405180830381865afa158015610207573d6000803e3d6000fd5b505050506040513d601f19601f8201168201806040525081019061022b91906106df565b116102495760405163138874af60e01b815260040160405180910390fd5b600354604051631f6b344960e31b81526001600160a01b03808416926108fc9291169063fb59a2489061028290869088906004016106b2565b602060405180830381865afa15801561029f573d6000803e3d6000fd5b505050506040513d601f19601f820116820180604052508101906102c391906106df565b6040518115909202916000818181858888f193505050501580156102eb573d6000803e3d6000fd5b5050600160005550565b6102fd610471565b600380546001600160a01b0319166001600160a01b0392909216919091179055565b6040516326a49e3760e01b8152600090839082906001600160a01b038316906326a49e379061035290879060040161052e565b602060405180830381865afa15801561036f573d6000803e3d6000fd5b505050506040513d601f19601f8201168201806040525081019061039391906106df565b925050505b92915050565b6103a6610471565b6103b0600061049b565b565b600080600260009054906101000a90046001600160a01b03166001600160a01b031663feaf968c6040518163ffffffff1660e01b815260040160a060405180830381865afa158015610408573d6000803e3d6000fd5b505050506040513d601f19601f8201168201806040525081019061042c919061071d565b509195945050505050565b61043f610471565b6001600160a01b0381166104655760405162461bcd60e51b81526004016101a890610795565b61046e8161049b565b50565b6001546001600160a01b031633146103b05760405162461bcd60e51b81526004016101a890610811565b600180546001600160a01b038381166001600160a01b0319831681179093556040519116919082907f8be0079c531659141344cd1fd0a4f28419497f9722a3daafe3b4186f6b6457e090600090a35050565b805b811461046e57600080fd5b8035610398816104ed565b60006020828403121561051a5761051a600080fd5b600061017e84846104fa565b805b82525050565b602081016103988284610526565b60006001600160a01b038216610398565b6104ef8161053c565b80356103988161054d565b6000806040838503121561057757610577600080fd5b600061058385856104fa565b925050602061059485828601610556565b9150509250929050565b6000602082840312156105b3576105b3600080fd5b600061017e8484610556565b600080604083850312156105d5576105d5600080fd5b60006105e18585610556565b9250506020610594858286016104fa565b60006103988261053c565b6000610398826105f2565b610528816105fd565b602081016103988284610608565b6105288161053c565b60208101610398828461061f565b634e487b7160e01b600052601160045260246000fd5b600081600019048311821515161561066657610666610636565b500290565b601f81526000602082017f5265656e7472616e637947756172643a207265656e7472616e742063616c6c00815291505b5060200190565b602080825281016103988161066b565b604081016106c0828561061f565b6106cd6020830184610526565b9392505050565b8051610398816104ed565b6000602082840312156106f4576106f4600080fd5b600061017e84846106d4565b69ffffffffffffffffffff81166104ef565b805161039881610700565b600080600080600060a0868803121561073857610738600080fd5b60006107448888610712565b9550506020610755888289016106d4565b9450506040610766888289016106d4565b9350506060610777888289016106d4565b925050608061078888828901610712565b9150509295509295909350565b6020808252810161039881602681527f4f776e61626c653a206e6577206f776e657220697320746865207a65726f206160208201526564647265737360d01b604082015260600190565b60208082527f4f776e61626c653a2063616c6c6572206973206e6f7420746865206f776e65729101908152600061069b565b60208082528101610398816107df56fea2646970667358221220190f0fd798e988088a712d712d249aabf1188717222dd56a697c7e8a2c88173764736f6c634300080d0033",
  "devdoc": {
    "kind": "dev",
    "methods": {
      "owner()": {
        "details": "Returns the address of the current owner."
      },
      "renounceOwnership()": {
        "details": "Leaves the contract without owner. It will not be possible to call `onlyOwner` functions anymore. Can only be called by the current owner. NOTE: Renouncing ownership will leave the contract without an owner, thereby removing any functionality that is only available to the owner."
      },
      "transferOwnership(address)": {
        "details": "Transfers ownership of the contract to a new account (`newOwner`). Can only be called by the current owner."
      }
    },
    "version": 1
  },
  "userdoc": {
    "kind": "user",
    "methods": {
      "constructor": {
        "notice": "Pricefeed: USD/AVAX on Avalanche Fuji testnet"
      },
      "getConversion(uint256)": {
        "notice": "Purpose: Converts the given price in USD into the actual price in native chain token (i.e. AVAX), taking into account he decimal places"
      },
      "getPrice(address,uint256)": {
        "notice": "Purpose: gets the ticket price in USD as specified by the creator"
      },
      "sellerRefundOneUtils(uint256,address)": {
        "notice": "Purpose: Assists in refunding an individual buyer"
      },
      "setUp(address)": {
        "notice": "Purpose: set up connection to NFTickets market contract"
      }
    },
    "version": 1
  },
  "storageLayout": {
    "storage": [
      {
        "astId": 169,
        "contract": "contracts/NFTicketsUtils.sol:NFTicketsUtils",
        "label": "_status",
        "offset": 0,
        "slot": "0",
        "type": "t_uint256"
      },
      {
        "astId": 53,
        "contract": "contracts/NFTicketsUtils.sol:NFTicketsUtils",
        "label": "_owner",
        "offset": 0,
        "slot": "1",
        "type": "t_address"
      },
      {
        "astId": 7916,
        "contract": "contracts/NFTicketsUtils.sol:NFTicketsUtils",
        "label": "priceFeed",
        "offset": 0,
        "slot": "2",
        "type": "t_contract(AggregatorV3Interface)45"
      },
      {
        "astId": 7919,
        "contract": "contracts/NFTicketsUtils.sol:NFTicketsUtils",
        "label": "market",
        "offset": 0,
        "slot": "3",
        "type": "t_contract(NFTicketsMarket)7450"
      }
    ],
    "types": {
      "t_address": {
        "encoding": "inplace",
        "label": "address",
        "numberOfBytes": "20"
      },
      "t_contract(AggregatorV3Interface)45": {
        "encoding": "inplace",
        "label": "contract AggregatorV3Interface",
        "numberOfBytes": "20"
      },
      "t_contract(NFTicketsMarket)7450": {
        "encoding": "inplace",
        "label": "contract NFTicketsMarket",
        "numberOfBytes": "20"
      },
      "t_uint256": {
        "encoding": "inplace",
        "label": "uint256",
        "numberOfBytes": "32"
      }
    }
  }
}