{
  "address": "0x240E103E25f00C5a455379C45350305cc2567d3C",
  "abi": [
    {
      "inputs": [
        {
          "internalType": "address",
          "name": "_marketAddress",
          "type": "address"
        }
      ],
      "stateMutability": "nonpayable",
      "type": "constructor"
    },
    {
      "anonymous": false,
      "inputs": [
        {
          "indexed": true,
          "internalType": "address",
          "name": "account",
          "type": "address"
        },
        {
          "indexed": true,
          "internalType": "address",
          "name": "operator",
          "type": "address"
        },
        {
          "indexed": false,
          "internalType": "bool",
          "name": "approved",
          "type": "bool"
        }
      ],
      "name": "ApprovalForAll",
      "type": "event"
    },
    {
      "anonymous": false,
      "inputs": [
        {
          "indexed": true,
          "internalType": "address",
          "name": "operator",
          "type": "address"
        },
        {
          "indexed": true,
          "internalType": "address",
          "name": "from",
          "type": "address"
        },
        {
          "indexed": true,
          "internalType": "address",
          "name": "to",
          "type": "address"
        },
        {
          "indexed": false,
          "internalType": "uint256[]",
          "name": "ids",
          "type": "uint256[]"
        },
        {
          "indexed": false,
          "internalType": "uint256[]",
          "name": "values",
          "type": "uint256[]"
        }
      ],
      "name": "TransferBatch",
      "type": "event"
    },
    {
      "anonymous": false,
      "inputs": [
        {
          "indexed": true,
          "internalType": "address",
          "name": "operator",
          "type": "address"
        },
        {
          "indexed": true,
          "internalType": "address",
          "name": "from",
          "type": "address"
        },
        {
          "indexed": true,
          "internalType": "address",
          "name": "to",
          "type": "address"
        },
        {
          "indexed": false,
          "internalType": "uint256",
          "name": "id",
          "type": "uint256"
        },
        {
          "indexed": false,
          "internalType": "uint256",
          "name": "value",
          "type": "uint256"
        }
      ],
      "name": "TransferSingle",
      "type": "event"
    },
    {
      "anonymous": false,
      "inputs": [
        {
          "indexed": false,
          "internalType": "string",
          "name": "value",
          "type": "string"
        },
        {
          "indexed": true,
          "internalType": "uint256",
          "name": "id",
          "type": "uint256"
        }
      ],
      "name": "URI",
      "type": "event"
    },
    {
      "inputs": [
        {
          "internalType": "address",
          "name": "account",
          "type": "address"
        },
        {
          "internalType": "uint256",
          "name": "id",
          "type": "uint256"
        }
      ],
      "name": "balanceOf",
      "outputs": [
        {
          "internalType": "uint256",
          "name": "",
          "type": "uint256"
        }
      ],
      "stateMutability": "view",
      "type": "function"
    },
    {
      "inputs": [
        {
          "internalType": "address[]",
          "name": "accounts",
          "type": "address[]"
        },
        {
          "internalType": "uint256[]",
          "name": "ids",
          "type": "uint256[]"
        }
      ],
      "name": "balanceOfBatch",
      "outputs": [
        {
          "internalType": "uint256[]",
          "name": "",
          "type": "uint256[]"
        }
      ],
      "stateMutability": "view",
      "type": "function"
    },
    {
      "inputs": [
        {
          "internalType": "uint256",
          "name": "tokenId",
          "type": "uint256"
        },
        {
          "internalType": "uint256",
          "name": "amount",
          "type": "uint256"
        },
        {
          "internalType": "bytes",
          "name": "data",
          "type": "bytes"
        }
      ],
      "name": "createMoreTokens",
      "outputs": [],
      "stateMutability": "nonpayable",
      "type": "function"
    },
    {
      "inputs": [
        {
          "internalType": "string",
          "name": "tokenURI",
          "type": "string"
        },
        {
          "internalType": "uint256",
          "name": "amount",
          "type": "uint256"
        },
        {
          "internalType": "bytes",
          "name": "data",
          "type": "bytes"
        },
        {
          "internalType": "uint256",
          "name": "_price",
          "type": "uint256"
        },
        {
          "internalType": "uint256",
          "name": "startTime",
          "type": "uint256"
        },
        {
          "internalType": "uint256",
          "name": "finishTime",
          "type": "uint256"
        },
        {
          "internalType": "int64",
          "name": "lat",
          "type": "int64"
        },
        {
          "internalType": "int64",
          "name": "lon",
          "type": "int64"
        }
      ],
      "name": "createToken",
      "outputs": [
        {
          "internalType": "uint256",
          "name": "",
          "type": "uint256"
        }
      ],
      "stateMutability": "nonpayable",
      "type": "function"
    },
    {
      "inputs": [
        {
          "internalType": "uint256",
          "name": "",
          "type": "uint256"
        }
      ],
      "name": "eventPrice",
      "outputs": [
        {
          "internalType": "uint256",
          "name": "",
          "type": "uint256"
        }
      ],
      "stateMutability": "view",
      "type": "function"
    },
    {
      "inputs": [
        {
          "internalType": "uint256",
          "name": "tokenId",
          "type": "uint256"
        }
      ],
      "name": "getCoordinates",
      "outputs": [
        {
          "internalType": "int64[2]",
          "name": "",
          "type": "int64[2]"
        }
      ],
      "stateMutability": "view",
      "type": "function"
    },
    {
      "inputs": [
        {
          "internalType": "uint256",
          "name": "tokenId",
          "type": "uint256"
        }
      ],
      "name": "getFinishTime",
      "outputs": [
        {
          "internalType": "uint256",
          "name": "",
          "type": "uint256"
        }
      ],
      "stateMutability": "view",
      "type": "function"
    },
    {
      "inputs": [
        {
          "internalType": "uint256",
          "name": "tokenId",
          "type": "uint256"
        }
      ],
      "name": "getStartTime",
      "outputs": [
        {
          "internalType": "uint256",
          "name": "",
          "type": "uint256"
        }
      ],
      "stateMutability": "view",
      "type": "function"
    },
    {
      "inputs": [
        {
          "internalType": "address",
          "name": "account",
          "type": "address"
        },
        {
          "internalType": "address",
          "name": "operator",
          "type": "address"
        }
      ],
      "name": "isApprovedForAll",
      "outputs": [
        {
          "internalType": "bool",
          "name": "",
          "type": "bool"
        }
      ],
      "stateMutability": "view",
      "type": "function"
    },
    {
      "inputs": [
        {
          "internalType": "address",
          "name": "testMe",
          "type": "address"
        }
      ],
      "name": "listMyTokens",
      "outputs": [
        {
          "internalType": "uint256[]",
          "name": "",
          "type": "uint256[]"
        }
      ],
      "stateMutability": "view",
      "type": "function"
    },
    {
      "inputs": [
        {
          "internalType": "uint256",
          "name": "tokenId",
          "type": "uint256"
        }
      ],
      "name": "price",
      "outputs": [
        {
          "internalType": "uint256",
          "name": "",
          "type": "uint256"
        }
      ],
      "stateMutability": "view",
      "type": "function"
    },
    {
      "inputs": [
        {
          "internalType": "address",
          "name": "from",
          "type": "address"
        },
        {
          "internalType": "address",
          "name": "to",
          "type": "address"
        },
        {
          "internalType": "uint256[]",
          "name": "ids",
          "type": "uint256[]"
        },
        {
          "internalType": "uint256[]",
          "name": "amounts",
          "type": "uint256[]"
        },
        {
          "internalType": "bytes",
          "name": "data",
          "type": "bytes"
        }
      ],
      "name": "safeBatchTransferFrom",
      "outputs": [],
      "stateMutability": "nonpayable",
      "type": "function"
    },
    {
      "inputs": [
        {
          "internalType": "address",
          "name": "from",
          "type": "address"
        },
        {
          "internalType": "address",
          "name": "to",
          "type": "address"
        },
        {
          "internalType": "uint256",
          "name": "id",
          "type": "uint256"
        },
        {
          "internalType": "uint256",
          "name": "amount",
          "type": "uint256"
        },
        {
          "internalType": "bytes",
          "name": "data",
          "type": "bytes"
        }
      ],
      "name": "safeTransferFrom",
      "outputs": [],
      "stateMutability": "nonpayable",
      "type": "function"
    },
    {
      "inputs": [
        {
          "internalType": "address",
          "name": "to",
          "type": "address"
        },
        {
          "internalType": "uint256",
          "name": "tokenId",
          "type": "uint256"
        },
        {
          "internalType": "uint256",
          "name": "amount",
          "type": "uint256"
        },
        {
          "internalType": "bytes",
          "name": "data",
          "type": "bytes"
        }
      ],
      "name": "sendFree",
      "outputs": [],
      "stateMutability": "nonpayable",
      "type": "function"
    },
    {
      "inputs": [
        {
          "internalType": "address",
          "name": "operator",
          "type": "address"
        },
        {
          "internalType": "bool",
          "name": "approved",
          "type": "bool"
        }
      ],
      "name": "setApprovalForAll",
      "outputs": [],
      "stateMutability": "nonpayable",
      "type": "function"
    },
    {
      "inputs": [
        {
          "internalType": "bytes4",
          "name": "interfaceId",
          "type": "bytes4"
        }
      ],
      "name": "supportsInterface",
      "outputs": [
        {
          "internalType": "bool",
          "name": "",
          "type": "bool"
        }
      ],
      "stateMutability": "view",
      "type": "function"
    },
    {
      "inputs": [
        {
          "internalType": "uint256",
          "name": "tokenId",
          "type": "uint256"
        }
      ],
      "name": "uri",
      "outputs": [
        {
          "internalType": "string",
          "name": "",
          "type": "string"
        }
      ],
      "stateMutability": "view",
      "type": "function"
    },
    {
      "inputs": [
        {
          "internalType": "address",
          "name": "from",
          "type": "address"
        },
        {
          "internalType": "address",
          "name": "to",
          "type": "address"
        },
        {
          "internalType": "uint256",
          "name": "tokenId",
          "type": "uint256"
        },
        {
          "internalType": "uint256",
          "name": "amount",
          "type": "uint256"
        },
        {
          "internalType": "bytes",
          "name": "data",
          "type": "bytes"
        }
      ],
      "name": "useUnderscoreTransfer",
      "outputs": [],
      "stateMutability": "nonpayable",
      "type": "function"
    }
  ],
  "transactionHash": "0xa24e145bd7a351c222803d4f5a4f39c3efd4e9d2bf82def95661c53e2508e656",
  "args": [
    "0xF0c599863bc25bcb0147FA9610165E0B3AA56572"
  ],
  "numDeployments": 9,
  "solcInputHash": "3959064debfe3a767271573608f187cb",
  "bytecode": "0x60c06040819052600060a08190526200001b9160039162000097565b503480156200002957600080fd5b506040516200235b3803806200235b8339810160408190526200004c9162000177565b60408051602081019091526000815262000066816200007e565b5060016005556001600160a01b0316608052620001ea565b80516200009390600290602084019062000097565b5050565b828054620000a590620001ba565b90600052602060002090601f016020900481019282620000c9576000855562000114565b82601f10620000e457805160ff191683800117855562000114565b8280016001018555821562000114579182015b8281111562000114578251825591602001919060010190620000f7565b506200012292915062000126565b5090565b5b8082111562000122576000815560010162000127565b60006001600160a01b0382165b92915050565b6200015b816200013d565b81146200016757600080fd5b50565b80516200014a8162000150565b6000602082840312156200018e576200018e600080fd5b60006200019c84846200016a565b949350505050565b634e487b7160e01b600052602260045260246000fd5b600281046001821680620001cf57607f821691505b602082108103620001e457620001e4620001a4565b50919050565b60805161215562000206600039600061093401526121556000f3fe608060405234801561001057600080fd5b50600436106101155760003560e01c80634f6d8518116100a2578063a22cb46511610071578063a22cb46514610277578063bbab70d61461028a578063bc2be1be146102aa578063e985e9c5146102ca578063f242432a1461030657600080fd5b80634f6d85181461022b5780636bfa34291461023e578063784cbce51461025157806398cf095a1461026457600080fd5b8063117f02d7116100e9578063117f02d7146101a3578063246925f2146101c357806326a49e37146101d85780632eb2c2d6146101f85780634e1273f41461020b57600080fd5b8062fdd58e1461011a57806301ffc9a7146101435780630bf37818146101635780630e89341c14610183575b600080fd5b61012d610128366004611212565b610319565b60405161013a9190611257565b60405180910390f35b610156610151366004611280565b610373565b60405161013a91906112b1565b6101766101713660046112bf565b6103c3565b60405161013a919061132a565b6101966101913660046112bf565b61042d565b60405161013a919061139a565b61012d6101b13660046112bf565b6000908152600c602052604090205490565b6101d66101d13660046114a3565b6104c5565b005b61012d6101e63660046112bf565b60009081526009602052604090205490565b6101d66102063660046115c3565b61050f565b61021e6102193660046116fe565b61055b565b60405161013a91906117b9565b61021e6102393660046117ca565b610642565b6101d661024c3660046117eb565b610793565b61012d61025f36600461186a565b6107da565b6101d6610272366004611950565b610978565b6101d66102853660046119bd565b6109b8565b61012d6102983660046112bf565b60096020526000908152604090205481565b61012d6102b83660046112bf565b6000908152600b602052604090205490565b6101566102d83660046119f0565b6001600160a01b03918216600090815260016020908152604080832093909416825291909152205460ff1690565b6101d6610314366004611950565b6109c7565b60006001600160a01b03831661034a5760405162461bcd60e51b815260040161034190611a6d565b60405180910390fd5b506000818152602081815260408083206001600160a01b03861684529091529020545b92915050565b60006001600160e01b03198216636cdb3d1360e11b14806103a457506001600160e01b031982166303a24d0760e21b145b8061036d57506301ffc9a760e01b6001600160e01b031983161461036d565b6103cb611078565b6000828152600a60205260408082208151808301928390529290916002918390855b825461010083900a900460070b81526020600f83018190049384019360010360089093019290920291018084116103ed5790505b50505050509050919050565b600081815260076020526040902080546060919061044a90611a93565b80601f016020809104026020016040519081016040528092919081815260200182805461047690611a93565b80156104215780601f1061049857610100808354040283529160200191610421565b820191906000526020600020905b8154815290600101906020018083116104a65750939695505050505050565b6002600554036104e75760405162461bcd60e51b815260040161034190611af6565b60026005556104f78460016109b8565b6105043385858585610a08565b505060016005555050565b6001600160a01b03851633148061052b575061052b85336102d8565b6105475760405162461bcd60e51b815260040161034190611b52565b6105548585858585610b3e565b5050505050565b6060815183511461057e5760405162461bcd60e51b815260040161034190611ba8565b600083516001600160401b03811115610599576105996113b2565b6040519080825280602002602001820160405280156105c2578160200160208202803683370190505b50905060005b845181101561063a5761060d8582815181106105e6576105e6611bb8565b602002602001015185838151811061060057610600611bb8565b6020026020010151610319565b82828151811061061f5761061f611bb8565b602090810291909101015261063381611be4565b90506105c8565b509392505050565b6060600061064f60065490565b905060008060005b838110156106b7576001600160a01b03861660086000610678846001611bfe565b81526020810191909152604001600020546001600160a01b0316036106a5576106a2600184611bfe565b92505b806106af81611be4565b915050610657565b506000826001600160401b038111156106d2576106d26113b2565b6040519080825280602002602001820160405280156106fb578160200160208202803683370190505b50905060005b84811015610789576001600160a01b03871660086000610722846001611bfe565b81526020810191909152604001600020546001600160a01b0316036107775761074c816001611bfe565b82848151811061075e5761075e611bb8565b6020908102919091010152610774600184611bfe565b92505b8061078181611be4565b915050610701565b5095945050505050565b6000838152600860205260409020546001600160a01b031633146107c95760405162461bcd60e51b815260040161034190611c4a565b6107d533848484610cda565b505050565b60006002600554036107fe5760405162461bcd60e51b815260040161034190611af6565b6002600555610811600680546001019055565b600061081c60065490565b600081815260076020526040902080549192509061083990611a93565b1590506108585760405162461bcd60e51b815260040161034190611c85565b600081815260096020526040902054156108845760405162461bcd60e51b815260040161034190611cc2565b600087116108a45760405162461bcd60e51b815260040161034190611cfa565b600081815260086020908152604080832080546001600160a01b03191633179055600782529091208b516108da928d0190611096565b5060008181526009602090815260408083208a9055600b8252808320899055600c825280832088905580518082018252600788810b825287900b81840152848452600a90925290912061092e91600261111a565b5061095a7f000000000000000000000000000000000000000000000000000000000000000060016109b8565b61096633828b8b610cda565b60016005559998505050505050505050565b60026005540361099a5760405162461bcd60e51b815260040161034190611af6565b60026005556109ac8585858585610a08565b50506001600555505050565b6109c3338383610dc2565b5050565b6001600160a01b0385163314806109e357506109e385336102d8565b6109ff5760405162461bcd60e51b815260040161034190611b52565b61055485858585855b6001600160a01b038416610a2e5760405162461bcd60e51b815260040161034190611d4c565b336000610a3a85610e64565b90506000610a4785610e64565b90506000868152602081815260408083206001600160a01b038c16845290915290205485811015610a8a5760405162461bcd60e51b815260040161034190611da3565b6000878152602081815260408083206001600160a01b038d8116855292528083208985039055908a16825281208054889290610ac7908490611bfe565b92505081905550876001600160a01b0316896001600160a01b0316856001600160a01b03167fc3d58168c5ae7397731d063d5bbf3d657854427343f4c083240f7aacaa2d0f628a8a604051610b1d929190611db3565b60405180910390a4610b33848a8a8a8a8a610eaf565b505050505050505050565b8151835114610b5f5760405162461bcd60e51b815260040161034190611e13565b6001600160a01b038416610b855760405162461bcd60e51b815260040161034190611d4c565b3360005b8451811015610c6c576000858281518110610ba657610ba6611bb8565b602002602001015190506000858381518110610bc457610bc4611bb8565b602090810291909101810151600084815280835260408082206001600160a01b038e168352909352919091205490915081811015610c145760405162461bcd60e51b815260040161034190611da3565b6000838152602081815260408083206001600160a01b038e8116855292528083208585039055908b16825281208054849290610c51908490611bfe565b9250508190555050505080610c6590611be4565b9050610b89565b50846001600160a01b0316866001600160a01b0316826001600160a01b03167f4a39dc06d4c0dbc64b70af90fd698a233a518aa5d07e595d983b8c0526c8f7fb8787604051610cbc929190611e23565b60405180910390a4610cd2818787878787610fbd565b505050505050565b6001600160a01b038416610d005760405162461bcd60e51b815260040161034190611e86565b336000610d0c85610e64565b90506000610d1985610e64565b90506000868152602081815260408083206001600160a01b038b16845290915281208054879290610d4b908490611bfe565b92505081905550866001600160a01b031660006001600160a01b0316846001600160a01b03167fc3d58168c5ae7397731d063d5bbf3d657854427343f4c083240f7aacaa2d0f628989604051610da2929190611db3565b60405180910390a4610db983600089898989610eaf565b50505050505050565b816001600160a01b0316836001600160a01b031603610df35760405162461bcd60e51b815260040161034190611edc565b6001600160a01b0383811660008181526001602090815260408083209487168084529490915290819020805460ff1916851515179055517f17307eab39ab6107e8899845ad3d59bd9653f200f220920489ca2b5937696c3190610e579085906112b1565b60405180910390a3505050565b60408051600180825281830190925260609160009190602080830190803683370190505090508281600081518110610e9e57610e9e611bb8565b602090810291909101015292915050565b6001600160a01b0384163b15610cd25760405163f23a6e6160e01b81526001600160a01b0385169063f23a6e6190610ef39089908990889088908890600401611ef5565b6020604051808303816000875af1925050508015610f2e575060408051601f3d908101601f19168201909252610f2b91810190611f52565b60015b610f8d57610f3a611f73565b806308c379a003610f735750610f4e611f8f565b80610f595750610f75565b8060405162461bcd60e51b8152600401610341919061139a565b505b60405162461bcd60e51b815260040161034190612065565b6001600160e01b0319811663f23a6e6160e01b14610db95760405162461bcd60e51b8152600401610341906120ba565b6001600160a01b0384163b15610cd25760405163bc197c8160e01b81526001600160a01b0385169063bc197c819061100190899089908890889088906004016120ca565b6020604051808303816000875af192505050801561103c575060408051601f3d908101601f1916820190925261103991810190611f52565b60015b61104857610f3a611f73565b6001600160e01b0319811663bc197c8160e01b14610db95760405162461bcd60e51b8152600401610341906120ba565b60405180604001604052806002906020820280368337509192915050565b8280546110a290611a93565b90600052602060002090601f0160209004810192826110c4576000855561110a565b82601f106110dd57805160ff191683800117855561110a565b8280016001018555821561110a579182015b8281111561110a5782518255916020019190600101906110ef565b506111169291506111b9565b5090565b60018301918390821561110a5791602002820160005b8382111561117d57835183826101000a8154816001600160401b03021916908360070b6001600160401b031602179055509260200192600801602081600701049283019260010302611130565b80156111b05782816101000a8154906001600160401b03021916905560080160208160070104928301926001030261117d565b50506111169291505b5b8082111561111657600081556001016111ba565b60006001600160a01b03821661036d565b6111e8816111ce565b81146111f357600080fd5b50565b803561036d816111df565b806111e8565b803561036d81611201565b6000806040838503121561122857611228600080fd5b600061123485856111f6565b925050602061124585828601611207565b9150509250929050565b805b82525050565b6020810161036d828461124f565b6001600160e01b031981166111e8565b803561036d81611265565b60006020828403121561129557611295600080fd5b60006112a18484611275565b949350505050565b801515611251565b6020810161036d82846112a9565b6000602082840312156112d4576112d4600080fd5b60006112a18484611207565b6112518160070b90565b60006112f683836112e0565b505060200190565b6002818060005b83811015610cd257815161131987826112ea565b965060208301925050600101611305565b6040810161036d82846112fe565b60005b8381101561135357818101518382015260200161133b565b83811115611362576000848401525b50505050565b6000611372825190565b808452602084019350611389818560208601611338565b601f01601f19169290920192915050565b602080825281016113ab8184611368565b9392505050565b634e487b7160e01b600052604160045260246000fd5b601f19601f83011681018181106001600160401b03821117156113ed576113ed6113b2565b6040525050565b60006113ff60405190565b905061140b82826113c8565b919050565b60006001600160401b03821115611429576114296113b2565b601f19601f83011660200192915050565b82818337506000910152565b600061145961145484611410565b6113f4565b90508281526020810184848401111561147457611474600080fd5b61063a84828561143a565b600082601f83011261149357611493600080fd5b81356112a1848260208601611446565b600080600080608085870312156114bc576114bc600080fd5b60006114c887876111f6565b94505060206114d987828801611207565b93505060406114ea87828801611207565b92505060608501356001600160401b0381111561150957611509600080fd5b6115158782880161147f565b91505092959194509250565b60006001600160401b0382111561153a5761153a6113b2565b5060209081020190565b600061155261145484611521565b8381529050602080820190840283018581111561157157611571600080fd5b835b8181101561159557806115868882611207565b84525060209283019201611573565b5050509392505050565b600082601f8301126115b3576115b3600080fd5b81356112a1848260208601611544565b600080600080600060a086880312156115de576115de600080fd5b60006115ea88886111f6565b95505060206115fb888289016111f6565b94505060408601356001600160401b0381111561161a5761161a600080fd5b6116268882890161159f565b93505060608601356001600160401b0381111561164557611645600080fd5b6116518882890161159f565b92505060808601356001600160401b0381111561167057611670600080fd5b61167c8882890161147f565b9150509295509295909350565b600061169761145484611521565b838152905060208082019084028301858111156116b6576116b6600080fd5b835b8181101561159557806116cb88826111f6565b845250602092830192016116b8565b600082601f8301126116ee576116ee600080fd5b81356112a1848260208601611689565b6000806040838503121561171457611714600080fd5b82356001600160401b0381111561172d5761172d600080fd5b611739858286016116da565b92505060208301356001600160401b0381111561175857611758600080fd5b6112458582860161159f565b60006112f6838361124f565b600061177a825190565b80845260209384019383018060005b838110156117ae57815161179d8882611764565b975060208301925050600101611789565b509495945050505050565b602080825281016113ab8184611770565b6000602082840312156117df576117df600080fd5b60006112a184846111f6565b60008060006060848603121561180357611803600080fd5b600061180f8686611207565b935050602061182086828701611207565b92505060408401356001600160401b0381111561183f5761183f600080fd5b61184b8682870161147f565b9150509250925092565b6111e88160070b90565b803561036d81611855565b600080600080600080600080610100898b03121561188a5761188a600080fd5b88356001600160401b038111156118a3576118a3600080fd5b6118af8b828c0161147f565b98505060206118c08b828c01611207565b97505060408901356001600160401b038111156118df576118df600080fd5b6118eb8b828c0161147f565b96505060606118fc8b828c01611207565b955050608061190d8b828c01611207565b94505060a061191e8b828c01611207565b93505060c061192f8b828c0161185f565b92505060e06119408b828c0161185f565b9150509295985092959890939650565b600080600080600060a0868803121561196b5761196b600080fd5b600061197788886111f6565b9550506020611988888289016111f6565b945050604061199988828901611207565b935050606061165188828901611207565b8015156111e8565b803561036d816119aa565b600080604083850312156119d3576119d3600080fd5b60006119df85856111f6565b9250506020611245858286016119b2565b60008060408385031215611a0657611a06600080fd5b6000611a1285856111f6565b9250506020611245858286016111f6565b602a81526000602082017f455243313135353a2061646472657373207a65726f206973206e6f742061207681526930b634b21037bbb732b960b11b602082015291505b5060400190565b6020808252810161036d81611a23565b634e487b7160e01b600052602260045260246000fd5b600281046001821680611aa757607f821691505b602082108103611ab957611ab9611a7d565b50919050565b601f81526000602082017f5265656e7472616e637947756172643a207265656e7472616e742063616c6c00815291505b5060200190565b6020808252810161036d81611abf565b602f81526000602082017f455243313135353a2063616c6c6572206973206e6f7420746f6b656e206f776e81526e195c881b9bdc88185c1c1c9bdd9959608a1b60208201529150611a66565b6020808252810161036d81611b06565b602981526000602082017f455243313135353a206163636f756e747320616e6420696473206c656e677468815268040dad2e6dac2e8c6d60bb1b60208201529150611a66565b6020808252810161036d81611b62565b634e487b7160e01b600052603260045260246000fd5b634e487b7160e01b600052601160045260246000fd5b60006000198203611bf757611bf7611bce565b5060010190565b60008219821115611c1157611c11611bce565b500190565b601d81526000602082017f596f7520617265206e6f742074686520746f6b656e2063726561746f7200000081529150611aef565b6020808252810161036d81611c16565b601481526000602082017343616e6e6f74207365742055524920747769636560601b81529150611aef565b6020808252810161036d81611c5a565b601681526000602082017543616e6e6f742073657420707269636520747769636560501b81529150611aef565b6020808252810161036d81611c95565b6011815260006020820170070726963652063616e6e6f74206265203607c1b81529150611aef565b6020808252810161036d81611cd2565b602581526000602082017f455243313135353a207472616e7366657220746f20746865207a65726f206164815264647265737360d81b60208201529150611a66565b6020808252810161036d81611d0a565b602a81526000602082017f455243313135353a20696e73756666696369656e742062616c616e636520666f81526939103a3930b739b332b960b11b60208201529150611a66565b6020808252810161036d81611d5c565b60408101611dc1828561124f565b6113ab602083018461124f565b602881526000602082017f455243313135353a2069647320616e6420616d6f756e7473206c656e677468208152670dad2e6dac2e8c6d60c31b60208201529150611a66565b6020808252810161036d81611dce565b60408082528101611e348185611770565b905081810360208301526112a18184611770565b602181526000602082017f455243313135353a206d696e7420746f20746865207a65726f206164647265738152607360f81b60208201529150611a66565b6020808252810161036d81611e48565b602981526000602082017f455243313135353a2073657474696e6720617070726f76616c20737461747573815268103337b91039b2b63360b91b60208201529150611a66565b6020808252810161036d81611e96565b611251816111ce565b60a08101611f038288611eec565b611f106020830187611eec565b611f1d604083018661124f565b611f2a606083018561124f565b8181036080830152611f3c8184611368565b979650505050505050565b805161036d81611265565b600060208284031215611f6757611f67600080fd5b60006112a18484611f47565b600060033d1115611f8c5760046000803e5060005160e01c5b90565b600060443d1015611f9d5790565b60405160043d036004823e80513d60248201116001600160401b0382111715611fc557505090565b80820180516001600160401b03811115611fe0575050505090565b80602083010160043d038501811115611ffb57505050505090565b61200a826020018501866113c8565b5090949350505050565b603481526000602082017f455243313135353a207472616e7366657220746f206e6f6e20455243313135358152732932b1b2b4bb32b91034b6b83632b6b2b73a32b960611b60208201529150611a66565b6020808252810161036d81612014565b602881526000602082017f455243313135353a204552433131353552656365697665722072656a656374658152676420746f6b656e7360c01b60208201529150611a66565b6020808252810161036d81612075565b60a081016120d88288611eec565b6120e56020830187611eec565b81810360408301526120f78186611770565b9050818103606083015261210b8185611770565b90508181036080830152611f3c818461136856fea264697066735822122076420ad6912ee3b22c2b05f9604d8cb55c7f045acf33543e9fd3d79fc79dda3664736f6c634300080d0033",
  "devdoc": {
    "kind": "dev",
    "methods": {
      "balanceOf(address,uint256)": {
        "details": "See {IERC1155-balanceOf}. Requirements: - `account` cannot be the zero address."
      },
      "balanceOfBatch(address[],uint256[])": {
        "details": "See {IERC1155-balanceOfBatch}. Requirements: - `accounts` and `ids` must have the same length."
      },
      "isApprovedForAll(address,address)": {
        "details": "See {IERC1155-isApprovedForAll}."
      },
      "safeBatchTransferFrom(address,address,uint256[],uint256[],bytes)": {
        "details": "See {IERC1155-safeBatchTransferFrom}."
      },
      "safeTransferFrom(address,address,uint256,uint256,bytes)": {
        "details": "See {IERC1155-safeTransferFrom}."
      },
      "setApprovalForAll(address,bool)": {
        "details": "See {IERC1155-setApprovalForAll}."
      },
      "supportsInterface(bytes4)": {
        "details": "See {IERC165-supportsInterface}."
      },
      "uri(uint256)": {
        "details": "See {IERC1155MetadataURI-uri}. This implementation returns the concatenation of the `_baseURI` and the token-specific uri if the latter is set This enables the following behaviors: - if `_tokenURIs[tokenId]` is set, then the result is the concatenation   of `_baseURI` and `_tokenURIs[tokenId]` (keep in mind that `_baseURI`   is empty per default); - if `_tokenURIs[tokenId]` is NOT set then we fallback to `super.uri()`   which in most cases will contain `ERC1155._uri`; - if `_tokenURIs[tokenId]` is NOT set, and if the parents do not have a   uri value set, then the result is empty."
      }
    },
    "version": 1
  },
  "userdoc": {
    "kind": "user",
    "methods": {},
    "version": 1
  },
  "storageLayout": {
    "storage": [
      {
        "astId": 224,
        "contract": "contracts/NFTicketsTic.sol:NFTicketsTic",
        "label": "_balances",
        "offset": 0,
        "slot": "0",
        "type": "t_mapping(t_uint256,t_mapping(t_address,t_uint256))"
      },
      {
        "astId": 230,
        "contract": "contracts/NFTicketsTic.sol:NFTicketsTic",
        "label": "_operatorApprovals",
        "offset": 0,
        "slot": "1",
        "type": "t_mapping(t_address,t_mapping(t_address,t_bool))"
      },
      {
        "astId": 232,
        "contract": "contracts/NFTicketsTic.sol:NFTicketsTic",
        "label": "_uri",
        "offset": 0,
        "slot": "2",
        "type": "t_string_storage"
      },
      {
        "astId": 1597,
        "contract": "contracts/NFTicketsTic.sol:NFTicketsTic",
        "label": "_baseURI",
        "offset": 0,
        "slot": "3",
        "type": "t_string_storage"
      },
      {
        "astId": 1601,
        "contract": "contracts/NFTicketsTic.sol:NFTicketsTic",
        "label": "_tokenURIs",
        "offset": 0,
        "slot": "4",
        "type": "t_mapping(t_uint256,t_string_storage)"
      },
      {
        "astId": 169,
        "contract": "contracts/NFTicketsTic.sol:NFTicketsTic",
        "label": "_status",
        "offset": 0,
        "slot": "5",
        "type": "t_uint256"
      },
      {
        "astId": 7587,
        "contract": "contracts/NFTicketsTic.sol:NFTicketsTic",
        "label": "_tokenIds",
        "offset": 0,
        "slot": "6",
        "type": "t_struct(Counter)3197_storage"
      },
      {
        "astId": 7606,
        "contract": "contracts/NFTicketsTic.sol:NFTicketsTic",
        "label": "_uris",
        "offset": 0,
        "slot": "7",
        "type": "t_mapping(t_uint256,t_string_storage)"
      },
      {
        "astId": 7610,
        "contract": "contracts/NFTicketsTic.sol:NFTicketsTic",
        "label": "_tokenCreator",
        "offset": 0,
        "slot": "8",
        "type": "t_mapping(t_uint256,t_address)"
      },
      {
        "astId": 7614,
        "contract": "contracts/NFTicketsTic.sol:NFTicketsTic",
        "label": "eventPrice",
        "offset": 0,
        "slot": "9",
        "type": "t_mapping(t_uint256,t_uint256)"
      },
      {
        "astId": 7620,
        "contract": "contracts/NFTicketsTic.sol:NFTicketsTic",
        "label": "coordinates",
        "offset": 0,
        "slot": "10",
        "type": "t_mapping(t_uint256,t_array(t_int64)2_storage)"
      },
      {
        "astId": 7624,
        "contract": "contracts/NFTicketsTic.sol:NFTicketsTic",
        "label": "eventStartTime",
        "offset": 0,
        "slot": "11",
        "type": "t_mapping(t_uint256,t_uint256)"
      },
      {
        "astId": 7628,
        "contract": "contracts/NFTicketsTic.sol:NFTicketsTic",
        "label": "eventFinishTime",
        "offset": 0,
        "slot": "12",
        "type": "t_mapping(t_uint256,t_uint256)"
      }
    ],
    "types": {
      "t_address": {
        "encoding": "inplace",
        "label": "address",
        "numberOfBytes": "20"
      },
      "t_array(t_int64)2_storage": {
        "base": "t_int64",
        "encoding": "inplace",
        "label": "int64[2]",
        "numberOfBytes": "32"
      },
      "t_bool": {
        "encoding": "inplace",
        "label": "bool",
        "numberOfBytes": "1"
      },
      "t_int64": {
        "encoding": "inplace",
        "label": "int64",
        "numberOfBytes": "8"
      },
      "t_mapping(t_address,t_bool)": {
        "encoding": "mapping",
        "key": "t_address",
        "label": "mapping(address => bool)",
        "numberOfBytes": "32",
        "value": "t_bool"
      },
      "t_mapping(t_address,t_mapping(t_address,t_bool))": {
        "encoding": "mapping",
        "key": "t_address",
        "label": "mapping(address => mapping(address => bool))",
        "numberOfBytes": "32",
        "value": "t_mapping(t_address,t_bool)"
      },
      "t_mapping(t_address,t_uint256)": {
        "encoding": "mapping",
        "key": "t_address",
        "label": "mapping(address => uint256)",
        "numberOfBytes": "32",
        "value": "t_uint256"
      },
      "t_mapping(t_uint256,t_address)": {
        "encoding": "mapping",
        "key": "t_uint256",
        "label": "mapping(uint256 => address)",
        "numberOfBytes": "32",
        "value": "t_address"
      },
      "t_mapping(t_uint256,t_array(t_int64)2_storage)": {
        "encoding": "mapping",
        "key": "t_uint256",
        "label": "mapping(uint256 => int64[2])",
        "numberOfBytes": "32",
        "value": "t_array(t_int64)2_storage"
      },
      "t_mapping(t_uint256,t_mapping(t_address,t_uint256))": {
        "encoding": "mapping",
        "key": "t_uint256",
        "label": "mapping(uint256 => mapping(address => uint256))",
        "numberOfBytes": "32",
        "value": "t_mapping(t_address,t_uint256)"
      },
      "t_mapping(t_uint256,t_string_storage)": {
        "encoding": "mapping",
        "key": "t_uint256",
        "label": "mapping(uint256 => string)",
        "numberOfBytes": "32",
        "value": "t_string_storage"
      },
      "t_mapping(t_uint256,t_uint256)": {
        "encoding": "mapping",
        "key": "t_uint256",
        "label": "mapping(uint256 => uint256)",
        "numberOfBytes": "32",
        "value": "t_uint256"
      },
      "t_string_storage": {
        "encoding": "bytes",
        "label": "string",
        "numberOfBytes": "32"
      },
      "t_struct(Counter)3197_storage": {
        "encoding": "inplace",
        "label": "struct Counters.Counter",
        "members": [
          {
            "astId": 3196,
            "contract": "contracts/NFTicketsTic.sol:NFTicketsTic",
            "label": "_value",
            "offset": 0,
            "slot": "0",
            "type": "t_uint256"
          }
        ],
        "numberOfBytes": "32"
      },
      "t_uint256": {
        "encoding": "inplace",
        "label": "uint256",
        "numberOfBytes": "32"
      }
    }
  }
}