{
  "address": "0xF0c599863bc25bcb0147FA9610165E0B3AA56572",
  "abi": [
    {
      "inputs": [
        {
          "internalType": "address",
          "name": "_owner",
          "type": "address"
        },
        {
          "internalType": "address",
          "name": "_utils",
          "type": "address"
        }
      ],
      "stateMutability": "nonpayable",
      "type": "constructor"
    },
    {
      "inputs": [],
      "name": "AlreadyRefunded",
      "type": "error"
    },
    {
      "inputs": [],
      "name": "EventStarting",
      "type": "error"
    },
    {
      "inputs": [],
      "name": "InvalidSignatureLength",
      "type": "error"
    },
    {
      "inputs": [],
      "name": "InvalidStatus",
      "type": "error"
    },
    {
      "inputs": [],
      "name": "ItemNotListed",
      "type": "error"
    },
    {
      "inputs": [],
      "name": "ItemSoldOut",
      "type": "error"
    },
    {
      "inputs": [],
      "name": "NoBuyers",
      "type": "error"
    },
    {
      "inputs": [],
      "name": "NoLongerOnSale",
      "type": "error"
    },
    {
      "inputs": [],
      "name": "NoSales",
      "type": "error"
    },
    {
      "inputs": [],
      "name": "Not20PercentOfListing",
      "type": "error"
    },
    {
      "inputs": [],
      "name": "NotAskingPrice",
      "type": "error"
    },
    {
      "inputs": [],
      "name": "NotDisputed",
      "type": "error"
    },
    {
      "inputs": [],
      "name": "NotEnoughItemsForSale",
      "type": "error"
    },
    {
      "inputs": [],
      "name": "NotEnoughTokensForListing",
      "type": "error"
    },
    {
      "inputs": [],
      "name": "NotOriginalSeller",
      "type": "error"
    },
    {
      "inputs": [],
      "name": "NotOwner",
      "type": "error"
    },
    {
      "inputs": [],
      "name": "NothingToRefundHere",
      "type": "error"
    },
    {
      "inputs": [],
      "name": "SellerOnlyFunction",
      "type": "error"
    },
    {
      "anonymous": false,
      "inputs": [
        {
          "indexed": true,
          "internalType": "uint256",
          "name": "itemId",
          "type": "uint256"
        },
        {
          "indexed": true,
          "internalType": "address",
          "name": "nftContract",
          "type": "address"
        },
        {
          "indexed": true,
          "internalType": "uint256",
          "name": "tokenId",
          "type": "uint256"
        },
        {
          "indexed": false,
          "internalType": "string",
          "name": "name",
          "type": "string"
        },
        {
          "indexed": false,
          "internalType": "address",
          "name": "seller",
          "type": "address"
        },
        {
          "indexed": false,
          "internalType": "address",
          "name": "owner",
          "type": "address"
        },
        {
          "indexed": false,
          "internalType": "uint256",
          "name": "price",
          "type": "uint256"
        },
        {
          "indexed": false,
          "internalType": "uint256",
          "name": "amount",
          "type": "uint256"
        },
        {
          "indexed": false,
          "internalType": "uint256",
          "name": "initialQuantity",
          "type": "uint256"
        },
        {
          "indexed": false,
          "internalType": "uint256",
          "name": "totalSales",
          "type": "uint256"
        },
        {
          "indexed": false,
          "internalType": "uint8",
          "name": "status",
          "type": "uint8"
        },
        {
          "indexed": false,
          "internalType": "uint256",
          "name": "finalCommision",
          "type": "uint256"
        }
      ],
      "name": "MarketItemCreated",
      "type": "event"
    },
    {
      "inputs": [],
      "name": "_itemIds",
      "outputs": [
        {
          "internalType": "uint256",
          "name": "_value",
          "type": "uint256"
        }
      ],
      "stateMutability": "view",
      "type": "function"
    },
    {
      "inputs": [],
      "name": "_itemsSold",
      "outputs": [
        {
          "internalType": "uint256",
          "name": "_value",
          "type": "uint256"
        }
      ],
      "stateMutability": "view",
      "type": "function"
    },
    {
      "inputs": [
        {
          "internalType": "address",
          "name": "",
          "type": "address"
        },
        {
          "internalType": "uint256",
          "name": "",
          "type": "uint256"
        }
      ],
      "name": "addressToSpending",
      "outputs": [
        {
          "internalType": "uint256",
          "name": "",
          "type": "uint256"
        }
      ],
      "stateMutability": "view",
      "type": "function"
    },
    {
      "inputs": [
        {
          "internalType": "address",
          "name": "nftContract",
          "type": "address"
        },
        {
          "internalType": "uint256",
          "name": "itemId",
          "type": "uint256"
        },
        {
          "internalType": "uint256",
          "name": "amount",
          "type": "uint256"
        },
        {
          "internalType": "bytes",
          "name": "data",
          "type": "bytes"
        }
      ],
      "name": "buyMarketItem",
      "outputs": [],
      "stateMutability": "payable",
      "type": "function"
    },
    {
      "inputs": [
        {
          "internalType": "uint256",
          "name": "_marketItem",
          "type": "uint256"
        },
        {
          "internalType": "uint8",
          "name": "_newStatus",
          "type": "uint8"
        }
      ],
      "name": "changeStatus",
      "outputs": [],
      "stateMutability": "nonpayable",
      "type": "function"
    },
    {
      "inputs": [
        {
          "internalType": "uint256",
          "name": "id",
          "type": "uint256"
        }
      ],
      "name": "checkRemaining",
      "outputs": [
        {
          "internalType": "uint256",
          "name": "",
          "type": "uint256"
        }
      ],
      "stateMutability": "view",
      "type": "function"
    },
    {
      "inputs": [],
      "name": "fetchItemsOnSale",
      "outputs": [
        {
          "components": [
            {
              "internalType": "uint256",
              "name": "itemId",
              "type": "uint256"
            },
            {
              "internalType": "address",
              "name": "nftContract",
              "type": "address"
            },
            {
              "internalType": "uint256",
              "name": "tokenId",
              "type": "uint256"
            },
            {
              "internalType": "string",
              "name": "name",
              "type": "string"
            },
            {
              "internalType": "address payable",
              "name": "seller",
              "type": "address"
            },
            {
              "internalType": "address payable",
              "name": "owner",
              "type": "address"
            },
            {
              "internalType": "uint256",
              "name": "price",
              "type": "uint256"
            },
            {
              "internalType": "uint256",
              "name": "amount",
              "type": "uint256"
            },
            {
              "internalType": "uint256",
              "name": "initialQuantity",
              "type": "uint256"
            },
            {
              "internalType": "uint256",
              "name": "totalSales",
              "type": "uint256"
            },
            {
              "internalType": "uint8",
              "name": "status",
              "type": "uint8"
            },
            {
              "internalType": "uint256",
              "name": "finalCommision",
              "type": "uint256"
            }
          ],
          "internalType": "struct NFTicketsMarket.MarketItem[]",
          "name": "",
          "type": "tuple[]"
        }
      ],
      "stateMutability": "view",
      "type": "function"
    },
    {
      "inputs": [],
      "name": "fetchMyNFTs",
      "outputs": [
        {
          "components": [
            {
              "internalType": "uint256",
              "name": "itemId",
              "type": "uint256"
            },
            {
              "internalType": "address",
              "name": "nftContract",
              "type": "address"
            },
            {
              "internalType": "uint256",
              "name": "tokenId",
              "type": "uint256"
            },
            {
              "internalType": "string",
              "name": "name",
              "type": "string"
            },
            {
              "internalType": "address payable",
              "name": "seller",
              "type": "address"
            },
            {
              "internalType": "address payable",
              "name": "owner",
              "type": "address"
            },
            {
              "internalType": "uint256",
              "name": "price",
              "type": "uint256"
            },
            {
              "internalType": "uint256",
              "name": "amount",
              "type": "uint256"
            },
            {
              "internalType": "uint256",
              "name": "initialQuantity",
              "type": "uint256"
            },
            {
              "internalType": "uint256",
              "name": "totalSales",
              "type": "uint256"
            },
            {
              "internalType": "uint8",
              "name": "status",
              "type": "uint8"
            },
            {
              "internalType": "uint256",
              "name": "finalCommision",
              "type": "uint256"
            }
          ],
          "internalType": "struct NFTicketsMarket.MarketItem[]",
          "name": "",
          "type": "tuple[]"
        }
      ],
      "stateMutability": "view",
      "type": "function"
    },
    {
      "inputs": [
        {
          "internalType": "address",
          "name": "user",
          "type": "address"
        }
      ],
      "name": "fetchUserNFTs",
      "outputs": [
        {
          "components": [
            {
              "internalType": "uint256",
              "name": "itemId",
              "type": "uint256"
            },
            {
              "internalType": "address",
              "name": "nftContract",
              "type": "address"
            },
            {
              "internalType": "uint256",
              "name": "tokenId",
              "type": "uint256"
            },
            {
              "internalType": "uint256",
              "name": "price",
              "type": "uint256"
            },
            {
              "internalType": "uint256",
              "name": "amount",
              "type": "uint256"
            }
          ],
          "internalType": "struct NFTicketsMarket.MyItems[]",
          "name": "",
          "type": "tuple[]"
        }
      ],
      "stateMutability": "view",
      "type": "function"
    },
    {
      "inputs": [
        {
          "internalType": "uint256",
          "name": "marketItemId",
          "type": "uint256"
        }
      ],
      "name": "getMarketItem",
      "outputs": [
        {
          "components": [
            {
              "internalType": "uint256",
              "name": "itemId",
              "type": "uint256"
            },
            {
              "internalType": "address",
              "name": "nftContract",
              "type": "address"
            },
            {
              "internalType": "uint256",
              "name": "tokenId",
              "type": "uint256"
            },
            {
              "internalType": "string",
              "name": "name",
              "type": "string"
            },
            {
              "internalType": "address payable",
              "name": "seller",
              "type": "address"
            },
            {
              "internalType": "address payable",
              "name": "owner",
              "type": "address"
            },
            {
              "internalType": "uint256",
              "name": "price",
              "type": "uint256"
            },
            {
              "internalType": "uint256",
              "name": "amount",
              "type": "uint256"
            },
            {
              "internalType": "uint256",
              "name": "initialQuantity",
              "type": "uint256"
            },
            {
              "internalType": "uint256",
              "name": "totalSales",
              "type": "uint256"
            },
            {
              "internalType": "uint8",
              "name": "status",
              "type": "uint8"
            },
            {
              "internalType": "uint256",
              "name": "finalCommision",
              "type": "uint256"
            }
          ],
          "internalType": "struct NFTicketsMarket.MarketItem",
          "name": "",
          "type": "tuple"
        }
      ],
      "stateMutability": "view",
      "type": "function"
    },
    {
      "inputs": [
        {
          "internalType": "uint256",
          "name": "_itemId",
          "type": "uint256"
        }
      ],
      "name": "getTokenByMarketId",
      "outputs": [
        {
          "internalType": "uint256",
          "name": "",
          "type": "uint256"
        }
      ],
      "stateMutability": "view",
      "type": "function"
    },
    {
      "inputs": [
        {
          "internalType": "uint256",
          "name": "_itemId",
          "type": "uint256"
        }
      ],
      "name": "getTotalSalesByMarketId",
      "outputs": [
        {
          "internalType": "uint256",
          "name": "",
          "type": "uint256"
        }
      ],
      "stateMutability": "view",
      "type": "function"
    },
    {
      "inputs": [
        {
          "internalType": "uint256",
          "name": "_itemId",
          "type": "uint256"
        },
        {
          "internalType": "bytes",
          "name": "_sig",
          "type": "bytes"
        },
        {
          "internalType": "address",
          "name": "nftContract",
          "type": "address"
        }
      ],
      "name": "hostActions",
      "outputs": [
        {
          "internalType": "string",
          "name": "",
          "type": "string"
        }
      ],
      "stateMutability": "view",
      "type": "function"
    },
    {
      "inputs": [
        {
          "internalType": "address",
          "name": "nftContract",
          "type": "address"
        },
        {
          "internalType": "uint256",
          "name": "tokenId",
          "type": "uint256"
        },
        {
          "internalType": "uint256",
          "name": "amount",
          "type": "uint256"
        },
        {
          "internalType": "bytes",
          "name": "data",
          "type": "bytes"
        },
        {
          "internalType": "string",
          "name": "name",
          "type": "string"
        }
      ],
      "name": "listMoreOfMarketItem",
      "outputs": [],
      "stateMutability": "payable",
      "type": "function"
    },
    {
      "inputs": [
        {
          "internalType": "address",
          "name": "nftContract",
          "type": "address"
        },
        {
          "internalType": "uint256",
          "name": "tokenId",
          "type": "uint256"
        },
        {
          "internalType": "uint256",
          "name": "amount",
          "type": "uint256"
        },
        {
          "internalType": "bytes",
          "name": "data",
          "type": "bytes"
        },
        {
          "internalType": "string",
          "name": "name",
          "type": "string"
        }
      ],
      "name": "listNewMarketItem",
      "outputs": [],
      "stateMutability": "payable",
      "type": "function"
    },
    {
      "inputs": [
        {
          "internalType": "address",
          "name": "",
          "type": "address"
        },
        {
          "internalType": "address",
          "name": "",
          "type": "address"
        },
        {
          "internalType": "uint256[]",
          "name": "",
          "type": "uint256[]"
        },
        {
          "internalType": "uint256[]",
          "name": "",
          "type": "uint256[]"
        },
        {
          "internalType": "bytes",
          "name": "",
          "type": "bytes"
        }
      ],
      "name": "onERC1155BatchReceived",
      "outputs": [
        {
          "internalType": "bytes4",
          "name": "",
          "type": "bytes4"
        }
      ],
      "stateMutability": "nonpayable",
      "type": "function"
    },
    {
      "inputs": [
        {
          "internalType": "address",
          "name": "",
          "type": "address"
        },
        {
          "internalType": "address",
          "name": "",
          "type": "address"
        },
        {
          "internalType": "uint256",
          "name": "",
          "type": "uint256"
        },
        {
          "internalType": "uint256",
          "name": "",
          "type": "uint256"
        },
        {
          "internalType": "bytes",
          "name": "",
          "type": "bytes"
        }
      ],
      "name": "onERC1155Received",
      "outputs": [
        {
          "internalType": "bytes4",
          "name": "",
          "type": "bytes4"
        }
      ],
      "stateMutability": "nonpayable",
      "type": "function"
    },
    {
      "inputs": [],
      "name": "paySellers",
      "outputs": [],
      "stateMutability": "payable",
      "type": "function"
    },
    {
      "inputs": [
        {
          "internalType": "address",
          "name": "nftContract",
          "type": "address"
        },
        {
          "internalType": "uint256",
          "name": "tokenId",
          "type": "uint256"
        },
        {
          "internalType": "uint256",
          "name": "itemId",
          "type": "uint256"
        },
        {
          "internalType": "uint256",
          "name": "amount",
          "type": "uint256"
        },
        {
          "internalType": "bytes",
          "name": "data",
          "type": "bytes"
        }
      ],
      "name": "reSell",
      "outputs": [],
      "stateMutability": "payable",
      "type": "function"
    },
    {
      "inputs": [
        {
          "internalType": "uint256",
          "name": "marketItem",
          "type": "uint256"
        }
      ],
      "name": "refundWithPenalty",
      "outputs": [],
      "stateMutability": "nonpayable",
      "type": "function"
    },
    {
      "inputs": [
        {
          "internalType": "uint256",
          "name": "marketItem",
          "type": "uint256"
        }
      ],
      "name": "sellerRefundAll",
      "outputs": [],
      "stateMutability": "nonpayable",
      "type": "function"
    },
    {
      "inputs": [
        {
          "internalType": "uint256",
          "name": "marketItem",
          "type": "uint256"
        },
        {
          "internalType": "address",
          "name": "buyer",
          "type": "address"
        }
      ],
      "name": "sellerRefundOne",
      "outputs": [],
      "stateMutability": "nonpayable",
      "type": "function"
    },
    {
      "inputs": [
        {
          "internalType": "address",
          "name": "",
          "type": "address"
        },
        {
          "internalType": "uint256",
          "name": "",
          "type": "uint256"
        }
      ],
      "name": "sellerToDepositPerItem",
      "outputs": [
        {
          "internalType": "uint256",
          "name": "",
          "type": "uint256"
        }
      ],
      "stateMutability": "view",
      "type": "function"
    },
    {
      "inputs": [
        {
          "internalType": "bytes4",
          "name": "interfaceId",
          "type": "bytes4"
        }
      ],
      "name": "supportsInterface",
      "outputs": [
        {
          "internalType": "bool",
          "name": "",
          "type": "bool"
        }
      ],
      "stateMutability": "view",
      "type": "function"
    }
  ],
  "transactionHash": "0x3cedb57a90af58b502cf21593cb7f643c4057c839017ef95b029d1fc498fff4e",
  "args": [
    "0x66D7895400d1E28d7fFbEBBeF055C1eC18Dc9FA9",
    "0x83414786e8d2569045E6D647045b3dFff79eAa33"
  ],
  "numDeployments": 9,
  "solcInputHash": "3959064debfe3a767271573608f187cb",
  "bytecode": "0x60a06040523480156200001157600080fd5b50604051620044c5380380620044c583398101604081905262000034916200009c565b60016000556001600160a01b03918216608052600380546001600160a01b03191691909216179055620000df565b60006001600160a01b0382165b92915050565b620000808162000062565b81146200008c57600080fd5b50565b80516200006f8162000075565b60008060408385031215620000b457620000b4600080fd5b6000620000c285856200008f565b9250506020620000d5858286016200008f565b9150509250929050565b6080516143ae6200011760003960008181610f360152818161129301528181611d2901528181612394015261281b01526143ae6000f3fe60806040526004361061014b5760003560e01c8063ab15f9d5116100b6578063c76e080a1161006f578063c76e080a146103aa578063c7be7a49146103da578063db7ee6e914610407578063f23a6e611461041a578063f3b3100714610446578063fb59a2481461046657600080fd5b8063ab15f9d514610302578063adfb99e714610315578063b2bf04a314610328578063bc197c8114610330578063bd68b1171461035d578063c5a8a2ab1461038a57600080fd5b8063603fc0ee11610108578063603fc0ee14610231578063626f1bb5146102515780636bbd513c146102715780638396f159146102a957806387506a0d146102d6578063a64fc3fa146102ed57600080fd5b806301ffc9a714610150578063135e175c14610186578063202e3740146101b357806329ec26e8146101d55780632c58c1f91461020557806334a7f1931461021a575b600080fd5b34801561015c57600080fd5b5061017061016b3660046136a1565b61049e565b60405161017d91906136cc565b60405180910390f35b34801561019257600080fd5b506101a66101a13660046136eb565b6104d5565b60405161017d9190613712565b3480156101bf57600080fd5b506101c86104f8565b60405161017d9190613910565b3480156101e157600080fd5b506101a66101f03660046136eb565b60009081526004602052604090206002015490565b610218610213366004613a26565b610793565b005b34801561022657600080fd5b506001546101a69081565b34801561023d57600080fd5b5061021861024c3660046136eb565b610ce4565b34801561025d57600080fd5b5061021861026c3660046136eb565b610f2b565b34801561027d57600080fd5b506101a661028c366004613ad2565b600760209081526000928352604080842090915290825290205481565b3480156102b557600080fd5b506102c96102c4366004613b0f565b611339565b60405161017d9190613b79565b3480156102e257600080fd5b506002546101a69081565b3480156102f957600080fd5b506101c861139d565b610218610310366004613b8a565b6116b1565b610218610323366004613c08565b6119b1565b610218611d1e565b34801561033c57600080fd5b5061035061034b366004613d04565b61243b565b60405161017d9190613da2565b34801561036957600080fd5b5061037d610378366004613db0565b61244d565b60405161017d9190613e8b565b34801561039657600080fd5b506102186103a5366004613eb0565b612810565b3480156103b657600080fd5b506101a66103c53660046136eb565b60009081526004602052604090206007015490565b3480156103e657600080fd5b506103fa6103f53660046136eb565b6128a2565b60405161017d9190613ee3565b610218610415366004613a26565b6129eb565b34801561042657600080fd5b50610350610435366004613ef4565b63f23a6e6160e01b95945050505050565b34801561045257600080fd5b50610218610461366004613f2c565b612f3a565b34801561047257600080fd5b506101a6610481366004613ad2565b600660209081526000928352604080842090915290825290205481565b60006001600160e01b03198216630271189760e51b14806104cf57506301ffc9a760e01b6001600160e01b03198316145b92915050565b600081815260046020526040812060078101546008909101546104cf9190613f75565b6060600061050560015490565b905060008060005b83811015610567573360046000610525846001613f8c565b81526020810191909152604001600020600401546001600160a01b03160361055557610552600184613f8c565b92505b8061055f81613fa4565b91505061050d565b506000826001600160401b0381111561058257610582613935565b6040519080825280602002602001820160405280156105bb57816020015b6105a8613564565b8152602001906001900390816105a05790505b50905060005b8481101561078a5733600460006105d9846001613f8c565b81526020810191909152604001600020600401546001600160a01b031603610778576000610608826001613f8c565b6000818152600460209081526040918290208251610180810184528154815260018201546001600160a01b03169281019290925260028101549282019290925260038201805493945091929091839160608401919061066690613fd4565b80601f016020809104026020016040519081016040528092919081815260200182805461069290613fd4565b80156106df5780601f106106b4576101008083540402835291602001916106df565b820191906000526020600020905b8154815290600101906020018083116106c257829003601f168201915b505050918352505060048201546001600160a01b03908116602083015260058301541660408201526006820154606082015260078201546080820152600882015460a0820152600982015460c0820152600a82015460ff1660e0820152600b9091015461010090910152845185908790811061075d5761075d614000565b6020908102919091010152610773600186613f8c565b945050505b8061078281613fa4565b9150506105c1565b50949350505050565b6002600054036107be5760405162461bcd60e51b81526004016107b59061404d565b60405180910390fd5b600260009081556107cf868661303d565b116107ed5760405163d46afe9f60e01b815260040160405180910390fd5b600460006107fb878761303d565b81526020019081526020016000206007015460000361082c576040516254585f60e71b815260040160405180910390fd5b6004600061083a878761303d565b81526020810191909152604001600020600401546001600160a01b0316331461087657604051633752272760e11b815260040160405180910390fd5b60035460405163449e815d60e01b815260059185916001600160a01b039091169063047abed790829063449e815d906108b5908c908c9060040161405d565b602060405180830381865afa1580156108d2573d6000803e3d6000fd5b505050506040513d601f19601f820116820180604052508101906108f69190614083565b6040518263ffffffff1660e01b81526004016109129190613712565b602060405180830381865afa15801561092f573d6000803e3d6000fd5b505050506040513d601f19601f820116820180604052508101906109539190614083565b61095d91906140a4565b61096791906140d9565b341461098657604051633bd1213d60e21b815260040160405180910390fd5b604051627eeac760e11b8152859084906001600160a01b0383169062fdd58e906109b69033908a9060040161405d565b602060405180830381865afa1580156109d3573d6000803e3d6000fd5b505050506040513d601f19601f820116820180604052508101906109f79190614083565b1015610a1657604051632f43231960e11b815260040160405180910390fd5b6000610a22878761303d565b60008181526004602052604081206007015491925090610a43908790613f8c565b60008381526004602052604081206008015491925090610a64908890613f8c565b60408051610180810182528581526001600160a01b03808d1660208301528183018c905260608201899052336080830152600060a0830152600354925163449e815d60e01b8152939450909260c08401929091169063449e815d90610acf908e908e9060040161405d565b602060405180830381865afa158015610aec573d6000803e3d6000fd5b505050506040513d601f19601f82011682018060405250810190610b109190614083565b8152602080820185905260408083018590526000878152600480845282822060098101546060808801919091526080870184905260a090960183905291899052835284518155848301516001820180546001600160a01b0319166001600160a01b03909216919091179055908401516002820155918301518051610b9a92600385019201906135e3565b5060808201516004820180546001600160a01b039283166001600160a01b03199182161790915560a084015160058401805491909316911617905560c0820151600682015560e082015160078083019190915561010083015160088301556101208301516009830155610140830151600a8301805460ff90921660ff1990921691909117905561016090920151600b90910155336000908152602091825260408082208683529092522054610c50903490613f8c565b33600081815260076020908152604080832088845290915290819020929092559051634c6784ad60e11b81526001600160a01b038616916398cf095a91610ca2919030908d908d908d906004016140ed565b600060405180830381600087803b158015610cbc57600080fd5b505af1158015610cd0573d6000803e3d6000fd5b505060016000555050505050505050505050565b600260005403610d065760405162461bcd60e51b81526004016107b59061404d565b6002600090815581815260046020819052604090912001546001600160a01b03163314610d465760405163c5c0a87960e01b815260040160405180910390fd5b6000818152600460205260409020600781015460089091015403610d7d576040516304d8dbfb60e41b815260040160405180910390fd5b600081815260056020526040812054905b81811015610eb05760008381526005602052604081208054600691839185908110610dbb57610dbb614000565b60009182526020808320909101546001600160a01b031683528281019390935260409182018120878252835281812054600590935290812080549293509091600691839186908110610e0f57610e0f614000565b60009182526020808320909101546001600160a01b03168352828101939093526040918201812088825283528181209390935560059091529020805483908110610e5b57610e5b614000565b60009182526020822001546040516001600160a01b039091169183156108fc02918491818181858888f19350505050158015610e9b573d6000803e3d6000fd5b50508080610ea890613fa4565b915050610d8e565b506000828152600460209081526040918290209151610ed39260030191016141ad565b60408051601f198184030181529181526000848152600460209081529190208251610f0793600390920192909101906135e3565b50506000908152600460205260408120600a01805460ff1916600617905560019055565b336001600160a01b037f00000000000000000000000000000000000000000000000000000000000000001614610f74576040516330cd747160e01b815260040160405180910390fd5b600260005403610f965760405162461bcd60e51b81526004016107b59061404d565b60026000908155818152600460208190526040909120600a015460ff1614610fd1576040516310cec38560e21b815260040160405180910390fd5b600081815260056020526040902054610ffd576040516312d5368b60e21b815260040160405180910390fd5b6000818152600460205260409020600b01541561102d5760405163542f378d60e11b815260040160405180910390fd5b600081815260056020908152604080832054600492839052908320820154909190611061906001600160a01b0316856130de565b61106c9060036140a4565b61107691906140d9565b61108091906140d9565b6000838152600460208190526040822081015492935090916110ab906001600160a01b0316856130de565b6110b591906140d9565b6000848152600460209081526040808320600b0184905560059091528120549192505b818110156112125760008460066000600560008a8152602001908152602001600020858154811061110b5761110b614000565b60009182526020808320909101546001600160a01b0316835282810193909352604091820181208a82529092529020546111459190613f8c565b9050600060066000600560008a8152602001908152602001600020858154811061117157611171614000565b60009182526020808320909101546001600160a01b0316835282810193909352604091820181208a8252835281812093909355600590915290208054839081106111bd576111bd614000565b60009182526020822001546040516001600160a01b039091169183156108fc02918491818181858888f193505050501580156111fd573d6000803e3d6000fd5b5050808061120a90613fa4565b9150506110d8565b506000848152600460208181526040808420808401546001600160a01b031685526007835281852089865283528185209490945591815290516112599260030191016141ad565b60408051601f19818403018152918152600086815260046020908152919020825161128d93600390920192909101906135e3565b506000807f00000000000000000000000000000000000000000000000000000000000000006001600160a01b0316846040516112c8906141cf565b60006040518083038185875af1925050503d8060008114611305576040519150601f19603f3d011682016040523d82523d6000602084013e61130a565b606091505b50915091508161132c5760405162461bcd60e51b81526004016107b590614202565b5050600160005550505050565b6000838152600460205260408120600201546060919061135890613106565b905060006113658261320e565b905060006113728261323e565b905060006113808288613251565b905061138f8185898b8a6132c0565b9450505050505b9392505050565b606060006113aa60015490565b905060006113b760025490565b6001546113c49190613f75565b9050600080826001600160401b038111156113e1576113e1613935565b60405190808252806020026020018201604052801561141a57816020015b611407613564565b8152602001906001900390816113ff5790505b50905060005b8481101561078a576000600481611438846001613f8c565b8152602081019190915260400160009081206001908101546001600160a01b031692506004919061146a908590613f8c565b81526020810191909152604001600020600a015460ff1660061480159061151c5750426001600160a01b03821663117f02d7600460006114ab876001613f8c565b8152602001908152602001600020600201546040518263ffffffff1660e01b81526004016114d99190613712565b602060405180830381865afa1580156114f6573d6000803e3d6000fd5b505050506040513d601f19601f8201168201806040525081019061151a9190614083565b115b1561169e57600061152e836001613f8c565b6000818152600460209081526040918290208251610180810184528154815260018201546001600160a01b03169281019290925260028101549282019290925260038201805493945091929091839160608401919061158c90613fd4565b80601f01602080910402602001604051908101604052809291908181526020018280546115b890613fd4565b80156116055780601f106115da57610100808354040283529160200191611605565b820191906000526020600020905b8154815290600101906020018083116115e857829003601f168201915b505050918352505060048201546001600160a01b03908116602083015260058301541660408201526006820154606082015260078201546080820152600882015460a0820152600982015460c0820152600a82015460ff1660e0820152600b9091015461010090910152855186908890811061168357611683614000565b6020908102919091010152611699600187613f8c565b955050505b50806116a981613fa4565b915050611420565b6002600054036116d35760405162461bcd60e51b81526004016107b59061404d565b600260009081558381526004602052604090206007015482111561170a5760405163fa3e06c960e01b815260040160405180910390fd5b60035460008481526004602081905260409182902060060154915163047abed760e01b815285936001600160a01b03169263047abed79261174b9201613712565b602060405180830381865afa158015611768573d6000803e3d6000fd5b505050506040513d601f19601f8201168201806040525081019061178c9190614083565b61179691906140a4565b34146117b557604051634fddbb8760e01b815260040160405180910390fd5b60008381526004602081905260409182902060020154915163117f02d760e01b8152869242926001600160a01b0385169263117f02d7926117f892909101613712565b602060405180830381865afa158015611815573d6000803e3d6000fd5b505050506040513d601f19601f820116820180604052508101906118399190614083565b116118575760405163d2bbe8a360e01b815260040160405180910390fd5b33600090815260066020908152604080832087845290915290205461187d903490613f8c565b3360008181526006602090815260408083208984529091529020919091556118a69085906133e7565b6000848152600460205260409020600701546118c3908490613f75565b60008581526004602052604090206007810191909155600901546118e8903490613f8c565b60008581526004602081905260409182902060098101939093556005830180546001600160a01b031916339081179091556002909301549151634c6784ad60e11b81526001600160a01b038516936398cf095a9361194c9330938a918a91016140ed565b600060405180830381600087803b15801561196657600080fd5b505af115801561197a573d6000803e3d6000fd5b505050600085815260046020526040812060070154900390506119a5576119a5600280546001019055565b50506001600055505050565b6002600054036119d35760405162461bcd60e51b81526004016107b59061404d565b600260009081556119e4868661303d565b11611a025760405163d46afe9f60e01b815260040160405180910390fd5b604051627eeac760e11b8152859083906001600160a01b0383169062fdd58e90611a329033908a9060040161405d565b602060405180830381865afa158015611a4f573d6000803e3d6000fd5b505050506040513d601f19601f82011682018060405250810190611a739190614083565b1015611a9257604051632f43231960e11b815260040160405180910390fd5b42611aa16008620151806140d9565b600086815260046020819052604091829020600201549151635e15f0df60e11b81526001600160a01b0386169263bc2be1be92611ade9201613712565b602060405180830381865afa158015611afb573d6000803e3d6000fd5b505050506040513d601f19601f82011682018060405250810190611b1f9190614083565b611b299190613f75565b11611b47576040516363c98c3d60e11b815260040160405180910390fd5b604051627eeac760e11b81526000906001600160a01b0383169062fdd58e90611b769033908a9060040161405d565b602060405180830381865afa158015611b93573d6000803e3d6000fd5b505050506040513d601f19601f82011682018060405250810190611bb79190614083565b336000908152600660209081526040808320898452909152902054611bdd9086906140a4565b611be791906140d9565b336000908152600660209081526040808320898452909152902054909150611c10908290613f75565b336000908152600660209081526040808320898452825280832093909355600490522060090154611c42908290613f75565b6000868152600460205260409020600981019190915560070154611c67908590613f8c565b6000868152600460208190526040918290206007019290925551634c6784ad60e11b81526001600160a01b038416916398cf095a91611cb091339130918c918b918b91016140ed565b600060405180830381600087803b158015611cca57600080fd5b505af1158015611cde573d6000803e3d6000fd5b505060405133925083156108fc02915083906000818181858888f19350505050158015611d0f573d6000803e3d6000fd5b50506001600055505050505050565b336001600160a01b037f00000000000000000000000000000000000000000000000000000000000000001614611d67576040516330cd747160e01b815260040160405180910390fd5b600260005403611d895760405162461bcd60e51b81526004016107b59061404d565b60026000908155600154908080805b84811015611e4c5760046000611daf836001613f8c565b81526020810191909152604001600020600a015460ff161580611df7575060046000611ddc836001613f8c565b81526020810191909152604001600020600a015460ff166003145b80611e27575060046000611e0c836001613f8c565b81526020810191909152604001600020600a015460ff166006145b15611e3a57611e37600185613f8c565b93505b80611e4481613fa4565b915050611d98565b506000836001600160401b03811115611e6757611e67613935565b604051908082528060200260200182016040528015611e90578160200160208202803683370190505b50905060005b858110156120655760046000611ead836001613f8c565b81526020810191909152604001600020600a015460ff161580611ef5575060046000611eda836001613f8c565b81526020810191909152604001600020600a015460ff166003145b80611f25575060046000611f0a836001613f8c565b81526020810191909152604001600020600a015460ff166006145b15612053576000600481611f3a846001613f8c565b815260200190815260200160002060010160009054906101000a90046001600160a01b031690504262015180826001600160a01b031663117f02d760046000876001611f869190613f8c565b8152602001908152602001600020600201546040518263ffffffff1660e01b8152600401611fb49190613712565b602060405180830381865afa158015611fd1573d6000803e3d6000fd5b505050506040513d601f19601f82011682018060405250810190611ff59190614083565b611fff9190613f8c565b10156120515760046000612014846001613f8c565b81526020019081526020016000206000015483868151811061203857612038614000565b602090810291909101015261204e600186613f8c565b94505b505b8061205d81613fa4565b915050611e96565b5060005b8481101561238e5760006120d86004600085858151811061208c5761208c614000565b6020026020010151815260200190815260200160002060040160009054906101000a90046001600160a01b03168484815181106120cb576120cb614000565b60200260200101516134f3565b600460008585815181106120ee576120ee614000565b60200260200101518152602001908152602001600020600901546121129190613f8c565b9050600461217b6004600086868151811061212f5761212f614000565b6020026020010151815260200190815260200160002060040160009054906101000a90046001600160a01b031685858151811061216e5761216e614000565b60200260200101516130de565b61218591906140d9565b6004600085858151811061219b5761219b614000565b60200260200101518152602001908152602001600020600b018190555060046121d36004600086868151811061212f5761212f614000565b6121dd91906140d9565b6121e79085613f8c565b935060006004600085858151811061220157612201614000565b60200260200101518152602001908152602001600020600901819055506000600760006004600087878151811061223a5761223a614000565b6020026020010151815260200190815260200160002060040160009054906101000a90046001600160a01b03166001600160a01b03166001600160a01b03168152602001908152602001600020600085858151811061229b5761229b614000565b60200260200101518152602001908152602001600020819055506001600460008585815181106122cd576122cd614000565b60200260200101518152602001908152602001600020600a0160006101000a81548160ff021916908360ff1602179055506004600084848151811061231457612314614000565b6020026020010151815260200190815260200160002060040160009054906101000a90046001600160a01b03166001600160a01b03166108fc829081150290604051600060405180830381858888f19350505050158015612379573d6000803e3d6000fd5b5050808061238690613fa4565b915050612069565b506000807f00000000000000000000000000000000000000000000000000000000000000006001600160a01b0316846040516123c9906141cf565b60006040518083038185875af1925050503d8060008114612406576040519150601f19603f3d011682016040523d82523d6000602084013e61240b565b606091505b50915091508161242d5760405162461bcd60e51b81526004016107b590614202565b505060016000555050505050565b63bc197c8160e01b5b95945050505050565b6060600061245a60015490565b905060008060005b8381101561255a57600060048161247a846001613f8c565b815260200190815260200160002060010160009054906101000a90046001600160a01b031690506000816001600160a01b031662fdd58e89600460008760016124c39190613f8c565b8152602001908152602001600020600201546040518363ffffffff1660e01b81526004016124f292919061405d565b602060405180830381865afa15801561250f573d6000803e3d6000fd5b505050506040513d601f19601f820116820180604052508101906125339190614083565b111561254757612544600185613f8c565b93505b508061255281613fa4565b915050612462565b506000826001600160401b0381111561257557612575613935565b6040519080825280602002602001820160405280156125e157816020015b6125ce6040518060a001604052806000815260200160006001600160a01b031681526020016000815260200160008152602001600081525090565b8152602001906001900390816125935790505b50905060005b848110156128065760006004816125ff846001613f8c565b815260200190815260200160002060010160009054906101000a90046001600160a01b031690506000816001600160a01b031662fdd58e8a600460008760016126489190613f8c565b8152602001908152602001600020600201546040518363ffffffff1660e01b815260040161267792919061405d565b602060405180830381865afa158015612694573d6000803e3d6000fd5b505050506040513d601f19601f820116820180604052508101906126b89190614083565b11156127f35760006126cb836001613f8c565b905060006004600083815260200190815260200160002090506040518060a00160405280826000015481526020018260010160009054906101000a90046001600160a01b03166001600160a01b031681526020018260020154815260200182600601548152602001846001600160a01b031662fdd58e8d600460008a60016127539190613f8c565b8152602001908152602001600020600201546040518363ffffffff1660e01b815260040161278292919061405d565b602060405180830381865afa15801561279f573d6000803e3d6000fd5b505050506040513d601f19601f820116820180604052508101906127c39190614083565b8152508587815181106127d8576127d8614000565b60209081029190910101526127ee600187613f8c565b955050505b50806127fe81613fa4565b9150506125e7565b5095945050505050565b336001600160a01b037f00000000000000000000000000000000000000000000000000000000000000001614612859576040516330cd747160e01b815260040160405180910390fd5b60078160ff161061287d576040516307a92f1960e51b815260040160405180910390fd5b600091825260046020526040909120600a01805460ff191660ff909216919091179055565b6128aa613564565b6000828152600460209081526040918290208251610180810184528154815260018201546001600160a01b03169281019290925260028101549282019290925260038201805491929160608401919061290290613fd4565b80601f016020809104026020016040519081016040528092919081815260200182805461292e90613fd4565b801561297b5780601f106129505761010080835404028352916020019161297b565b820191906000526020600020905b81548152906001019060200180831161295e57829003601f168201915b505050918352505060048201546001600160a01b03908116602083015260058301541660408201526006820154606082015260078201546080820152600882015460a0820152600982015460c0820152600a82015460ff1660e0820152600b909101546101009091015292915050565b600260005403612a0d5760405162461bcd60e51b81526004016107b59061404d565b600260005560035460405163449e815d60e01b815260059185916001600160a01b039091169063047abed790829063449e815d90612a51908c908c9060040161405d565b602060405180830381865afa158015612a6e573d6000803e3d6000fd5b505050506040513d601f19601f82011682018060405250810190612a929190614083565b6040518263ffffffff1660e01b8152600401612aae9190613712565b602060405180830381865afa158015612acb573d6000803e3d6000fd5b505050506040513d601f19601f82011682018060405250810190612aef9190614083565b612af991906140a4565b612b0391906140d9565b3414612b2257604051633bd1213d60e21b815260040160405180910390fd5b604051627eeac760e11b8152859084906001600160a01b0383169062fdd58e90612b529033908a9060040161405d565b602060405180830381865afa158015612b6f573d6000803e3d6000fd5b505050506040513d601f19601f82011682018060405250810190612b939190614083565b1015612bb257604051632f43231960e11b815260040160405180910390fd5b612bc0600180546001019055565b6000612bcb60015490565b60408051610180810182528281526001600160a01b03808b1660208301528183018a905260608201879052336080830152600060a0830152600354925163449e815d60e01b8152939450909260c08401929091169063449e815d90612c36908c908c9060040161405d565b602060405180830381865afa158015612c53573d6000803e3d6000fd5b505050506040513d601f19601f82011682018060405250810190612c779190614083565b815260208082018890526040808301899052600060608085018290526080850182905260a09094018190528581526004835281902084518155848301516001820180546001600160a01b0319166001600160a01b03909216919091179055908401516002820155918301518051612cf492600385019201906135e3565b5060808201518160040160006101000a8154816001600160a01b0302191690836001600160a01b0316021790555060a08201518160050160006101000a8154816001600160a01b0302191690836001600160a01b0316021790555060c0820151816006015560e082015181600701556101008201518160080155610120820151816009015561014082015181600a0160006101000a81548160ff021916908360ff16021790555061016082015181600b015590505085876001600160a01b0316827fc769733b5428a14f5f070c227800de113aafafd8ca5a3073e655cb88ede6ed3e86336000600360009054906101000a90046001600160a01b03166001600160a01b031663449e815d8f8f6040518363ffffffff1660e01b8152600401612e1d92919061405d565b602060405180830381865afa158015612e3a573d6000803e3d6000fd5b505050506040513d601f19601f82011682018060405250810190612e5e9190614083565b8c8d6000806000604051612e7a9998979695949392919061423b565b60405180910390a4336000908152600760209081526040808320848452909152902054612ea8903490613f8c565b33600081815260076020908152604080832086845290915290819020929092559051634c6784ad60e11b81526001600160a01b038416916398cf095a91612efa919030908b908b908b906004016140ed565b600060405180830381600087803b158015612f1457600080fd5b505af1158015612f28573d6000803e3d6000fd5b50506001600055505050505050505050565b600260005403612f5c5760405162461bcd60e51b81526004016107b59061404d565b6002600090815582815260046020819052604090912001546001600160a01b03163314612f9c5760405163c5c0a87960e01b815260040160405180910390fd5b6001600160a01b0381166000908152600660209081526040808320858452909152902054612fdd5760405163138874af60e01b815260040160405180910390fd5b6001600160a01b038116600081815260066020908152604080832086845290915280822080549083905590519092916108fc841502918491818181858888f19350505050158015613032573d6000803e3d6000fd5b505060016000555050565b60008061304960015490565b90506000805b8281101561078a576001600160a01b03861660046000613070846001613f8c565b81526020810191909152604001600020600101546001600160a01b03161480156130b9575084600460006130a5846001613f8c565b815260200190815260200160002060020154145b156130cc576130c9816001613f8c565b91505b806130d681613fa4565b91505061304f565b6001600160a01b03919091166000908152600760209081526040808320938352929052205490565b60608160000361312d5750506040805180820190915260018152600360fc1b602082015290565b8160005b8115613157578061314181613fa4565b91506131509050600a836140d9565b9150613131565b6000816001600160401b0381111561317157613171613935565b6040519080825280601f01601f19166020018201604052801561319b576020820181803683370190505b5090505b8415613206576131b0600183613f75565b91506131bd600a866142c6565b6131c8906030613f8c565b60f81b8183815181106131dd576131dd614000565b60200101906001600160f81b031916908160001a9053506131ff600a866140d9565b945061319f565b949350505050565b60008160405160200161322191906142fc565b604051602081830303815290604052805190602001209050919050565b6000816040516020016132219190614308565b6000806000806132608561351f565b925092509250600186828585604051600081526020016040526040516132899493929190614343565b6020604051602081039080840390855afa1580156132ab573d6000803e3d6000fd5b5050604051601f190151979650505050505050565b606060006132cd8661320e565b905060006132da8261323e565b604080518082018252600f81526e139bdd081bdb881d1a19481b1a5cdd608a1b6020808301919091526000898152600491829052838120600201549351627eeac760e11b81529297509394508793926001600160a01b0385169262fdd58e92613347928f9290910161405d565b602060405180830381865afa158015613364573d6000803e3d6000fd5b505050506040513d601f19601f820116820180604052508101906133889190614083565b1180156133af5750886001600160a01b03166133a48389613251565b6001600160a01b0316145b156133db576040518060400160405280600b81526020016a13db881d1a19481b1a5cdd60aa1b81525093505b50505095945050505050565b600082815260056020526040902054156134b65760008281526005602052604081205490805b8281101561347257600085815260056020526040902080546001600160a01b03861691908390811061344157613441614000565b6000918252602090912001546001600160a01b03160361346057600191505b8061346a81613fa4565b91505061340d565b50806134b05760008481526005602090815260408220805460018101825590835291200180546001600160a01b0319166001600160a01b0385161790555b50505050565b60008281526005602090815260408220805460018101825590835291200180546001600160a01b0383166001600160a01b03199091161790555050565b6000600461350184846130de565b61350b91906140d9565b61351584846130de565b6113969190613f75565b6000806000835160411461354657604051634be6321b60e01b815260040160405180910390fd5b50505060208101516040820151606090920151909260009190911a90565b6040518061018001604052806000815260200160006001600160a01b03168152602001600081526020016060815260200160006001600160a01b0316815260200160006001600160a01b0316815260200160008152602001600081526020016000815260200160008152602001600060ff168152602001600081525090565b8280546135ef90613fd4565b90600052602060002090601f0160209004810192826136115760008555613657565b82601f1061362a57805160ff1916838001178555613657565b82800160010185558215613657579182015b8281111561365757825182559160200191906001019061363c565b50613663929150613667565b5090565b5b808211156136635760008155600101613668565b6001600160e01b031981165b811461369357600080fd5b50565b80356104cf8161367c565b6000602082840312156136b6576136b6600080fd5b60006132068484613696565b8015155b82525050565b602081016104cf82846136c2565b80613688565b80356104cf816136da565b60006020828403121561370057613700600080fd5b600061320684846136e0565b806136c6565b602081016104cf828461370c565b60006001600160a01b0382166104cf565b6136c681613720565b60005b8381101561375557818101518382015260200161373d565b838111156134b05750506000910152565b6000613770825190565b80845260208401935061378781856020860161373a565b601f01601f19169290920192915050565b60ff81166136c6565b80516000906101808401906137b6858261370c565b5060208301516137c96020860182613731565b5060408301516137dc604086018261370c565b50606083015184820360608601526137f48282613766565b91505060808301516138096080860182613731565b5060a083015161381c60a0860182613731565b5060c083015161382f60c086018261370c565b5060e083015161384260e086018261370c565b5061010083015161385761010086018261370c565b5061012083015161386c61012086018261370c565b50610140830151613881610140860182613798565b5061016083015161389661016086018261370c565b509392505050565b600061139683836137a1565b60006138b4825190565b808452602084019350836020820285016138ce8560200190565b8060005b8581101561390357848403895281516138eb858261389e565b94506020830160209a909a01999250506001016138d2565b5091979650505050505050565b6020808252810161139681846138aa565b61368881613720565b80356104cf81613921565b634e487b7160e01b600052604160045260246000fd5b601f19601f83011681018181106001600160401b038211171561397057613970613935565b6040525050565b600061398260405190565b905061398e828261394b565b919050565b60006001600160401b038211156139ac576139ac613935565b601f19601f83011660200192915050565b82818337506000910152565b60006139dc6139d784613993565b613977565b9050828152602081018484840111156139f7576139f7600080fd5b6138968482856139bd565b600082601f830112613a1657613a16600080fd5b81356132068482602086016139c9565b600080600080600060a08688031215613a4157613a41600080fd5b6000613a4d888861392a565b9550506020613a5e888289016136e0565b9450506040613a6f888289016136e0565b93505060608601356001600160401b03811115613a8e57613a8e600080fd5b613a9a88828901613a02565b92505060808601356001600160401b03811115613ab957613ab9600080fd5b613ac588828901613a02565b9150509295509295909350565b60008060408385031215613ae857613ae8600080fd5b6000613af4858561392a565b9250506020613b05858286016136e0565b9150509250929050565b600080600060608486031215613b2757613b27600080fd5b6000613b3386866136e0565b93505060208401356001600160401b03811115613b5257613b52600080fd5b613b5e86828701613a02565b9250506040613b6f8682870161392a565b9150509250925092565b602080825281016113968184613766565b60008060008060808587031215613ba357613ba3600080fd5b6000613baf878761392a565b9450506020613bc0878288016136e0565b9350506040613bd1878288016136e0565b92505060608501356001600160401b03811115613bf057613bf0600080fd5b613bfc87828801613a02565b91505092959194509250565b600080600080600060a08688031215613c2357613c23600080fd5b6000613c2f888861392a565b9550506020613c40888289016136e0565b9450506040613c51888289016136e0565b9350506060613a9a888289016136e0565b60006001600160401b03821115613c7b57613c7b613935565b5060209081020190565b6000613c936139d784613c62565b83815290506020808201908402830185811115613cb257613cb2600080fd5b835b81811015613cd65780613cc788826136e0565b84525060209283019201613cb4565b5050509392505050565b600082601f830112613cf457613cf4600080fd5b8135613206848260208601613c85565b600080600080600060a08688031215613d1f57613d1f600080fd5b6000613d2b888861392a565b9550506020613d3c8882890161392a565b94505060408601356001600160401b03811115613d5b57613d5b600080fd5b613d6788828901613ce0565b93505060608601356001600160401b03811115613d8657613d86600080fd5b613a9a88828901613ce0565b6001600160e01b031981166136c6565b602081016104cf8284613d92565b600060208284031215613dc557613dc5600080fd5b6000613206848461392a565b805160a0830190613de2848261370c565b506020820151613df56020850182613731565b506040820151613e08604085018261370c565b506060820151613e1b606085018261370c565b5060808201516134b0608085018261370c565b6000613e3a8383613dd1565b505060a00190565b6000613e4c825190565b80845260209384019383018060005b83811015613e80578151613e6f8882613e2e565b975060208301925050600101613e5b565b509495945050505050565b602080825281016113968184613e42565b60ff8116613688565b80356104cf81613e9c565b60008060408385031215613ec657613ec6600080fd5b6000613ed285856136e0565b9250506020613b0585828601613ea5565b6020808252810161139681846137a1565b600080600080600060a08688031215613f0f57613f0f600080fd5b6000613f1b888861392a565b9550506020613c408882890161392a565b60008060408385031215613f4257613f42600080fd5b6000613f4e85856136e0565b9250506020613b058582860161392a565b634e487b7160e01b600052601160045260246000fd5b600082821015613f8757613f87613f5f565b500390565b60008219821115613f9f57613f9f613f5f565b500190565b60006000198203613fb757613fb7613f5f565b5060010190565b634e487b7160e01b600052602260045260246000fd5b600281046001821680613fe857607f821691505b602082108103613ffa57613ffa613fbe565b50919050565b634e487b7160e01b600052603260045260246000fd5b601f81526000602082017f5265656e7472616e637947756172643a207265656e7472616e742063616c6c00815291505b5060200190565b602080825281016104cf81614016565b6040810161406b8285613731565b611396602083018461370c565b80516104cf816136da565b60006020828403121561409857614098600080fd5b60006132068484614078565b60008160001904831182151516156140be576140be613f5f565b500290565b634e487b7160e01b600052601260045260246000fd5b6000826140e8576140e86140c3565b500490565b60a081016140fb8288613731565b6141086020830187613731565b614115604083018661370c565b614122606083018561370c565b81810360808301526141348184613766565b979650505050505050565b6000815461414c81613fd4565b6001821680156141635760018114614174576141a4565b60ff198316865281860193506141a4565b60008581526020902060005b8381101561419c57815488820152600190910190602001614180565b838801955050505b50505092915050565b6902932b33ab73232b21d160b51b8152600a016000611396828461413f565b90565b6000816104cf565b60148152600060208201732330b4b632b2103a379039b2b7321022ba3432b960611b81529150614046565b602080825281016104cf816141d7565b60006104cf6141cc8381565b6136c681614212565b600060ff82166104cf565b6136c681614227565b610120808252810161424d818c613766565b905061425c602083018b613731565b614269604083018a613731565b614276606083018961370c565b614283608083018861370c565b61429060a083018761370c565b61429d60c083018661421e565b6142aa60e0830185614232565b6142b861010083018461421e565b9a9950505050505050505050565b6000826142d5576142d56140c3565b500690565b60006142e4825190565b6142f281856020860161373a565b9290920192915050565b600061139682846142da565b7f19457468657265756d205369676e6564204d6573736167653a0a3332000000008152601c01600061433a828461370c565b50602001919050565b60808101614351828761370c565b61435e6020830186613798565b61436b604083018561370c565b612444606083018461370c56fea26469706673582212208e561aa06c075725daa7896d4b12466e02b461244c3724efbe99fa55a9373efd64736f6c634300080d0033",
  "devdoc": {
    "kind": "dev",
    "methods": {
      "supportsInterface(bytes4)": {
        "details": "See {IERC165-supportsInterface}."
      }
    },
    "version": 1
  },
  "userdoc": {
    "kind": "user",
    "methods": {},
    "version": 1
  },
  "storageLayout": {
    "storage": [
      {
        "astId": 169,
        "contract": "contracts/NFTicketsMarket.sol:NFTicketsMarket",
        "label": "_status",
        "offset": 0,
        "slot": "0",
        "type": "t_uint256"
      },
      {
        "astId": 5314,
        "contract": "contracts/NFTicketsMarket.sol:NFTicketsMarket",
        "label": "_itemIds",
        "offset": 0,
        "slot": "1",
        "type": "t_struct(Counter)3197_storage"
      },
      {
        "astId": 5317,
        "contract": "contracts/NFTicketsMarket.sol:NFTicketsMarket",
        "label": "_itemsSold",
        "offset": 0,
        "slot": "2",
        "type": "t_struct(Counter)3197_storage"
      },
      {
        "astId": 5331,
        "contract": "contracts/NFTicketsMarket.sol:NFTicketsMarket",
        "label": "utils",
        "offset": 0,
        "slot": "3",
        "type": "t_contract(NFTicketsUtils)8165"
      },
      {
        "astId": 5393,
        "contract": "contracts/NFTicketsMarket.sol:NFTicketsMarket",
        "label": "idToMarketItem",
        "offset": 0,
        "slot": "4",
        "type": "t_mapping(t_uint256,t_struct(MarketItem)5377_storage)"
      },
      {
        "astId": 5398,
        "contract": "contracts/NFTicketsMarket.sol:NFTicketsMarket",
        "label": "marketItemIdToBuyers",
        "offset": 0,
        "slot": "5",
        "type": "t_mapping(t_uint256,t_array(t_address)dyn_storage)"
      },
      {
        "astId": 5404,
        "contract": "contracts/NFTicketsMarket.sol:NFTicketsMarket",
        "label": "addressToSpending",
        "offset": 0,
        "slot": "6",
        "type": "t_mapping(t_address,t_mapping(t_uint256,t_uint256))"
      },
      {
        "astId": 5410,
        "contract": "contracts/NFTicketsMarket.sol:NFTicketsMarket",
        "label": "sellerToDepositPerItem",
        "offset": 0,
        "slot": "7",
        "type": "t_mapping(t_address,t_mapping(t_uint256,t_uint256))"
      }
    ],
    "types": {
      "t_address": {
        "encoding": "inplace",
        "label": "address",
        "numberOfBytes": "20"
      },
      "t_address_payable": {
        "encoding": "inplace",
        "label": "address payable",
        "numberOfBytes": "20"
      },
      "t_array(t_address)dyn_storage": {
        "base": "t_address",
        "encoding": "dynamic_array",
        "label": "address[]",
        "numberOfBytes": "32"
      },
      "t_contract(NFTicketsUtils)8165": {
        "encoding": "inplace",
        "label": "contract NFTicketsUtils",
        "numberOfBytes": "20"
      },
      "t_mapping(t_address,t_mapping(t_uint256,t_uint256))": {
        "encoding": "mapping",
        "key": "t_address",
        "label": "mapping(address => mapping(uint256 => uint256))",
        "numberOfBytes": "32",
        "value": "t_mapping(t_uint256,t_uint256)"
      },
      "t_mapping(t_uint256,t_array(t_address)dyn_storage)": {
        "encoding": "mapping",
        "key": "t_uint256",
        "label": "mapping(uint256 => address[])",
        "numberOfBytes": "32",
        "value": "t_array(t_address)dyn_storage"
      },
      "t_mapping(t_uint256,t_struct(MarketItem)5377_storage)": {
        "encoding": "mapping",
        "key": "t_uint256",
        "label": "mapping(uint256 => struct NFTicketsMarket.MarketItem)",
        "numberOfBytes": "32",
        "value": "t_struct(MarketItem)5377_storage"
      },
      "t_mapping(t_uint256,t_uint256)": {
        "encoding": "mapping",
        "key": "t_uint256",
        "label": "mapping(uint256 => uint256)",
        "numberOfBytes": "32",
        "value": "t_uint256"
      },
      "t_string_storage": {
        "encoding": "bytes",
        "label": "string",
        "numberOfBytes": "32"
      },
      "t_struct(Counter)3197_storage": {
        "encoding": "inplace",
        "label": "struct Counters.Counter",
        "members": [
          {
            "astId": 3196,
            "contract": "contracts/NFTicketsMarket.sol:NFTicketsMarket",
            "label": "_value",
            "offset": 0,
            "slot": "0",
            "type": "t_uint256"
          }
        ],
        "numberOfBytes": "32"
      },
      "t_struct(MarketItem)5377_storage": {
        "encoding": "inplace",
        "label": "struct NFTicketsMarket.MarketItem",
        "members": [
          {
            "astId": 5354,
            "contract": "contracts/NFTicketsMarket.sol:NFTicketsMarket",
            "label": "itemId",
            "offset": 0,
            "slot": "0",
            "type": "t_uint256"
          },
          {
            "astId": 5356,
            "contract": "contracts/NFTicketsMarket.sol:NFTicketsMarket",
            "label": "nftContract",
            "offset": 0,
            "slot": "1",
            "type": "t_address"
          },
          {
            "astId": 5358,
            "contract": "contracts/NFTicketsMarket.sol:NFTicketsMarket",
            "label": "tokenId",
            "offset": 0,
            "slot": "2",
            "type": "t_uint256"
          },
          {
            "astId": 5360,
            "contract": "contracts/NFTicketsMarket.sol:NFTicketsMarket",
            "label": "name",
            "offset": 0,
            "slot": "3",
            "type": "t_string_storage"
          },
          {
            "astId": 5362,
            "contract": "contracts/NFTicketsMarket.sol:NFTicketsMarket",
            "label": "seller",
            "offset": 0,
            "slot": "4",
            "type": "t_address_payable"
          },
          {
            "astId": 5364,
            "contract": "contracts/NFTicketsMarket.sol:NFTicketsMarket",
            "label": "owner",
            "offset": 0,
            "slot": "5",
            "type": "t_address_payable"
          },
          {
            "astId": 5366,
            "contract": "contracts/NFTicketsMarket.sol:NFTicketsMarket",
            "label": "price",
            "offset": 0,
            "slot": "6",
            "type": "t_uint256"
          },
          {
            "astId": 5368,
            "contract": "contracts/NFTicketsMarket.sol:NFTicketsMarket",
            "label": "amount",
            "offset": 0,
            "slot": "7",
            "type": "t_uint256"
          },
          {
            "astId": 5370,
            "contract": "contracts/NFTicketsMarket.sol:NFTicketsMarket",
            "label": "initialQuantity",
            "offset": 0,
            "slot": "8",
            "type": "t_uint256"
          },
          {
            "astId": 5372,
            "contract": "contracts/NFTicketsMarket.sol:NFTicketsMarket",
            "label": "totalSales",
            "offset": 0,
            "slot": "9",
            "type": "t_uint256"
          },
          {
            "astId": 5374,
            "contract": "contracts/NFTicketsMarket.sol:NFTicketsMarket",
            "label": "status",
            "offset": 0,
            "slot": "10",
            "type": "t_uint8"
          },
          {
            "astId": 5376,
            "contract": "contracts/NFTicketsMarket.sol:NFTicketsMarket",
            "label": "finalCommision",
            "offset": 0,
            "slot": "11",
            "type": "t_uint256"
          }
        ],
        "numberOfBytes": "384"
      },
      "t_uint256": {
        "encoding": "inplace",
        "label": "uint256",
        "numberOfBytes": "32"
      },
      "t_uint8": {
        "encoding": "inplace",
        "label": "uint8",
        "numberOfBytes": "1"
      }
    }
  }
}