{
  "address": "0x3183748402FA017c2Dc312CF5fddfcA4eaee5Bf8",
  "abi": [
    {
      "inputs": [],
      "stateMutability": "nonpayable",
      "type": "constructor"
    },
    {
      "anonymous": false,
      "inputs": [
        {
          "indexed": true,
          "internalType": "address",
          "name": "owner",
          "type": "address"
        },
        {
          "indexed": true,
          "internalType": "address",
          "name": "spender",
          "type": "address"
        },
        {
          "indexed": false,
          "internalType": "uint256",
          "name": "value",
          "type": "uint256"
        }
      ],
      "name": "Approval",
      "type": "event"
    },
    {
      "anonymous": false,
      "inputs": [
        {
          "indexed": false,
          "internalType": "uint256",
          "name": "id",
          "type": "uint256"
        }
      ],
      "name": "Snapshot",
      "type": "event"
    },
    {
      "anonymous": false,
      "inputs": [
        {
          "indexed": true,
          "internalType": "address",
          "name": "from",
          "type": "address"
        },
        {
          "indexed": true,
          "internalType": "address",
          "name": "to",
          "type": "address"
        },
        {
          "indexed": false,
          "internalType": "uint256",
          "name": "value",
          "type": "uint256"
        }
      ],
      "name": "Transfer",
      "type": "event"
    },
    {
      "inputs": [
        {
          "internalType": "address",
          "name": "owner",
          "type": "address"
        },
        {
          "internalType": "address",
          "name": "spender",
          "type": "address"
        }
      ],
      "name": "allowance",
      "outputs": [
        {
          "internalType": "uint256",
          "name": "",
          "type": "uint256"
        }
      ],
      "stateMutability": "view",
      "type": "function"
    },
    {
      "inputs": [
        {
          "internalType": "address",
          "name": "spender",
          "type": "address"
        },
        {
          "internalType": "uint256",
          "name": "amount",
          "type": "uint256"
        }
      ],
      "name": "approve",
      "outputs": [
        {
          "internalType": "bool",
          "name": "",
          "type": "bool"
        }
      ],
      "stateMutability": "nonpayable",
      "type": "function"
    },
    {
      "inputs": [
        {
          "internalType": "address",
          "name": "account",
          "type": "address"
        }
      ],
      "name": "balanceOf",
      "outputs": [
        {
          "internalType": "uint256",
          "name": "",
          "type": "uint256"
        }
      ],
      "stateMutability": "view",
      "type": "function"
    },
    {
      "inputs": [
        {
          "internalType": "address",
          "name": "account",
          "type": "address"
        },
        {
          "internalType": "uint256",
          "name": "snapshotId",
          "type": "uint256"
        }
      ],
      "name": "balanceOfAt",
      "outputs": [
        {
          "internalType": "uint256",
          "name": "",
          "type": "uint256"
        }
      ],
      "stateMutability": "view",
      "type": "function"
    },
    {
      "inputs": [],
      "name": "decimals",
      "outputs": [
        {
          "internalType": "uint8",
          "name": "",
          "type": "uint8"
        }
      ],
      "stateMutability": "view",
      "type": "function"
    },
    {
      "inputs": [
        {
          "internalType": "address",
          "name": "spender",
          "type": "address"
        },
        {
          "internalType": "uint256",
          "name": "subtractedValue",
          "type": "uint256"
        }
      ],
      "name": "decreaseAllowance",
      "outputs": [
        {
          "internalType": "bool",
          "name": "",
          "type": "bool"
        }
      ],
      "stateMutability": "nonpayable",
      "type": "function"
    },
    {
      "inputs": [],
      "name": "getSnapshot",
      "outputs": [
        {
          "internalType": "uint256",
          "name": "",
          "type": "uint256"
        }
      ],
      "stateMutability": "view",
      "type": "function"
    },
    {
      "inputs": [
        {
          "internalType": "address",
          "name": "spender",
          "type": "address"
        },
        {
          "internalType": "uint256",
          "name": "addedValue",
          "type": "uint256"
        }
      ],
      "name": "increaseAllowance",
      "outputs": [
        {
          "internalType": "bool",
          "name": "",
          "type": "bool"
        }
      ],
      "stateMutability": "nonpayable",
      "type": "function"
    },
    {
      "inputs": [],
      "name": "name",
      "outputs": [
        {
          "internalType": "string",
          "name": "",
          "type": "string"
        }
      ],
      "stateMutability": "view",
      "type": "function"
    },
    {
      "inputs": [],
      "name": "s_maxSupply",
      "outputs": [
        {
          "internalType": "uint256",
          "name": "",
          "type": "uint256"
        }
      ],
      "stateMutability": "view",
      "type": "function"
    },
    {
      "inputs": [],
      "name": "symbol",
      "outputs": [
        {
          "internalType": "string",
          "name": "",
          "type": "string"
        }
      ],
      "stateMutability": "view",
      "type": "function"
    },
    {
      "inputs": [],
      "name": "totalSupply",
      "outputs": [
        {
          "internalType": "uint256",
          "name": "",
          "type": "uint256"
        }
      ],
      "stateMutability": "view",
      "type": "function"
    },
    {
      "inputs": [
        {
          "internalType": "uint256",
          "name": "snapshotId",
          "type": "uint256"
        }
      ],
      "name": "totalSupplyAt",
      "outputs": [
        {
          "internalType": "uint256",
          "name": "",
          "type": "uint256"
        }
      ],
      "stateMutability": "view",
      "type": "function"
    },
    {
      "inputs": [
        {
          "internalType": "address",
          "name": "to",
          "type": "address"
        },
        {
          "internalType": "uint256",
          "name": "amount",
          "type": "uint256"
        }
      ],
      "name": "transfer",
      "outputs": [
        {
          "internalType": "bool",
          "name": "",
          "type": "bool"
        }
      ],
      "stateMutability": "nonpayable",
      "type": "function"
    },
    {
      "inputs": [
        {
          "internalType": "address",
          "name": "from",
          "type": "address"
        },
        {
          "internalType": "address",
          "name": "to",
          "type": "address"
        },
        {
          "internalType": "uint256",
          "name": "amount",
          "type": "uint256"
        }
      ],
      "name": "transferFrom",
      "outputs": [
        {
          "internalType": "bool",
          "name": "",
          "type": "bool"
        }
      ],
      "stateMutability": "nonpayable",
      "type": "function"
    }
  ],
  "transactionHash": "0x66cc5e0829c422252cb437115cf4b4c4dc6e5d034c40089ba87d434c83c44e38",
  "args": [],
  "numDeployments": 3,
  "solcInputHash": "3959064debfe3a767271573608f187cb",
  "bytecode": "0x60806040523480156200001157600080fd5b50604080518082018252600e81526d27232a34b1b5b2ba39aa37b5b2b760911b6020808301918252835180850190945260048452634e46544b60e01b908401528151919291620000649160039162000363565b5080516200007a90600490602084019062000363565b505050620000993369d3c21bcecceda1000000620000aa60201b60201c565b620000a36200017e565b50620004ff565b6001600160a01b038216620000dc5760405162461bcd60e51b8152600401620000d39062000409565b60405180910390fd5b620000ea60008383620001e3565b8060026000828254620000fe919062000461565b90915550506001600160a01b038216600090815260208190526040812080548392906200012d90849062000461565b90915550506040516001600160a01b038316906000907fddf252ad1be2c89b69c2b068fc378daa952ba7f163c4a11628f55a4df523b3ef90620001729085906200047c565b60405180910390a35050565b60006200019760086200025460201b620004421760201c565b6000620001a36200025d565b90507f8030e83b04d87bef53480e26263266d6ca66863aa8506aca6f2559d18aa1cb6781604051620001d691906200047c565b60405180910390a1919050565b620001fb8383836200021f60201b6200044b1760201c565b6001600160a01b038316620002245762000215826200027b565b6200021f620002b3565b505050565b6001600160a01b0382166200023e5762000215836200027b565b62000249836200027b565b6200021f826200027b565b80546001019055565b6000620002766008620002c560201b620004501760201c565b905090565b6001600160a01b03811660009081526005602090815260408083209183905290912054620002b09190620002c9565b620002c9565b50565b620002c36006620002aa60025490565b565b5490565b6000620002d56200025d565b905080620002e38462000318565b10156200021f578254600180820185556000858152602080822090930193909355938401805494850181558252902090910155565b805460009081036200032c57506000919050565b815482906200033e9060019062000489565b81548110620003515762000351620004a3565b90600052602060002001549050919050565b8280546200037190620004cf565b90600052602060002090601f016020900481019282620003955760008555620003e0565b82601f10620003b057805160ff1916838001178555620003e0565b82800160010185558215620003e0579182015b82811115620003e0578251825591602001919060010190620003c3565b50620003ee929150620003f2565b5090565b5b80821115620003ee5760008155600101620003f3565b602080825281016200044581601f81527f45524332303a206d696e7420746f20746865207a65726f206164647265737300602082015260400190565b92915050565b634e487b7160e01b600052601160045260246000fd5b600082198211156200047757620004776200044b565b500190565b8181526020810162000445565b6000828210156200049e576200049e6200044b565b500390565b634e487b7160e01b600052603260045260246000fd5b634e487b7160e01b600052602260045260246000fd5b600281046001821680620004e457607f821691505b602082108103620004f957620004f9620004b9565b50919050565b610f17806200050f6000396000f3fe608060405234801561001057600080fd5b50600436106100f55760003560e01c80635d641847116100975780639c54297c116100665780639c54297c146101e6578063a457c2d7146101ee578063a9059cbb14610201578063dd62ed3e1461021457600080fd5b80635d6418471461019157806370a08231146101a257806395d89b41146101cb578063981b24d0146101d357600080fd5b806323b872dd116100d357806323b872dd14610149578063313ce5671461015c578063395093511461016b5780634ee2cd7e1461017e57600080fd5b806306fdde03146100fa578063095ea7b31461011857806318160ddd14610138575b600080fd5b610102610227565b60405161010f91906109d1565b60405180910390f35b61012b610126366004610a23565b6102b9565b60405161010f9190610a6a565b6002545b60405161010f9190610a7e565b61012b610157366004610a8c565b6102d3565b601260405161010f9190610ae5565b61012b610179366004610a23565b6102f7565b61013c61018c366004610a23565b610319565b61013c69d3c21bcecceda100000081565b61013c6101b0366004610af3565b6001600160a01b031660009081526020819052604090205490565b610102610372565b61013c6101e1366004610b14565b610381565b61013c6103ac565b61012b6101fc366004610a23565b6103bb565b61012b61020f366004610a23565b610401565b61013c610222366004610b35565b610417565b60606003805461023690610b7e565b80601f016020809104026020016040519081016040528092919081815260200182805461026290610b7e565b80156102af5780601f10610284576101008083540402835291602001916102af565b820191906000526020600020905b81548152906001019060200180831161029257829003601f168201915b5050505050905090565b6000336102c7818585610454565b60019150505b92915050565b6000336102e1858285610508565b6102ec858585610552565b506001949350505050565b6000336102c781858561030a8383610417565b6103149190610bc0565b610454565b6001600160a01b038216600090815260056020526040812081908190610340908590610670565b9150915081610367576001600160a01b038516600090815260208190526040902054610369565b805b95945050505050565b60606004805461023690610b7e565b6000806000610391846006610670565b91509150816103a2576002546103a4565b805b949350505050565b60006103b661070d565b905090565b600033816103c98286610417565b9050838110156103f45760405162461bcd60e51b81526004016103eb90610c1d565b60405180910390fd5b6102ec8286868403610454565b60003361040f818585610552565b6102ec610718565b6001600160a01b03918216600090815260016020908152604080832093909416825291909152205490565b80546001019055565b505050565b5490565b6001600160a01b03831661047a5760405162461bcd60e51b81526004016103eb90610c6e565b6001600160a01b0382166104a05760405162461bcd60e51b81526004016103eb90610cbd565b6001600160a01b0380841660008181526001602090815260408083209487168084529490915290819020849055517f8c5be1e5ebec7d5bd14f71427d1e84f3dd0314c0f7b2291e5b200ac8c7c3b925906104fb908590610a7e565b60405180910390a3505050565b60006105148484610417565b9050600019811461054c578181101561053f5760405162461bcd60e51b81526004016103eb90610d04565b61054c8484848403610454565b50505050565b6001600160a01b0383166105785760405162461bcd60e51b81526004016103eb90610d56565b6001600160a01b03821661059e5760405162461bcd60e51b81526004016103eb90610da6565b6105a9838383610770565b6001600160a01b038316600090815260208190526040902054818110156105e25760405162461bcd60e51b81526004016103eb90610df9565b6001600160a01b03808516600090815260208190526040808220858503905591851681529081208054849290610619908490610bc0565b92505081905550826001600160a01b0316846001600160a01b03167fddf252ad1be2c89b69c2b068fc378daa952ba7f163c4a11628f55a4df523b3ef846040516106639190610a7e565b60405180910390a361054c565b600080600084116106935760405162461bcd60e51b81526004016103eb90610e36565b61069b61070d565b8411156106ba5760405162461bcd60e51b81526004016103eb90610e7a565b60006106c684866107b8565b845490915081036106de576000809250925050610706565b60018460010182815481106106f5576106f5610e8a565b906000526020600020015492509250505b9250929050565b60006103b660085490565b6000610728600880546001019055565b600061073261070d565b90507f8030e83b04d87bef53480e26263266d6ca66863aa8506aca6f2559d18aa1cb67816040516107639190610a7e565b60405180910390a1919050565b6001600160a01b03831661078f576107878261087d565b61044b6108b2565b6001600160a01b0382166107a6576107878361087d565b6107af8361087d565b61044b8261087d565b815460009081036107cb575060006102cd565b82546000905b808210156108275760006107e583836108c2565b9050848682815481106107fa576107fa610e8a565b9060005260206000200154111561081357809150610821565b61081e816001610bc0565b92505b506107d1565b60008211801561085c5750838561083f600185610ea0565b8154811061084f5761084f610e8a565b9060005260206000200154145b156108755761086c600183610ea0565b925050506102cd565b5090506102cd565b6001600160a01b038116600090815260056020908152604080832091839052909120546108af91906108e4565b6108e4565b50565b6108c060066108aa60025490565b565b60006108d16002848418610ecd565b6108dd90848416610bc0565b9392505050565b60006108ee61070d565b9050806108fa8461092e565b101561044b578254600180820185556000858152602080822090930193909355938401805494850181558252902090910155565b8054600090810361094157506000919050565b8154829061095190600190610ea0565b8154811061096157610961610e8a565b90600052602060002001549050919050565b60005b8381101561098e578181015183820152602001610976565b8381111561054c5750506000910152565b60006109a9825190565b8084526020840193506109c0818560208601610973565b601f01601f19169290920192915050565b602080825281016108dd818461099f565b60006001600160a01b0382166102cd565b6109fc816109e2565b81146108af57600080fd5b80356102cd816109f3565b806109fc565b80356102cd81610a12565b60008060408385031215610a3957610a39600080fd5b6000610a458585610a07565b9250506020610a5685828601610a18565b9150509250929050565b8015155b82525050565b602081016102cd8284610a60565b80610a64565b602081016102cd8284610a78565b600080600060608486031215610aa457610aa4600080fd5b6000610ab08686610a07565b9350506020610ac186828701610a07565b9250506040610ad286828701610a18565b9150509250925092565b60ff8116610a64565b602081016102cd8284610adc565b600060208284031215610b0857610b08600080fd5b60006103a48484610a07565b600060208284031215610b2957610b29600080fd5b60006103a48484610a18565b60008060408385031215610b4b57610b4b600080fd5b6000610b578585610a07565b9250506020610a5685828601610a07565b634e487b7160e01b600052602260045260246000fd5b600281046001821680610b9257607f821691505b602082108103610ba457610ba4610b68565b50919050565b634e487b7160e01b600052601160045260246000fd5b60008219821115610bd357610bd3610baa565b500190565b602581526000602082017f45524332303a2064656372656173656420616c6c6f77616e63652062656c6f77815264207a65726f60d81b602082015291505b5060400190565b602080825281016102cd81610bd8565b602481526000602082017f45524332303a20617070726f76652066726f6d20746865207a65726f206164648152637265737360e01b60208201529150610c16565b602080825281016102cd81610c2d565b602281526000602082017f45524332303a20617070726f766520746f20746865207a65726f206164647265815261737360f01b60208201529150610c16565b602080825281016102cd81610c7e565b601d81526000602082017f45524332303a20696e73756666696369656e7420616c6c6f77616e6365000000815291505b5060200190565b602080825281016102cd81610ccd565b602581526000602082017f45524332303a207472616e736665722066726f6d20746865207a65726f206164815264647265737360d81b60208201529150610c16565b602080825281016102cd81610d14565b602381526000602082017f45524332303a207472616e7366657220746f20746865207a65726f206164647281526265737360e81b60208201529150610c16565b602080825281016102cd81610d66565b602681526000602082017f45524332303a207472616e7366657220616d6f756e7420657863656564732062815265616c616e636560d01b60208201529150610c16565b602080825281016102cd81610db6565b601681526000602082017504552433230536e617073686f743a20696420697320360541b81529150610cfd565b602080825281016102cd81610e09565b601d81526000602082017f4552433230536e617073686f743a206e6f6e6578697374656e7420696400000081529150610cfd565b602080825281016102cd81610e46565b634e487b7160e01b600052603260045260246000fd5b600082821015610eb257610eb2610baa565b500390565b634e487b7160e01b600052601260045260246000fd5b600082610edc57610edc610eb7565b50049056fea2646970667358221220bc50bf64b02bd5849e06b5a9d342d9fa6cc67ee13249c101e19e785296174dcb64736f6c634300080d0033",
  "devdoc": {
    "kind": "dev",
    "methods": {
      "allowance(address,address)": {
        "details": "See {IERC20-allowance}."
      },
      "approve(address,uint256)": {
        "details": "See {IERC20-approve}. NOTE: If `amount` is the maximum `uint256`, the allowance is not updated on `transferFrom`. This is semantically equivalent to an infinite approval. Requirements: - `spender` cannot be the zero address."
      },
      "balanceOf(address)": {
        "details": "See {IERC20-balanceOf}."
      },
      "balanceOfAt(address,uint256)": {
        "details": "Retrieves the balance of `account` at the time `snapshotId` was created."
      },
      "decimals()": {
        "details": "Returns the number of decimals used to get its user representation. For example, if `decimals` equals `2`, a balance of `505` tokens should be displayed to a user as `5.05` (`505 / 10 ** 2`). Tokens usually opt for a value of 18, imitating the relationship between Ether and Wei. This is the value {ERC20} uses, unless this function is overridden; NOTE: This information is only used for _display_ purposes: it in no way affects any of the arithmetic of the contract, including {IERC20-balanceOf} and {IERC20-transfer}."
      },
      "decreaseAllowance(address,uint256)": {
        "details": "Atomically decreases the allowance granted to `spender` by the caller. This is an alternative to {approve} that can be used as a mitigation for problems described in {IERC20-approve}. Emits an {Approval} event indicating the updated allowance. Requirements: - `spender` cannot be the zero address. - `spender` must have allowance for the caller of at least `subtractedValue`."
      },
      "increaseAllowance(address,uint256)": {
        "details": "Atomically increases the allowance granted to `spender` by the caller. This is an alternative to {approve} that can be used as a mitigation for problems described in {IERC20-approve}. Emits an {Approval} event indicating the updated allowance. Requirements: - `spender` cannot be the zero address."
      },
      "name()": {
        "details": "Returns the name of the token."
      },
      "symbol()": {
        "details": "Returns the symbol of the token, usually a shorter version of the name."
      },
      "totalSupply()": {
        "details": "See {IERC20-totalSupply}."
      },
      "totalSupplyAt(uint256)": {
        "details": "Retrieves the total supply at the time `snapshotId` was created."
      },
      "transferFrom(address,address,uint256)": {
        "details": "See {IERC20-transferFrom}. Emits an {Approval} event indicating the updated allowance. This is not required by the EIP. See the note at the beginning of {ERC20}. NOTE: Does not update the allowance if the current allowance is the maximum `uint256`. Requirements: - `from` and `to` cannot be the zero address. - `from` must have a balance of at least `amount`. - the caller must have allowance for ``from``'s tokens of at least `amount`."
      }
    },
    "version": 1
  },
  "userdoc": {
    "kind": "user",
    "methods": {
      "s_maxSupply()": {
        "notice": "Token name: NFTicketsToken Token symbol: NFTK Supply: 1,000,000 (1 million tokens) Set up: Creator receives entire supply of tokens, first snapshot is taken"
      },
      "transfer(address,uint256)": {
        "notice": "Modifications: each transfer will capture a snapshot for voting purposes"
      }
    },
    "version": 1
  },
  "storageLayout": {
    "storage": [
      {
        "astId": 1788,
        "contract": "contracts/NFTicketsTok.sol:NFTicketsTok",
        "label": "_balances",
        "offset": 0,
        "slot": "0",
        "type": "t_mapping(t_address,t_uint256)"
      },
      {
        "astId": 1794,
        "contract": "contracts/NFTicketsTok.sol:NFTicketsTok",
        "label": "_allowances",
        "offset": 0,
        "slot": "1",
        "type": "t_mapping(t_address,t_mapping(t_address,t_uint256))"
      },
      {
        "astId": 1796,
        "contract": "contracts/NFTicketsTok.sol:NFTicketsTok",
        "label": "_totalSupply",
        "offset": 0,
        "slot": "2",
        "type": "t_uint256"
      },
      {
        "astId": 1798,
        "contract": "contracts/NFTicketsTok.sol:NFTicketsTok",
        "label": "_name",
        "offset": 0,
        "slot": "3",
        "type": "t_string_storage"
      },
      {
        "astId": 1800,
        "contract": "contracts/NFTicketsTok.sol:NFTicketsTok",
        "label": "_symbol",
        "offset": 0,
        "slot": "4",
        "type": "t_string_storage"
      },
      {
        "astId": 2464,
        "contract": "contracts/NFTicketsTok.sol:NFTicketsTok",
        "label": "_accountBalanceSnapshots",
        "offset": 0,
        "slot": "5",
        "type": "t_mapping(t_address,t_struct(Snapshots)2459_storage)"
      },
      {
        "astId": 2467,
        "contract": "contracts/NFTicketsTok.sol:NFTicketsTok",
        "label": "_totalSupplySnapshots",
        "offset": 0,
        "slot": "6",
        "type": "t_struct(Snapshots)2459_storage"
      },
      {
        "astId": 2470,
        "contract": "contracts/NFTicketsTok.sol:NFTicketsTok",
        "label": "_currentSnapshotId",
        "offset": 0,
        "slot": "8",
        "type": "t_struct(Counter)3197_storage"
      }
    ],
    "types": {
      "t_address": {
        "encoding": "inplace",
        "label": "address",
        "numberOfBytes": "20"
      },
      "t_array(t_uint256)dyn_storage": {
        "base": "t_uint256",
        "encoding": "dynamic_array",
        "label": "uint256[]",
        "numberOfBytes": "32"
      },
      "t_mapping(t_address,t_mapping(t_address,t_uint256))": {
        "encoding": "mapping",
        "key": "t_address",
        "label": "mapping(address => mapping(address => uint256))",
        "numberOfBytes": "32",
        "value": "t_mapping(t_address,t_uint256)"
      },
      "t_mapping(t_address,t_struct(Snapshots)2459_storage)": {
        "encoding": "mapping",
        "key": "t_address",
        "label": "mapping(address => struct ERC20Snapshot.Snapshots)",
        "numberOfBytes": "32",
        "value": "t_struct(Snapshots)2459_storage"
      },
      "t_mapping(t_address,t_uint256)": {
        "encoding": "mapping",
        "key": "t_address",
        "label": "mapping(address => uint256)",
        "numberOfBytes": "32",
        "value": "t_uint256"
      },
      "t_string_storage": {
        "encoding": "bytes",
        "label": "string",
        "numberOfBytes": "32"
      },
      "t_struct(Counter)3197_storage": {
        "encoding": "inplace",
        "label": "struct Counters.Counter",
        "members": [
          {
            "astId": 3196,
            "contract": "contracts/NFTicketsTok.sol:NFTicketsTok",
            "label": "_value",
            "offset": 0,
            "slot": "0",
            "type": "t_uint256"
          }
        ],
        "numberOfBytes": "32"
      },
      "t_struct(Snapshots)2459_storage": {
        "encoding": "inplace",
        "label": "struct ERC20Snapshot.Snapshots",
        "members": [
          {
            "astId": 2455,
            "contract": "contracts/NFTicketsTok.sol:NFTicketsTok",
            "label": "ids",
            "offset": 0,
            "slot": "0",
            "type": "t_array(t_uint256)dyn_storage"
          },
          {
            "astId": 2458,
            "contract": "contracts/NFTicketsTok.sol:NFTicketsTok",
            "label": "values",
            "offset": 0,
            "slot": "1",
            "type": "t_array(t_uint256)dyn_storage"
          }
        ],
        "numberOfBytes": "64"
      },
      "t_uint256": {
        "encoding": "inplace",
        "label": "uint256",
        "numberOfBytes": "32"
      }
    }
  }
}