{
  "address": "0x9275BDCFAebc0991c626E1abbf95657E43208c43",
  "abi": [
    {
      "inputs": [
        {
          "internalType": "address",
          "name": "_token",
          "type": "address"
        }
      ],
      "stateMutability": "nonpayable",
      "type": "constructor"
    },
    {
      "inputs": [],
      "name": "AlreadyVoted",
      "type": "error"
    },
    {
      "inputs": [],
      "name": "CannotDisputeEventBeforeStart",
      "type": "error"
    },
    {
      "inputs": [],
      "name": "CannotDisputeFinalizedEvent",
      "type": "error"
    },
    {
      "inputs": [],
      "name": "DisputeDoesNotExist",
      "type": "error"
    },
    {
      "inputs": [],
      "name": "InsificientDisputeEveidence",
      "type": "error"
    },
    {
      "inputs": [],
      "name": "InsuficientBalanceToVote",
      "type": "error"
    },
    {
      "inputs": [],
      "name": "InvalidChoice",
      "type": "error"
    },
    {
      "inputs": [],
      "name": "NoTicketForThisEvent",
      "type": "error"
    },
    {
      "inputs": [],
      "name": "NotEligible",
      "type": "error"
    },
    {
      "inputs": [],
      "name": "VotingFinished",
      "type": "error"
    },
    {
      "inputs": [],
      "name": "YouAlreadyDisputedThisEvent",
      "type": "error"
    },
    {
      "anonymous": false,
      "inputs": [
        {
          "indexed": true,
          "internalType": "address",
          "name": "previousOwner",
          "type": "address"
        },
        {
          "indexed": true,
          "internalType": "address",
          "name": "newOwner",
          "type": "address"
        }
      ],
      "name": "OwnershipTransferred",
      "type": "event"
    },
    {
      "stateMutability": "payable",
      "type": "fallback"
    },
    {
      "inputs": [],
      "name": "MARKET",
      "outputs": [
        {
          "internalType": "contract NFTicketsMarket",
          "name": "",
          "type": "address"
        }
      ],
      "stateMutability": "view",
      "type": "function"
    },
    {
      "inputs": [],
      "name": "TICKET",
      "outputs": [
        {
          "internalType": "contract NFTicketsTic",
          "name": "",
          "type": "address"
        }
      ],
      "stateMutability": "view",
      "type": "function"
    },
    {
      "inputs": [
        {
          "internalType": "uint256",
          "name": "dispute",
          "type": "uint256"
        },
        {
          "internalType": "uint256",
          "name": "voter",
          "type": "uint256"
        }
      ],
      "name": "checkVoterDecision",
      "outputs": [
        {
          "internalType": "uint8",
          "name": "",
          "type": "uint8"
        }
      ],
      "stateMutability": "view",
      "type": "function"
    },
    {
      "inputs": [],
      "name": "contractBalance",
      "outputs": [
        {
          "internalType": "uint256",
          "name": "",
          "type": "uint256"
        }
      ],
      "stateMutability": "view",
      "type": "function"
    },
    {
      "inputs": [],
      "name": "disputeIndex",
      "outputs": [
        {
          "internalType": "uint256",
          "name": "",
          "type": "uint256"
        }
      ],
      "stateMutability": "view",
      "type": "function"
    },
    {
      "inputs": [
        {
          "internalType": "uint256",
          "name": "",
          "type": "uint256"
        }
      ],
      "name": "disputeToDecisions",
      "outputs": [
        {
          "internalType": "uint8",
          "name": "outcome",
          "type": "uint8"
        },
        {
          "internalType": "bool",
          "name": "processingStatus",
          "type": "bool"
        }
      ],
      "stateMutability": "view",
      "type": "function"
    },
    {
      "inputs": [
        {
          "internalType": "uint256",
          "name": "",
          "type": "uint256"
        }
      ],
      "name": "disputes",
      "outputs": [
        {
          "internalType": "uint256",
          "name": "itemId",
          "type": "uint256"
        },
        {
          "internalType": "uint256",
          "name": "shapshotId",
          "type": "uint256"
        }
      ],
      "stateMutability": "view",
      "type": "function"
    },
    {
      "inputs": [],
      "name": "executeDecisions",
      "outputs": [],
      "stateMutability": "nonpayable",
      "type": "function"
    },
    {
      "inputs": [],
      "name": "executeDecisionsWhenNeeded",
      "outputs": [],
      "stateMutability": "nonpayable",
      "type": "function"
    },
    {
      "inputs": [],
      "name": "executePaySellers",
      "outputs": [],
      "stateMutability": "nonpayable",
      "type": "function"
    },
    {
      "inputs": [
        {
          "internalType": "uint256",
          "name": "_disputeId",
          "type": "uint256"
        }
      ],
      "name": "getDispute",
      "outputs": [
        {
          "components": [
            {
              "internalType": "uint256",
              "name": "itemId",
              "type": "uint256"
            },
            {
              "internalType": "uint256",
              "name": "shapshotId",
              "type": "uint256"
            },
            {
              "internalType": "address[]",
              "name": "disputers",
              "type": "address[]"
            },
            {
              "internalType": "int64[]",
              "name": "disputerLat",
              "type": "int64[]"
            },
            {
              "internalType": "int64[]",
              "name": "disputerLon",
              "type": "int64[]"
            },
            {
              "internalType": "uint256[]",
              "name": "disputerTime",
              "type": "uint256[]"
            },
            {
              "internalType": "uint8[]",
              "name": "disputerReason",
              "type": "uint8[]"
            },
            {
              "internalType": "string[]",
              "name": "disputerEvidence",
              "type": "string[]"
            }
          ],
          "internalType": "struct NFTicketsArbitration.Dispute",
          "name": "",
          "type": "tuple"
        }
      ],
      "stateMutability": "view",
      "type": "function"
    },
    {
      "inputs": [
        {
          "internalType": "uint256",
          "name": "_disputeId",
          "type": "uint256"
        }
      ],
      "name": "getSnapshotOfDispute",
      "outputs": [
        {
          "internalType": "uint256",
          "name": "",
          "type": "uint256"
        }
      ],
      "stateMutability": "view",
      "type": "function"
    },
    {
      "inputs": [
        {
          "internalType": "uint256",
          "name": "_itemId",
          "type": "uint256"
        },
        {
          "internalType": "int64",
          "name": "_disputerLat",
          "type": "int64"
        },
        {
          "internalType": "int64",
          "name": "_disputerLon",
          "type": "int64"
        },
        {
          "internalType": "uint256",
          "name": "_disputerTime",
          "type": "uint256"
        },
        {
          "internalType": "uint8",
          "name": "_disputerReason",
          "type": "uint8"
        },
        {
          "internalType": "string",
          "name": "_disputerEvidence",
          "type": "string"
        }
      ],
      "name": "lodgeDispute",
      "outputs": [],
      "stateMutability": "nonpayable",
      "type": "function"
    },
    {
      "inputs": [],
      "name": "owner",
      "outputs": [
        {
          "internalType": "address",
          "name": "",
          "type": "address"
        }
      ],
      "stateMutability": "view",
      "type": "function"
    },
    {
      "inputs": [],
      "name": "renounceOwnership",
      "outputs": [],
      "stateMutability": "nonpayable",
      "type": "function"
    },
    {
      "inputs": [
        {
          "internalType": "address",
          "name": "_market",
          "type": "address"
        },
        {
          "internalType": "address",
          "name": "_ticket",
          "type": "address"
        }
      ],
      "name": "setUp",
      "outputs": [],
      "stateMutability": "nonpayable",
      "type": "function"
    },
    {
      "inputs": [
        {
          "internalType": "uint256",
          "name": "_decision",
          "type": "uint256"
        }
      ],
      "name": "showDecision",
      "outputs": [
        {
          "components": [
            {
              "internalType": "address[]",
              "name": "voter",
              "type": "address[]"
            },
            {
              "internalType": "uint8[]",
              "name": "decision",
              "type": "uint8[]"
            },
            {
              "internalType": "uint8",
              "name": "outcome",
              "type": "uint8"
            },
            {
              "internalType": "bool",
              "name": "processingStatus",
              "type": "bool"
            }
          ],
          "internalType": "struct NFTicketsArbitration.Decision",
          "name": "",
          "type": "tuple"
        }
      ],
      "stateMutability": "view",
      "type": "function"
    },
    {
      "inputs": [
        {
          "internalType": "address",
          "name": "newOwner",
          "type": "address"
        }
      ],
      "name": "transferOwnership",
      "outputs": [],
      "stateMutability": "nonpayable",
      "type": "function"
    },
    {
      "inputs": [
        {
          "internalType": "uint256",
          "name": "_disputeId",
          "type": "uint256"
        },
        {
          "internalType": "uint8",
          "name": "_choice",
          "type": "uint8"
        }
      ],
      "name": "vote",
      "outputs": [],
      "stateMutability": "nonpayable",
      "type": "function"
    },
    {
      "inputs": [
        {
          "internalType": "uint256",
          "name": "_disputeId",
          "type": "uint256"
        }
      ],
      "name": "voteCount",
      "outputs": [],
      "stateMutability": "nonpayable",
      "type": "function"
    },
    {
      "inputs": [],
      "name": "voterCount",
      "outputs": [
        {
          "internalType": "uint256",
          "name": "",
          "type": "uint256"
        }
      ],
      "stateMutability": "view",
      "type": "function"
    },
    {
      "inputs": [
        {
          "internalType": "uint256",
          "name": "",
          "type": "uint256"
        }
      ],
      "name": "voterToBallance",
      "outputs": [
        {
          "internalType": "address",
          "name": "voterAddress",
          "type": "address"
        },
        {
          "internalType": "uint256",
          "name": "balance",
          "type": "uint256"
        }
      ],
      "stateMutability": "view",
      "type": "function"
    },
    {
      "inputs": [
        {
          "internalType": "uint256",
          "name": "_disputeId",
          "type": "uint256"
        }
      ],
      "name": "votersLength",
      "outputs": [
        {
          "internalType": "uint256",
          "name": "",
          "type": "uint256"
        }
      ],
      "stateMutability": "view",
      "type": "function"
    },
    {
      "inputs": [],
      "name": "withdrawShare",
      "outputs": [],
      "stateMutability": "payable",
      "type": "function"
    },
    {
      "stateMutability": "payable",
      "type": "receive"
    }
  ],
  "transactionHash": "0x7522344bf14ac26fc1cf0ccf1cc4ca292a0eb39ac4ab4b6d714fd8fe0cb0a635",
  "args": [
    "0xA623149C6D653C96f1Aa23f38c03646cd0A615C8"
  ],
  "numDeployments": 7,
  "solcInputHash": "7576810861a31f34e7f5050dbd6ca1c6",
  "bytecode": "0x60a06040523480156200001157600080fd5b5060405162003406380380620034068339810160408190526200003491620000e2565b6001600055620000443362000056565b6001600160a01b03166080526200010f565b600180546001600160a01b038381166001600160a01b0319831681179093556040519116919082907f8be0079c531659141344cd1fd0a4f28419497f9722a3daafe3b4186f6b6457e090600090a35050565b60006001600160a01b0382165b92915050565b620000c681620000a8565b8114620000d257600080fd5b50565b8051620000b581620000bb565b600060208284031215620000f957620000f9600080fd5b6000620001078484620000d5565b949350505050565b6080516132bf6200014760003960008181610516015281816106470152818161154f01528181611b95015261214a01526132bf6000f3fe60806040526004361061014f5760003560e01c806389fb96de116100b6578063d2cc8fee1161006f578063d2cc8fee146103df578063d7bd594c146103f5578063e3a96cbd14610443578063f2fde38b14610470578063f46f16c214610490578063ff995bb4146104bd5761015f565b806389fb96de146102ec5780638b7afe2e146103195780638da5cb5b1461032f578063943e82161461035557806397271e49146103755780639d827c92146103bf5761015f565b80634fc8a20d116101085780634fc8a20d14610220578063564a565d14610240578063610f8d7e146102825780636e4b13dd14610297578063715018a6146102b757806384d3127d146102cc5761015f565b8063243496711461016857806324f657e5146101705780632552ac081461018557806331fc1032146101c8578063377d8a1e146101dd57806342169e481461020a5761015f565b3661015f5761015d346104dd565b005b61015d346104dd565b61015d610788565b34801561017c57600080fd5b5061015d610873565b34801561019157600080fd5b506101b26101a036600461297a565b60009081526008602052604090205490565b6040516101bf91906129ab565b60405180910390f35b3480156101d457600080fd5b5061015d610cea565b3480156101e957600080fd5b506101fd6101f836600461297a565b610d54565b6040516101bf9190612aed565b34801561021657600080fd5b506101b260055481565b34801561022c57600080fd5b5061015d61023b36600461297a565b610e86565b34801561024c57600080fd5b5061027461025b36600461297a565b6007602052600090815260409020805460019091015482565b6040516101bf929190612b05565b34801561028e57600080fd5b5061015d610f8d565b3480156102a357600080fd5b5061015d6102b2366004612c3a565b6111fc565b3480156102c357600080fd5b5061015d611edb565b3480156102d857600080fd5b5061015d6102e7366004612cf2565b611eef565b3480156102f857600080fd5b5061030c610307366004612d2f565b611f25565b6040516101bf9190612d62565b34801561032557600080fd5b506101b260065481565b34801561033b57600080fd5b506001546001600160a01b03166040516101bf9190612d70565b34801561036157600080fd5b5061015d610370366004612d7e565b611f71565b34801561038157600080fd5b506103b161039036600461297a565b60086020526000908152604090206002015460ff8082169161010090041682565b6040516101bf929190612db1565b3480156103cb57600080fd5b506101b26103da36600461297a565b6123f6565b3480156103eb57600080fd5b506101b260045481565b34801561040157600080fd5b5061043561041036600461297a565b600960205260009081526040902080546001909101546001600160a01b039091169082565b6040516101bf929190612dcc565b34801561044f57600080fd5b5061046361045e36600461297a565b612431565b6040516101bf9190613013565b34801561047c57600080fd5b5061015d61048b366004613024565b6127c5565b34801561049c57600080fd5b506002546104b0906001600160a01b031681565b6040516101bf9190613064565b3480156104c957600080fd5b506003546104b0906001600160a01b031681565b6000805b60055481101561060c576000818152600960209081526040918290205482516327150a5f60e21b815292516001600160a01b037f0000000000000000000000000000000000000000000000000000000000000000811694634ee2cd7e9493909116928592639c54297c9260048082019392918290030181865afa15801561056c573d6000803e3d6000fd5b505050506040513d601f19601f82011682018060405250810190610590919061307d565b6040518363ffffffff1660e01b81526004016105ad929190612dcc565b602060405180830381865afa1580156105ca573d6000803e3d6000fd5b505050506040513d601f19601f820116820180604052508101906105ee919061307d565b6105f890836130b4565b915080610604816130cc565b9150506104e1565b5060005b600554811015610772576000818152600960209081526040918290205482516327150a5f60e21b8152925185936001600160a01b037f0000000000000000000000000000000000000000000000000000000000000000811694634ee2cd7e94909116928592639c54297c9260048083019391928290030181865afa15801561069c573d6000803e3d6000fd5b505050506040513d601f19601f820116820180604052508101906106c0919061307d565b6040518363ffffffff1660e01b81526004016106dd929190612dcc565b602060405180830381865afa1580156106fa573d6000803e3d6000fd5b505050506040513d601f19601f8201168201806040525081019061071e919061307d565b61072890856130e6565b610732919061311b565b60008281526009602052604090206001015461074e91906130b4565b6000828152600960205260409020600101558061076a816130cc565b915050610610565b508160065461078191906130b4565b6006555050565b6002600054036107b35760405162461bcd60e51b81526004016107aa90613166565b60405180910390fd5b60026000556107c1336127ff565b15156001146107e357604051637c75aa6f60e11b815260040160405180910390fd5b6000805b60055481101561083c57600081815260096020526040902054336001600160a01b039091160361082a576000818152600960205260408120600101805491905591505b80610834816130cc565b9150506107e7565b50604051339082156108fc029083906000818181858888f1935050505015801561086a573d6000803e3d6000fd5b50506001600055565b6002600054036108955760405162461bcd60e51b81526004016107aa90613166565b600260009081555b600454811015610ce25760008181526008602052604090206002015460ff1615806108dc575060008181526008602052604090206002015460ff166001145b15610cd0576003546002546000838152600760205260409081902054905163053d84dd60e31b8152429362015180936001600160a01b039182169363117f02d79392909116916329ec26e891610934916004016129ab565b602060405180830381865afa158015610951573d6000803e3d6000fd5b505050506040513d601f19601f82011682018060405250810190610975919061307d565b6040518263ffffffff1660e01b815260040161099191906129ab565b602060405180830381865afa1580156109ae573d6000803e3d6000fd5b505050506040513d601f19601f820116820180604052508101906109d2919061307d565b6109dc91906130b4565b1015610cd057600254600082815260076020526040908190205490516304d785d760e21b81526014926001600160a01b03169163135e175c91610a2291906004016129ab565b602060405180830381865afa158015610a3f573d6000803e3d6000fd5b505050506040513d601f19601f82011682018060405250810190610a63919061307d565b610a6d919061311b565b60008281526007602052604090206002015411610aa75760008181526008602052604090206002908101805460ff19169091179055610cd0565b610ab081610e86565b600081815260086020526040812060020154610100900460ff1615159003610cd05760008181526008602052604090206002015460ff16600103610bd5576002546000828152600760205260409081902054905163c5a8a2ab60e01b81526001600160a01b039092169163c5a8a2ab91610b2e91600490810161318a565b600060405180830381600087803b158015610b4857600080fd5b505af1158015610b5c573d6000803e3d6000fd5b50506002546000848152600760205260409081902054905163626f1bb560e01b81526001600160a01b03909216935063626f1bb59250610b9e916004016129ab565b600060405180830381600087803b158015610bb857600080fd5b505af1158015610bcc573d6000803e3d6000fd5b50505050610cb1565b6002546000828152600760205260409081902054905163c5a8a2ab60e01b81526001600160a01b039092169163c5a8a2ab91610c169160039060040161318a565b600060405180830381600087803b158015610c3057600080fd5b505af1158015610c44573d6000803e3d6000fd5b50505050600260009054906101000a90046001600160a01b03166001600160a01b031663b2bf04a36040518163ffffffff1660e01b8152600401600060405180830381600087803b158015610c9857600080fd5b505af1158015610cac573d6000803e3d6000fd5b505050505b6000818152600860205260409020600201805461ff0019166101001790555b80610cda816130cc565b91505061089d565b506001600055565b600260009054906101000a90046001600160a01b03166001600160a01b031663b2bf04a36040518163ffffffff1660e01b8152600401600060405180830381600087803b158015610d3a57600080fd5b505af1158015610d4e573d6000803e3d6000fd5b50505050565b6040805160808101825260608082526020820181905260009282018390528101919091526000828152600860209081526040918290208251815460a093810282018401909452608081018481529093919284928491840182828015610de257602002820191906000526020600020905b81546001600160a01b03168152600190910190602001808311610dc4575b5050505050815260200160018201805480602002602001604051908101604052809291908181526020018280548015610e5857602002820191906000526020600020906000905b825461010083900a900460ff16815260206001928301818104948501949093039092029101808411610e295790505b50505091835250506002919091015460ff808216602084015261010090910416151560409091015292915050565b600454811115610ea95760405163b6f6dbe160e01b815260040160405180910390fd5b6000818152600860205260408120549080805b83811015610f40576000858152600860205260409020600101805482908110610ee757610ee76131a5565b60009182526020918290209181049091015460ff601f9092166101000a900416600103610f2057610f198360016130b4565b9250610f2e565b610f2b8260016130b4565b91505b80610f38816130cc565b915050610ebc565b5080821115610f6a576000848152600860205260409020600201805460ff19166001179055610d4e565b50505060009081526008602052604090206002908101805460ff19169091179055565b600260005403610faf5760405162461bcd60e51b81526004016107aa90613166565b600260009081555b600454811015610ce257610fca81610e86565b600081815260086020526040812060020154610100900460ff16151590036111ea5760008181526008602052604090206002015460ff166001036110ef576002546000828152600760205260409081902054905163c5a8a2ab60e01b81526001600160a01b039092169163c5a8a2ab9161104891600490810161318a565b600060405180830381600087803b15801561106257600080fd5b505af1158015611076573d6000803e3d6000fd5b50506002546000848152600760205260409081902054905163626f1bb560e01b81526001600160a01b03909216935063626f1bb592506110b8916004016129ab565b600060405180830381600087803b1580156110d257600080fd5b505af11580156110e6573d6000803e3d6000fd5b505050506111cb565b6002546000828152600760205260409081902054905163c5a8a2ab60e01b81526001600160a01b039092169163c5a8a2ab916111309160039060040161318a565b600060405180830381600087803b15801561114a57600080fd5b505af115801561115e573d6000803e3d6000fd5b50505050600260009054906101000a90046001600160a01b03166001600160a01b031663b2bf04a36040518163ffffffff1660e01b8152600401600060405180830381600087803b1580156111b257600080fd5b505af11580156111c6573d6000803e3d6000fd5b505050505b6000818152600860205260409020600201805461ff0019166101001790555b806111f4816130cc565b915050610fb7565b60026000540361121e5760405162461bcd60e51b81526004016107aa90613166565b60026000819055600354905460405163053d84dd60e31b81526001600160a01b039283169262fdd58e9233929116906329ec26e890611261908c906004016129ab565b602060405180830381865afa15801561127e573d6000803e3d6000fd5b505050506040513d601f19601f820116820180604052508101906112a2919061307d565b6040518363ffffffff1660e01b81526004016112bf929190612dcc565b602060405180830381865afa1580156112dc573d6000803e3d6000fd5b505050506040513d601f19601f82011682018060405250810190611300919061307d565b60000361132057604051638285781d60e01b815260040160405180910390fd5b60035460025460405163053d84dd60e31b815242926001600160a01b039081169263bc2be1be929116906329ec26e89061135e908c906004016129ab565b602060405180830381865afa15801561137b573d6000803e3d6000fd5b505050506040513d601f19601f8201168201806040525081019061139f919061307d565b6040518263ffffffff1660e01b81526004016113bb91906129ab565b602060405180830381865afa1580156113d8573d6000803e3d6000fd5b505050506040513d601f19601f820116820180604052508101906113fc919061307d565b111561141b5760405163020ca01360e31b815260040160405180910390fd5b60035460025460405163053d84dd60e31b8152429262015180926001600160a01b039182169263117f02d792909116906329ec26e89061145f908d906004016129ab565b602060405180830381865afa15801561147c573d6000803e3d6000fd5b505050506040513d601f19601f820116820180604052508101906114a0919061307d565b6040518263ffffffff1660e01b81526004016114bc91906129ab565b602060405180830381865afa1580156114d9573d6000803e3d6000fd5b505050506040513d601f19601f820116820180604052508101906114fd919061307d565b61150791906130b4565b10156115265760405163192fe30d60e01b815260040160405180910390fd5b60045460000361188a5785600760006004548152602001908152602001600020600001819055507f00000000000000000000000000000000000000000000000000000000000000006001600160a01b0316639c54297c6040518163ffffffff1660e01b8152600401602060405180830381865afa1580156115ab573d6000803e3d6000fd5b505050506040513d601f19601f820116820180604052508101906115cf919061307d565b60076000600454815260200190815260200160002060010181905550600760006004548152602001908152602001600020600201339080600181540180825580915050600190039060005260206000200160009091909190916101000a8154816001600160a01b0302191690836001600160a01b031602179055506007600060045481526020019081526020016000206003018590806001815401808255809150506001900390600052602060002090600491828204019190066008029091909190916101000a8154816001600160401b03021916908360070b6001600160401b031602179055506007600060045481526020019081526020016000206004018490806001815401808255809150506001900390600052602060002090600491828204019190066008029091909190916101000a8154816001600160401b03021916908360070b6001600160401b031602179055506007600060045481526020019081526020016000206005018390806001815401808255809150506001900390600052602060002001600090919091909150556007600060045481526020019081526020016000206006018290806001815401808255809150506001900390600052602060002090602091828204019190069091909190916101000a81548160ff021916908360ff1602179055506007600060045481526020019081526020016000206007018190806001815401808255809150506001900390600052602060002001600090919091909150908051906020019061180f9291906128c9565b506002805460405163c5a8a2ab60e01b81526001600160a01b039091169163c5a8a2ab91611841918a9160040161318a565b600060405180830381600087803b15801561185b57600080fd5b505af115801561186f573d6000803e3d6000fd5b50505050600454600161188291906130b4565b600455611ece565b6000805b600454811015611b6b57600081815260076020526040902054889003611b545760005b6000828152600760205260409020600201548110156119355760008281526007602052604090206002018054339190839081106118f0576118f06131a5565b6000918252602090912001546001600160a01b03160361192357604051630231844760e11b815260040160405180910390fd5b8061192d816130cc565b9150506118b1565b5060076000828152602001908152602001600020600201339080600181540180825580915050600190039060005260206000200160009091909190916101000a8154816001600160a01b0302191690836001600160a01b03160217905550600760008281526020019081526020016000206003018790806001815401808255809150506001900390600052602060002090600491828204019190066008029091909190916101000a8154816001600160401b03021916908360070b6001600160401b03160217905550600760008281526020019081526020016000206004018690806001815401808255809150506001900390600052602060002090600491828204019190066008029091909190916101000a8154816001600160401b03021916908360070b6001600160401b0316021790555060076000828152602001908152602001600020600501859080600181540180825580915050600190039060005260206000200160009091909190915055600760008281526020019081526020016000206006018490806001815401808255809150506001900390600052602060002090602091828204019190069091909190916101000a81548160ff021916908360ff1602179055506007600082815260200190815260200160002060070183908060018154018082558091505060019003906000526020600020016000909190919091509080519060200190611b4e9291906128c9565b50611b59565b600191505b80611b63816130cc565b91505061188e565b50801515600103611ecc5786600760006004548152602001908152602001600020600001819055507f00000000000000000000000000000000000000000000000000000000000000006001600160a01b0316639c54297c6040518163ffffffff1660e01b8152600401602060405180830381865afa158015611bf1573d6000803e3d6000fd5b505050506040513d601f19601f82011682018060405250810190611c15919061307d565b60076000600454815260200190815260200160002060010181905550600760006004548152602001908152602001600020600201339080600181540180825580915050600190039060005260206000200160009091909190916101000a8154816001600160a01b0302191690836001600160a01b031602179055506007600060045481526020019081526020016000206003018690806001815401808255809150506001900390600052602060002090600491828204019190066008029091909190916101000a8154816001600160401b03021916908360070b6001600160401b031602179055506007600060045481526020019081526020016000206004018590806001815401808255809150506001900390600052602060002090600491828204019190066008029091909190916101000a8154816001600160401b03021916908360070b6001600160401b031602179055506007600060045481526020019081526020016000206005018490806001815401808255809150506001900390600052602060002001600090919091909150556007600060045481526020019081526020016000206006018390806001815401808255809150506001900390600052602060002090602091828204019190069091909190916101000a81548160ff021916908360ff16021790555060076000600454815260200190815260200160002060070182908060018154018082558091505060019003906000526020600020016000909190919091509080519060200190611e559291906128c9565b506002805460405163c5a8a2ab60e01b81526001600160a01b039091169163c5a8a2ab91611e87918b9160040161318a565b600060405180830381600087803b158015611ea157600080fd5b505af1158015611eb5573d6000803e3d6000fd5b505050506004546001611ec891906130b4565b6004555b505b5050600160005550505050565b611ee361284d565b611eed6000612877565b565b611ef761284d565b600280546001600160a01b039384166001600160a01b03199182161790915560038054929093169116179055565b6000828152600860205260408120600101805483908110611f4857611f486131a5565b90600052602060002090602091828204019190069054906101000a900460ff1690505b92915050565b600260005403611f935760405162461bcd60e51b81526004016107aa90613166565b6002600055600454821115611fbb5760405163b6f6dbe160e01b815260040160405180910390fd5b6000828152600760205260408120549003611fe95760405163b6f6dbe160e01b815260040160405180910390fd5b42611ff86201518060046130e6565b6003546002546000868152600760205260409081902054905163053d84dd60e31b81526001600160a01b039384169363117f02d79316916329ec26e89161204291906004016129ab565b602060405180830381865afa15801561205f573d6000803e3d6000fd5b505050506040513d601f19601f82011682018060405250810190612083919061307d565b6040518263ffffffff1660e01b815260040161209f91906129ab565b602060405180830381865afa1580156120bc573d6000803e3d6000fd5b505050506040513d601f19601f820116820180604052508101906120e0919061307d565b6120ea91906130b4565b10156121095760405163a9a7700360e01b815260040160405180910390fd5b600082815260086020526040902060029081015460ff16900361213f57604051637a3d779160e11b815260040160405180910390fd5b670de0b6b3a76400007f00000000000000000000000000000000000000000000000000000000000000006001600160a01b0316634ee2cd7e33612181866123f6565b6040518363ffffffff1660e01b815260040161219e929190612dcc565b602060405180830381865afa1580156121bb573d6000803e3d6000fd5b505050506040513d601f19601f820116820180604052508101906121df919061307d565b10156121fe5760405163f8c9624960e01b815260040160405180910390fd5b60ff81161580612211575060028160ff16115b1561222f57604051639c45400160e01b815260040160405180910390fd5b600082815260086020526040812054815b8181101561229c57600085815260086020526040902080543391908390811061226b5761226b6131a5565b6000918252602090912001546001600160a01b03160361228a57600192505b80612294816130cc565b915050612240565b508115156000036123d2576000848152600860209081526040822080546001818101835582855283852090910180546001600160a01b03191633179055908101805491820181558352818320918104909101805460ff808816601f9094166101000a93840293021916919091179055600554900361234a5760058054600090815260096020526040902080546001600160a01b03191633179055546123429060016130b4565b6005556123eb565b6000805b60055481101561238f57600081815260096020526040902054336001600160a01b039091160361237d57600191505b80612387816130cc565b91505061234e565b508015156000036123cc5760058054600090815260096020526040902080546001600160a01b03191633179055546123c89060016130b4565b6005555b506123eb565b604051637c9a1cf960e01b815260040160405180910390fd5b505060016000555050565b600060045482111561241b5760405163b6f6dbe160e01b815260040160405180910390fd5b5060009081526007602052604090206001015490565b61247960405180610100016040528060008152602001600081526020016060815260200160608152602001606081526020016060815260200160608152602001606081525090565b60045482111561249c5760405163b6f6dbe160e01b815260040160405180910390fd5b600082815260076020908152604091829020825161010081018452815481526001820154818401526002820180548551818602810186018752818152929593949386019383018282801561251957602002820191906000526020600020905b81546001600160a01b031681526001909101906020018083116124fb575b505050505081526020016003820180548060200260200160405190810160405280929190818152602001828054801561259457602002820191906000526020600020906000905b825461010083900a900460070b81526020600f83018190049384019360010360089093019290920291018084116125605790505b505050505081526020016004820180548060200260200160405190810160405280929190818152602001828054801561260f57602002820191906000526020600020906000905b825461010083900a900460070b81526020600f83018190049384019360010360089093019290920291018084116125db5790505b505050505081526020016005820180548060200260200160405190810160405280929190818152602001828054801561266757602002820191906000526020600020905b815481526020019060010190808311612653575b50505050508152602001600682018054806020026020016040519081016040528092919081815260200182805480156126dd57602002820191906000526020600020906000905b825461010083900a900460ff168152602060019283018181049485019490930390920291018084116126ae5790505b5050505050815260200160078201805480602002602001604051908101604052809291908181526020016000905b828210156127b757838290600052602060002001805461272a906131d1565b80601f0160208091040260200160405190810160405280929190818152602001828054612756906131d1565b80156127a35780601f10612778576101008083540402835291602001916127a3565b820191906000526020600020905b81548152906001019060200180831161278657829003601f168201915b50505050508152602001906001019061270b565b505050915250909392505050565b6127cd61284d565b6001600160a01b0381166127f35760405162461bcd60e51b81526004016107aa906131fd565b6127fc81612877565b50565b600080805b600554811015612846576000818152600960205260409020546001600160a01b0380861691160361283457600191505b8061283e816130cc565b915050612804565b5092915050565b6001546001600160a01b03163314611eed5760405162461bcd60e51b81526004016107aa90613279565b600180546001600160a01b038381166001600160a01b0319831681179093556040519116919082907f8be0079c531659141344cd1fd0a4f28419497f9722a3daafe3b4186f6b6457e090600090a35050565b8280546128d5906131d1565b90600052602060002090601f0160209004810192826128f7576000855561293d565b82601f1061291057805160ff191683800117855561293d565b8280016001018555821561293d579182015b8281111561293d578251825591602001919060010190612922565b5061294992915061294d565b5090565b5b80821115612949576000815560010161294e565b805b81146127fc57600080fd5b8035611f6b81612962565b60006020828403121561298f5761298f600080fd5b600061299b848461296f565b949350505050565b805b82525050565b60208101611f6b82846129a3565b60006001600160a01b038216611f6b565b6129a5816129b9565b60006129df83836129ca565b505060200190565b60006129f1825190565b80845260209384019383018060005b83811015612a25578151612a1488826129d3565b975060208301925050600101612a00565b509495945050505050565b60ff81166129a5565b60006129df8383612a30565b6000612a4f825190565b80845260209384019383018060005b83811015612a25578151612a728882612a39565b975060208301925050600101612a5e565b8015156129a5565b8051608080845260009190840190612aa382826129e7565b91505060208301518482036020860152612abd8282612a45565b9150506040830151612ad26040860182612a30565b506060830151612ae56060860182612a83565b509392505050565b60208082528101612afe8184612a8b565b9392505050565b60408101612b1382856129a3565b612afe60208301846129a3565b6129648160070b90565b8035611f6b81612b20565b60ff8116612964565b8035611f6b81612b35565b634e487b7160e01b600052604160045260246000fd5b601f19601f83011681018181106001600160401b0382111715612b8457612b84612b49565b6040525050565b6000612b9660405190565b9050612ba28282612b5f565b919050565b60006001600160401b03821115612bc057612bc0612b49565b601f19601f83011660200192915050565b82818337506000910152565b6000612bf0612beb84612ba7565b612b8b565b905082815260208101848484011115612c0b57612c0b600080fd5b612ae5848285612bd1565b600082601f830112612c2a57612c2a600080fd5b813561299b848260208601612bdd565b60008060008060008060c08789031215612c5657612c56600080fd5b6000612c62898961296f565b9650506020612c7389828a01612b2a565b9550506040612c8489828a01612b2a565b9450506060612c9589828a0161296f565b9350506080612ca689828a01612b3e565b92505060a08701356001600160401b03811115612cc557612cc5600080fd5b612cd189828a01612c16565b9150509295509295509295565b612964816129b9565b8035611f6b81612cde565b60008060408385031215612d0857612d08600080fd5b6000612d148585612ce7565b9250506020612d2585828601612ce7565b9150509250929050565b60008060408385031215612d4557612d45600080fd5b6000612d51858561296f565b9250506020612d258582860161296f565b60208101611f6b8284612a30565b60208101611f6b82846129ca565b60008060408385031215612d9457612d94600080fd5b6000612da0858561296f565b9250506020612d2585828601612b3e565b60408101612dbf8285612a30565b612afe6020830184612a83565b60408101612b1382856129ca565b6129a58160070b90565b60006129df8383612dda565b6000612dfa825190565b80845260209384019383018060005b83811015612a25578151612e1d8882612de4565b975060208301925050600101612e09565b60006129df83836129a3565b6000612e44825190565b80845260209384019383018060005b83811015612a25578151612e678882612e2e565b975060208301925050600101612e53565b60005b83811015612e93578181015183820152602001612e7b565b83811115610d4e5750506000910152565b6000612eae825190565b808452602084019350612ec5818560208601612e78565b601f01601f19169290920192915050565b6000612afe8383612ea4565b6000612eec825190565b80845260208401935083602082028501612f068560200190565b8060005b85811015612f3b5784840389528151612f238582612ed6565b94506020830160209a909a0199925050600101612f0a565b5091979650505050505050565b8051600090610100840190612f5d85826129a3565b506020830151612f7060208601826129a3565b5060408301518482036040860152612f8882826129e7565b91505060608301518482036060860152612fa28282612df0565b91505060808301518482036080860152612fbc8282612df0565b91505060a083015184820360a0860152612fd68282612e3a565b91505060c083015184820360c0860152612ff08282612a45565b91505060e083015184820360e086015261300a8282612ee2565b95945050505050565b60208082528101612afe8184612f48565b60006020828403121561303957613039600080fd5b600061299b8484612ce7565b6000611f6b826129b9565b6000611f6b82613045565b6129a581613050565b60208101611f6b828461305b565b8051611f6b81612962565b60006020828403121561309257613092600080fd5b600061299b8484613072565b634e487b7160e01b600052601160045260246000fd5b600082198211156130c7576130c761309e565b500190565b600060001982036130df576130df61309e565b5060010190565b60008160001904831182151516156131005761310061309e565b500290565b634e487b7160e01b600052601260045260246000fd5b60008261312a5761312a613105565b500490565b601f81526000602082017f5265656e7472616e637947756172643a207265656e7472616e742063616c6c00815291505b5060200190565b60208082528101611f6b8161312f565b600060ff8216611f6b565b6129a581613176565b6040810161319882856129a3565b612afe6020830184613181565b634e487b7160e01b600052603260045260246000fd5b634e487b7160e01b600052602260045260246000fd5b6002810460018216806131e557607f821691505b6020821081036131f7576131f76131bb565b50919050565b60208082528101611f6b81602681527f4f776e61626c653a206e6577206f776e657220697320746865207a65726f206160208201526564647265737360d01b604082015260600190565b60208082527f4f776e61626c653a2063616c6c6572206973206e6f7420746865206f776e65729101908152600061315f565b60208082528101611f6b8161324756fea2646970667358221220246a147d20bb0c5414b2b4415ee3efd53e565c7d22d027d1d89615c889c07c9a64736f6c634300080d0033",
  "devdoc": {
    "kind": "dev",
    "methods": {
      "owner()": {
        "details": "Returns the address of the current owner."
      },
      "renounceOwnership()": {
        "details": "Leaves the contract without owner. It will not be possible to call `onlyOwner` functions anymore. Can only be called by the current owner. NOTE: Renouncing ownership will leave the contract without an owner, thereby removing any functionality that is only available to the owner."
      },
      "transferOwnership(address)": {
        "details": "Transfers ownership of the contract to a new account (`newOwner`). Can only be called by the current owner."
      }
    },
    "version": 1
  },
  "userdoc": {
    "errors": {
      "NoTicketForThisEvent()": [
        {
          "notice": "Custom errors to minimise gas"
        }
      ]
    },
    "kind": "user",
    "methods": {},
    "version": 1
  },
  "storageLayout": {
    "storage": [
      {
        "astId": 169,
        "contract": "contracts/NFTicketsArbitration.sol:NFTicketsArbitration",
        "label": "_status",
        "offset": 0,
        "slot": "0",
        "type": "t_uint256"
      },
      {
        "astId": 53,
        "contract": "contracts/NFTicketsArbitration.sol:NFTicketsArbitration",
        "label": "_owner",
        "offset": 0,
        "slot": "1",
        "type": "t_address"
      },
      {
        "astId": 4070,
        "contract": "contracts/NFTicketsArbitration.sol:NFTicketsArbitration",
        "label": "MARKET",
        "offset": 0,
        "slot": "2",
        "type": "t_contract(NFTicketsMarket)7679"
      },
      {
        "astId": 4076,
        "contract": "contracts/NFTicketsArbitration.sol:NFTicketsArbitration",
        "label": "TICKET",
        "offset": 0,
        "slot": "3",
        "type": "t_contract(NFTicketsTic)8089"
      },
      {
        "astId": 4132,
        "contract": "contracts/NFTicketsArbitration.sol:NFTicketsArbitration",
        "label": "disputeIndex",
        "offset": 0,
        "slot": "4",
        "type": "t_uint256"
      },
      {
        "astId": 4134,
        "contract": "contracts/NFTicketsArbitration.sol:NFTicketsArbitration",
        "label": "voterCount",
        "offset": 0,
        "slot": "5",
        "type": "t_uint256"
      },
      {
        "astId": 4136,
        "contract": "contracts/NFTicketsArbitration.sol:NFTicketsArbitration",
        "label": "contractBalance",
        "offset": 0,
        "slot": "6",
        "type": "t_uint256"
      },
      {
        "astId": 4141,
        "contract": "contracts/NFTicketsArbitration.sol:NFTicketsArbitration",
        "label": "disputes",
        "offset": 0,
        "slot": "7",
        "type": "t_mapping(t_uint256,t_struct(Dispute)4114_storage)"
      },
      {
        "astId": 4146,
        "contract": "contracts/NFTicketsArbitration.sol:NFTicketsArbitration",
        "label": "disputeToDecisions",
        "offset": 0,
        "slot": "8",
        "type": "t_mapping(t_uint256,t_struct(Decision)4125_storage)"
      },
      {
        "astId": 4151,
        "contract": "contracts/NFTicketsArbitration.sol:NFTicketsArbitration",
        "label": "voterToBallance",
        "offset": 0,
        "slot": "9",
        "type": "t_mapping(t_uint256,t_struct(Voter)4130_storage)"
      }
    ],
    "types": {
      "t_address": {
        "encoding": "inplace",
        "label": "address",
        "numberOfBytes": "20"
      },
      "t_array(t_address)dyn_storage": {
        "base": "t_address",
        "encoding": "dynamic_array",
        "label": "address[]",
        "numberOfBytes": "32"
      },
      "t_array(t_int64)dyn_storage": {
        "base": "t_int64",
        "encoding": "dynamic_array",
        "label": "int64[]",
        "numberOfBytes": "32"
      },
      "t_array(t_string_storage)dyn_storage": {
        "base": "t_string_storage",
        "encoding": "dynamic_array",
        "label": "string[]",
        "numberOfBytes": "32"
      },
      "t_array(t_uint256)dyn_storage": {
        "base": "t_uint256",
        "encoding": "dynamic_array",
        "label": "uint256[]",
        "numberOfBytes": "32"
      },
      "t_array(t_uint8)dyn_storage": {
        "base": "t_uint8",
        "encoding": "dynamic_array",
        "label": "uint8[]",
        "numberOfBytes": "32"
      },
      "t_bool": {
        "encoding": "inplace",
        "label": "bool",
        "numberOfBytes": "1"
      },
      "t_contract(NFTicketsMarket)7679": {
        "encoding": "inplace",
        "label": "contract NFTicketsMarket",
        "numberOfBytes": "20"
      },
      "t_contract(NFTicketsTic)8089": {
        "encoding": "inplace",
        "label": "contract NFTicketsTic",
        "numberOfBytes": "20"
      },
      "t_int64": {
        "encoding": "inplace",
        "label": "int64",
        "numberOfBytes": "8"
      },
      "t_mapping(t_uint256,t_struct(Decision)4125_storage)": {
        "encoding": "mapping",
        "key": "t_uint256",
        "label": "mapping(uint256 => struct NFTicketsArbitration.Decision)",
        "numberOfBytes": "32",
        "value": "t_struct(Decision)4125_storage"
      },
      "t_mapping(t_uint256,t_struct(Dispute)4114_storage)": {
        "encoding": "mapping",
        "key": "t_uint256",
        "label": "mapping(uint256 => struct NFTicketsArbitration.Dispute)",
        "numberOfBytes": "32",
        "value": "t_struct(Dispute)4114_storage"
      },
      "t_mapping(t_uint256,t_struct(Voter)4130_storage)": {
        "encoding": "mapping",
        "key": "t_uint256",
        "label": "mapping(uint256 => struct NFTicketsArbitration.Voter)",
        "numberOfBytes": "32",
        "value": "t_struct(Voter)4130_storage"
      },
      "t_string_storage": {
        "encoding": "bytes",
        "label": "string",
        "numberOfBytes": "32"
      },
      "t_struct(Decision)4125_storage": {
        "encoding": "inplace",
        "label": "struct NFTicketsArbitration.Decision",
        "members": [
          {
            "astId": 4117,
            "contract": "contracts/NFTicketsArbitration.sol:NFTicketsArbitration",
            "label": "voter",
            "offset": 0,
            "slot": "0",
            "type": "t_array(t_address)dyn_storage"
          },
          {
            "astId": 4120,
            "contract": "contracts/NFTicketsArbitration.sol:NFTicketsArbitration",
            "label": "decision",
            "offset": 0,
            "slot": "1",
            "type": "t_array(t_uint8)dyn_storage"
          },
          {
            "astId": 4122,
            "contract": "contracts/NFTicketsArbitration.sol:NFTicketsArbitration",
            "label": "outcome",
            "offset": 0,
            "slot": "2",
            "type": "t_uint8"
          },
          {
            "astId": 4124,
            "contract": "contracts/NFTicketsArbitration.sol:NFTicketsArbitration",
            "label": "processingStatus",
            "offset": 1,
            "slot": "2",
            "type": "t_bool"
          }
        ],
        "numberOfBytes": "96"
      },
      "t_struct(Dispute)4114_storage": {
        "encoding": "inplace",
        "label": "struct NFTicketsArbitration.Dispute",
        "members": [
          {
            "astId": 4093,
            "contract": "contracts/NFTicketsArbitration.sol:NFTicketsArbitration",
            "label": "itemId",
            "offset": 0,
            "slot": "0",
            "type": "t_uint256"
          },
          {
            "astId": 4095,
            "contract": "contracts/NFTicketsArbitration.sol:NFTicketsArbitration",
            "label": "shapshotId",
            "offset": 0,
            "slot": "1",
            "type": "t_uint256"
          },
          {
            "astId": 4098,
            "contract": "contracts/NFTicketsArbitration.sol:NFTicketsArbitration",
            "label": "disputers",
            "offset": 0,
            "slot": "2",
            "type": "t_array(t_address)dyn_storage"
          },
          {
            "astId": 4101,
            "contract": "contracts/NFTicketsArbitration.sol:NFTicketsArbitration",
            "label": "disputerLat",
            "offset": 0,
            "slot": "3",
            "type": "t_array(t_int64)dyn_storage"
          },
          {
            "astId": 4104,
            "contract": "contracts/NFTicketsArbitration.sol:NFTicketsArbitration",
            "label": "disputerLon",
            "offset": 0,
            "slot": "4",
            "type": "t_array(t_int64)dyn_storage"
          },
          {
            "astId": 4107,
            "contract": "contracts/NFTicketsArbitration.sol:NFTicketsArbitration",
            "label": "disputerTime",
            "offset": 0,
            "slot": "5",
            "type": "t_array(t_uint256)dyn_storage"
          },
          {
            "astId": 4110,
            "contract": "contracts/NFTicketsArbitration.sol:NFTicketsArbitration",
            "label": "disputerReason",
            "offset": 0,
            "slot": "6",
            "type": "t_array(t_uint8)dyn_storage"
          },
          {
            "astId": 4113,
            "contract": "contracts/NFTicketsArbitration.sol:NFTicketsArbitration",
            "label": "disputerEvidence",
            "offset": 0,
            "slot": "7",
            "type": "t_array(t_string_storage)dyn_storage"
          }
        ],
        "numberOfBytes": "256"
      },
      "t_struct(Voter)4130_storage": {
        "encoding": "inplace",
        "label": "struct NFTicketsArbitration.Voter",
        "members": [
          {
            "astId": 4127,
            "contract": "contracts/NFTicketsArbitration.sol:NFTicketsArbitration",
            "label": "voterAddress",
            "offset": 0,
            "slot": "0",
            "type": "t_address"
          },
          {
            "astId": 4129,
            "contract": "contracts/NFTicketsArbitration.sol:NFTicketsArbitration",
            "label": "balance",
            "offset": 0,
            "slot": "1",
            "type": "t_uint256"
          }
        ],
        "numberOfBytes": "64"
      },
      "t_uint256": {
        "encoding": "inplace",
        "label": "uint256",
        "numberOfBytes": "32"
      },
      "t_uint8": {
        "encoding": "inplace",
        "label": "uint8",
        "numberOfBytes": "1"
      }
    }
  }
}