{
  "address": "0x83D00dd68DEF03513A265F33C738649798FaF44E",
  "abi": [
    {
      "inputs": [
        {
          "internalType": "address",
          "name": "_owner",
          "type": "address"
        },
        {
          "internalType": "address",
          "name": "_utils",
          "type": "address"
        }
      ],
      "stateMutability": "nonpayable",
      "type": "constructor"
    },
    {
      "inputs": [],
      "name": "AlreadyRefunded",
      "type": "error"
    },
    {
      "inputs": [],
      "name": "InvalidSignatureLength",
      "type": "error"
    },
    {
      "inputs": [],
      "name": "InvalidStatus",
      "type": "error"
    },
    {
      "inputs": [],
      "name": "ItemNotListed",
      "type": "error"
    },
    {
      "inputs": [],
      "name": "ItemSoldOut",
      "type": "error"
    },
    {
      "inputs": [],
      "name": "NoBuyers",
      "type": "error"
    },
    {
      "inputs": [],
      "name": "NoLongerOnSale",
      "type": "error"
    },
    {
      "inputs": [],
      "name": "NoSales",
      "type": "error"
    },
    {
      "inputs": [],
      "name": "Not20PercentOfListing",
      "type": "error"
    },
    {
      "inputs": [],
      "name": "NotAskingPrice",
      "type": "error"
    },
    {
      "inputs": [],
      "name": "NotDisputed",
      "type": "error"
    },
    {
      "inputs": [],
      "name": "NotEnoughItemsForSale",
      "type": "error"
    },
    {
      "inputs": [],
      "name": "NotEnoughTokensForListing",
      "type": "error"
    },
    {
      "inputs": [],
      "name": "NotOriginalSeller",
      "type": "error"
    },
    {
      "inputs": [],
      "name": "NotOwner",
      "type": "error"
    },
    {
      "inputs": [],
      "name": "NothingToRefundHere",
      "type": "error"
    },
    {
      "inputs": [],
      "name": "SellerOnlyFunction",
      "type": "error"
    },
    {
      "anonymous": false,
      "inputs": [
        {
          "indexed": true,
          "internalType": "uint256",
          "name": "itemId",
          "type": "uint256"
        },
        {
          "indexed": true,
          "internalType": "address",
          "name": "nftContract",
          "type": "address"
        },
        {
          "indexed": true,
          "internalType": "uint256",
          "name": "tokenId",
          "type": "uint256"
        },
        {
          "indexed": false,
          "internalType": "string",
          "name": "name",
          "type": "string"
        },
        {
          "indexed": false,
          "internalType": "address",
          "name": "seller",
          "type": "address"
        },
        {
          "indexed": false,
          "internalType": "address",
          "name": "owner",
          "type": "address"
        },
        {
          "indexed": false,
          "internalType": "uint256",
          "name": "price",
          "type": "uint256"
        },
        {
          "indexed": false,
          "internalType": "uint256",
          "name": "amount",
          "type": "uint256"
        },
        {
          "indexed": false,
          "internalType": "uint256",
          "name": "initialQuantity",
          "type": "uint256"
        },
        {
          "indexed": false,
          "internalType": "uint256",
          "name": "totalSales",
          "type": "uint256"
        },
        {
          "indexed": false,
          "internalType": "uint8",
          "name": "status",
          "type": "uint8"
        },
        {
          "indexed": false,
          "internalType": "uint256",
          "name": "finalCommision",
          "type": "uint256"
        }
      ],
      "name": "MarketItemCreated",
      "type": "event"
    },
    {
      "inputs": [],
      "name": "_itemIds",
      "outputs": [
        {
          "internalType": "uint256",
          "name": "_value",
          "type": "uint256"
        }
      ],
      "stateMutability": "view",
      "type": "function"
    },
    {
      "inputs": [],
      "name": "_itemsSold",
      "outputs": [
        {
          "internalType": "uint256",
          "name": "_value",
          "type": "uint256"
        }
      ],
      "stateMutability": "view",
      "type": "function"
    },
    {
      "inputs": [
        {
          "internalType": "address",
          "name": "",
          "type": "address"
        },
        {
          "internalType": "uint256",
          "name": "",
          "type": "uint256"
        }
      ],
      "name": "addressToSpending",
      "outputs": [
        {
          "internalType": "uint256",
          "name": "",
          "type": "uint256"
        }
      ],
      "stateMutability": "view",
      "type": "function"
    },
    {
      "inputs": [
        {
          "internalType": "address",
          "name": "nftContract",
          "type": "address"
        },
        {
          "internalType": "uint256",
          "name": "itemId",
          "type": "uint256"
        },
        {
          "internalType": "uint256",
          "name": "amount",
          "type": "uint256"
        },
        {
          "internalType": "bytes",
          "name": "data",
          "type": "bytes"
        }
      ],
      "name": "buyMarketItem",
      "outputs": [],
      "stateMutability": "payable",
      "type": "function"
    },
    {
      "inputs": [
        {
          "internalType": "uint256",
          "name": "_marketItem",
          "type": "uint256"
        },
        {
          "internalType": "uint8",
          "name": "_newStatus",
          "type": "uint8"
        }
      ],
      "name": "changeStatus",
      "outputs": [],
      "stateMutability": "nonpayable",
      "type": "function"
    },
    {
      "inputs": [
        {
          "internalType": "uint256",
          "name": "id",
          "type": "uint256"
        }
      ],
      "name": "checkRemaining",
      "outputs": [
        {
          "internalType": "uint256",
          "name": "",
          "type": "uint256"
        }
      ],
      "stateMutability": "view",
      "type": "function"
    },
    {
      "inputs": [],
      "name": "fetchItemsOnSale",
      "outputs": [
        {
          "components": [
            {
              "internalType": "uint256",
              "name": "itemId",
              "type": "uint256"
            },
            {
              "internalType": "address",
              "name": "nftContract",
              "type": "address"
            },
            {
              "internalType": "uint256",
              "name": "tokenId",
              "type": "uint256"
            },
            {
              "internalType": "string",
              "name": "name",
              "type": "string"
            },
            {
              "internalType": "address payable",
              "name": "seller",
              "type": "address"
            },
            {
              "internalType": "address payable",
              "name": "owner",
              "type": "address"
            },
            {
              "internalType": "uint256",
              "name": "price",
              "type": "uint256"
            },
            {
              "internalType": "uint256",
              "name": "amount",
              "type": "uint256"
            },
            {
              "internalType": "uint256",
              "name": "initialQuantity",
              "type": "uint256"
            },
            {
              "internalType": "uint256",
              "name": "totalSales",
              "type": "uint256"
            },
            {
              "internalType": "uint8",
              "name": "status",
              "type": "uint8"
            },
            {
              "internalType": "uint256",
              "name": "finalCommision",
              "type": "uint256"
            }
          ],
          "internalType": "struct NFTicketsMarket.MarketItem[]",
          "name": "",
          "type": "tuple[]"
        }
      ],
      "stateMutability": "view",
      "type": "function"
    },
    {
      "inputs": [],
      "name": "fetchMyNFTs",
      "outputs": [
        {
          "components": [
            {
              "internalType": "uint256",
              "name": "itemId",
              "type": "uint256"
            },
            {
              "internalType": "address",
              "name": "nftContract",
              "type": "address"
            },
            {
              "internalType": "uint256",
              "name": "tokenId",
              "type": "uint256"
            },
            {
              "internalType": "string",
              "name": "name",
              "type": "string"
            },
            {
              "internalType": "address payable",
              "name": "seller",
              "type": "address"
            },
            {
              "internalType": "address payable",
              "name": "owner",
              "type": "address"
            },
            {
              "internalType": "uint256",
              "name": "price",
              "type": "uint256"
            },
            {
              "internalType": "uint256",
              "name": "amount",
              "type": "uint256"
            },
            {
              "internalType": "uint256",
              "name": "initialQuantity",
              "type": "uint256"
            },
            {
              "internalType": "uint256",
              "name": "totalSales",
              "type": "uint256"
            },
            {
              "internalType": "uint8",
              "name": "status",
              "type": "uint8"
            },
            {
              "internalType": "uint256",
              "name": "finalCommision",
              "type": "uint256"
            }
          ],
          "internalType": "struct NFTicketsMarket.MarketItem[]",
          "name": "",
          "type": "tuple[]"
        }
      ],
      "stateMutability": "view",
      "type": "function"
    },
    {
      "inputs": [
        {
          "internalType": "address",
          "name": "user",
          "type": "address"
        }
      ],
      "name": "fetchUserNFTs",
      "outputs": [
        {
          "components": [
            {
              "internalType": "uint256",
              "name": "itemId",
              "type": "uint256"
            },
            {
              "internalType": "address",
              "name": "nftContract",
              "type": "address"
            },
            {
              "internalType": "uint256",
              "name": "tokenId",
              "type": "uint256"
            },
            {
              "internalType": "uint256",
              "name": "price",
              "type": "uint256"
            },
            {
              "internalType": "uint256",
              "name": "amount",
              "type": "uint256"
            }
          ],
          "internalType": "struct NFTicketsMarket.MyItems[]",
          "name": "",
          "type": "tuple[]"
        }
      ],
      "stateMutability": "view",
      "type": "function"
    },
    {
      "inputs": [
        {
          "internalType": "uint256",
          "name": "marketItemId",
          "type": "uint256"
        }
      ],
      "name": "getMarketItem",
      "outputs": [
        {
          "components": [
            {
              "internalType": "uint256",
              "name": "itemId",
              "type": "uint256"
            },
            {
              "internalType": "address",
              "name": "nftContract",
              "type": "address"
            },
            {
              "internalType": "uint256",
              "name": "tokenId",
              "type": "uint256"
            },
            {
              "internalType": "string",
              "name": "name",
              "type": "string"
            },
            {
              "internalType": "address payable",
              "name": "seller",
              "type": "address"
            },
            {
              "internalType": "address payable",
              "name": "owner",
              "type": "address"
            },
            {
              "internalType": "uint256",
              "name": "price",
              "type": "uint256"
            },
            {
              "internalType": "uint256",
              "name": "amount",
              "type": "uint256"
            },
            {
              "internalType": "uint256",
              "name": "initialQuantity",
              "type": "uint256"
            },
            {
              "internalType": "uint256",
              "name": "totalSales",
              "type": "uint256"
            },
            {
              "internalType": "uint8",
              "name": "status",
              "type": "uint8"
            },
            {
              "internalType": "uint256",
              "name": "finalCommision",
              "type": "uint256"
            }
          ],
          "internalType": "struct NFTicketsMarket.MarketItem",
          "name": "",
          "type": "tuple"
        }
      ],
      "stateMutability": "view",
      "type": "function"
    },
    {
      "inputs": [
        {
          "internalType": "uint256",
          "name": "_itemId",
          "type": "uint256"
        }
      ],
      "name": "getTokenByMarketId",
      "outputs": [
        {
          "internalType": "uint256",
          "name": "",
          "type": "uint256"
        }
      ],
      "stateMutability": "view",
      "type": "function"
    },
    {
      "inputs": [
        {
          "internalType": "uint256",
          "name": "_itemId",
          "type": "uint256"
        }
      ],
      "name": "getTotalSalesByMarketId",
      "outputs": [
        {
          "internalType": "uint256",
          "name": "",
          "type": "uint256"
        }
      ],
      "stateMutability": "view",
      "type": "function"
    },
    {
      "inputs": [
        {
          "internalType": "uint256",
          "name": "_itemId",
          "type": "uint256"
        },
        {
          "internalType": "bytes",
          "name": "_sig",
          "type": "bytes"
        },
        {
          "internalType": "address",
          "name": "nftContract",
          "type": "address"
        }
      ],
      "name": "hostActions",
      "outputs": [
        {
          "internalType": "string",
          "name": "",
          "type": "string"
        }
      ],
      "stateMutability": "view",
      "type": "function"
    },
    {
      "inputs": [
        {
          "internalType": "address",
          "name": "nftContract",
          "type": "address"
        },
        {
          "internalType": "uint256",
          "name": "tokenId",
          "type": "uint256"
        },
        {
          "internalType": "uint256",
          "name": "amount",
          "type": "uint256"
        },
        {
          "internalType": "bytes",
          "name": "data",
          "type": "bytes"
        },
        {
          "internalType": "string",
          "name": "name",
          "type": "string"
        }
      ],
      "name": "listMoreOfMarketItem",
      "outputs": [],
      "stateMutability": "payable",
      "type": "function"
    },
    {
      "inputs": [
        {
          "internalType": "address",
          "name": "nftContract",
          "type": "address"
        },
        {
          "internalType": "uint256",
          "name": "tokenId",
          "type": "uint256"
        },
        {
          "internalType": "uint256",
          "name": "amount",
          "type": "uint256"
        },
        {
          "internalType": "bytes",
          "name": "data",
          "type": "bytes"
        },
        {
          "internalType": "string",
          "name": "name",
          "type": "string"
        }
      ],
      "name": "listNewMarketItem",
      "outputs": [],
      "stateMutability": "payable",
      "type": "function"
    },
    {
      "inputs": [
        {
          "internalType": "address",
          "name": "",
          "type": "address"
        },
        {
          "internalType": "address",
          "name": "",
          "type": "address"
        },
        {
          "internalType": "uint256[]",
          "name": "",
          "type": "uint256[]"
        },
        {
          "internalType": "uint256[]",
          "name": "",
          "type": "uint256[]"
        },
        {
          "internalType": "bytes",
          "name": "",
          "type": "bytes"
        }
      ],
      "name": "onERC1155BatchReceived",
      "outputs": [
        {
          "internalType": "bytes4",
          "name": "",
          "type": "bytes4"
        }
      ],
      "stateMutability": "nonpayable",
      "type": "function"
    },
    {
      "inputs": [
        {
          "internalType": "address",
          "name": "",
          "type": "address"
        },
        {
          "internalType": "address",
          "name": "",
          "type": "address"
        },
        {
          "internalType": "uint256",
          "name": "",
          "type": "uint256"
        },
        {
          "internalType": "uint256",
          "name": "",
          "type": "uint256"
        },
        {
          "internalType": "bytes",
          "name": "",
          "type": "bytes"
        }
      ],
      "name": "onERC1155Received",
      "outputs": [
        {
          "internalType": "bytes4",
          "name": "",
          "type": "bytes4"
        }
      ],
      "stateMutability": "nonpayable",
      "type": "function"
    },
    {
      "inputs": [],
      "name": "paySellers",
      "outputs": [],
      "stateMutability": "payable",
      "type": "function"
    },
    {
      "inputs": [
        {
          "internalType": "uint256",
          "name": "marketItem",
          "type": "uint256"
        }
      ],
      "name": "refundWithPenalty",
      "outputs": [],
      "stateMutability": "nonpayable",
      "type": "function"
    },
    {
      "inputs": [
        {
          "internalType": "uint256",
          "name": "marketItem",
          "type": "uint256"
        }
      ],
      "name": "sellerRefundAll",
      "outputs": [],
      "stateMutability": "nonpayable",
      "type": "function"
    },
    {
      "inputs": [
        {
          "internalType": "uint256",
          "name": "marketItem",
          "type": "uint256"
        },
        {
          "internalType": "address",
          "name": "buyer",
          "type": "address"
        }
      ],
      "name": "sellerRefundOne",
      "outputs": [],
      "stateMutability": "nonpayable",
      "type": "function"
    },
    {
      "inputs": [
        {
          "internalType": "address",
          "name": "",
          "type": "address"
        },
        {
          "internalType": "uint256",
          "name": "",
          "type": "uint256"
        }
      ],
      "name": "sellerToDepositPerItem",
      "outputs": [
        {
          "internalType": "uint256",
          "name": "",
          "type": "uint256"
        }
      ],
      "stateMutability": "view",
      "type": "function"
    },
    {
      "inputs": [
        {
          "internalType": "bytes4",
          "name": "interfaceId",
          "type": "bytes4"
        }
      ],
      "name": "supportsInterface",
      "outputs": [
        {
          "internalType": "bool",
          "name": "",
          "type": "bool"
        }
      ],
      "stateMutability": "view",
      "type": "function"
    }
  ],
  "transactionHash": "0xe6a713d70f05e298e3b0559988835308dd8804c00e3a6826aee00ccbd9a76955",
  "args": [
    "0x7f9D380C728214B61e23726402Fd2710EaFb422D",
    "0x13e63b5CA0bA046b5A9cA5C9E59499E65efB72e2"
  ],
  "numDeployments": 6,
  "solcInputHash": "d7aafa8ef1b5249c8d5aa278919046f3",
  "bytecode": "0x60a06040523480156200001157600080fd5b50604051620041093803806200410983398101604081905262000034916200009c565b60016000556001600160a01b03918216608052600380546001600160a01b03191691909216179055620000df565b60006001600160a01b0382165b92915050565b620000808162000062565b81146200008c57600080fd5b50565b80516200006f8162000075565b60008060408385031215620000b457620000b4600080fd5b6000620000c285856200008f565b9250506020620000d5858286016200008f565b9150509250929050565b608051613ff26200011760003960008181610f12015281816111ee0152818161199201528181611ffd01526124760152613ff26000f3fe6080604052600436106101405760003560e01c8063a64fc3fa116100b6578063c76e080a1161006f578063c76e080a1461038c578063c7be7a49146103bc578063db7ee6e9146103e9578063f23a6e61146103fc578063f3b3100714610428578063fb59a2481461044857600080fd5b8063a64fc3fa146102e2578063ab15f9d5146102f7578063b2bf04a31461030a578063bc197c8114610312578063bd68b1171461033f578063c5a8a2ab1461036c57600080fd5b806334a7f1931161010857806334a7f1931461020f578063603fc0ee14610226578063626f1bb5146102465780636bbd513c146102665780638396f1591461029e57806387506a0d146102cb57600080fd5b806301ffc9a714610145578063135e175c1461017b578063202e3740146101a857806329ec26e8146101ca5780632c58c1f9146101fa575b600080fd5b34801561015157600080fd5b50610165610160366004613319565b610480565b6040516101729190613344565b60405180910390f35b34801561018757600080fd5b5061019b610196366004613363565b6104b7565b604051610172919061338a565b3480156101b457600080fd5b506101bd6104da565b604051610172919061358c565b3480156101d657600080fd5b5061019b6101e5366004613363565b60009081526004602052604090206002015490565b61020d6102083660046136a2565b610775565b005b34801561021b57600080fd5b5060015461019b9081565b34801561023257600080fd5b5061020d610241366004613363565b610cba565b34801561025257600080fd5b5061020d610261366004613363565b610f07565b34801561027257600080fd5b5061019b61028136600461374e565b600760209081526000928352604080842090915290825290205481565b3480156102aa57600080fd5b506102be6102b936600461378b565b61130f565b60405161017291906137f5565b3480156102d757600080fd5b5060025461019b9081565b3480156102ee57600080fd5b506101bd611373565b61020d610305366004613806565b611687565b61020d611987565b34801561031e57600080fd5b5061033261032d366004613926565b612096565b60405161017291906139c4565b34801561034b57600080fd5b5061035f61035a3660046139d2565b6120a8565b6040516101729190613aad565b34801561037857600080fd5b5061020d610387366004613ad2565b61246b565b34801561039857600080fd5b5061019b6103a7366004613363565b60009081526004602052604090206007015490565b3480156103c857600080fd5b506103dc6103d7366004613363565b6124fd565b6040516101729190613b05565b61020d6103f73660046136a2565b612646565b34801561040857600080fd5b50610332610417366004613b16565b63f23a6e6160e01b95945050505050565b34801561043457600080fd5b5061020d610443366004613b70565b612b91565b34801561045457600080fd5b5061019b61046336600461374e565b600660209081526000928352604080842090915290825290205481565b60006001600160e01b03198216630271189760e51b14806104b157506301ffc9a760e01b6001600160e01b03198316145b92915050565b600081815260046020526040812060078101546008909101546104b19190613bb9565b606060006104e760015490565b905060008060005b83811015610549573360046000610507846001613bd0565b81526020810191909152604001600020600401546001600160a01b03160361053757610534600184613bd0565b92505b8061054181613be8565b9150506104ef565b506000826001600160401b03811115610564576105646135b1565b60405190808252806020026020018201604052801561059d57816020015b61058a6131dc565b8152602001906001900390816105825790505b50905060005b8481101561076c5733600460006105bb846001613bd0565b81526020810191909152604001600020600401546001600160a01b03160361075a5760006105ea826001613bd0565b6000818152600460209081526040918290208251610180810184528154815260018201546001600160a01b03169281019290925260028101549282019290925260038201805493945091929091839160608401919061064890613c18565b80601f016020809104026020016040519081016040528092919081815260200182805461067490613c18565b80156106c15780601f10610696576101008083540402835291602001916106c1565b820191906000526020600020905b8154815290600101906020018083116106a457829003601f168201915b505050918352505060048201546001600160a01b03908116602083015260058301541660408201526006820154606082015260078201546080820152600882015460a0820152600982015460c0820152600a82015460ff1660e0820152600b9091015461010090910152845185908790811061073f5761073f613c44565b6020908102919091010152610755600186613bd0565b945050505b8061076481613be8565b9150506105a3565b50949350505050565b6002600054036107a05760405162461bcd60e51b815260040161079790613c91565b60405180910390fd5b600260009081556107b18686612cac565b116107cf5760405163d46afe9f60e01b815260040160405180910390fd5b600460006107dd8787612cac565b81526020019081526020016000206007015460000361080e576040516254585f60e71b815260040160405180910390fd5b6004600061081c8787612cac565b81526020810191909152604001600020600401546001600160a01b0316331461085857604051633752272760e11b815260040160405180910390fd5b60035460405163449e815d60e01b815260059185916001600160a01b039091169063047abed790829063449e815d90610897908c908c90600401613ca1565b602060405180830381865afa1580156108b4573d6000803e3d6000fd5b505050506040513d601f19601f820116820180604052508101906108d89190613cc7565b6040518263ffffffff1660e01b81526004016108f4919061338a565b602060405180830381865afa158015610911573d6000803e3d6000fd5b505050506040513d601f19601f820116820180604052508101906109359190613cc7565b61093f9190613ce8565b6109499190613d1d565b341461096857604051633bd1213d60e21b815260040160405180910390fd5b604051627eeac760e11b8152859084906001600160a01b0383169062fdd58e906109989033908a90600401613ca1565b602060405180830381865afa1580156109b5573d6000803e3d6000fd5b505050506040513d601f19601f820116820180604052508101906109d99190613cc7565b10156109f857604051632f43231960e11b815260040160405180910390fd5b6000610a048787612cac565b60008181526004602052604081206007015491925090610a25908790613bd0565b60008381526004602052604081206008015491925090610a46908890613bd0565b60408051610180810182528581526001600160a01b03808d1660208301528183018c905260608201899052336080830152600060a0830152600354925163449e815d60e01b8152939450909260c08401929091169063449e815d90610ab1908e908e90600401613ca1565b602060405180830381865afa158015610ace573d6000803e3d6000fd5b505050506040513d601f19601f82011682018060405250810190610af29190613cc7565b8152602080820185905260408083018590526000878152600480845282822060098101546060808801919091526080870184905260a090960183905291899052835284518155848301516001820180546001600160a01b0319166001600160a01b03909216919091179055908401516002820155918301518051610b7c926003850192019061325b565b506080820151600482810180546001600160a01b03199081166001600160a01b039485161790915560a085015160058501805490921690841617905560c0840151600684015560e0840151600784015561010084015160088401556101208401516009840155610140840151600a8401805460ff191660ff90921691909117905561016090930151600b90920191909155604051634c6784ad60e11b8152908616916398cf095a91610c3891339130918e918e918e9101613d31565b600060405180830381600087803b158015610c5257600080fd5b505af1158015610c66573d6000803e3d6000fd5b5050336000908152600760209081526040808320888452909152902054610c909250349150613bd0565b33600090815260076020908152604080832096835295905293842055505060019055505050505050565b600260005403610cdc5760405162461bcd60e51b815260040161079790613c91565b6002600090815581815260046020819052604090912001546001600160a01b03163314610d1c5760405163c5c0a87960e01b815260040160405180910390fd5b6000818152600460205260409020600781015460089091015403610d53576040516304d8dbfb60e41b815260040160405180910390fd5b600081815260056020526040812054905b81811015610e8c576000838152600560205260409020805482908110610d8c57610d8c613c44565b600091825260208083209091015485835260059091526040822080546001600160a01b03909216926108fc926006929086908110610dcc57610dcc613c44565b60009182526020808320909101546001600160a01b0316835282810193909352604091820181208882529092528082205490518115909302929091818181858888f19350505050158015610e24573d6000803e3d6000fd5b5060008381526005602052604081208054600691839185908110610e4a57610e4a613c44565b60009182526020808320909101546001600160a01b03168352828101939093526040918201812087825290925290205580610e8481613be8565b915050610d64565b506000828152600460209081526040918290209151610eaf926003019101613df1565b60408051601f198184030181529181526000848152600460209081529190208251610ee3936003909201929091019061325b565b50506000908152600460205260408120600a01805460ff1916600617905560019055565b336001600160a01b037f00000000000000000000000000000000000000000000000000000000000000001614610f50576040516330cd747160e01b815260040160405180910390fd5b600260005403610f725760405162461bcd60e51b815260040161079790613c91565b60026000908155818152600460208190526040909120600a015460ff1614610fad576040516310cec38560e21b815260040160405180910390fd5b600081815260056020526040902054610fd9576040516312d5368b60e21b815260040160405180910390fd5b6000818152600460205260409020600b0154156110095760405163542f378d60e11b815260040160405180910390fd5b60008181526005602090815260408083205460049283905290832082015490919061103d906001600160a01b031685612d4d565b6110479190613d1d565b611052906003613ce8565b61105c9190613d1d565b600083815260046020819052604082208101549293509091611087906001600160a01b031685612d4d565b6110919190613d1d565b6000848152600460209081526040808320600b0184905560059091528120549192505b818110156111e85760008581526005602052604090208054829081106110dc576110dc613c44565b600091825260208083209091015487835260059091526040822080546001600160a01b03909216926108fc928892600692918790811061111e5761111e613c44565b60009182526020808320909101546001600160a01b0316835282810193909352604091820181208b82529092529020546111589190613bd0565b6040518115909202916000818181858888f19350505050158015611180573d6000803e3d6000fd5b50600085815260056020526040812080546006918391859081106111a6576111a6613c44565b60009182526020808320909101546001600160a01b031683528281019390935260409182018120898252909252902055806111e081613be8565b9150506110b4565b506000807f00000000000000000000000000000000000000000000000000000000000000006001600160a01b03168460405161122390613e13565b60006040518083038185875af1925050503d8060008114611260576040519150601f19603f3d011682016040523d82523d6000602084013e611265565b606091505b5091509150816112875760405162461bcd60e51b815260040161079790613e46565b6000868152600460208181526040808420808401546001600160a01b03168552600783528185208b865283528185209490945591815290516112cd926003019101613df1565b60408051601f198184030181529181526000888152600460209081529190208251611301936003909201929091019061325b565b505060016000555050505050565b6000838152600460205260408120600201546060919061132e90612d75565b9050600061133b82612e7d565b9050600061134882612ead565b905060006113568288612ec0565b90506113658185898b8a612f2f565b9450505050505b9392505050565b6060600061138060015490565b9050600061138d60025490565b60015461139a9190613bb9565b9050600080826001600160401b038111156113b7576113b76135b1565b6040519080825280602002602001820160405280156113f057816020015b6113dd6131dc565b8152602001906001900390816113d55790505b50905060005b8481101561076c57600060048161140e846001613bd0565b8152602081019190915260400160009081206001908101546001600160a01b0316925060049190611440908590613bd0565b81526020810191909152604001600020600a015460ff166006148015906114f25750426001600160a01b03821663117f02d760046000611481876001613bd0565b8152602001908152602001600020600201546040518263ffffffff1660e01b81526004016114af919061338a565b602060405180830381865afa1580156114cc573d6000803e3d6000fd5b505050506040513d601f19601f820116820180604052508101906114f09190613cc7565b115b15611674576000611504836001613bd0565b6000818152600460209081526040918290208251610180810184528154815260018201546001600160a01b03169281019290925260028101549282019290925260038201805493945091929091839160608401919061156290613c18565b80601f016020809104026020016040519081016040528092919081815260200182805461158e90613c18565b80156115db5780601f106115b0576101008083540402835291602001916115db565b820191906000526020600020905b8154815290600101906020018083116115be57829003601f168201915b505050918352505060048201546001600160a01b03908116602083015260058301541660408201526006820154606082015260078201546080820152600882015460a0820152600982015460c0820152600a82015460ff1660e0820152600b9091015461010090910152855186908890811061165957611659613c44565b602090810291909101015261166f600187613bd0565b955050505b508061167f81613be8565b9150506113f6565b6002600054036116a95760405162461bcd60e51b815260040161079790613c91565b60026000908155838152600460205260409020600701548211156116e05760405163fa3e06c960e01b815260040160405180910390fd5b60035460008481526004602081905260409182902060060154915163047abed760e01b815285936001600160a01b03169263047abed792611721920161338a565b602060405180830381865afa15801561173e573d6000803e3d6000fd5b505050506040513d601f19601f820116820180604052508101906117629190613cc7565b61176c9190613ce8565b341461178b57604051634fddbb8760e01b815260040160405180910390fd5b60008381526004602081905260409182902060020154915163117f02d760e01b8152869242926001600160a01b0385169263117f02d7926117ce9290910161338a565b602060405180830381865afa1580156117eb573d6000803e3d6000fd5b505050506040513d601f19601f8201168201806040525081019061180f9190613cc7565b1161182d5760405163d2bbe8a360e01b815260040160405180910390fd5b336000908152600660209081526040808320878452909152902054611853903490613bd0565b33600081815260066020908152604080832089845290915290209190915561187c908590613056565b600084815260046020819052604091829020600201549151634c6784ad60e11b81526001600160a01b038416926398cf095a926118c3923092339290918a918a9101613d31565b600060405180830381600087803b1580156118dd57600080fd5b505af11580156118f1573d6000803e3d6000fd5b50505060008581526004602052604090206007015461191291508490613bb9565b6000858152600460205260409020600781019190915560090154611937903490613bd0565b600085815260046020526040812060098101929092556005820180546001600160a01b03191633179055600790910154900361197b5761197b600280546001019055565b50506001600055505050565b336001600160a01b037f000000000000000000000000000000000000000000000000000000000000000016146119d0576040516330cd747160e01b815260040160405180910390fd5b6002600054036119f25760405162461bcd60e51b815260040161079790613c91565b60026000908155600154908080805b84811015611ab55760046000611a18836001613bd0565b81526020810191909152604001600020600a015460ff161580611a60575060046000611a45836001613bd0565b81526020810191909152604001600020600a015460ff166003145b80611a90575060046000611a75836001613bd0565b81526020810191909152604001600020600a015460ff166006145b15611aa357611aa0600185613bd0565b93505b80611aad81613be8565b915050611a01565b506000836001600160401b03811115611ad057611ad06135b1565b604051908082528060200260200182016040528015611af9578160200160208202803683370190505b50905060005b85811015611cce5760046000611b16836001613bd0565b81526020810191909152604001600020600a015460ff161580611b5e575060046000611b43836001613bd0565b81526020810191909152604001600020600a015460ff166003145b80611b8e575060046000611b73836001613bd0565b81526020810191909152604001600020600a015460ff166006145b15611cbc576000600481611ba3846001613bd0565b815260200190815260200160002060010160009054906101000a90046001600160a01b031690504262015180826001600160a01b031663117f02d760046000876001611bef9190613bd0565b8152602001908152602001600020600201546040518263ffffffff1660e01b8152600401611c1d919061338a565b602060405180830381865afa158015611c3a573d6000803e3d6000fd5b505050506040513d601f19601f82011682018060405250810190611c5e9190613cc7565b611c689190613bd0565b1015611cba5760046000611c7d846001613bd0565b815260200190815260200160002060000154838681518110611ca157611ca1613c44565b6020908102919091010152611cb7600186613bd0565b94505b505b80611cc681613be8565b915050611aff565b5060005b84811015611ff7576000611d4160046000858581518110611cf557611cf5613c44565b6020026020010151815260200190815260200160002060040160009054906101000a90046001600160a01b0316848481518110611d3457611d34613c44565b602002602001015161316b565b60046000858581518110611d5757611d57613c44565b6020026020010151815260200190815260200160002060090154611d7b9190613bd0565b90506004611de460046000868681518110611d9857611d98613c44565b6020026020010151815260200190815260200160002060040160009054906101000a90046001600160a01b0316858581518110611dd757611dd7613c44565b6020026020010151612d4d565b611dee9190613d1d565b60046000858581518110611e0457611e04613c44565b60200260200101518152602001908152602001600020600b01819055506004611e3c60046000868681518110611d9857611d98613c44565b611e469190613d1d565b611e509085613bd0565b9350600060046000858581518110611e6a57611e6a613c44565b602002602001015181526020019081526020016000206009018190555060006007600060046000878781518110611ea357611ea3613c44565b6020026020010151815260200190815260200160002060040160009054906101000a90046001600160a01b03166001600160a01b03166001600160a01b031681526020019081526020016000206000858581518110611f0457611f04613c44565b602002602001015181526020019081526020016000208190555060046000848481518110611f3457611f34613c44565b6020026020010151815260200190815260200160002060040160009054906101000a90046001600160a01b03166001600160a01b03166108fc829081150290604051600060405180830381858888f19350505050158015611f99573d6000803e3d6000fd5b50600160046000858581518110611fb257611fb2613c44565b60200260200101518152602001908152602001600020600a0160006101000a81548160ff021916908360ff160217905550508080611fef90613be8565b915050611cd2565b506000807f00000000000000000000000000000000000000000000000000000000000000006001600160a01b03168460405161203290613e13565b60006040518083038185875af1925050503d806000811461206f576040519150601f19603f3d011682016040523d82523d6000602084013e612074565b606091505b5091509150816113015760405162461bcd60e51b815260040161079790613e46565b63bc197c8160e01b5b95945050505050565b606060006120b560015490565b905060008060005b838110156121b55760006004816120d5846001613bd0565b815260200190815260200160002060010160009054906101000a90046001600160a01b031690506000816001600160a01b031662fdd58e896004600087600161211e9190613bd0565b8152602001908152602001600020600201546040518363ffffffff1660e01b815260040161214d929190613ca1565b602060405180830381865afa15801561216a573d6000803e3d6000fd5b505050506040513d601f19601f8201168201806040525081019061218e9190613cc7565b11156121a25761219f600185613bd0565b93505b50806121ad81613be8565b9150506120bd565b506000826001600160401b038111156121d0576121d06135b1565b60405190808252806020026020018201604052801561223c57816020015b6122296040518060a001604052806000815260200160006001600160a01b031681526020016000815260200160008152602001600081525090565b8152602001906001900390816121ee5790505b50905060005b8481101561246157600060048161225a846001613bd0565b815260200190815260200160002060010160009054906101000a90046001600160a01b031690506000816001600160a01b031662fdd58e8a600460008760016122a39190613bd0565b8152602001908152602001600020600201546040518363ffffffff1660e01b81526004016122d2929190613ca1565b602060405180830381865afa1580156122ef573d6000803e3d6000fd5b505050506040513d601f19601f820116820180604052508101906123139190613cc7565b111561244e576000612326836001613bd0565b905060006004600083815260200190815260200160002090506040518060a00160405280826000015481526020018260010160009054906101000a90046001600160a01b03166001600160a01b031681526020018260020154815260200182600601548152602001846001600160a01b031662fdd58e8d600460008a60016123ae9190613bd0565b8152602001908152602001600020600201546040518363ffffffff1660e01b81526004016123dd929190613ca1565b602060405180830381865afa1580156123fa573d6000803e3d6000fd5b505050506040513d601f19601f8201168201806040525081019061241e9190613cc7565b81525085878151811061243357612433613c44565b6020908102919091010152612449600187613bd0565b955050505b508061245981613be8565b915050612242565b5095945050505050565b336001600160a01b037f000000000000000000000000000000000000000000000000000000000000000016146124b4576040516330cd747160e01b815260040160405180910390fd5b60078160ff16106124d8576040516307a92f1960e51b815260040160405180910390fd5b600091825260046020526040909120600a01805460ff191660ff909216919091179055565b6125056131dc565b6000828152600460209081526040918290208251610180810184528154815260018201546001600160a01b03169281019290925260028101549282019290925260038201805491929160608401919061255d90613c18565b80601f016020809104026020016040519081016040528092919081815260200182805461258990613c18565b80156125d65780601f106125ab576101008083540402835291602001916125d6565b820191906000526020600020905b8154815290600101906020018083116125b957829003601f168201915b505050918352505060048201546001600160a01b03908116602083015260058301541660408201526006820154606082015260078201546080820152600882015460a0820152600982015460c0820152600a82015460ff1660e0820152600b909101546101009091015292915050565b6002600054036126685760405162461bcd60e51b815260040161079790613c91565b600260005560035460405163449e815d60e01b815260059185916001600160a01b039091169063047abed790829063449e815d906126ac908c908c90600401613ca1565b602060405180830381865afa1580156126c9573d6000803e3d6000fd5b505050506040513d601f19601f820116820180604052508101906126ed9190613cc7565b6040518263ffffffff1660e01b8152600401612709919061338a565b602060405180830381865afa158015612726573d6000803e3d6000fd5b505050506040513d601f19601f8201168201806040525081019061274a9190613cc7565b6127549190613ce8565b61275e9190613d1d565b341461277d57604051633bd1213d60e21b815260040160405180910390fd5b604051627eeac760e11b8152859084906001600160a01b0383169062fdd58e906127ad9033908a90600401613ca1565b602060405180830381865afa1580156127ca573d6000803e3d6000fd5b505050506040513d601f19601f820116820180604052508101906127ee9190613cc7565b101561280d57604051632f43231960e11b815260040160405180910390fd5b61281b600180546001019055565b600061282660015490565b60408051610180810182528281526001600160a01b03808b1660208301528183018a905260608201879052336080830152600060a0830152600354925163449e815d60e01b8152939450909260c08401929091169063449e815d90612891908c908c90600401613ca1565b602060405180830381865afa1580156128ae573d6000803e3d6000fd5b505050506040513d601f19601f820116820180604052508101906128d29190613cc7565b815260208082018890526040808301899052600060608085018290526080850182905260a09094018190528581526004835281902084518155848301516001820180546001600160a01b0319166001600160a01b0390921691909117905590840151600282015591830151805161294f926003850192019061325b565b5060808201518160040160006101000a8154816001600160a01b0302191690836001600160a01b0316021790555060a08201518160050160006101000a8154816001600160a01b0302191690836001600160a01b0316021790555060c0820151816006015560e082015181600701556101008201518160080155610120820151816009015561014082015181600a0160006101000a81548160ff021916908360ff16021790555061016082015181600b015590505085876001600160a01b0316827fc769733b5428a14f5f070c227800de113aafafd8ca5a3073e655cb88ede6ed3e86336000600360009054906101000a90046001600160a01b03166001600160a01b031663449e815d8f8f6040518363ffffffff1660e01b8152600401612a78929190613ca1565b602060405180830381865afa158015612a95573d6000803e3d6000fd5b505050506040513d601f19601f82011682018060405250810190612ab99190613cc7565b8c8d6000806000604051612ad599989796959493929190613e7f565b60405180910390a4604051634c6784ad60e11b81526001600160a01b038316906398cf095a90612b1190339030908b908b908b90600401613d31565b600060405180830381600087803b158015612b2b57600080fd5b505af1158015612b3f573d6000803e3d6000fd5b5050336000908152600760209081526040808320868452909152902054612b699250349150613bd0565b3360009081526007602090815260408083209483529390529182205560019055505050505050565b600260005403612bb35760405162461bcd60e51b815260040161079790613c91565b6002600090815582815260046020819052604090912001546001600160a01b03163314612bf35760405163c5c0a87960e01b815260040160405180910390fd5b6001600160a01b0381166000908152600660209081526040808320858452909152902054612c345760405163138874af60e01b815260040160405180910390fd5b6001600160a01b038116600081815260066020908152604080832086845290915280822054905181156108fc0292818181858888f19350505050158015612c7f573d6000803e3d6000fd5b506001600160a01b0316600090815260066020908152604080832093835292905290812081905560019055565b600080612cb860015490565b90506000805b8281101561076c576001600160a01b03861660046000612cdf846001613bd0565b81526020810191909152604001600020600101546001600160a01b0316148015612d2857508460046000612d14846001613bd0565b815260200190815260200160002060020154145b15612d3b57612d38816001613bd0565b91505b80612d4581613be8565b915050612cbe565b6001600160a01b03919091166000908152600760209081526040808320938352929052205490565b606081600003612d9c5750506040805180820190915260018152600360fc1b602082015290565b8160005b8115612dc65780612db081613be8565b9150612dbf9050600a83613d1d565b9150612da0565b6000816001600160401b03811115612de057612de06135b1565b6040519080825280601f01601f191660200182016040528015612e0a576020820181803683370190505b5090505b8415612e7557612e1f600183613bb9565b9150612e2c600a86613f0a565b612e37906030613bd0565b60f81b818381518110612e4c57612e4c613c44565b60200101906001600160f81b031916908160001a905350612e6e600a86613d1d565b9450612e0e565b949350505050565b600081604051602001612e909190613f40565b604051602081830303815290604052805190602001209050919050565b600081604051602001612e909190613f4c565b600080600080612ecf85613197565b92509250925060018682858560405160008152602001604052604051612ef89493929190613f87565b6020604051602081039080840390855afa158015612f1a573d6000803e3d6000fd5b5050604051601f190151979650505050505050565b60606000612f3c86612e7d565b90506000612f4982612ead565b604080518082018252600f81526e139bdd081bdb881d1a19481b1a5cdd608a1b6020808301919091526000898152600491829052838120600201549351627eeac760e11b81529297509394508793926001600160a01b0385169262fdd58e92612fb6928f92909101613ca1565b602060405180830381865afa158015612fd3573d6000803e3d6000fd5b505050506040513d601f19601f82011682018060405250810190612ff79190613cc7565b11801561301e5750886001600160a01b03166130138389612ec0565b6001600160a01b0316145b1561304a576040518060400160405280600b81526020016a13db881d1a19481b1a5cdd60aa1b81525093505b50505095945050505050565b60008281526005602052604081205481036130ab575060008281526005602090815260408220805460018082018355918452919092200180546001600160a01b0319166001600160a01b038416179055613124565b600083815260056020526040812054905b8181101561312157600085815260056020526040902080546001600160a01b0386169190839081106130f0576130f0613c44565b6000918252602090912001546001600160a01b03160361310f57600192505b8061311981613be8565b9150506130bc565b50505b8015156000036131665760008381526005602090815260408220805460018101825590835291200180546001600160a01b0319166001600160a01b0384161790555b505050565b600060046131798484612d4d565b6131839190613d1d565b61318d8484612d4d565b61136c9190613bb9565b600080600083516041146131be57604051634be6321b60e01b815260040160405180910390fd5b50505060208101516040820151606090920151909260009190911a90565b6040518061018001604052806000815260200160006001600160a01b03168152602001600081526020016060815260200160006001600160a01b0316815260200160006001600160a01b0316815260200160008152602001600081526020016000815260200160008152602001600060ff168152602001600081525090565b82805461326790613c18565b90600052602060002090601f01602090048101928261328957600085556132cf565b82601f106132a257805160ff19168380011785556132cf565b828001600101855582156132cf579182015b828111156132cf5782518255916020019190600101906132b4565b506132db9291506132df565b5090565b5b808211156132db57600081556001016132e0565b6001600160e01b031981165b811461330b57600080fd5b50565b80356104b1816132f4565b60006020828403121561332e5761332e600080fd5b6000612e75848461330e565b8015155b82525050565b602081016104b1828461333a565b80613300565b80356104b181613352565b60006020828403121561337857613378600080fd5b6000612e758484613358565b8061333e565b602081016104b18284613384565b60006001600160a01b0382166104b1565b61333e81613398565b60005b838110156133cd5781810151838201526020016133b5565b838111156133dc576000848401525b50505050565b60006133ec825190565b8084526020840193506134038185602086016133b2565b601f01601f19169290920192915050565b60ff811661333e565b80516000906101808401906134328582613384565b50602083015161344560208601826133a9565b5060408301516134586040860182613384565b506060830151848203606086015261347082826133e2565b915050608083015161348560808601826133a9565b5060a083015161349860a08601826133a9565b5060c08301516134ab60c0860182613384565b5060e08301516134be60e0860182613384565b506101008301516134d3610100860182613384565b506101208301516134e8610120860182613384565b506101408301516134fd610140860182613414565b50610160830151613512610160860182613384565b509392505050565b600061136c838361341d565b6000613530825190565b8084526020840193508360208202850161354a8560200190565b8060005b8581101561357f5784840389528151613567858261351a565b94506020830160209a909a019992505060010161354e565b5091979650505050505050565b6020808252810161136c8184613526565b61330081613398565b80356104b18161359d565b634e487b7160e01b600052604160045260246000fd5b601f19601f83011681018181106001600160401b03821117156135ec576135ec6135b1565b6040525050565b60006135fe60405190565b905061360a82826135c7565b919050565b60006001600160401b03821115613628576136286135b1565b601f19601f83011660200192915050565b82818337506000910152565b60006136586136538461360f565b6135f3565b90508281526020810184848401111561367357613673600080fd5b613512848285613639565b600082601f83011261369257613692600080fd5b8135612e75848260208601613645565b600080600080600060a086880312156136bd576136bd600080fd5b60006136c988886135a6565b95505060206136da88828901613358565b94505060406136eb88828901613358565b93505060608601356001600160401b0381111561370a5761370a600080fd5b6137168882890161367e565b92505060808601356001600160401b0381111561373557613735600080fd5b6137418882890161367e565b9150509295509295909350565b6000806040838503121561376457613764600080fd5b600061377085856135a6565b925050602061378185828601613358565b9150509250929050565b6000806000606084860312156137a3576137a3600080fd5b60006137af8686613358565b93505060208401356001600160401b038111156137ce576137ce600080fd5b6137da8682870161367e565b92505060406137eb868287016135a6565b9150509250925092565b6020808252810161136c81846133e2565b6000806000806080858703121561381f5761381f600080fd5b600061382b87876135a6565b945050602061383c87828801613358565b935050604061384d87828801613358565b92505060608501356001600160401b0381111561386c5761386c600080fd5b6138788782880161367e565b91505092959194509250565b60006001600160401b0382111561389d5761389d6135b1565b5060209081020190565b60006138b561365384613884565b838152905060208082019084028301858111156138d4576138d4600080fd5b835b818110156138f857806138e98882613358565b845250602092830192016138d6565b5050509392505050565b600082601f83011261391657613916600080fd5b8135612e758482602086016138a7565b600080600080600060a0868803121561394157613941600080fd5b600061394d88886135a6565b955050602061395e888289016135a6565b94505060408601356001600160401b0381111561397d5761397d600080fd5b61398988828901613902565b93505060608601356001600160401b038111156139a8576139a8600080fd5b61371688828901613902565b6001600160e01b0319811661333e565b602081016104b182846139b4565b6000602082840312156139e7576139e7600080fd5b6000612e7584846135a6565b805160a0830190613a048482613384565b506020820151613a1760208501826133a9565b506040820151613a2a6040850182613384565b506060820151613a3d6060850182613384565b5060808201516133dc6080850182613384565b6000613a5c83836139f3565b505060a00190565b6000613a6e825190565b80845260209384019383018060005b83811015613aa2578151613a918882613a50565b975060208301925050600101613a7d565b509495945050505050565b6020808252810161136c8184613a64565b60ff8116613300565b80356104b181613abe565b60008060408385031215613ae857613ae8600080fd5b6000613af48585613358565b925050602061378185828601613ac7565b6020808252810161136c818461341d565b600080600080600060a08688031215613b3157613b31600080fd5b6000613b3d88886135a6565b9550506020613b4e888289016135a6565b9450506040613b5f88828901613358565b935050606061371688828901613358565b60008060408385031215613b8657613b86600080fd5b6000613b928585613358565b9250506020613781858286016135a6565b634e487b7160e01b600052601160045260246000fd5b600082821015613bcb57613bcb613ba3565b500390565b60008219821115613be357613be3613ba3565b500190565b60006000198203613bfb57613bfb613ba3565b5060010190565b634e487b7160e01b600052602260045260246000fd5b600281046001821680613c2c57607f821691505b602082108103613c3e57613c3e613c02565b50919050565b634e487b7160e01b600052603260045260246000fd5b601f81526000602082017f5265656e7472616e637947756172643a207265656e7472616e742063616c6c00815291505b5060200190565b602080825281016104b181613c5a565b60408101613caf82856133a9565b61136c6020830184613384565b80516104b181613352565b600060208284031215613cdc57613cdc600080fd5b6000612e758484613cbc565b6000816000190483118215151615613d0257613d02613ba3565b500290565b634e487b7160e01b600052601260045260246000fd5b600082613d2c57613d2c613d07565b500490565b60a08101613d3f82886133a9565b613d4c60208301876133a9565b613d596040830186613384565b613d666060830185613384565b8181036080830152613d7881846133e2565b979650505050505050565b60008154613d9081613c18565b600182168015613da75760018114613db857613de8565b60ff19831686528186019350613de8565b60008581526020902060005b83811015613de057815488820152600190910190602001613dc4565b838801955050505b50505092915050565b6902932b33ab73232b21d160b51b8152600a01600061136c8284613d83565b90565b6000816104b1565b60148152600060208201732330b4b632b2103a379039b2b7321022ba3432b960611b81529150613c8a565b602080825281016104b181613e1b565b60006104b1613e108381565b61333e81613e56565b600060ff82166104b1565b61333e81613e6b565b6101208082528101613e91818c6133e2565b9050613ea0602083018b6133a9565b613ead604083018a6133a9565b613eba6060830189613384565b613ec76080830188613384565b613ed460a0830187613384565b613ee160c0830186613e62565b613eee60e0830185613e76565b613efc610100830184613e62565b9a9950505050505050505050565b600082613f1957613f19613d07565b500690565b6000613f28825190565b613f368185602086016133b2565b9290920192915050565b600061136c8284613f1e565b7f19457468657265756d205369676e6564204d6573736167653a0a3332000000008152601c016000613f7e8284613384565b50602001919050565b60808101613f958287613384565b613fa26020830186613414565b613faf6040830185613384565b61209f606083018461338456fea2646970667358221220405a55a291acf6a32e48b07ebd09969966c83d9798ecda6e1d27224d1e0eb5fb64736f6c634300080d0033",
  "devdoc": {
    "kind": "dev",
    "methods": {
      "supportsInterface(bytes4)": {
        "details": "See {IERC165-supportsInterface}."
      }
    },
    "version": 1
  },
  "userdoc": {
    "kind": "user",
    "methods": {},
    "version": 1
  },
  "storageLayout": {
    "storage": [
      {
        "astId": 169,
        "contract": "contracts/NFTicketsMarket.sol:NFTicketsMarket",
        "label": "_status",
        "offset": 0,
        "slot": "0",
        "type": "t_uint256"
      },
      {
        "astId": 5398,
        "contract": "contracts/NFTicketsMarket.sol:NFTicketsMarket",
        "label": "_itemIds",
        "offset": 0,
        "slot": "1",
        "type": "t_struct(Counter)3197_storage"
      },
      {
        "astId": 5401,
        "contract": "contracts/NFTicketsMarket.sol:NFTicketsMarket",
        "label": "_itemsSold",
        "offset": 0,
        "slot": "2",
        "type": "t_struct(Counter)3197_storage"
      },
      {
        "astId": 5415,
        "contract": "contracts/NFTicketsMarket.sol:NFTicketsMarket",
        "label": "utils",
        "offset": 0,
        "slot": "3",
        "type": "t_contract(NFTicketsUtils)8066"
      },
      {
        "astId": 5477,
        "contract": "contracts/NFTicketsMarket.sol:NFTicketsMarket",
        "label": "idToMarketItem",
        "offset": 0,
        "slot": "4",
        "type": "t_mapping(t_uint256,t_struct(MarketItem)5461_storage)"
      },
      {
        "astId": 5482,
        "contract": "contracts/NFTicketsMarket.sol:NFTicketsMarket",
        "label": "marketItemIdToBuyers",
        "offset": 0,
        "slot": "5",
        "type": "t_mapping(t_uint256,t_array(t_address)dyn_storage)"
      },
      {
        "astId": 5488,
        "contract": "contracts/NFTicketsMarket.sol:NFTicketsMarket",
        "label": "addressToSpending",
        "offset": 0,
        "slot": "6",
        "type": "t_mapping(t_address,t_mapping(t_uint256,t_uint256))"
      },
      {
        "astId": 5494,
        "contract": "contracts/NFTicketsMarket.sol:NFTicketsMarket",
        "label": "sellerToDepositPerItem",
        "offset": 0,
        "slot": "7",
        "type": "t_mapping(t_address,t_mapping(t_uint256,t_uint256))"
      }
    ],
    "types": {
      "t_address": {
        "encoding": "inplace",
        "label": "address",
        "numberOfBytes": "20"
      },
      "t_address_payable": {
        "encoding": "inplace",
        "label": "address payable",
        "numberOfBytes": "20"
      },
      "t_array(t_address)dyn_storage": {
        "base": "t_address",
        "encoding": "dynamic_array",
        "label": "address[]",
        "numberOfBytes": "32"
      },
      "t_contract(NFTicketsUtils)8066": {
        "encoding": "inplace",
        "label": "contract NFTicketsUtils",
        "numberOfBytes": "20"
      },
      "t_mapping(t_address,t_mapping(t_uint256,t_uint256))": {
        "encoding": "mapping",
        "key": "t_address",
        "label": "mapping(address => mapping(uint256 => uint256))",
        "numberOfBytes": "32",
        "value": "t_mapping(t_uint256,t_uint256)"
      },
      "t_mapping(t_uint256,t_array(t_address)dyn_storage)": {
        "encoding": "mapping",
        "key": "t_uint256",
        "label": "mapping(uint256 => address[])",
        "numberOfBytes": "32",
        "value": "t_array(t_address)dyn_storage"
      },
      "t_mapping(t_uint256,t_struct(MarketItem)5461_storage)": {
        "encoding": "mapping",
        "key": "t_uint256",
        "label": "mapping(uint256 => struct NFTicketsMarket.MarketItem)",
        "numberOfBytes": "32",
        "value": "t_struct(MarketItem)5461_storage"
      },
      "t_mapping(t_uint256,t_uint256)": {
        "encoding": "mapping",
        "key": "t_uint256",
        "label": "mapping(uint256 => uint256)",
        "numberOfBytes": "32",
        "value": "t_uint256"
      },
      "t_string_storage": {
        "encoding": "bytes",
        "label": "string",
        "numberOfBytes": "32"
      },
      "t_struct(Counter)3197_storage": {
        "encoding": "inplace",
        "label": "struct Counters.Counter",
        "members": [
          {
            "astId": 3196,
            "contract": "contracts/NFTicketsMarket.sol:NFTicketsMarket",
            "label": "_value",
            "offset": 0,
            "slot": "0",
            "type": "t_uint256"
          }
        ],
        "numberOfBytes": "32"
      },
      "t_struct(MarketItem)5461_storage": {
        "encoding": "inplace",
        "label": "struct NFTicketsMarket.MarketItem",
        "members": [
          {
            "astId": 5438,
            "contract": "contracts/NFTicketsMarket.sol:NFTicketsMarket",
            "label": "itemId",
            "offset": 0,
            "slot": "0",
            "type": "t_uint256"
          },
          {
            "astId": 5440,
            "contract": "contracts/NFTicketsMarket.sol:NFTicketsMarket",
            "label": "nftContract",
            "offset": 0,
            "slot": "1",
            "type": "t_address"
          },
          {
            "astId": 5442,
            "contract": "contracts/NFTicketsMarket.sol:NFTicketsMarket",
            "label": "tokenId",
            "offset": 0,
            "slot": "2",
            "type": "t_uint256"
          },
          {
            "astId": 5444,
            "contract": "contracts/NFTicketsMarket.sol:NFTicketsMarket",
            "label": "name",
            "offset": 0,
            "slot": "3",
            "type": "t_string_storage"
          },
          {
            "astId": 5446,
            "contract": "contracts/NFTicketsMarket.sol:NFTicketsMarket",
            "label": "seller",
            "offset": 0,
            "slot": "4",
            "type": "t_address_payable"
          },
          {
            "astId": 5448,
            "contract": "contracts/NFTicketsMarket.sol:NFTicketsMarket",
            "label": "owner",
            "offset": 0,
            "slot": "5",
            "type": "t_address_payable"
          },
          {
            "astId": 5450,
            "contract": "contracts/NFTicketsMarket.sol:NFTicketsMarket",
            "label": "price",
            "offset": 0,
            "slot": "6",
            "type": "t_uint256"
          },
          {
            "astId": 5452,
            "contract": "contracts/NFTicketsMarket.sol:NFTicketsMarket",
            "label": "amount",
            "offset": 0,
            "slot": "7",
            "type": "t_uint256"
          },
          {
            "astId": 5454,
            "contract": "contracts/NFTicketsMarket.sol:NFTicketsMarket",
            "label": "initialQuantity",
            "offset": 0,
            "slot": "8",
            "type": "t_uint256"
          },
          {
            "astId": 5456,
            "contract": "contracts/NFTicketsMarket.sol:NFTicketsMarket",
            "label": "totalSales",
            "offset": 0,
            "slot": "9",
            "type": "t_uint256"
          },
          {
            "astId": 5458,
            "contract": "contracts/NFTicketsMarket.sol:NFTicketsMarket",
            "label": "status",
            "offset": 0,
            "slot": "10",
            "type": "t_uint8"
          },
          {
            "astId": 5460,
            "contract": "contracts/NFTicketsMarket.sol:NFTicketsMarket",
            "label": "finalCommision",
            "offset": 0,
            "slot": "11",
            "type": "t_uint256"
          }
        ],
        "numberOfBytes": "384"
      },
      "t_uint256": {
        "encoding": "inplace",
        "label": "uint256",
        "numberOfBytes": "32"
      },
      "t_uint8": {
        "encoding": "inplace",
        "label": "uint8",
        "numberOfBytes": "1"
      }
    }
  }
}