{
  "address": "0x715049D0b517256367b4b9a4b3269D016e42B171",
  "abi": [
    {
      "inputs": [
        {
          "internalType": "address",
          "name": "_marketAddress",
          "type": "address"
        }
      ],
      "stateMutability": "nonpayable",
      "type": "constructor"
    },
    {
      "anonymous": false,
      "inputs": [
        {
          "indexed": true,
          "internalType": "address",
          "name": "account",
          "type": "address"
        },
        {
          "indexed": true,
          "internalType": "address",
          "name": "operator",
          "type": "address"
        },
        {
          "indexed": false,
          "internalType": "bool",
          "name": "approved",
          "type": "bool"
        }
      ],
      "name": "ApprovalForAll",
      "type": "event"
    },
    {
      "anonymous": false,
      "inputs": [
        {
          "indexed": true,
          "internalType": "address",
          "name": "operator",
          "type": "address"
        },
        {
          "indexed": true,
          "internalType": "address",
          "name": "from",
          "type": "address"
        },
        {
          "indexed": true,
          "internalType": "address",
          "name": "to",
          "type": "address"
        },
        {
          "indexed": false,
          "internalType": "uint256[]",
          "name": "ids",
          "type": "uint256[]"
        },
        {
          "indexed": false,
          "internalType": "uint256[]",
          "name": "values",
          "type": "uint256[]"
        }
      ],
      "name": "TransferBatch",
      "type": "event"
    },
    {
      "anonymous": false,
      "inputs": [
        {
          "indexed": true,
          "internalType": "address",
          "name": "operator",
          "type": "address"
        },
        {
          "indexed": true,
          "internalType": "address",
          "name": "from",
          "type": "address"
        },
        {
          "indexed": true,
          "internalType": "address",
          "name": "to",
          "type": "address"
        },
        {
          "indexed": false,
          "internalType": "uint256",
          "name": "id",
          "type": "uint256"
        },
        {
          "indexed": false,
          "internalType": "uint256",
          "name": "value",
          "type": "uint256"
        }
      ],
      "name": "TransferSingle",
      "type": "event"
    },
    {
      "anonymous": false,
      "inputs": [
        {
          "indexed": false,
          "internalType": "string",
          "name": "value",
          "type": "string"
        },
        {
          "indexed": true,
          "internalType": "uint256",
          "name": "id",
          "type": "uint256"
        }
      ],
      "name": "URI",
      "type": "event"
    },
    {
      "inputs": [
        {
          "internalType": "uint256",
          "name": "",
          "type": "uint256"
        }
      ],
      "name": "_price",
      "outputs": [
        {
          "internalType": "uint256",
          "name": "",
          "type": "uint256"
        }
      ],
      "stateMutability": "view",
      "type": "function"
    },
    {
      "inputs": [
        {
          "internalType": "address",
          "name": "account",
          "type": "address"
        },
        {
          "internalType": "uint256",
          "name": "id",
          "type": "uint256"
        }
      ],
      "name": "balanceOf",
      "outputs": [
        {
          "internalType": "uint256",
          "name": "",
          "type": "uint256"
        }
      ],
      "stateMutability": "view",
      "type": "function"
    },
    {
      "inputs": [
        {
          "internalType": "address[]",
          "name": "accounts",
          "type": "address[]"
        },
        {
          "internalType": "uint256[]",
          "name": "ids",
          "type": "uint256[]"
        }
      ],
      "name": "balanceOfBatch",
      "outputs": [
        {
          "internalType": "uint256[]",
          "name": "",
          "type": "uint256[]"
        }
      ],
      "stateMutability": "view",
      "type": "function"
    },
    {
      "inputs": [
        {
          "internalType": "uint256",
          "name": "tokenId",
          "type": "uint256"
        },
        {
          "internalType": "uint256",
          "name": "amount",
          "type": "uint256"
        },
        {
          "internalType": "bytes",
          "name": "data",
          "type": "bytes"
        }
      ],
      "name": "createMoreTokens",
      "outputs": [],
      "stateMutability": "nonpayable",
      "type": "function"
    },
    {
      "inputs": [
        {
          "internalType": "string",
          "name": "tokenURI",
          "type": "string"
        },
        {
          "internalType": "uint256",
          "name": "amount",
          "type": "uint256"
        },
        {
          "internalType": "bytes",
          "name": "data",
          "type": "bytes"
        },
        {
          "internalType": "uint256",
          "name": "price",
          "type": "uint256"
        },
        {
          "internalType": "uint256",
          "name": "finishTime",
          "type": "uint256"
        },
        {
          "internalType": "int64",
          "name": "lat",
          "type": "int64"
        },
        {
          "internalType": "int64",
          "name": "lon",
          "type": "int64"
        }
      ],
      "name": "createToken",
      "outputs": [
        {
          "internalType": "uint256",
          "name": "",
          "type": "uint256"
        }
      ],
      "stateMutability": "nonpayable",
      "type": "function"
    },
    {
      "inputs": [
        {
          "internalType": "uint256",
          "name": "tokenId",
          "type": "uint256"
        }
      ],
      "name": "getCoordinates",
      "outputs": [
        {
          "internalType": "int64[2]",
          "name": "",
          "type": "int64[2]"
        }
      ],
      "stateMutability": "view",
      "type": "function"
    },
    {
      "inputs": [
        {
          "internalType": "uint256",
          "name": "tokenId",
          "type": "uint256"
        }
      ],
      "name": "getFinishTime",
      "outputs": [
        {
          "internalType": "uint256",
          "name": "",
          "type": "uint256"
        }
      ],
      "stateMutability": "view",
      "type": "function"
    },
    {
      "inputs": [
        {
          "internalType": "address",
          "name": "account",
          "type": "address"
        },
        {
          "internalType": "address",
          "name": "operator",
          "type": "address"
        }
      ],
      "name": "isApprovedForAll",
      "outputs": [
        {
          "internalType": "bool",
          "name": "",
          "type": "bool"
        }
      ],
      "stateMutability": "view",
      "type": "function"
    },
    {
      "inputs": [
        {
          "internalType": "address",
          "name": "testMe",
          "type": "address"
        }
      ],
      "name": "listMyTokens",
      "outputs": [
        {
          "internalType": "uint256[]",
          "name": "",
          "type": "uint256[]"
        }
      ],
      "stateMutability": "view",
      "type": "function"
    },
    {
      "inputs": [
        {
          "internalType": "uint256",
          "name": "tokenId",
          "type": "uint256"
        }
      ],
      "name": "price",
      "outputs": [
        {
          "internalType": "uint256",
          "name": "",
          "type": "uint256"
        }
      ],
      "stateMutability": "view",
      "type": "function"
    },
    {
      "inputs": [
        {
          "internalType": "address",
          "name": "from",
          "type": "address"
        },
        {
          "internalType": "address",
          "name": "to",
          "type": "address"
        },
        {
          "internalType": "uint256[]",
          "name": "ids",
          "type": "uint256[]"
        },
        {
          "internalType": "uint256[]",
          "name": "amounts",
          "type": "uint256[]"
        },
        {
          "internalType": "bytes",
          "name": "data",
          "type": "bytes"
        }
      ],
      "name": "safeBatchTransferFrom",
      "outputs": [],
      "stateMutability": "nonpayable",
      "type": "function"
    },
    {
      "inputs": [
        {
          "internalType": "address",
          "name": "from",
          "type": "address"
        },
        {
          "internalType": "address",
          "name": "to",
          "type": "address"
        },
        {
          "internalType": "uint256",
          "name": "id",
          "type": "uint256"
        },
        {
          "internalType": "uint256",
          "name": "amount",
          "type": "uint256"
        },
        {
          "internalType": "bytes",
          "name": "data",
          "type": "bytes"
        }
      ],
      "name": "safeTransferFrom",
      "outputs": [],
      "stateMutability": "nonpayable",
      "type": "function"
    },
    {
      "inputs": [
        {
          "internalType": "address",
          "name": "to",
          "type": "address"
        },
        {
          "internalType": "uint256",
          "name": "tokenId",
          "type": "uint256"
        },
        {
          "internalType": "uint256",
          "name": "amount",
          "type": "uint256"
        },
        {
          "internalType": "bytes",
          "name": "data",
          "type": "bytes"
        }
      ],
      "name": "sendFree",
      "outputs": [],
      "stateMutability": "nonpayable",
      "type": "function"
    },
    {
      "inputs": [
        {
          "internalType": "address",
          "name": "operator",
          "type": "address"
        },
        {
          "internalType": "bool",
          "name": "approved",
          "type": "bool"
        }
      ],
      "name": "setApprovalForAll",
      "outputs": [],
      "stateMutability": "nonpayable",
      "type": "function"
    },
    {
      "inputs": [
        {
          "internalType": "bytes4",
          "name": "interfaceId",
          "type": "bytes4"
        }
      ],
      "name": "supportsInterface",
      "outputs": [
        {
          "internalType": "bool",
          "name": "",
          "type": "bool"
        }
      ],
      "stateMutability": "view",
      "type": "function"
    },
    {
      "inputs": [
        {
          "internalType": "uint256",
          "name": "tokenId",
          "type": "uint256"
        }
      ],
      "name": "uri",
      "outputs": [
        {
          "internalType": "string",
          "name": "",
          "type": "string"
        }
      ],
      "stateMutability": "view",
      "type": "function"
    },
    {
      "inputs": [
        {
          "internalType": "address",
          "name": "from",
          "type": "address"
        },
        {
          "internalType": "address",
          "name": "to",
          "type": "address"
        },
        {
          "internalType": "uint256",
          "name": "tokenId",
          "type": "uint256"
        },
        {
          "internalType": "uint256",
          "name": "amount",
          "type": "uint256"
        },
        {
          "internalType": "bytes",
          "name": "data",
          "type": "bytes"
        }
      ],
      "name": "useUnderscoreTransfer",
      "outputs": [],
      "stateMutability": "nonpayable",
      "type": "function"
    }
  ],
  "transactionHash": "0x7779264b2d6476513060ee042f70787fd843d9d24513b5a6c4b9bcdd81efa611",
  "args": [
    "0x83D00dd68DEF03513A265F33C738649798FaF44E"
  ],
  "numDeployments": 6,
  "solcInputHash": "d7aafa8ef1b5249c8d5aa278919046f3",
  "bytecode": "0x60c06040819052600060a08190526200001b9160039162000097565b503480156200002957600080fd5b506040516200223f3803806200223f8339810160408190526200004c9162000177565b60408051602081019091526000815262000066816200007e565b5060016005556001600160a01b0316608052620001ea565b80516200009390600290602084019062000097565b5050565b828054620000a590620001ba565b90600052602060002090601f016020900481019282620000c9576000855562000114565b82601f10620000e457805160ff191683800117855562000114565b8280016001018555821562000114579182015b8281111562000114578251825591602001919060010190620000f7565b506200012292915062000126565b5090565b5b8082111562000122576000815560010162000127565b60006001600160a01b0382165b92915050565b6200015b816200013d565b81146200016757600080fd5b50565b80516200014a8162000150565b6000602082840312156200018e576200018e600080fd5b60006200019c84846200016a565b949350505050565b634e487b7160e01b600052602260045260246000fd5b600281046001821680620001cf57607f821691505b602082108103620001e457620001e4620001a4565b50919050565b6080516120396200020660003960006108c201526120396000f3fe608060405234801561001057600080fd5b506004361061010a5760003560e01c80634e1273f4116100a257806398cf095a1161007157806398cf095a14610259578063a22cb4651461026c578063e985e9c51461027f578063f242432a146102bb578063faea173b146102ce57600080fd5b80634e1273f4146102005780634f6d8518146102205780636bfa3429146102335780637510d3351461024657600080fd5b8063117f02d7116100de578063117f02d714610198578063246925f2146101b857806326a49e37146101cd5780632eb2c2d6146101ed57600080fd5b8062fdd58e1461010f57806301ffc9a7146101385780630bf37818146101585780630e89341c14610178575b600080fd5b61012261011d366004611152565b6102ee565b60405161012f9190611197565b60405180910390f35b61014b6101463660046111c0565b610348565b60405161012f91906111f1565b61016b6101663660046111ff565b610398565b60405161012f919061126a565b61018b6101863660046111ff565b610402565b60405161012f91906112d6565b6101226101a63660046111ff565b6000908152600b602052604090205490565b6101cb6101c63660046113df565b61049a565b005b6101226101db3660046111ff565b60009081526009602052604090205490565b6101cb6101fb3660046114ff565b6104b8565b61021361020e36600461163a565b610504565b60405161012f91906116f5565b61021361022e366004611706565b6105eb565b6101cb610241366004611727565b61073c565b6101226102543660046117a6565b610783565b6101cb610267366004611878565b6108f4565b6101cb61027a3660046118e5565b610901565b61014b61028d366004611918565b6001600160a01b03918216600090815260016020908152604080832093909416825291909152205460ff1690565b6101cb6102c9366004611878565b610910565b6101226102dc3660046111ff565b60096020526000908152604090205481565b60006001600160a01b03831661031f5760405162461bcd60e51b815260040161031690611995565b60405180910390fd5b506000818152602081815260408083206001600160a01b03861684529091529020545b92915050565b60006001600160e01b03198216636cdb3d1360e11b148061037957506001600160e01b031982166303a24d0760e21b145b8061034257506301ffc9a760e01b6001600160e01b0319831614610342565b6103a0610fb8565b6000828152600a60205260408082208151808301928390529290916002918390855b825461010083900a900460070b81526020600f83018190049384019360010360089093019290920291018084116103c25790505b50505050509050919050565b600081815260076020526040902080546060919061041f906119bb565b80601f016020809104026020016040519081016040528092919081815260200182805461044b906119bb565b80156103f65780601f1061046d576101008083540402835291602001916103f6565b820191906000526020600020905b81548152906001019060200180831161047b5750939695505050505050565b6104a73385858585610948565b6104b2846001610901565b50505050565b6001600160a01b0385163314806104d457506104d4853361028d565b6104f05760405162461bcd60e51b815260040161031690611a33565b6104fd8585858585610a7e565b5050505050565b606081518351146105275760405162461bcd60e51b815260040161031690611a89565b600083516001600160401b03811115610542576105426112ee565b60405190808252806020026020018201604052801561056b578160200160208202803683370190505b50905060005b84518110156105e3576105b685828151811061058f5761058f611a99565b60200260200101518583815181106105a9576105a9611a99565b60200260200101516102ee565b8282815181106105c8576105c8611a99565b60209081029190910101526105dc81611ac5565b9050610571565b509392505050565b606060006105f860065490565b905060008060005b83811015610660576001600160a01b03861660086000610621846001611adf565b81526020810191909152604001600020546001600160a01b03160361064e5761064b600184611adf565b92505b8061065881611ac5565b915050610600565b506000826001600160401b0381111561067b5761067b6112ee565b6040519080825280602002602001820160405280156106a4578160200160208202803683370190505b50905060005b84811015610732576001600160a01b038716600860006106cb846001611adf565b81526020810191909152604001600020546001600160a01b031603610720576106f5816001611adf565b82848151811061070757610707611a99565b602090810291909101015261071d600184611adf565b92505b8061072a81611ac5565b9150506106aa565b5095945050505050565b6000838152600860205260409020546001600160a01b031633146107725760405162461bcd60e51b815260040161031690611b2e565b61077e33848484610c1a565b505050565b6000610793600680546001019055565b600061079e60065490565b60008181526007602052604090208054919250906107bb906119bb565b1590506107da5760405162461bcd60e51b815260040161031690611b69565b600081815260096020526040902054156108065760405162461bcd60e51b815260040161031690611ba6565b600086116108265760405162461bcd60e51b815260040161031690611bde565b600081815260086020526040902080546001600160a01b0319163390811790915561085390828a8a610c1a565b60008181526007602090815260409091208a51610872928c0190610fd6565b506000818152600960209081526040808320899055600b825280832088905580518082018252600788810b825287900b81840152848452600a9092529091206108bc91600261105a565b506108e87f00000000000000000000000000000000000000000000000000000000000000006001610901565b98975050505050505050565b6104fd8585858585610948565b61090c338383610d02565b5050565b6001600160a01b03851633148061092c575061092c853361028d565b6108f45760405162461bcd60e51b815260040161031690611a33565b6001600160a01b03841661096e5760405162461bcd60e51b815260040161031690611c30565b33600061097a85610da4565b9050600061098785610da4565b90506000868152602081815260408083206001600160a01b038c168452909152902054858110156109ca5760405162461bcd60e51b815260040161031690611c87565b6000878152602081815260408083206001600160a01b038d8116855292528083208985039055908a16825281208054889290610a07908490611adf565b92505081905550876001600160a01b0316896001600160a01b0316856001600160a01b03167fc3d58168c5ae7397731d063d5bbf3d657854427343f4c083240f7aacaa2d0f628a8a604051610a5d929190611c97565b60405180910390a4610a73848a8a8a8a8a610def565b505050505050505050565b8151835114610a9f5760405162461bcd60e51b815260040161031690611cf7565b6001600160a01b038416610ac55760405162461bcd60e51b815260040161031690611c30565b3360005b8451811015610bac576000858281518110610ae657610ae6611a99565b602002602001015190506000858381518110610b0457610b04611a99565b602090810291909101810151600084815280835260408082206001600160a01b038e168352909352919091205490915081811015610b545760405162461bcd60e51b815260040161031690611c87565b6000838152602081815260408083206001600160a01b038e8116855292528083208585039055908b16825281208054849290610b91908490611adf565b9250508190555050505080610ba590611ac5565b9050610ac9565b50846001600160a01b0316866001600160a01b0316826001600160a01b03167f4a39dc06d4c0dbc64b70af90fd698a233a518aa5d07e595d983b8c0526c8f7fb8787604051610bfc929190611d07565b60405180910390a4610c12818787878787610efd565b505050505050565b6001600160a01b038416610c405760405162461bcd60e51b815260040161031690611d6a565b336000610c4c85610da4565b90506000610c5985610da4565b90506000868152602081815260408083206001600160a01b038b16845290915281208054879290610c8b908490611adf565b92505081905550866001600160a01b031660006001600160a01b0316846001600160a01b03167fc3d58168c5ae7397731d063d5bbf3d657854427343f4c083240f7aacaa2d0f628989604051610ce2929190611c97565b60405180910390a4610cf983600089898989610def565b50505050505050565b816001600160a01b0316836001600160a01b031603610d335760405162461bcd60e51b815260040161031690611dc0565b6001600160a01b0383811660008181526001602090815260408083209487168084529490915290819020805460ff1916851515179055517f17307eab39ab6107e8899845ad3d59bd9653f200f220920489ca2b5937696c3190610d979085906111f1565b60405180910390a3505050565b60408051600180825281830190925260609160009190602080830190803683370190505090508281600081518110610dde57610dde611a99565b602090810291909101015292915050565b6001600160a01b0384163b15610c125760405163f23a6e6160e01b81526001600160a01b0385169063f23a6e6190610e339089908990889088908890600401611dd9565b6020604051808303816000875af1925050508015610e6e575060408051601f3d908101601f19168201909252610e6b91810190611e36565b60015b610ecd57610e7a611e57565b806308c379a003610eb35750610e8e611e73565b80610e995750610eb5565b8060405162461bcd60e51b815260040161031691906112d6565b505b60405162461bcd60e51b815260040161031690611f49565b6001600160e01b0319811663f23a6e6160e01b14610cf95760405162461bcd60e51b815260040161031690611f9e565b6001600160a01b0384163b15610c125760405163bc197c8160e01b81526001600160a01b0385169063bc197c8190610f419089908990889088908890600401611fae565b6020604051808303816000875af1925050508015610f7c575060408051601f3d908101601f19168201909252610f7991810190611e36565b60015b610f8857610e7a611e57565b6001600160e01b0319811663bc197c8160e01b14610cf95760405162461bcd60e51b815260040161031690611f9e565b60405180604001604052806002906020820280368337509192915050565b828054610fe2906119bb565b90600052602060002090601f016020900481019282611004576000855561104a565b82601f1061101d57805160ff191683800117855561104a565b8280016001018555821561104a579182015b8281111561104a57825182559160200191906001019061102f565b506110569291506110f9565b5090565b60018301918390821561104a5791602002820160005b838211156110bd57835183826101000a8154816001600160401b03021916908360070b6001600160401b031602179055509260200192600801602081600701049283019260010302611070565b80156110f05782816101000a8154906001600160401b0302191690556008016020816007010492830192600103026110bd565b50506110569291505b5b8082111561105657600081556001016110fa565b60006001600160a01b038216610342565b6111288161110e565b811461113357600080fd5b50565b80356103428161111f565b80611128565b803561034281611141565b6000806040838503121561116857611168600080fd5b60006111748585611136565b925050602061118585828601611147565b9150509250929050565b805b82525050565b60208101610342828461118f565b6001600160e01b03198116611128565b8035610342816111a5565b6000602082840312156111d5576111d5600080fd5b60006111e184846111b5565b949350505050565b801515611191565b6020810161034282846111e9565b60006020828403121561121457611214600080fd5b60006111e18484611147565b6111918160070b90565b60006112368383611220565b505060200190565b6002818060005b83811015610c12578151611259878261122a565b965060208301925050600101611245565b60408101610342828461123e565b60005b8381101561129357818101518382015260200161127b565b838111156104b25750506000910152565b60006112ae825190565b8084526020840193506112c5818560208601611278565b601f01601f19169290920192915050565b602080825281016112e781846112a4565b9392505050565b634e487b7160e01b600052604160045260246000fd5b601f19601f83011681018181106001600160401b0382111715611329576113296112ee565b6040525050565b600061133b60405190565b90506113478282611304565b919050565b60006001600160401b03821115611365576113656112ee565b601f19601f83011660200192915050565b82818337506000910152565b60006113956113908461134c565b611330565b9050828152602081018484840111156113b0576113b0600080fd5b6105e3848285611376565b600082601f8301126113cf576113cf600080fd5b81356111e1848260208601611382565b600080600080608085870312156113f8576113f8600080fd5b60006114048787611136565b945050602061141587828801611147565b935050604061142687828801611147565b92505060608501356001600160401b0381111561144557611445600080fd5b611451878288016113bb565b91505092959194509250565b60006001600160401b03821115611476576114766112ee565b5060209081020190565b600061148e6113908461145d565b838152905060208082019084028301858111156114ad576114ad600080fd5b835b818110156114d157806114c28882611147565b845250602092830192016114af565b5050509392505050565b600082601f8301126114ef576114ef600080fd5b81356111e1848260208601611480565b600080600080600060a0868803121561151a5761151a600080fd5b60006115268888611136565b955050602061153788828901611136565b94505060408601356001600160401b0381111561155657611556600080fd5b611562888289016114db565b93505060608601356001600160401b0381111561158157611581600080fd5b61158d888289016114db565b92505060808601356001600160401b038111156115ac576115ac600080fd5b6115b8888289016113bb565b9150509295509295909350565b60006115d36113908461145d565b838152905060208082019084028301858111156115f2576115f2600080fd5b835b818110156114d157806116078882611136565b845250602092830192016115f4565b600082601f83011261162a5761162a600080fd5b81356111e18482602086016115c5565b6000806040838503121561165057611650600080fd5b82356001600160401b0381111561166957611669600080fd5b61167585828601611616565b92505060208301356001600160401b0381111561169457611694600080fd5b611185858286016114db565b6000611236838361118f565b60006116b6825190565b80845260209384019383018060005b838110156116ea5781516116d988826116a0565b9750602083019250506001016116c5565b509495945050505050565b602080825281016112e781846116ac565b60006020828403121561171b5761171b600080fd5b60006111e18484611136565b60008060006060848603121561173f5761173f600080fd5b600061174b8686611147565b935050602061175c86828701611147565b92505060408401356001600160401b0381111561177b5761177b600080fd5b611787868287016113bb565b9150509250925092565b6111288160070b90565b803561034281611791565b600080600080600080600060e0888a0312156117c4576117c4600080fd5b87356001600160401b038111156117dd576117dd600080fd5b6117e98a828b016113bb565b97505060206117fa8a828b01611147565b96505060408801356001600160401b0381111561181957611819600080fd5b6118258a828b016113bb565b95505060606118368a828b01611147565b94505060806118478a828b01611147565b93505060a06118588a828b0161179b565b92505060c06118698a828b0161179b565b91505092959891949750929550565b600080600080600060a0868803121561189357611893600080fd5b600061189f8888611136565b95505060206118b088828901611136565b94505060406118c188828901611147565b935050606061158d88828901611147565b801515611128565b8035610342816118d2565b600080604083850312156118fb576118fb600080fd5b60006119078585611136565b9250506020611185858286016118da565b6000806040838503121561192e5761192e600080fd5b600061193a8585611136565b925050602061118585828601611136565b602a81526000602082017f455243313135353a2061646472657373207a65726f206973206e6f742061207681526930b634b21037bbb732b960b11b602082015291505b5060400190565b602080825281016103428161194b565b634e487b7160e01b600052602260045260246000fd5b6002810460018216806119cf57607f821691505b6020821081036119e1576119e16119a5565b50919050565b602f81526000602082017f455243313135353a2063616c6c6572206973206e6f7420746f6b656e206f776e81526e195c881b9bdc88185c1c1c9bdd9959608a1b6020820152915061198e565b60208082528101610342816119e7565b602981526000602082017f455243313135353a206163636f756e747320616e6420696473206c656e677468815268040dad2e6dac2e8c6d60bb1b6020820152915061198e565b6020808252810161034281611a43565b634e487b7160e01b600052603260045260246000fd5b634e487b7160e01b600052601160045260246000fd5b60006000198203611ad857611ad8611aaf565b5060010190565b60008219821115611af257611af2611aaf565b500190565b601d81526000602082017f596f7520617265206e6f742074686520746f6b656e2063726561746f72000000815291505b5060200190565b6020808252810161034281611af7565b601481526000602082017343616e6e6f74207365742055524920747769636560601b81529150611b27565b6020808252810161034281611b3e565b601681526000602082017543616e6e6f742073657420707269636520747769636560501b81529150611b27565b6020808252810161034281611b79565b6011815260006020820170070726963652063616e6e6f74206265203607c1b81529150611b27565b6020808252810161034281611bb6565b602581526000602082017f455243313135353a207472616e7366657220746f20746865207a65726f206164815264647265737360d81b6020820152915061198e565b6020808252810161034281611bee565b602a81526000602082017f455243313135353a20696e73756666696369656e742062616c616e636520666f81526939103a3930b739b332b960b11b6020820152915061198e565b6020808252810161034281611c40565b60408101611ca5828561118f565b6112e7602083018461118f565b602881526000602082017f455243313135353a2069647320616e6420616d6f756e7473206c656e677468208152670dad2e6dac2e8c6d60c31b6020820152915061198e565b6020808252810161034281611cb2565b60408082528101611d1881856116ac565b905081810360208301526111e181846116ac565b602181526000602082017f455243313135353a206d696e7420746f20746865207a65726f206164647265738152607360f81b6020820152915061198e565b6020808252810161034281611d2c565b602981526000602082017f455243313135353a2073657474696e6720617070726f76616c20737461747573815268103337b91039b2b63360b91b6020820152915061198e565b6020808252810161034281611d7a565b6111918161110e565b60a08101611de78288611dd0565b611df46020830187611dd0565b611e01604083018661118f565b611e0e606083018561118f565b8181036080830152611e2081846112a4565b979650505050505050565b8051610342816111a5565b600060208284031215611e4b57611e4b600080fd5b60006111e18484611e2b565b600060033d1115611e705760046000803e5060005160e01c5b90565b600060443d1015611e815790565b60405160043d036004823e80513d60248201116001600160401b0382111715611ea957505090565b80820180516001600160401b03811115611ec4575050505090565b80602083010160043d038501811115611edf57505050505090565b611eee82602001850186611304565b5090949350505050565b603481526000602082017f455243313135353a207472616e7366657220746f206e6f6e20455243313135358152732932b1b2b4bb32b91034b6b83632b6b2b73a32b960611b6020820152915061198e565b6020808252810161034281611ef8565b602881526000602082017f455243313135353a204552433131353552656365697665722072656a656374658152676420746f6b656e7360c01b6020820152915061198e565b6020808252810161034281611f59565b60a08101611fbc8288611dd0565b611fc96020830187611dd0565b8181036040830152611fdb81866116ac565b90508181036060830152611fef81856116ac565b90508181036080830152611e2081846112a456fea2646970667358221220d0b96a1d597539118c2454b52a07dc0ee7c855b559cfe2ce138a900e3dbf12ac64736f6c634300080d0033",
  "devdoc": {
    "kind": "dev",
    "methods": {
      "balanceOf(address,uint256)": {
        "details": "See {IERC1155-balanceOf}. Requirements: - `account` cannot be the zero address."
      },
      "balanceOfBatch(address[],uint256[])": {
        "details": "See {IERC1155-balanceOfBatch}. Requirements: - `accounts` and `ids` must have the same length."
      },
      "isApprovedForAll(address,address)": {
        "details": "See {IERC1155-isApprovedForAll}."
      },
      "safeBatchTransferFrom(address,address,uint256[],uint256[],bytes)": {
        "details": "See {IERC1155-safeBatchTransferFrom}."
      },
      "safeTransferFrom(address,address,uint256,uint256,bytes)": {
        "details": "See {IERC1155-safeTransferFrom}."
      },
      "setApprovalForAll(address,bool)": {
        "details": "See {IERC1155-setApprovalForAll}."
      },
      "supportsInterface(bytes4)": {
        "details": "See {IERC165-supportsInterface}."
      },
      "uri(uint256)": {
        "details": "See {IERC1155MetadataURI-uri}. This implementation returns the concatenation of the `_baseURI` and the token-specific uri if the latter is set This enables the following behaviors: - if `_tokenURIs[tokenId]` is set, then the result is the concatenation   of `_baseURI` and `_tokenURIs[tokenId]` (keep in mind that `_baseURI`   is empty per default); - if `_tokenURIs[tokenId]` is NOT set then we fallback to `super.uri()`   which in most cases will contain `ERC1155._uri`; - if `_tokenURIs[tokenId]` is NOT set, and if the parents do not have a   uri value set, then the result is empty."
      }
    },
    "version": 1
  },
  "userdoc": {
    "kind": "user",
    "methods": {},
    "version": 1
  },
  "storageLayout": {
    "storage": [
      {
        "astId": 224,
        "contract": "contracts/NFTicketsTic.sol:NFTicketsTic",
        "label": "_balances",
        "offset": 0,
        "slot": "0",
        "type": "t_mapping(t_uint256,t_mapping(t_address,t_uint256))"
      },
      {
        "astId": 230,
        "contract": "contracts/NFTicketsTic.sol:NFTicketsTic",
        "label": "_operatorApprovals",
        "offset": 0,
        "slot": "1",
        "type": "t_mapping(t_address,t_mapping(t_address,t_bool))"
      },
      {
        "astId": 232,
        "contract": "contracts/NFTicketsTic.sol:NFTicketsTic",
        "label": "_uri",
        "offset": 0,
        "slot": "2",
        "type": "t_string_storage"
      },
      {
        "astId": 1597,
        "contract": "contracts/NFTicketsTic.sol:NFTicketsTic",
        "label": "_baseURI",
        "offset": 0,
        "slot": "3",
        "type": "t_string_storage"
      },
      {
        "astId": 1601,
        "contract": "contracts/NFTicketsTic.sol:NFTicketsTic",
        "label": "_tokenURIs",
        "offset": 0,
        "slot": "4",
        "type": "t_mapping(t_uint256,t_string_storage)"
      },
      {
        "astId": 169,
        "contract": "contracts/NFTicketsTic.sol:NFTicketsTic",
        "label": "_status",
        "offset": 0,
        "slot": "5",
        "type": "t_uint256"
      },
      {
        "astId": 7518,
        "contract": "contracts/NFTicketsTic.sol:NFTicketsTic",
        "label": "_tokenIds",
        "offset": 0,
        "slot": "6",
        "type": "t_struct(Counter)3197_storage"
      },
      {
        "astId": 7537,
        "contract": "contracts/NFTicketsTic.sol:NFTicketsTic",
        "label": "_uris",
        "offset": 0,
        "slot": "7",
        "type": "t_mapping(t_uint256,t_string_storage)"
      },
      {
        "astId": 7541,
        "contract": "contracts/NFTicketsTic.sol:NFTicketsTic",
        "label": "_tokenCreator",
        "offset": 0,
        "slot": "8",
        "type": "t_mapping(t_uint256,t_address)"
      },
      {
        "astId": 7545,
        "contract": "contracts/NFTicketsTic.sol:NFTicketsTic",
        "label": "_price",
        "offset": 0,
        "slot": "9",
        "type": "t_mapping(t_uint256,t_uint256)"
      },
      {
        "astId": 7551,
        "contract": "contracts/NFTicketsTic.sol:NFTicketsTic",
        "label": "coordinates",
        "offset": 0,
        "slot": "10",
        "type": "t_mapping(t_uint256,t_array(t_int64)2_storage)"
      },
      {
        "astId": 7555,
        "contract": "contracts/NFTicketsTic.sol:NFTicketsTic",
        "label": "eventFinishTime",
        "offset": 0,
        "slot": "11",
        "type": "t_mapping(t_uint256,t_uint256)"
      }
    ],
    "types": {
      "t_address": {
        "encoding": "inplace",
        "label": "address",
        "numberOfBytes": "20"
      },
      "t_array(t_int64)2_storage": {
        "base": "t_int64",
        "encoding": "inplace",
        "label": "int64[2]",
        "numberOfBytes": "32"
      },
      "t_bool": {
        "encoding": "inplace",
        "label": "bool",
        "numberOfBytes": "1"
      },
      "t_int64": {
        "encoding": "inplace",
        "label": "int64",
        "numberOfBytes": "8"
      },
      "t_mapping(t_address,t_bool)": {
        "encoding": "mapping",
        "key": "t_address",
        "label": "mapping(address => bool)",
        "numberOfBytes": "32",
        "value": "t_bool"
      },
      "t_mapping(t_address,t_mapping(t_address,t_bool))": {
        "encoding": "mapping",
        "key": "t_address",
        "label": "mapping(address => mapping(address => bool))",
        "numberOfBytes": "32",
        "value": "t_mapping(t_address,t_bool)"
      },
      "t_mapping(t_address,t_uint256)": {
        "encoding": "mapping",
        "key": "t_address",
        "label": "mapping(address => uint256)",
        "numberOfBytes": "32",
        "value": "t_uint256"
      },
      "t_mapping(t_uint256,t_address)": {
        "encoding": "mapping",
        "key": "t_uint256",
        "label": "mapping(uint256 => address)",
        "numberOfBytes": "32",
        "value": "t_address"
      },
      "t_mapping(t_uint256,t_array(t_int64)2_storage)": {
        "encoding": "mapping",
        "key": "t_uint256",
        "label": "mapping(uint256 => int64[2])",
        "numberOfBytes": "32",
        "value": "t_array(t_int64)2_storage"
      },
      "t_mapping(t_uint256,t_mapping(t_address,t_uint256))": {
        "encoding": "mapping",
        "key": "t_uint256",
        "label": "mapping(uint256 => mapping(address => uint256))",
        "numberOfBytes": "32",
        "value": "t_mapping(t_address,t_uint256)"
      },
      "t_mapping(t_uint256,t_string_storage)": {
        "encoding": "mapping",
        "key": "t_uint256",
        "label": "mapping(uint256 => string)",
        "numberOfBytes": "32",
        "value": "t_string_storage"
      },
      "t_mapping(t_uint256,t_uint256)": {
        "encoding": "mapping",
        "key": "t_uint256",
        "label": "mapping(uint256 => uint256)",
        "numberOfBytes": "32",
        "value": "t_uint256"
      },
      "t_string_storage": {
        "encoding": "bytes",
        "label": "string",
        "numberOfBytes": "32"
      },
      "t_struct(Counter)3197_storage": {
        "encoding": "inplace",
        "label": "struct Counters.Counter",
        "members": [
          {
            "astId": 3196,
            "contract": "contracts/NFTicketsTic.sol:NFTicketsTic",
            "label": "_value",
            "offset": 0,
            "slot": "0",
            "type": "t_uint256"
          }
        ],
        "numberOfBytes": "32"
      },
      "t_uint256": {
        "encoding": "inplace",
        "label": "uint256",
        "numberOfBytes": "32"
      }
    }
  }
}